:1000000029C100000C940308D3C70000A6C7000054
:1000100079C700004CC700001FC70000F2C60000EF
:10002000C5C6000048C1000046C1000044C1000030
:1000300042C1000040C100003EC100003CC10000C0
:100040003AC100000C943C0836C1000034C10000E5
:1000500032C1000030C100002EC100005DC60000AA
:100060002AC1000072C5000047C5000024C100007D
:1000700022C1000020C100001EC100001CC1000000
:100080001AC1000018C1000016C1000014C1000010
:10009000FDC40000D2C400000EC100000CC100006D
:1000A0000AC1000008C1000006C1000004C1000030
:1000B00002C1000000C10000FEC00000FCC0000042
:1000C000FAC00000F8C00000F6C00000F4C0000054
:1000D000F2C00000F0C00000EEC00000ECC0000064
:1000E000EAC000004E414E494E495459494E46CD52
:1000F000CCCC3D0AD7233C17B7D13877CC2B3295DF
:1001000095E6241FB14F0A000020410000C84200BC
:10011000401C4620BCBE4CCA1B0E5AAEC59D747C0A
:100120003C3E5E2B3D3F2F5B5D3B2C2A225C00005A
:10013000002200250028002B002E00310034000290
:10014000010000050108010B01000020002300262A
:100150000029002C002F00320000010000030106DE
:1001600001090100000A0B02090C0D0E0807030427
:10017000010000000000000000000000000000007E
:10018000000000000000000000000000000000125D
:10019000111000000000000000000000000000003E
:1001A00000000000000000000000002100240027E3
:1001B000002A002D00300033000101000004010777
:1001C000010A0101021020200808102040102040E0
:1001D000800201020108040201010204081020400B
:1001E0008080402010080402018004020180402029
:1001F0001008040201080402010102040810204052
:100200008001020408102040800505050507050847
:10021000080808020202020A0A0808040404040189
:1002200001010101010101030303030303030304AB
:100230000707070C0C0C0C0C0C0C0C02020202063B
:10024000060606060606060B0B0B0B0B0B0B0B002C
:100250000C40004011241FBECFEFD1E2DEBFCDBF66
:1002600000E00CBF24E1A4E6B9E001C01D92AA3869
:10027000B207E1F719E0A0E0B2E0EAE6F2EB00E055
:100280000BBF02C007900D92A436B107D9F711E059
:10029000C9E2D1E000E006C021970109802FFE01EC
:1002A0000E94D356C832D10780E00807A9F70E9400
:1002B000CD4A0C942459A4CEAF92BF92CF92DF9234
:1002C000EF92FF920F931F93CF93DF936C017B010B
:1002D0008B01040F151FEB015E01AE18BF08C0179C
:1002E000D10759F06991D601ED91FC910190F0810F
:1002F000E02DC6011995892B79F7C501DF91CF91C2
:100300001F910F91FF90EF90DF90CF90BF90AF9033
:100310000895FC01538D448D252F30E0842F90E00B
:10032000821B930B541710F0CF96089501970895F0
:10033000FC01918D828D981761F0A28DAE0FBF2FB9
:10034000B11D5D968C91928D9F5F9F73928F90E00F
:1003500008958FEF9FEF0895FC01918D828D98177E
:1003600031F0828DE80FF11D858D90E008958FEFBB
:100370009FEF0895FC01918D228D892F90E0805C84
:100380009F4F821B91098F739927089589E99BE0FC
:10039000F1DF21E0892B09F420E0822F089586E324
:1003A0009CE0E8DF21E0892B09F420E0822F08950A
:1003B000FC01A48DA80FB92FB11DA35ABF4F2C91DA
:1003C000848D90E001968F739927848FA689B789D1
:1003D0002C93A089B1898C91837080648C93938DC8
:1003E000848D981306C00288F389E02D80818F7D6B
:1003F00080830895EF92FF920F931F93CF93DF9323
:10040000EC0181E0888F9B8D8C8D98131AC0E88950
:10041000F989808185FF15C09FB7F894EE89FF891F
:100420006083E889F98980818370806480839FBFBD
:1004300081E090E0DF91CF911F910F91FF90EF90BD
:100440000895F62E0B8D10E00F5F1F4F0F731127CD
:10045000E02E8C8D8E110BC00FB607FCFACFE88909
:10046000F989808185FFF5CFCE01A2DFF2CFEB8D38
:10047000EC0FFD2FF11DE35AFF4FF0829FB7F89468
:100480000B8FEA89FB8980818062D0CFCF93DF9385
:10049000EC01888D8823B1F0AA89BB89E889F989A4
:1004A0008C9185FD03C0808186FD0CC00FB607FCD2
:1004B000F7CF8C9185FFF2CF808185FFEDCFCE0104
:1004C00077DFEACFDF91CF91089580E090E0892B2C
:1004D00021F065DF81110E94000080E090E0892B0F
:1004E00021F054DF81110E94000080E090E0892B10
:1004F00049F080E090E0892B29F00E9400008111F2
:100500000E94000080E090E0892B49F080E090E0BC
:10051000892B29F00E94000081110C94000008959D
:100520008150823108F05AC0E82FF0E08827E45665
:10053000FD4F8F4F0C94D356BC02C002AE02B402E2
:10054000B802EE02C302C902CD02D302D702DB0217
:10055000E102E502EE02E902EF02F302809180007F
:100560008F77809380000895809180008F7DF9CFF0
:1005700080918000877FF5CF84B58F7784BD089503
:1005800084B58F7DFBCF8091B0008F778093B000D2
:1005900008958091B0008F7DF9CF809190008F7782
:1005A000809390000895809190008F7DF9CF809185
:1005B0009000877FF5CF8091A0008F778093A00077
:1005C00008958091A0008F7DF9CF8091A000877F52
:1005D000F5CF809120018F7780932001089580913D
:1005E00020018F7DF9CF80912001877FF5CFCF93B8
:1005F000DF93282F30E0F901ED59FE4F8491F90186
:10060000ED53FE4FD491F901E75FFD4FC491CC2328
:1006100099F0811185DFEC2FF0E0EE0FFF1FE75B13
:10062000FE4FA591B491EC91ED2381E090E009F4A7
:1006300080E0DF91CF91089580E090E0FACF3FB75E
:10064000F8948091890990918A09A0918B09B091C1
:100650008C0926B5A89B05C02F3F19F00196A11D56
:10066000B11D3FBFBA2FA92F982F8827BC01CD01FC
:10067000620F711D811D911D42E0660F771F881F5B
:10068000991F4A95D1F7089508950895DC01599668
:10069000ED91FC913097B9F083899489A589B68949
:1006A0004285538564857585841B950BA60BB70B16
:1006B000811520E89207A105B10538F08FEF9FE77B
:1006C000A0E0B0E0089590E080E00895CF93DF933C
:1006D0001F92CDB7DEB76983DC01ED91FC910280FA
:1006E000F381E02D41E050E0BE016F5F7F4F19952F
:1006F0000F90DF91CF91089590E080E008950F93DF
:100700001F93CF93DF93C7E0D0E00FE010E020E02D
:1007100030E040914F0368E572E080E090E00E9495
:10072000063C0FE010E020E030E040914F036CED1C
:1007300075E080E090E00E94063C0FE010E020E0D1
:1007400030E040914F0360E273E080E090E00E946F
:10075000063C0FE010E020E030E040914F0360EBFA
:1007600074E080E090E00E94063C219771F6DF91F2
:10077000CF911F910F9108950F931F9308EC10E0F4
:1007800020E030E040914F0360E273E080E090E0D1
:100790000E94063C1F910F91089581E08093780993
:1007A0000895EACFE9CFE8CFE7CFE6CFE5CFE4CFB2
:1007B00008950895CF93DF93FB0122813381DC01FB
:1007C00013963C932E9312974481558166817781CD
:1007D00014964D935D936D937C9317974085518547
:1007E0006285738518964D935D936D937C931B97EB
:1007F0001C96EF012C969C01275E3F4F49914D932B
:10080000A217B307D9F7218D328DFC01328F218FCA
:10081000DF91CF910895FF920F931F93CF93DF93B2
:10082000EC01F62E08811981C8010E948055F81646
:1008300021F06F2DC8010E948855CE01DF91CF9124
:100840001F910F91FF9008950F931F93CF93DF9304
:100850001F921F92CDB7DEB710E000E060E0C80144
:100860000E9488550F5F1F4F011580E11807B1F7EF
:100870008FEF93E09A83898362E5CE010196CBDF07
:100880007BDF0F900F90DF91CF911F910F91089513
:10089000EF92FF920F931F93CF93DF93CDB7DEB705
:1008A000A1970FB6F894DEBF0FBECDBF80914D0368
:1008B00090914E039A83898380914F0390915003C6
:1008C0009C838B838091210290912202A09123022C
:1008D000B09124028D839E83AF83B88780911D02DF
:1008E00090911E02A0911F02B091200289879A87E1
:1008F000AB87BC87809172098D87609100027091EF
:100900000102072E000C880B990B0E946A546E8717
:100910007F87888B998B80916E0990916F09A09148
:100920007009B09171098A8B9B8BAC8BBD8B8091C8
:10093000520390915303A0915403B09155038E8BB1
:100940009F8BA88FB98F80917309909174099B8FA9
:100950008A8F80914B0390914C039D8F8C8F809157
:100960006C0990916D099F8F8E8FCE0101967C014D
:1009700001E010E019A308A3F70161917F01CE0106
:10098000809649DF0F5F1F4F0032110599F786E10E
:10099000E82E82E0F82E08EC10E019A308A3F70176
:1009A00061917F01CE01809636DF0F5F1F4F0F3CB4
:1009B000110599F7A1960FB6F894DEBF0FBECDBF13
:1009C000DF91CF911F910F91FF90EF9008951092BA
:1009D0006D0910926C095CDFCFCEFC011182108290
:1009E00013821282158214820C94E63FFC0111825C
:1009F00010821382128215821482FB010190002062
:100A0000E9F73197AF01461B570B0C94933FFB015D
:100A100001900020E9F73197AF01461B570BDC012D
:100A2000ED91FC910280F381E02D1994611571051F
:100A300009F0EDCF90E080E008951F920F920FB67D
:100A40000F9211240BB60F922F933F934F935F9306
:100A50006F937F938F939F93AF93BF93EF93FF9386
:100A600089E99BE0A5DCFF91EF91BF91AF919F9148
:100A70008F917F916F915F914F913F912F910F9047
:100A80000BBE0F900FBE0F901F9018951F920F92E4
:100A90000FB60F9211240BB60F922F938F939F9343
:100AA000EF93FF93E091A90BF091AA0B8081E09165
:100AB000AF0BF091B00B82FD1DC090818091B20B05
:100AC0008F5F8F732091B30B821741F0E091B20BCF
:100AD000F0E0E756F44F958F8093B20BFF91EF91C2
:100AE0009F918F912F910F900BBE0F900FBE0F9083
:100AF0001F9018958081F2CF1F920F920FB60F9220
:100B000011240BB60F922F933F934F935F936F93E4
:100B10007F938F939F93AF93BF93EF93FF9386E35E
:100B20009CE046DCFF91EF91BF91AF919F918F9137
:100B30007F916F915F914F913F912F910F900BBEDD
:100B40000F900FBE0F901F9018951F920F920FB627
:100B50000F9211240BB60F922F938F939F93EF93C5
:100B6000FF93E091460CF091470C8081E0914C0C92
:100B7000F0914D0C82FD1DC0908180914F0C8F5FD4
:100B80008F732091500C821741F0E0914F0CF0E0F0
:100B9000EA5CF34F958F80934F0CFF91EF919F91FB
:100BA0008F912F910F900BBE0F900FBE0F901F9043
:100BB00018958081F2CF1F93CF93DF93282F30E0D9
:100BC000F901ED59FE4F8491F901ED53FE4FD49197
:100BD000F901E75FFD4FC491CC23A1F0162F8111DD
:100BE0009FDCEC2FF0E0EE0FFF1FE15DFE4FA591C3
:100BF000B4918FB7F894EC91111108C0D095DE2311
:100C0000DC938FBFDF91CF911F910895DE2BF8CF3A
:100C1000CF93DF9390E0FC01ED53FE4F2491875F6B
:100C20009D4FFC0184918823D1F090E0880F991F9B
:100C3000FC01E755FE4FA591B491FC01E15DFE4F2B
:100C4000C591D491623071F49FB7F8943C91822F92
:100C5000809583238C93E8812E2B28839FBFDF917F
:100C6000CF9108958FB7F894EC912E2B2C938FBFD2
:100C7000F6CF8F929F92AF92BF92CF92DF92EF9278
:100C8000FF926B017C01DBDC4B015C01C114D104E0
:100C9000E104F104B1F0D3DC681979098A099B09F0
:100CA000683E73408105910588F321E0C21AD1089E
:100CB000E108F10888EE880E83E0981EA11CB11CA3
:100CC000E5CFFF90EF90DF90CF90BF90AF909F90D7
:100CD0008F9008950F931F9308EC10E020E030E010
:100CE00040914F0360E971E080E090E00E94063C93
:100CF00062E370E080E090E0BCDF1F910F913CCD9B
:100D00002FB7F894609185097091860980918709C1
:100D1000909188092FBF08951F920F920FB60F92DE
:100D200011242F933F938F939F93AF93BF93809101
:100D3000850990918609A0918709B0918809309121
:100D4000840923E0230F2D3758F50196A11DB11D0D
:100D5000209384098093850990938609A09387093D
:100D6000B09388098091890990918A09A0918B0993
:100D7000B0918C090196A11DB11D809389099093B2
:100D80008A09A0938B09B0938C09BF91AF919F9171
:100D90008F913F912F910F900FBE0F901F9018953C
:100DA00026E8230F0296A11DB11DD2CF1F920F92EC
:100DB0000FB60F9211240BB60F922F933F934F93C0
:100DC0005F936F937F938F939F93AF93BF93EF93B3
:100DD000FF93E0911402F09115021995FF91EF91A4
:100DE000BF91AF919F918F917F916F915F914F9143
:100DF0003F912F910F900BBE0F900FBE0F901F9041
:100E000018951F920F920FB60F9211240BB60F92E6
:100E10002F933F934F935F936F937F938F939F9302
:100E2000AF93BF93EF93FF93E0911202F0911302FF
:100E30001995FF91EF91BF91AF919F918F917F9104
:100E40006F915F914F913F912F910F900BBE0F903B
:100E50000FBE0F901F9018951F920F920FB60F9212
:100E600011240BB60F922F933F934F935F936F9381
:100E70007F938F939F93AF93BF93EF93FF93E091F3
:100E80000802F09109021995FF91EF91BF91AF917E
:100E90009F918F917F916F915F914F913F912F9192
:100EA0000F900BBE0F900FBE0F901F9018951F92C2
:100EB0000F920FB60F9211240BB60F922F933F9300
:100EC0004F935F936F937F938F939F93AF93BF9352
:100ED000EF93FF93E0910602F09107021995FF91BD
:100EE000EF91BF91AF919F918F917F916F915F91A2
:100EF0004F913F912F910F900BBE0F900FBE0F900F
:100F00001F9018951F920F920FB60F9211240BB6D7
:100F10000F922F933F934F935F936F937F938F9392
:100F20009F93AF93BF93EF93FF93E0911002F091E3
:100F300011021995FF91EF91BF91AF919F918F9100
:100F40007F916F915F914F913F912F910F900BBEC9
:100F50000F900FBE0F901F9018951F920F920FB613
:100F60000F9211240BB60F922F933F934F935F93E1
:100F70006F937F938F939F93AF93BF93EF93FF9361
:100F8000E0910E02F0910F021995FF91EF91BF9140
:100F9000AF919F918F917F916F915F914F913F9111
:100FA0002F910F900BBE0F900FBE0F901F901895B2
:100FB0001F920F920FB60F9211240BB60F922F9320
:100FC0003F934F935F936F937F938F939F93AF93D1
:100FD000BF93EF93FF93E0910C02F0910D021995EE
:100FE000FF91EF91BF91AF919F918F917F916F9101
:100FF0005F914F913F912F910F900BBE0F900FBEBD
:101000000F901F9018951F920F920FB60F921124F8
:101010000BB60F922F933F934F935F936F937F93F2
:101020008F939F93AF93BF93EF93FF93E0910A0247
:10103000F0910B021995FF91EF91BF91AF919F91A4
:101040008F917F916F915F914F913F912F910F9071
:101050000BBE0F900FBE0F901F901895EFE6F0E0BB
:1010600080818D7F808382E08093810081E0809306
:1010700080002D982E9808951F920F920FB60F9210
:1010800011240BB60F922F933F934F935F936F935F
:101090007F938F939F93AF93BF93EF93FF9330DE34
:1010A000DDDFFF91EF91BF91AF919F918F917F9184
:1010B0006F915F914F913F912F910F900BBE0F90C9
:1010C0000FBE0F901F901895C9DF8091980981116C
:1010D00012C060E086E06FDD60914B0370914C03BD
:1010E000072E000C880B990BC4DD60E085E063DD02
:1010F00060E08DE060DD10927C090895E5DF1092DC
:1011000076091092750938CBDFDF80915103811188
:1011100004C081E0809351032FCB10925103FCCF88
:1011200082E065DA892B19F40E94D63CF9CF84E07D
:101130005EDA892BC9F3C8CF8F929F92AF92BF928C
:10114000CF92DF92EF92FF92CF930E94D63CF09025
:10115000720920E030E040E450E4FF2009F45FC071
:1011600060916709709168098091690990916A0995
:101170000E94B055209191093091920940919309B4
:10118000509194090E94C9540E94815672DD809149
:10119000730990917409009709F04AC083E027DA37
:1011A000C1E0892B09F0C0E08FDFFF2009F445C0C2
:1011B000C0909109D0909209E0909309F090940921
:1011C000A7019601C701B6010E94B0554B015C0111
:1011D00020E030E040E85FE36091670970916809C2
:1011E0008091690990916A090E94B055A701960102
:1011F0000E94C9549B01AC01C501B4010E94AF55C6
:101200000E94815636DDCC2309F1CF91FF90EF90FB
:10121000DF90CF90BF90AF909F908F9021C0609152
:101220009109709192098091930990919409AACFA4
:10123000019709F0B8CF84E0B2CF60919109709125
:1012400092098091930990919409DACFCF91FF9000
:10125000EF90DF90CF90BF90AF909F908F900895C8
:101260004F925F926F927F928F929F92AF92BF92B6
:10127000CF92DF92EF92FF920E94D63CF0907209DB
:10128000FF2009F457C020E030E040E85FE36091C0
:101290006709709168098091690990916A090E94B3
:1012A000B0554B015C012091910930919209409118
:1012B0009309509194090E94C9540E948156D9DC27
:1012C00003DFFF2009F43FC0C0909109D09092093C
:1012D000E0909309F0909409A7019601C701B60127
:1012E0000E94B0552B013C01A5019401C701B60134
:1012F0000E94C9549B01AC01C301B2010E94AF55C9
:101300000E948156B6DC8091730990917409009710
:1013100019F584E06CD9892B19F5FF90EF90DF90D7
:10132000CF90BF90AF909F908F907F906F905F9085
:101330004F9002CF60919109709192098091930929
:1013400090919409BACF609191097091920980911E
:10135000930990919409D4CF019711F483E0DACFE7
:10136000FF90EF90DF90CF90BF90AF909F908F90C5
:101370007F906F905F904F9008958FB7F894809111
:101380007E098FBF089561E0FC01848114DC8091A7
:101390007D09811110927D0908958EBD00000DB464
:1013A00007FEFDCF8EB508958FEFF7CF8CBD9DBDA5
:1013B0000895CF93DF93EC0180917D09811108C0DE
:1013C00081E080937D098091D30C9091D40CEEDF65
:1013D00060E08C81DF91CF91EECB8F929F92AF92A4
:1013E000BF92FF920F931F93CF93DF93EC01F62EE2
:1013F00049015A018E81882379F08F8198859C015B
:101400002F5F3F4F38872F838230924010F4CCDF1C
:10141000F4CFCE01B8DF1E82CE01CBDF8CE291E0AB
:101420000E948D398F2D8064B8DF08E110E0D5016E
:10143000C401002E04C0B695A795979587950A9488
:10144000D2F7ABDF08501109083F8FEF180779F783
:1014500085E9FF2021F028E087E8F2128FEF9DDF79
:1014600010E0A2DF8A8787FF04C01F3F11F01F5FD3
:10147000F8CFDF91CF911F910F91FF90BF90AF9068
:101480009F908F900895AF92BF92CF92DF92EF928C
:10149000FF920F931F93CF93DF93EC016901C80173
:1014A000820F931F8130924048F58E81882379F016
:1014B00088819981AA81BB8184179507A607B70700
:1014C00031F48F819885C816D90608F03CC048834E
:1014D00059836A837B838B85833039F089E0440F9D
:1014E000551F661F771F8A95D1F79A01AB0161E1FD
:1014F000CE0173DF882381F083E08D83CE0143DF4B
:1015000080E0DF91CF911F910F91FF90EF90DF90DE
:10151000CF90BF90AF900895F3DB5B0145DF8A87E2
:101520008F3F59F4EDDB6A197B096D327140B0F3DE
:101530008FE08D83CE0127DFE1CF8E3F81F41886C7
:101540001F8281E08E838F8198858C159D0548F4DC
:101550002BDF8F819885019698878F83F4CF8DE05C
:10156000E8CF6701E00EF11E1FDFF60181936F01E6
:10157000EE15FF05C9F78F819885080F191F188789
:101580000F838985882319F00115124090F08E8110
:10159000882379F08F8198859C012F5F3F4F388792
:1015A0002F838230924010F4FFDEF4CFCE01EBDEC9
:1015B0001E8281E0A6CFEF92FF920F931F93CF93ED
:1015C000DF93EC01790182E1411551056105710557
:1015D00091F08B85833039F089E0440F551F661FE9
:1015E000771F8A95D1F79A01AB0168E1CE01F5DE4C
:1015F000882319F084E08D8329C08EEFCEDE870129
:101600008EEFF81AF80181918F01C7DE0E151F05C4
:10161000C9F78FEFC2DE8FEFC0DEC6DE8A878F711B
:10162000853081F488E592E00E948D39882391F01D
:1016300020E030E0A9016DE0CE01CFDE882361F02B
:1016400084E1D9CF81E18D83CE019DDECE019BDE89
:1016500080E008C085E1CFCFA7DE8111F1CFCE01B8
:1016600092DE81E0DF91CF911F910F91FF90EF907B
:10167000089580917F09882399F140910202509149
:101680000302609104027091050229E939E080911A
:101690009609909197098FDF811102C080E008952B
:1016A000409180095091810960918209709183096C
:1016B000411551056105710589F029E939E08091ED
:1016C00096099091970977DF882341F3109280095A
:1016D00010928109109282091092830910927F0959
:1016E00081E008958F929F92AF92BF92EF92FF9206
:1016F0000F931F93CF934B015C01C42F8091020283
:1017000090910302A0910402B091050288159905F9
:10171000AA05BB0539F1ADDF81110BC080E0CF9187
:101720001F910F91FF90EF90BF90AF909F908F907F
:10173000089589E9E82E89E0F82E00E012E030E013
:1017400020E0B501A40180919609909197099BDE54
:10175000882321F38092020290920302A092040255
:10176000B092050240917F094C2B40937F0981E0A4
:10177000D6CF4F925F926F927F928F929F92AF924D
:10178000BF92CF92DF92EF92FF920F931F93CF936E
:10179000DF93EC01423051056105710590F480E062
:1017A000DF91CF911F910F91FF90EF90DF90CF903D
:1017B000BF90AF909F908F907F906F905F904F9071
:1017C000089589859A85AB85BC850196A11DB11DBB
:1017D00084179507A607B70710F3CB88DC88ED8838
:1017E000FE888F89803109F042C0BB27A72F962F32
:1017F000852F480159012A013B01C80ED91EEA1E56
:10180000FB1E8091020290910302A0910402B0910C
:101810000502C816D906EA06FB0699F58F898031BC
:10182000B9F5B301A201552766277727440F551F45
:101830004756564FFA019182808280917F098160DC
:1018400080937F098A89823080F08D819E81AF816B
:10185000B8858C0D9D1DAE1DBF1D80938009909392
:101860008109A0938209B093830981E099CFDB01BC
:10187000CA01E7E0B695A79597958795EA95D1F7C0
:10188000B8CF40E0C701B6012DDF8111C7CF87CFA8
:10189000B301A2014F77552766277727440F551FBD
:1018A000440F551F4756564FFA0180829182A282FB
:1018B000B382C3CF8F929F92AF92BF92CF92DF92AB
:1018C000EF92FF920F931F93CF93DF93FC018185DB
:1018D0009285A385B4850196A11DB11D8417950736
:1018E000A607B70770F480E0DF91CF911F910F91A9
:1018F000FF90EF90DF90CF90BF90AF909F908F9030
:10190000089583889488A588B6888789803189F569
:10191000BB27A72F962F852FE9016A017B018F0135
:10192000BC01CD01680D791D8A1D9B1D80900202AE
:1019300090900302A0900402B090050286169706CC
:10194000A806B90601F5F8018789803109F5DD247B
:10195000EE24FF24F601EE0FFF1FE756F64F8081BD
:101960009181B0E0A0E088839983AA83BB8381E062
:10197000BBCFDB01CA01C7E0B695A79597958795C0
:10198000CA95D1F7C9CF40E0ADDE8111DCCFABCF36
:10199000E894C7F8DD24EE24FF24F601EE0FFF1FC4
:1019A000EE0FFF1FE756F64F80819181A281B38130
:1019B000BF70D9CF4F925F926F927F92AF92BF92DA
:1019C000CF92DF92EF92FF920F931F93CF93DF930B
:1019D00000D01F92CDB7DEB78C0149835A836B8349
:1019E0007C835901C12CD12C7601412C82E0582EE8
:1019F000612C712C49815A816B817C819E012F5F02
:101A00003F4FC80157DF882339F1F8018585A301CD
:101A1000920104C0220F331F441F551F8A95D2F72D
:101A2000DA01C901C80ED91EEA1EFB1E49815A817E
:101A30006B817C818789803111F188EF9FEFAFEF57
:101A4000BFE0481759076A077B07A0F2F501C0827B
:101A5000D182E282F38281E00F900F900F900F907D
:101A6000DF91CF911F910F91FF90EF90DF90CF907A
:101A7000BF90AF907F906F905F904F90089588EFE8
:101A80009FEFA0E0B0E0DDCFCF92DF92EF92FF9228
:101A90001F93CF93DF93EC0180E2689FF001112444
:101AA000E756F64F9385917161F0842F827449F067
:101AB00080E0DF91CF911F91FF90EF90DF90CF906A
:101AC0000895142F6A8B8091020290910302A091D5
:101AD0000402B09105028E879F87A88BB98BC488BA
:101AE000D588F12CE12C7601DD24CC24CF8AD88E48
:101AF000E98EFA8E828D938DB0E0A0E0AC01BD013D
:101B00004C295D296E297F294F8B588F698F7A8FD9
:101B100083858871B1F4848D958DA68DB78D8B8B5F
:101B20009C8BAD8BBE8B81E08D831F701C831E82CE
:101B30001F82188619861A861B861C861D8681E0E0
:101B4000B8CF803109F0B4CF9E012D5E3F4F8B8D11
:101B50009C8D30DF882309F4ABCF84E0E5CF8F92F2
:101B60009F92AF92BF92CF92DF92EF92FF920F932C
:101B70001F93CF93DF93EC018D8181110EC080E024
:101B8000DF91CF911F910F91FF90EF90DF90CF9059
:101B9000BF90AF909F908F9008950B891C892D89DD
:101BA0003E89041715072607370748F34A015B01EA
:101BB000823031F48A869B86AC86BD8681E0E0CF98
:101BC00081149104A104B10449F41E821F82188675
:101BD00019861A861B861C861D86F0CF0A851B85F2
:101BE0002C853D85EB8DFC8D858590E00996B901AE
:101BF000A8014150510961097109082E04C0769568
:101C00006795579547950A94D2F775016401E1E00D
:101C1000CE1AD108E108F10804C0F694E794D794ED
:101C2000C7948A95D2F7C416D506E606F70620F0C3
:101C3000012B022B032B09F58F89988DA98DBA8D65
:101C40008E839F83A887B9878E010A5F1F4FC114B7
:101C5000D104E104F10409F4ADCF4E815F816885C0
:101C6000798598018B8D9C8D25DE91E0C91AD1086C
:101C7000E108F1088111EBCF82CFC41AD50AE60A38
:101C8000F70AE2CF3F924F925F926F927F928F92CC
:101C90009F92AF92BF92CF92DF92EF92FF920F93FB
:101CA0001F93CF93DF93CDB7DEB72C970FB6F89481
:101CB000DEBF0FBECDBF5C01DC015B968D909C90BA
:101CC0005C9716964D905D906D907C90199741149D
:101CD00051046104710409F467C0BFEF4B1A5B0A39
:101CE0006B0A7B0A312CF40181859285A385B4852A
:101CF0009C01AD012F5F3F4F4F4F5F4F29873A87C0
:101D00004B875C87730162011D821E821F821886C9
:101D1000F40181859285A385B4852D813E814F8113
:101D20005885281739074A075B0708F054C089858A
:101D30009A85AB85BC858C159D05AE05BF0550F415
:101D400082E0C82ED12CE12CF12C92E0492E512CAE
:101D5000612C712C9E012F5F3F4FB701A601C4017A
:101D6000A9DD8823C1F189819A81AB81BC81892B4E
:101D70008A2B8B2B09F1260137019FEF491A590A4B
:101D8000690A790A2D813E814F8158852F5F3F4F27
:101D90004F4F5F4F2D833E834F8358873FEFC31ACA
:101DA000D30AE30AF30AB4CFF40140805180628081
:101DB00073803324339497CFC414D504E604F70416
:101DC00009F70FEF1FEF2FEF3FE0B701A601C401A6
:101DD000D0DC811119C080E02C960FB6F894DEBFDC
:101DE0000FBECDBFDF91CF911F910F91FF90EF906C
:101DF000DF90CF90BF90AF909F908F907F906F902B
:101E00005F904F903F900895F5014681578160851E
:101E10007185411551056105710531F09701860104
:101E2000C401A7DC8823B9F2D5011696CD92DD92C4
:101E3000ED92FC921997332051F0D701C60101961B
:101E4000A11DB11DF40180839183A283B383F501A9
:101E50008789908DA18DB28D892B8A2B8B2B39F49C
:101E6000C78AD08EE18EF28E84818068848381E07F
:101E7000B3CF2F923F924F925F926F927F928F9249
:101E80009F92AF92BF92CF92DF92EF92FF920F9309
:101E90001F93CF93DF9300D0CDB7DEB7FC018581D0
:101EA000811118C08FEF9FEF0F900F900F90DF916F
:101EB000CF911F910F91FF90EF90DF90CF90BF9047
:101EC000AF909F908F907F906F905F904F903F90DA
:101ED0002F900895848180FFE5CF438954896589D7
:101EE000768982859385A485B585312C212C481768
:101EF00059076A077B0719F022242394312C6F01BC
:101F00002101CE0101963C01DF011696BB83AA8315
:101F10004114510409F4C2C0F60142855385648519
:101F200075854A01F1E09F22D6015B968D919C91C7
:101F30005C978A019B01E9E03695279517950795EF
:101F4000EA95D1F71596EC91E230E1F5FC01628D4E
:101F5000738D848D958D600F711F821F931FA12C2F
:101F600022E0B22EA818B9084A145B0408F4520102
:101F7000F601248126FD04C0A114F2E0BF0671F42D
:101F80000091020210910302209104023091050297
:101F9000061717072807390709F05CC040E0A2DBE5
:101FA000882309F47FCFC4018756964FD3019C0143
:101FB0002A0D3B1DFC012E173F0709F46AC0419111
:101FC0004D93F9CFDC011496BC90BA94B0228114E1
:101FD000910479F4B1100DC0452B462B472B69F5C0
:101FE000F6018789908DA18DB28D86839783A08716
:101FF000B187D6015B96ED91FC915C9716966D9139
:102000007D918D919C911997625071098109910977
:10201000258504C0660F771F881F991F2A95D2F760
:102020000685178520893189600F711F821F931FD4
:102030006B0D711D811D911D92CFD60116964D918C
:102040005D916D917C9119972A813B8133DC8111DF
:10205000D0CF28CF730185019401AB01BC018091E1
:102060009609909197090FDA882309F41BCF6A0C1F
:102070007B1CF60182859385A485B5858A0D9B1D01
:10208000A11DB11D82879387A487B5874A185B0875
:102090003FCF281B390B620E731EEBCF2A942328E7
:1020A00009F000CF898190E0FFCEFC01818D928DF7
:1020B000009709F0DECE8FEF9FEF08950F931F93E7
:1020C000CF93DF93EC01898D9A8D10E000E00097AB
:1020D00089F0CFDE8C010F3F100761F0898D9A8D5A
:1020E000FC0142855385648575854150510961091C
:1020F000710935DDC801DF91CF911F910F910895CE
:10210000CF93DF93EC018D81882321F18C8187FFB0
:102110001EC0CE010E94A839FC01892BD9F08D8107
:10212000823040F48B899C89AD89BE89848F958FDC
:10213000A68FB78F8F89988D938F828F8F89988D77
:10214000A98DBA8DB58BA48B8C818F778C83DF9111
:10215000CF918FCA80E0DF91CF910895CF93DF9325
:10216000EC01CEDF882311F01D8281E0DF91CF9159
:102170000895FC01818D928D009709F0C1CF0895DB
:102180003F924F925F926F927F928F929F92AF9207
:10219000BF92CF92DF92EF92FF920F931F93CF9354
:1021A000DF9300D000D000D01F921F92CDB7DEB7D2
:1021B0007C01DC0115968C91811115C0FE013196D0
:1021C000CE010C966F0130E23193E817F907E1F781
:1021D000DA0130E087E09D91B92E992329F19E32F2
:1021E00039F48A3011F480E0D6C038E08AE0F3CFC9
:1021F000EFE1F1E04491442321F031969413FACFBA
:10220000F2CF831780F34FED490F4E3560F74FE95A
:10221000490F4A3118F440EEB42EB90EF601E30F1F
:10222000F11DB0823F5FD7CF89818032E1F2322E3B
:102230008B01FB01838D948DD7015C969C938E93CB
:102240005B97168217821086118612861386148673
:102250001586F80182859385A485B58543895489BF
:102260006589768984179507A607B70708F04CC0DB
:1022700025E0B695A795979587952A95D1F7F82FDC
:10228000FF70AF2ED80115968C91823008F4ABCF39
:10229000C801EFDD97FDA7CFF80182859385A4855E
:1022A000B5854F96A11DB11D82879387A487B587F9
:1022B000F0E2AF9EB00111246756764F61157105AB
:1022C00009F491CFDB018C91882341F0853E09F020
:1022D00056C0BB2029F0BB24B394BBCFB1100EC0B5
:1022E000F701A28A8091020290910302A091040258
:1022F000B091050286879787A08BB18BDB018C910B
:102300008111E9CFBB24B394832D8271823109F00E
:102310006ACFBB2009F457C0C7010E94A8390097B3
:1023200009F461CF20E2FC0111922A95E9F72BE034
:10233000F601DC0101900D922A95E1F721E238E2E5
:10234000DC0151963C932E93509740E058E01F9645
:102350005C934E931E9753963C932E9352975996A7
:102360003C932E93589757965C934E93569781D9EA
:10237000882309F438CF432DF70162890AC04BE066
:1023800050E0C6010E94E458892B09F062CF432D2A
:102390006A2DC70179DB2B960FB6F894DEBF0FBE0E
:1023A000CDBFDF91CF911F910F91FF90EF90DF9004
:1023B000CF90BF90AF909F908F907F906F905F90E5
:1023C0004F903F900895F8018581823009F40BCF3A
:1023D000C80158DC882309F406CFD8015B96ED913B
:1023E000FC915C9716968D909D90AD90BC9019973E
:1023F000B2E08B1A9108A108B108858504C0880C49
:10240000991CAA1CBB1C8A95D2F786859785A08942
:10241000B189880E991EAA1EBB1E84812401350134
:10242000480E511C611C711C84149504A604B70449
:10243000F9F0E1E04E1A5108610871081AD98823B1
:1024400009F4D1CEE9E9F9E0119289E99BE08E1710
:102450009F07D1F740920202509203026092040259
:102460007092050280917F09816080937F09DCCFA3
:10247000D8015B96ED91FC91258580E092E0A0E08B
:10248000B0E004C0880F991FAA1FBB1F2A95D2F77E
:10249000F8014389548965897689840F951FA61FA1
:1024A000B71F838B948BA58BB68BD70152961C924A
:1024B00089E999E037CF1F93CF93DF93CDB7DEB78C
:1024C0006D970FB6F894DEBF0FBECDBFAB011C8277
:1024D0001B8221E833E03A8329831E8221E0BC017C
:1024E000CE0101964DDE11E081110CC010E0812F6C
:1024F0006D960FB6F894DEBF0FBECDBFDF91CF91C2
:102500001F910895CE01019629DEF1CFCF93DF937D
:10251000CDB7DEB76D970FB6F894DEBF0FBECDBF57
:10252000442381F1AB01BC011C821B8281E893E052
:102530009A8389831E8222E0CE01019621DE8111D9
:102540000EC090E081E0911101C080E06D960FB661
:10255000F894DEBF0FBECDBFDF91CF910895CE01BD
:1025600001960E94C139882361F3CE0101960E9431
:10257000A839009731F325EEFC0120831E8279D81B
:10258000982FE0CF81E0E2CF2F923F924F925F925F
:102590006F927F928F929F92AF92BF92CF92DF9273
:1025A000EF92FF920F931F93CF93DF9300D01F9270
:1025B000CDB7DEB78C015B011A01DC0115968C9159
:1025C0001597813009F0C6C014968C9181FFC2C066
:1025D00082FDADC06101D8011A964D915D916D915A
:1025E0007C911D97C114D10409F426C15B968D918D
:1025F0009C915C97FC0174802FEF270D2A013B0111
:1026000039E076946794579447943A95D1F7722EAF
:1026100074207A01F1E0FF2271101FC0E114F1046F
:10262000E1F416964D915D916D917C91199741154C
:1026300051056105710509F096C057968D919D91E0
:102640000D90BC91A02D0097A105B10509F0ACC07B
:10265000C80118DB882309F47DC080E092E08E1960
:102660009F0946018C159D0508F44C01D8015B9625
:102670004D915C915C9716968D919D910D90BC91BA
:10268000A02D0297A109B109FA01258504C0880F80
:10269000991FAA1FBB1F2A95D2F7468557856089C7
:1026A0007189840F951FA61FB71F9C01AD01270DCF
:1026B000311D411D511D29013A01811432E093065B
:1026C00009F078C08091020290910302A091040267
:1026D000B091050284159505A605B70559F48FEF4D
:1026E0009FEFDC018093020290930302A093040207
:1026F000B09305029501B301A201809196099091D2
:1027000097090E94DB0A882329F19EEFB91AC8189D
:10271000D908F80182859385A485B585880D991D12
:10272000A11DB11D82879387A487B58754CFF80177
:10273000438954896589768982859385A485B58581
:10274000481759076A077B0709F444CFC80107DA1D
:10275000811140CF81E090E0D80113969C938E9335
:10276000129780E006C09E012F5F3F4FA3D88111D2
:1027700002C090E077C089819A81AB81BC81F80169
:10278000238D348DF901278948EF5FEF60E070E019
:10279000203121F048EF5FEF6FEF7FE0841795075E
:1027A000A607B70708F054CFF80186839783A08760
:1027B000B18753CFE114F10491F5D8011A964D91E8
:1027C0005D916D917C911D9753968D919D910D908A
:1027D000BC91A02D481759076A077B0700F10E949A
:1027E000390B882309F4B6CF4092020250920302BB
:1027F000609204027092050280917F09816080934B
:102800007F0997012756364FD501C901880D991DBB
:10281000F9018E179F0759F04D914193FACF41E08E
:10282000C301B2010E94720B8111EBCF93CF821BC7
:10283000930BA80EB91E6BCFF80183899489A589E3
:10284000B68984179507A607B70738F48481438BA8
:10285000548B658B768B80688483F801848183FD3B
:1028600018C0C1010F900F900F900F90DF91CF9182
:102870001F910F91FF90EF90DF90CF90BF90AF909E
:102880009F908F907F906F905F904F903F902F9090
:102890000895C80135DC882309F45CCFE2CFCF93DB
:1028A000DF931F92CDB7DEB7698341E050E0BE01F0
:1028B0006F5F7F4F69DE0F90DF91CF910895CF93C7
:1028C000DF93EC01E98DFA8D309749F481E090E0D7
:1028D0009B838A8390E080E0DF91CF9108951382FB
:1028E0001282898D9A8D50DEE98DFA8D2281338195
:1028F000232B61F7F1CFFC01DB0112968D919C91A6
:1029000013979383828381E893E091838083149665
:102910008C911497848315968C91159785831696C0
:102920004D915D916D917C91199746835783608796
:1029300071871A964D915D916D917C911D9742879B
:102940005387648775871E964D915D916D917C913B
:10295000519746875787608B718B52968C9152970F
:10296000828B53964D915D916D917C915697438BDF
:10297000548B658B768B57964D915D916D917C91C3
:102980005A97478B508F618F728F5B968D919C9178
:10299000948F838F0895EF92FF920F931F93CF939D
:1029A000DF93EC017B018A011B821A8288EE93E09F
:1029B000A0E0B0E08C839D83AE83BF838DE893E07D
:1029C000998388838DE190E00E94DB569A8F898FEE
:1029D000009779F02DE1F701DC0101900D922A9525
:1029E000E1F74CE050E0B801CE010C960E94155979
:1029F000188EDF91CF911F910F91FF90EF90089566
:102A0000CF93DF93EC0189E99BE00E94BA01892B07
:102A100029F089E99BE00E949801F5CFBE0189E980
:102A20009BE00E9416056FEF89E99BE00E94FA0186
:102A30006FEF89E99BE00E94FA016FEF89E99BE063
:102A4000DF91CF910C94FA0183B78E7F83BFEC980E
:102A5000E6E0F2E084E493E091838083ED98938351
:102A600082838BE993E0CCDF82EA93E0C9DF89E9D6
:102A70009BE00C9446028F929F92AF92BF92CF92AE
:102A8000DF92EF92FF924B015C010E9480066B0186
:102A90007C010E9480066C197D098E099F096815CA
:102AA00079058A059B0518F40E94093DF2CFFF9035
:102AB000EF90DF90CF90BF90AF909F908F90089550
:102AC00064E670E080E090E0D6DF8AEA93E098DF89
:102AD00081EB93E095DF89E99BE00E94460283B792
:102AE000816083BFA6E0B2E024E235E111963C9319
:102AF0002E93EAE6F0E080818C7F8083EC9A139637
:102B00003C932E9312978081837F8083ED9A83B7C5
:102B1000817F846083BF61EB73E089E99BE00E9461
:102B200016058895089585E392E1CACFEF92FF924A
:102B30000F931F93CF93DF93CDB7DEB76F970FB689
:102B4000F894DEBF0FBECDBF8FEF93E00E9480559B
:102B5000843559F00E9448048FEF93E09A8389836B
:102B600064E5CE0101960E940B048E010F5F1F4F9A
:102B7000EE24E394F12CC7010E948055F801819363
:102B80008F01FFEFEF1AFF0A80E2E816F10499F7D0
:102B900089819A8190934E0380934D038B819C8110
:102BA0009093500380934F038D819E81AF81B885B0
:102BB0008093210290932202A0932302B0932402D7
:102BC00089859A85AB85BC8580931D0290931E02F2
:102BD000A0931F02B09320028D85809372096E85A9
:102BE0007F85888999890E947C5670930102609341
:102BF00000028A899B89AC89BD8980936E09909374
:102C00006F09A0937009B09371098E899F89A88D6F
:102C1000B98D8093520390935303A0935403B093C0
:102C200055038A8D9B8D90937409809373098C8DC5
:102C30009D8D90934C0380934B038E8D9F8D90932D
:102C40006D0980936C0986E1E82E82E0F82E08EC8D
:102C500010E0C8010E948055F70181937F010F5F4A
:102C60001F4F0F3C1105A9F76F960FB6F894DEBF02
:102C70000FBECDBFDF91CF911F910F91FF90EF90CD
:102C80000895EF92FF920F931F93CF93DF9300D09D
:102C900000D0CDB7DEB77C018B0166EF73E0CE01CB
:102CA00001960E94F604F70162817381CE010196BC
:102CB0000E94113F69EB73E0CE0101960E94113F23
:102CC000B801CE0101960E94113F6EEB73E0CE0178
:102CD00001960E94113F89819A8192DE0E945639A5
:102CE000182FCE0101960E94FB3F812F26960FB62A
:102CF000F894DEBF0FBECDBFDF91CF911F910F9132
:102D0000FF90EF900895CF93DF93CDB7DEB7C45611
:102D1000D1090FB6F894DEBF0FBECDBF44E650E038
:102D2000BE016F5F7F4F0E94BC3DBE016F5F7F4F52
:102D300085E392E1A6DFBE016F5F7F4F81E192E103
:102D4000A0DFCC59DF4F0FB6F894DEBF0FBECDBF6A
:102D5000DF91CF910895CF93DF93CDB7DEB76E9714
:102D60000FB6F894DEBF0FBECDBF4EE150E0BE01FE
:102D70006F5F7F4F0E94BC3DBE016F5F7F4F85E05C
:102D800092E17FDFBE016F5F7F4F89EF91E179DFD5
:102D90006E960FB6F894DEBF0FBECDBFDF91CF9118
:102DA0000895CF93DF93CDB7DEB76E970FB6F89443
:102DB000DEBF0FBECDBF4EE150E0BE016F5F7F4F63
:102DC0000E94BC3DBE016F5F7F4F8DEC90E159DFEB
:102DD0006E960FB6F894DEBF0FBECDBFDF91CF91D8
:102DE00008958F929F92AF92BF92EF92FF920F93AE
:102DF0001F93CF93DF93CDB7DEB760970FB6F894EC
:102E0000DEBF0FBECDBF7C014A018E010F5F1F4F99
:102E10008AE0F80111928A95E9F766EF73E0CE0136
:102E20000B960E94F6044AE0B801C4010E94C65203
:102E3000F70162817381CE010B960E94113F60EC15
:102E400073E0CE010B960E94113FB801CE010B96A4
:102E50000E94113F8B859C85D3DD0E945639182F27
:102E6000CE010B960E94FB3F812F60960FB6F8941F
:102E7000DEBF0FBECDBFDF91CF911F910F91FF90AD
:102E8000EF90BF90AF909F908F90089520E030E03A
:102E900040E85FE360912102709122028091230259
:102EA000909124020E94AF550E948156AB01BC0153
:102EB0008DEA93E196DF6091210270912202809168
:102EC0002302909124020E948156AB01BC018DEA3D
:102ED00093E187CF40914D0350914E03052E000C96
:102EE000660B770B8DE891E17CDF40914F035091A9
:102EF0005003052E000C660B770B85ED91E171DF19
:102F000040914F0350915003052E000C660B770B38
:102F100081E891E166DF60915203709153038091E3
:102F20005403909155030E948156AB01BC0189EC7A
:102F300091E157DF609152037091530380915403E4
:102F4000909155030E948156AB01BC0185E791E148
:102F500048DF40914B0350914C03052E000C660B4B
:102F6000770B8DEB91E13DDF40914B0350914C038A
:102F7000052E000C660B770B8DE591E132DF409159
:102F8000730950917409052E000C660B770B8DEEBA
:102F900091E127DF80917309909174098130910547
:102FA00049F08230910561F066EC73E0892B21F0E5
:102FB0000C94BC036DEC73E089E991E162DEF8CF1B
:102FC00066ED73E0F9CFEF92FF920F931F93CF93CB
:102FD000DF93CDB7DEB72E970FB6F894DEBF0FBEE6
:102FE000CDBF7C018B016AED73E0CE0109960E9492
:102FF000F604F70162817381CE0109960E94113FA8
:103000006FED73E0CE0109960E94113F89859A8584
:10301000F7DCCE01019628E0FC0111922A95E9F730
:1030200044E650E060E070E040939D0B50939E0BAF
:1030300060939F0B7093A00B68E070E00E940939C9
:10304000089709F053C08981813709F04FC08E81FC
:103050008F3F09F04BC08F818F3F09F047C08885B3
:103060008F3F09F043C02D818C8190E0B0E0A0E05B
:10307000DC0199278827B22B2A81822B4B8150E0D3
:10308000542F4427052E000C660B770B842B952BB1
:10309000A62BB72BF80180839183A283B38364EEC0
:1030A00073E086E39CE00E941605F801608171815F
:1030B000828193814AE00E94903C64EF73E086E352
:1030C0009CE00E94070511E0CE0109960E94FB3F9B
:1030D000812F2E960FB6F894DEBF0FBECDBFDF91C5
:1030E000CF911F910F91FF90EF90089587EF93E09C
:1030F0000E94F63810E0E8CFCF93DF9300D01F9204
:10310000CDB7DEB719821A821B821C82BE016F5FA7
:103110007F4F8DEB91E157DF49815A816B817C8133
:103120008DE591E15EDE89819A8190934C038093D5
:103130004B030E9448040E94BC030F900F900F9015
:103140000F90DF91CF910895CF93DF9300D01F921E
:10315000CDB7DEB719821A821B821C82BE016F5F57
:103160007F4F89EC91E12FDF49815A816B817C810E
:1031700085E791E136DE69817A818B819C810E94AD
:103180006854609352037093530380935403909355
:1031900055030E9448040E94BC030F900F900F90AB
:1031A0000F90DF91CF9108950F931F93CF93DF93EB
:1031B00000D01F92CDB7DEB719821A821B821C8203
:1031C000BE016F5F7F4F85ED91E1FDDE49815A8140
:1031D0006B817C8181E891E104DE9981492F8A81AC
:1031E00090934F038093500360914D0370914E0371
:1031F000072E000C880B990B00E010E098010E944C
:10320000063C64EF71E080E090E00E9439060E9485
:103210002E080E9448040F900F900F900F90DF919E
:10322000CF911F910F9108950F931F93CF93DF9329
:1032300000D01F92CDB7DEB719821A821B821C8282
:10324000BE016F5F7F4F81EE91E1BDDE69817A81C2
:1032500070934E0360934D03072E000C880B990B5F
:1032600000E010E0980140914F030E94063C64EF9B
:1032700071E080E090E00E9439060E942E080E94D2
:1032800048040F900F900F900F90DF91CF911F91F6
:103290000F9108958F929F92AF92BF92EF92FF92FB
:1032A0000F931F93CF93DF93CDB7DEB760970FB621
:1032B000F894DEBF0FBECDBF7C014A018E010F5FC7
:1032C0001F4F8AE0F80111928A95E9F766EF73E0E3
:1032D000CE010B960E94F6044AE0B801C4010E9498
:1032E000C652F70162817381CE010B960E94113F95
:1032F00069E074E0CE010B960E94113FB801CE0147
:103300000B960E94113F8B859C857ADB66EF73E0FC
:10331000CE010B960E94B23F6FE074E0CE010B9697
:103320000E94113FF70162817381CE010B960E94CA
:10333000113F8B859C8564DB0E945639182FCE0186
:103340000B960E94FB3F812F60960FB6F894DEBF6C
:103350000FBECDBFDF91CF911F910F91FF90EF90E6
:10336000BF90AF909F908F9008958F929F92AF9251
:10337000BF92EF92FF920F931F93CF93DF93CDB73E
:10338000DEB760970FB6F894DEBF0FBECDBF7C01ED
:103390004A018E010F5F1F4F8AE0F80111928A9552
:1033A000E9F766EF73E0CE010B960E94F6044AE05F
:1033B000B801C4010E94C652F70162817381CE0137
:1033C0000B960E94113F64E174E0CE010B960E94BF
:1033D000113FB801CE010B960E94113F8B859C8551
:1033E0000FDB66EF73E0CE010B960E94B23F6FE0F9
:1033F00074E0CE010B960E94113FF7016281738148
:10340000CE010B960E94113F8B859C85F9DA0E94B4
:103410005639182FCE010B960E94FB3F812F6096E4
:103420000FB6F894DEBF0FBECDBFDF91CF911F91D5
:103430000F91FF90EF90BF90AF909F908F90089565
:103440004FEF5FEF60E070E08DE792E18EDF4FEFCE
:103450005FEF60E070E08DE792E11CDF4FEF5FEF20
:1034600060E070E081E492E180DF4FEF5FEF60E0C9
:1034700070E081E492E10EDF10927B09089540E054
:1034800058EF60E070E08DE792E16FDF40E058EFC9
:1034900060E070E08DE792E1FDDE40E058EF60E033
:1034A00070E081E492E161DF40E058EF60E070E0BD
:1034B00081E492E1EFDE81E080937B0908954FEF94
:1034C0005FEF60E070E089E892E14FDF4FEF5FEF80
:1034D00060E070E089E892E1DDDE4FEF5FEF60E0F1
:1034E00070E08DE492E141DF4FEF5FEF60E070E06C
:1034F0008DE492E1CFDE10927A0908954FEF5FEFED
:1035000060E070E08DEA92E130DF4FEF5FEF60E066
:1035100070E08DEA92E1BEDE4FEF5FEF60E070E0B9
:1035200081E792E122DF4FEF5FEF60E070E081E73B
:1035300092E1B0DE1092790908954FEF5FEF60E0FD
:1035400070E08DEA92E111DF40E058EF60E070E05A
:103550008DEA92E19FDE4FEF5FEF60E070E081E780
:1035600092E103DF40E058EF60E070E081E792E134
:1035700091DE81E080937909089581E080937C0950
:103580000E94D63CDADF109276091092750966EF38
:1035900073E084E39DE00C94B23F40E058EF60E0BC
:1035A00070E08DEA92E1E1DE40E058EF60E070E02B
:1035B0008DEA92E16FDE40E058EF60E070E081E775
:1035C00092E1D3DE40E058EF60E070E081E792E105
:1035D00061DE81E080937909089580917A098111F3
:1035E00037C08091790981110E947F0380916B0916
:1035F000811104C080917B09882369F166EF73E033
:103600008EE29DE00E94FC3E811125C00E946A0668
:1036100040E058EF60E070E089E892E1A6DE40E02B
:1036200058EF60E070E089E892E134DE40E058EF66
:1036300060E070E08DE492E198DE40E058EF60E0F9
:1036400070E08DE492E126DE81E080937A090895AE
:1036500036DF0C94BC0308958DE394E1BECFCF9385
:10366000DF9300D000D0CDB7DEB7809195098111EE
:1036700002C00E94BC030E94640866EF73E084E30A
:103680009DE00E94B23F1092760910927509109247
:103690006E0910926F091092700910927109809151
:1036A0006B098823F1F04FEF5FEF60E070E081EA93
:1036B00092E15BDE4FEF5FEF60E070E081EA92E164
:1036C000E9DD4FEF5FEF60E070E085E692E14DDE0F
:1036D0004FEF5FEF60E070E085E692E1DBDD109296
:1036E0006B09809177098823F1F04FEF5FEF60E07D
:1036F00070E085E992E139DE4FEF5FEF60E070E066
:1037000085E992E1C7DD4FEF5FEF60E070E089E5AA
:1037100092E12BDE4FEF5FEF60E070E089E592E130
:10372000B9DD1092770980917A098111C8DE809104
:103730007B09811185DE31DF6AE174E0CE010196FB
:103740000E94F604CE010196DEDACE0101960E94B7
:10375000FB3F66EB74E0CE0101960E94F604CE01B9
:1037600001961FDBCE0101960E94FB3F66EB74E0E1
:10377000CE0101960E94F604CE010196ECDACE014C
:1037800001960E94FB3F66EF73E08EE29DE00E948F
:10379000B23F60916E0970916F09809170099091AC
:1037A00071090E948156AB01BC0189EB92E119DBE2
:1037B00060916E0970916F09809170099091710903
:1037C0000E948156AB01BC0185E59DE00ADB0E94A9
:1037D0004804ACD9109298091092780926960FB631
:1037E000F894DEBF0FBECDBFDF91CF91089581E089
:1037F00094E135CF80917C09882329F00E947F03D2
:1038000081E094E12CCF0C947F0366E172E08DE1BE
:1038100092E137DA81E094E122CF1092760910929A
:10382000750966E172E089E292E12BDA609121028A
:103830007091220280912302909124020E9481566D
:10384000AB01BC018DEA93E1CCDA60912102709169
:10385000220280912302909124020E948156AB01A2
:10386000BC018DED92E1BDDA80917209882331F0BF
:1038700040E050E0BA0181ED92E10CDD40910002A0
:1038800050910102052E000C660B770B81ED92E141
:10389000A8DA60911D0270911E0280911F02909122
:1038A00020020E948156AB01BC0185EC92E199DABD
:1038B00060916E0970916F09809170099091710902
:1038C0000E948156AB01BC0189EB92E18ADA8091BA
:1038D00051036EE174E0882311F060E274E085E248
:1038E00093E1CFD981E094E1BACE8DE093E195CF19
:1038F0008DE093E192CF8DE093E18FCF8DE093E166
:103900008CCFCF93DF9300D01F92CDB7DEB7198253
:103910001A821B821C82BE016F5F7F4F8DEE91E188
:1039200052DB89819A81AB81BC8181309105A105EF
:10393000B105D9F080F00297A105B105F9F00E9418
:10394000BC0381E094E18BDE0F900F900F900F90FD
:10395000DF91CF910895109274091092730966EC6B
:1039600073E089E991E18DD9EACF81E090E090930D
:103970007409809373096DEC73E0F3CF82E090E0FB
:10398000909374098093730966ED73E0EACF8F9288
:103990009F92AF92BF92CF92DF92EF92FF9280916F
:1039A0007509909176090197029708F045C08091BA
:1039B000340D9091350DC12CD12C7601009721F05A
:1039C0000E947E526B017C01C0922102D0922202A1
:1039D000E0922302F0922402C0921D02D0921E02B5
:1039E000E0921F02F092200220E030E048EC52E426
:1039F0006091520370915303809154039091550349
:103A00000E9414564B015C01A701960160E070E032
:103A100086E994E40E9414569B01AC01C501B401EF
:103A20000E94C954609391097093920980939309FD
:103A3000909394090E9448048091750990917609A9
:103A4000892B31F480917C09811102C00E947F038F
:103A500060912102709122028091230290912402B0
:103A60000E948156AB01BC018DEA93E1BAD9609105
:103A700021027091220280912302909124020E94DF
:103A80008156AB01BC018DED92E1ABD960911D0275
:103A900070911E0280911F02909120020E94815617
:103AA000AB01BC0185EC92E19CD981E094E1FF90EF
:103AB000EF90DF90CF90BF90AF909F908F90CFCD41
:103AC00080917C09811159C0809175099091760986
:103AD000019709F039C081E0809372090E94DF3DAF
:103AE0007093010260930002AB01770F660B770BB6
:103AF00081ED92E176D940E050E0BA0181ED92E1AA
:103B0000C9DBE0910002F0910102EA30F105E0F436
:103B10008827E257F24E8F4F0C94D356981DC01D44
:103B2000C51DCA1DCF1DD41DD91DDE1DE31DE81DF9
:103B30008DEC9CECACECBEEB80936709909368092C
:103B4000A0936909B0936A098091750990917609EB
:103B5000892B49F41092720940EE5FEF60E070E04B
:103B600081ED92E197DB809175099091760902973A
:103B700014F00E947F030E94480481E094E16FCD1D
:103B80008AE999E9A9E9BEEBD7CF8DEC9CECACE4CE
:103B9000BEEBD2CF8DEC9CECACECBDEBCDCF8DEC85
:103BA0009CECACE4BDEBC8CF8DEC9CECACE4BDE38D
:103BB000C3CF8DEC9CECACECBDE3BECF8DEC9CECAC
:103BC000ACE4BEE3B9CF8AE999E9A9E9BEE3B4CF91
:103BD0008DEC9CECACECBEE3AFCF4F925F926F925A
:103BE0007F928F929F92AF92BF92CF92DF92EF928D
:103BF000FF92CF93DF9300D01F92CDB7DEB78091B5
:103C00007C09811157C0C0902102D0902202E0901F
:103C10002302F09024020E94DF3D0E946A54A70113
:103C200096010E94AD56181614F40E947F030E945C
:103C3000DF3D0E946A546B017C012091210230918A
:103C4000220240912302509124020E9464541816CB
:103C500054F0C0921D02D0921E02E0921F02F09218
:103C600020020E9448048091750990917609892B61
:103C700091F48091210290912202A0912302B091AF
:103C8000240280931D0290931E02A0931F02B09302
:103C900020020E94480460911D0270911E028091D2
:103CA0001F02909120020E948156AB01BC0185EC5D
:103CB00092E197D8C0902102D0902202E090230296
:103CC000F090240240901D0250901E0260901F024E
:103CD0007090200220E030E048EC52E46091520302
:103CE0007091530380915403909155030E94145690
:103CF0004B015C0120E030E046E953E4C701B60126
:103D00000E94C95469837A838B839C8320E030E0CE
:103D10004AE353E4C301B2010E94C9549B01AC01C0
:103D200069817A818B819C810E94AF559B01AC0196
:103D3000C501B4010E94C9544B015C0120E030E090
:103D40004EEB52E4C701B6010E94C954A30192018F
:103D50000E94C9549B01AC01C501B4010E941456D4
:103D600020E030E04AE754E40E94C95460938D0992
:103D700070938E0980938F099093900981E094E16C
:103D80000F900F900F900F90DF91CF91FF90EF90D9
:103D9000DF90CF90BF90AF909F908F907F906F906B
:103DA0005F904F905CCC80917C09882319F081E072
:103DB00094E155CC80917909882319F19FDB40E08B
:103DC00058EF60E070E081EA92E1CFDA40E058EF2E
:103DD00060E070E081EA92E15DDA40E058EF60E097
:103DE00070E085E692E1C1DA40E058EF60E070E013
:103DF00085E692E14FDA81E080936B098093980920
:103E0000089510929809D3CF81E694E1CCCFCF9357
:103E1000DF9300D000D0CDB7DEB780917A09882338
:103E200059F166EF73E08EE29DE00E94B23F66EFCB
:103E300073E0CE0101960E94F604CE0101960E9425
:103E4000D116CE0101960E94FB3F66EF73E0CE01D2
:103E500001960E94F604CE0101960E94AB16CE0197
:103E600001960E94FB3F26960FB6F894DEBF0FBE68
:103E7000CDBFDF91CF91089580917C09811160C001
:103E80000E94BC038091750990917609813091055B
:103E900009F446C08230910509F442C0892B09F02B
:103EA0004CC010926E0910926F0910927009109216
:103EB000710966EF73E084E39DE00E94B23F1092C7
:103EC00076091092750960916E0970916F09809161
:103ED0007009909171090E948156AB01BC0189EB78
:103EE00092E10E94F11660916E0970916F098091C4
:103EF0007009909171090E948156AB01BC0185E562
:103F00009DE00E94F1160E9448046AE174E0CE012F
:103F100001960E94F604CE0101960E9483169FCF5F
:103F20000E94DF3D0E946A5460936E0970936F098E
:103F30008093700990937109BCCF0E947F03E5CFF5
:103F400081E094E18CDB8FCF85E594E160CFCF9366
:103F5000DF9300D000D0CDB7DEB76EE27DE0CE01BA
:103F600001960E94ED0465E274E0CE0101960E9484
:103F70006E3FBC018EE29DE00E94E63FCE010196BD
:103F80000E94FB3F26960FB6F894DEBF0FBECDBF52
:103F9000DF91CF910895DBCFCF93DF9300D000D096
:103FA000CDB7DEB76EE27DE0CE0101960E94ED0452
:103FB00068E274E0CE0101960E946E3FBC018EE281
:103FC0009DE00E94E63FCE0101960E94FB3F2696AF
:103FD0000FB6F894DEBF0FBECDBFDF91CF9108952D
:103FE000CF93DF9300D000D0CDB7DEB76EE27DE097
:103FF000CE0101960E94ED046CE274E0CE010196C0
:104000000E946E3FBC018EE29DE00E94E63FCE0121
:1040100001960E94FB3F26960FB6F894DEBF0FBEB6
:10402000CDBFDF91CF910895CF93DF9300D000D023
:10403000CDB7DEB7809177096EE27DE08823E1F0AD
:10404000CE0101960E94ED0460E374E0CE0101967A
:104050000E946E3FBC018EE29DE00E94E63FCE01D1
:1040600001960E94FB3F26960FB6F894DEBF0FBE66
:10407000CDBFDF91CF910895CE0101960E94ED044E
:1040800066E172E0E3CFCF93DF9300D000D0CDB7ED
:10409000DEB76EE27DE0CE0101960E94ED0462E3A0
:1040A00074E0CE0101960E946E3FBC018EE29DE05D
:1040B0000E94E63FCE0101960E94FB3F26960FB676
:1040C000F894DEBF0FBECDBFDF91CF910895CF939F
:1040D000DF9300D000D0CDB7DEB76EE27DE0CE0139
:1040E00001960E94ED0465E374E0CE0101960E9402
:1040F0006E3FBC018EE29DE00E94E63FCE0101963C
:104100000E94FB3F26960FB6F894DEBF0FBECDBFD0
:10411000DF91CF910895CF93DF9300D000D0CDB73A
:10412000DEB76EE27DE0CE0101960E94ED0468E309
:1041300074E0CE0101960E946E3FBC018EE29DE0CC
:104140000E94E63FCE0101960E94FB3F26960FB6E5
:10415000F894DEBF0FBECDBFDF91CF910895CF930E
:10416000DF9300D000D0CDB7DEB76EE27DE0CE01A8
:1041700001960E94ED046AE374E0CE0101960E946C
:104180006E3FBC018EE29DE00E94E63FCE010196AB
:104190000E94FB3F26960FB6F894DEBF0FBECDBF40
:1041A000DF91CF910895CF93DF9300D000D0CDB7AA
:1041B000DEB76EE27DE0CE0101960E94ED046CE375
:1041C00074E0CE0101960E946E3FBC018EE29DE03C
:1041D0000E94E63FCE0101960E94FB3F26960FB655
:1041E000F894DEBF0FBECDBFDF91CF910895CF937E
:1041F000DF9300D000D0CDB7DEB76EE27DE0CE0118
:1042000001960E94ED046DE674E0CE0101960E94D5
:104210006E3FBC018EE29DE00E94E63FCE0101961A
:104220000E94FB3F26960FB6F894DEBF0FBECDBFAF
:10423000DF91CF910895CF93DF9300D000D0CDB719
:10424000DEB76EE27DE0CE0101960E94ED046EE3E2
:1042500074E0CE0101960E946E3FBC018EE29DE0AB
:104260000E94E63FCE0101960E94FB3F26960FB6C4
:10427000F894DEBF0FBECDBFDF91CF910895CF93ED
:10428000DF9300D000D0CDB7DEB76EE27DE0CE0187
:1042900001960E94ED0461E474E0CE0101960E9453
:1042A0006E3FBC018EE29DE00E94E63FCE0101968A
:1042B0000E94FB3F26960FB6F894DEBF0FBECDBF1F
:1042C000DF91CF910895CF93DF9300D000D0CDB789
:1042D000DEB76EE27DE0CE0101960E94ED0466E459
:1042E00074E0CE0101960E946E3FBC018EE29DE01B
:1042F0000E94E63FCE0101960E94FB3F26960FB634
:10430000F894DEBF0FBECDBFDF91CF910895CF935C
:10431000DF9300D000D0CDB7DEB76EE27DE0CE01F6
:1043200001960E94ED046BE474E0CE0101960E94B8
:104330006E3FBC018EE29DE00E94E63FCE010196F9
:104340000E94FB3F26960FB6F894DEBF0FBECDBF8E
:10435000DF91CF910895CF93DF9300D000D0CDB7F8
:10436000DEB76EE27DE0CE0101960E94ED0460E5CD
:1043700074E0CE0101960E946E3FBC018EE29DE08A
:104380000E94E63FCE0101960E94FB3F26960FB6A3
:10439000F894DEBF0FBECDBFDF91CF910895CF93CC
:1043A000DF9300D000D0CDB7DEB76EE27DE0CE0166
:1043B00001960E94ED0463E574E0CE0101960E942F
:1043C0006E3FBC018EE29DE00E94E63FCE01019669
:1043D0000E94FB3F26960FB6F894DEBF0FBECDBFFE
:1043E000DF91CF910895CF93DF9300D000D0CDB768
:1043F000DEB76EE27DE0CE0101960E94ED0467E536
:1044000074E0CE0101960E946E3FBC018EE29DE0F9
:104410000E94E63FCE0101960E94FB3F26960FB612
:10442000F894DEBF0FBECDBFDF91CF910895CF933B
:10443000DF9300D000D0CDB7DEB76EE27DE0CE01D5
:1044400001960E94ED046BE574E0CE0101960E9496
:104450006E3FBC018EE29DE00E94E63FCE010196D8
:104460000E94FB3F26960FB6F894DEBF0FBECDBF6D
:10447000DF91CF910895CF93DF9300D000D0CDB7D7
:10448000DEB76EE27DE0CE0101960E94ED0460E6AB
:1044900074E0CE0101960E946E3FBC018EE29DE069
:1044A0000E94E63FCE0101960E94FB3F26960FB682
:1044B000F894DEBF0FBECDBFDF91CF910895CF93AB
:1044C000DF9300D000D0CDB7DEB76EE27DE0CE0145
:1044D00001960E94ED0464EC73E0CE0101960E9407
:1044E0006E3FBC018EE29DE00E94E63FCE01019648
:1044F0000E94FB3F26960FB6F894DEBF0FBECDBFDD
:10450000DF91CF910895CF93DF9300D000D0CDB746
:10451000DEB76EE27DE0CE0101960E94ED0466EB0F
:1045200074E0CE0101960E946E3FBC018EE29DE0D8
:104530000E94E63FCE0101960E94FB3F26960FB6F1
:10454000F894DEBF0FBECDBFDF91CF910895CF931A
:10455000DF9300D000D0CDB7DEB76EE27DE0CE01B4
:1045600001960E94ED046BE674E0CE0101960E9474
:104570006E3FBC018EE29DE00E94E63FCE010196B7
:104580000E94FB3F26960FB6F894DEBF0FBECDBF4C
:10459000DF91CF910895CF93DF9300D000D0CDB7B6
:1045A000DEB76EE27DE0CE0101960E94ED046DED76
:1045B00078E0CE0101960E946E3FBC018EE29DE044
:1045C0000E94E63FCE0101960E94FB3F26960FB661
:1045D000F894DEBF0FBECDBFDF91CF910895CF938A
:1045E000DF9300D000D0CDB7DEB76EE27DE0CE0124
:1045F00001960E94ED0464E678E0CE0101960E94E7
:104600006E3FBC018EE29DE00E94E63FCE01019626
:104610000E94FB3F26960FB6F894DEBF0FBECDBFBB
:10462000DF91CF910895CF93DF9300D000D0CDB725
:10463000DEB76EE27DE0CE0101960E94ED0460E6F9
:1046400078E0CE0101960E946E3FBC018EE29DE0B3
:104650000E94E63FCE0101960E94FB3F26960FB6D0
:10466000F894DEBF0FBECDBFDF91CF910895CF93F9
:10467000DF9300D000D0CDB7DEB76EE27DE0CE0193
:1046800001960E94ED046CE578E0CE0101960E944F
:104690006E3FBC018EE29DE00E94E63FCE01019696
:1046A0000E94FB3F26960FB6F894DEBF0FBECDBF2B
:1046B000DF91CF910895CF93DF9300D000D0CDB795
:1046C000DEB76EE27DE0CE0101960E94ED0468E562
:1046D00078E0CE0101960E946E3FBC018EE29DE023
:1046E0000E94E63FCE0101960E94FB3F26960FB640
:1046F000F894DEBF0FBECDBFDF91CF910895CF9369
:10470000DF9300D000D0CDB7DEB76EE27DE0CE0102
:1047100001960E94ED0464E578E0CE0101960E94C6
:104720006E3FBC018EE29DE00E94E63FCE01019605
:104730000E94FB3F26960FB6F894DEBF0FBECDBF9A
:10474000DF91CF910895CF93DF9300D000D0CDB704
:10475000DEB76EE27DE0CE0101960E94ED0460E5D9
:1047600078E0CE0101960E946E3FBC018EE29DE092
:104770000E94E63FCE0101960E94FB3F26960FB6AF
:10478000F894DEBF0FBECDBFDF91CF910895CF93D8
:10479000DF9300D000D0CDB7DEB76EE27DE0CE0172
:1047A00001960E94ED046CE478E0CE0101960E942F
:1047B0006E3FBC018EE29DE00E94E63FCE01019675
:1047C0000E94FB3F26960FB6F894DEBF0FBECDBF0A
:1047D000DF91CF910895CF93DF9300D000D0CDB774
:1047E000DEB76EE27DE0CE0101960E94ED0467E740
:1047F00075E0CE0101960E946E3FBC018EE29DE005
:104800000E94E63FCE0101960E94FB3F26960FB61E
:10481000F894DEBF0FBECDBFDF91CF910895CF9347
:10482000DF9300D000D0CDB7DEB76EE27DE0CE01E1
:1048300001960E94ED0464E478E0CE0101960E94A6
:104840006E3FBC018EE29DE00E94E63FCE010196E4
:104850000E94FB3F26960FB6F894DEBF0FBECDBF79
:10486000DF91CF910895CF93DF9300D000D0CDB7E3
:10487000DEB76EE27DE0CE0101960E94ED046EE2AD
:1048800074E0CE0101960E946E3FBC018EE29DE075
:104890000E94E63FCE0101960E94FB3F26960FB68E
:1048A000F894DEBF0FBECDBFDF91CF910895CF93B7
:1048B000DF9300D000D0CDB7DEB76EE27DE0CE0151
:1048C00001960E94ED046FE674E0CE0101960E940D
:1048D0006E3FBC018EE29DE00E94E63FCE01019654
:1048E0000E94FB3F26960FB6F894DEBF0FBECDBFE9
:1048F000DF91CF910895CF93DF9300D000D0CDB753
:10490000DEB76EE27DE0CE0101960E94ED0461E724
:1049100074E0CE0101960E946E3FBC018EE29DE0E4
:104920000E94E63FCE0101960E94FB3F26960FB6FD
:10493000F894DEBF0FBECDBFDF91CF910895CF9326
:10494000DF9300D000D0CDB7DEB76EE27DE0CE01C0
:1049500001960E94ED0463E774E0CE0101960E9487
:104960006E3FBC018EE29DE00E94E63FCE010196C3
:104970000E94FB3F26960FB6F894DEBF0FBECDBF58
:10498000DF91CF910895CF93DF9300D000D0CDB7C2
:10499000DEB76EE27DE0CE0101960E94ED0465E790
:1049A00074E0CE0101960E946E3FBC018EE29DE054
:1049B0000E94E63FCE0101960E94FB3F26960FB66D
:1049C000F894DEBF0FBECDBFDF91CF910895CF9396
:1049D000DF9300D000D0CDB7DEB76EE27DE0CE0130
:1049E00001960E94ED0461E277E0CE0101960E94FB
:1049F0006E3FBC018EE29DE00E94E63FCE01019633
:104A00000E94FB3F26960FB6F894DEBF0FBECDBFC7
:104A1000DF91CF910895CF93DF9300D000D0CDB731
:104A2000DEB76EE27DE0CE0101960E94ED0463EFF9
:104A300075E0CE0101960E946E3FBC018EE29DE0C2
:104A40000E94E63FCE0101960E94FB3F26960FB6DC
:104A5000F894DEBF0FBECDBFDF91CF910895CF9305
:104A6000DF9300D000D0CDB7DEB76EE27DE0CE019F
:104A700001960E94ED0466E877E0CE0101960E945F
:104A80006E3FBC018EE29DE00E94E63FCE010196A2
:104A90000E94FB3F26960FB6F894DEBF0FBECDBF37
:104AA000DF91CF910895CF93DF9300D000D0CDB7A1
:104AB000DEB76EE27DE0CE0101960E94ED0467E76D
:104AC00074E0CE0101960E946E3FBC018EE29DE033
:104AD0000E94E63FCE0101960E94FB3F26960FB64C
:104AE000F894DEBF0FBECDBFDF91CF910895CF9375
:104AF000DF9300D000D0CDB7DEB76EE27DE0CE010F
:104B000001960E94ED0460E978E0CE0101960E94D2
:104B10006E3FBC018EE29DE00E94E63FCE01019611
:104B20000E94FB3F26960FB6F894DEBF0FBECDBFA6
:104B3000DF91CF910895CF93DF9300D000D0CDB710
:104B4000DEB76EE27DE0CE0101960E94ED046EE5D7
:104B500074E0CE0101960E946E3FBC018EE29DE0A2
:104B60000E94E63FCE0101960E94FB3F26960FB6BB
:104B7000F894DEBF0FBECDBFDF91CF910895CF93E4
:104B8000DF9300D000D0CDB7DEB76EE27DE0CE017E
:104B900001960E94ED0462EE73E0CE0101960E9440
:104BA0006E3FBC018EE29DE00E94E63FCE01019681
:104BB0000E94FB3F26960FB6F894DEBF0FBECDBF16
:104BC000DF91CF910895CF93DF9300D000D0CDB780
:104BD000DEB76EE27DE0CE0101960E94ED046FEB40
:104BE00074E0CE0101960E946E3FBC018EE29DE012
:104BF0000E94E63FCE0101960E94FB3F26960FB62B
:104C0000F894DEBF0FBECDBFDF91CF910895CF9353
:104C1000DF9300D000D0CDB7DEB76EE27DE0CE01ED
:104C200001960E94ED0469E774E0CE0101960E94AE
:104C30006E3FBC018EE29DE00E94E63FCE010196F0
:104C40000E94FB3F26960FB6F894DEBF0FBECDBF85
:104C5000DF91CF910895CF93DF9300D000D0CDB7EF
:104C6000DEB76EE27DE0CE0101960E94ED0461E1C7
:104C700077E0CE0101960E946E3FBC018EE29DE07E
:104C80000E94E63FCE0101960E94FB3F26960FB69A
:104C9000F894DEBF0FBECDBFDF91CF910895CF93C3
:104CA000DF9300D000D0CDB7DEB76EE27DE0CE015D
:104CB00001960E94ED046AE274E0CE0101960E9422
:104CC0006E3FBC018EE29DE00E94E63FCE01019660
:104CD0000E94FB3F26960FB6F894DEBF0FBECDBFF5
:104CE000DF91CF910895CF93DF9300D000D0CDB75F
:104CF000DEB76EE27DE0CE0101960E94ED0468E62B
:104D000077E0CE0101960E946E3FBC018EE29DE0ED
:104D10000E94E63FCE0101960E94FB3F26960FB609
:104D2000F894DEBF0FBECDBFDF91CF910895CF9332
:104D3000DF9300D000D0CDB7DEB76EE27DE0CE01CC
:104D400001960E94ED0464ED73E0CE0101960E948D
:104D50006E3FBC018EE29DE00E94E63FCE010196CF
:104D60000E94FB3F26960FB6F894DEBF0FBECDBF64
:104D7000DF91CF910895CF93DF9300D000D0CDB7CE
:104D8000DEB76EE27DE0CE0101960E94ED046FE297
:104D900077E0CE0101960E946E3FBC018EE29DE05D
:104DA0000E94E63FCE0101960E94FB3F26960FB679
:104DB000F894DEBF0FBECDBFDF91CF910895CF93A2
:104DC000DF9300D000D0CDB7DEB76EE27DE0CE013C
:104DD00001960E94ED046BE774E0CE0101960E94FB
:104DE0006E3FBC018EE29DE00E94E63FCE0101963F
:104DF0000E94FB3F26960FB6F894DEBF0FBECDBFD4
:104E0000DF91CF910895CF93DF9300D000D0CDB73D
:104E1000DEB76EE27DE0CE0101960E94ED046DE703
:104E200074E0CE0101960E946E3FBC018EE29DE0CF
:104E30000E94E63FCE0101960E94FB3F26960FB6E8
:104E4000F894DEBF0FBECDBFDF91CF910895CF9311
:104E5000DF9300D000D0CDB7DEB76EE27DE0CE01AB
:104E600001960E94ED0466E975E0CE0101960E946C
:104E70006E3FBC018EE29DE00E94E63FCE010196AE
:104E80000E94FB3F26960FB6F894DEBF0FBECDBF43
:104E9000DF91CF910895CF93DF9300D000D0CDB7AD
:104EA000DEB76EE27DE0CE0101960E94ED046FE771
:104EB00074E0CE0101960E946E3FBC018EE29DE03F
:104EC0000E94E63FCE0101960E94FB3F26960FB658
:104ED000F894DEBF0FBECDBFDF91CF910895CF9381
:104EE000DF9300D000D0CDB7DEB76EE27DE0CE011B
:104EF00001960E94ED0461E874E0CE0101960E94E3
:104F00006E3FBC018EE29DE00E94E63FCE0101961D
:104F10000E94FB3F26960FB6F894DEBF0FBECDBFB2
:104F2000DF91CF910895CF93DF9300D000D0CDB71C
:104F3000DEB76EE27DE0CE0101960E94ED0464E9E9
:104F400074E0CE0101960E946E3FBC018EE29DE0AE
:104F50000E94E63FCE0101960E94FB3F26960FB6C7
:104F6000F894DEBF0FBECDBFDF91CF910895CF93F0
:104F7000DF9300D000D0CDB7DEB76EE27DE0CE018A
:104F800001960E94ED0463EE75E0CE0101960E9449
:104F90006E3FBC018EE29DE00E94E63FCE0101968D
:104FA0000E94FB3F26960FB6F894DEBF0FBECDBF22
:104FB000DF91CF910895CF93DF9300D000D0CDB78C
:104FC000DEB76EE27DE0CE0101960E94ED0463E85B
:104FD00074E0CE0101960E946E3FBC018EE29DE01E
:104FE0000E94E63FCE0101960E94FB3F26960FB637
:104FF000F894DEBF0FBECDBFDF91CF910895CF9360
:10500000DF9300D000D0CDB7DEB76EE27DE0CE01F9
:1050100001960E94ED046FE076E0CE0101960E94B9
:105020006E3FBC018EE29DE00E94E63FCE010196FC
:105030000E94FB3F26960FB6F894DEBF0FBECDBF91
:10504000DF91CF910895CF93DF9300D000D0CDB7FB
:10505000DEB76EE27DE0CE0101960E94ED0466E2CD
:1050600074E0CE0101960E946E3FBC018EE29DE08D
:105070000E94E63FCE0101960E94FB3F26960FB6A6
:10508000F894DEBF0FBECDBFDF91CF910895CF93CF
:10509000DF9300D000D0CDB7DEB76EE27DE0CE0169
:1050A00001960E94ED0465E874E0CE0101960E942D
:1050B0006E3FBC018EE29DE00E94E63FCE0101966C
:1050C0000E94FB3F26960FB6F894DEBF0FBECDBF01
:1050D000DF91CF910895CF93DF9300D000D0CDB76B
:1050E000DEB78091750990917609029724F01092AD
:1050F00076091092750980917C09882351F084E02B
:1051000090E090937609809375090E94CD1A0E94D1
:10511000BC030E949D1A80917509909176090197B0
:1051200001F564E37DE0CE0101960E94ED0464E6A2
:1051300078E0CE0101960E946E3FBC0184E39DE0C1
:105140000E94E63FCE0101960E94FB3F80917509C7
:1051500090917609019690937609809375090E9443
:105160006A068091750990917609892B89F464E625
:1051700078E084E39DE00E94B23F809175099091B0
:105180007609019690937609809375090E94BC0375
:1051900064E37DE0CE0101960E94ED04CE0101960C
:1051A0000E948316CE0101960E94FB3F80917C09EC
:1051B00081110E94CD1A0E94640826960FB6F894B9
:1051C000DEBF0FBECDBFDF91CF91089581E393E1A4
:1051D00082CFCF93DF9300D000D0CDB7DEB78091E0
:1051E000750990917609029724F010927609109231
:1051F000750980917C09882351F084E090E09093B8
:105200007609809375090E94CD1A0E94BC030E9402
:105210009D1A8091750990917609019701F564E3D3
:105220007DE0CE0101960E94ED0460E678E0CE01BB
:1052300001960E946E3FBC0184E39DE00E94E63F20
:10524000CE0101960E94FB3F8091750990917609ED
:10525000019690937609809375090E946A06809161
:10526000750990917609892B89F460E678E084E3EA
:105270009DE00E94B23F8091750990917609019658
:1052800090937609809375090E94BC0364E37DE0E6
:10529000CE0101960E94ED04CE0101960E94831674
:1052A000CE0101960E94FB3F80917C0981110E94F2
:1052B000CD1A0E94640826960FB6F894DEBF0FBE82
:1052C000CDBFDF91CF9108958DE393E182CFCF934E
:1052D000DF9300D000D0CDB7DEB7809175099091F3
:1052E0007609029724F01092760910927509809140
:1052F0007C09882351F084E090E0909376098093B4
:1053000075090E94CD1A0E94BC030E949D1A8091CB
:10531000750990917609019701F564E37DE0CE016E
:1053200001960E94ED046CE578E0CE0101960E94A2
:105330006E3FBC0184E39DE00E94E63FCE010196F2
:105340000E94FB3F80917509909176090196909398
:105350007609809375090E946A068091750990917B
:105360007609892B89F46CE578E084E39DE00E945E
:10537000B23F8091750990917609019690937609D4
:10538000809375090E94BC0364E37DE0CE01019621
:105390000E94ED04CE0101960E948316CE01019673
:1053A0000E94FB3F80917C0981110E94CD1A0E94CE
:1053B000640826960FB6F894DEBF0FBECDBFDF910E
:1053C000CF91089589E493E182CFCF93DF9300D00A
:1053D00000D0CDB7DEB7809175099091760902971C
:1053E00024F0109276091092750980917C09882327
:1053F00051F084E090E090937609809375090E94C3
:10540000CD1A0E94BC030E949D1A8091750990914B
:105410007609019701F564E37DE0CE0101960E94D3
:10542000ED0468E578E0CE0101960E946E3FBC0174
:1054300084E39DE00E94E63FCE0101960E94FB3F7F
:1054400080917509909176090196909376098093E1
:1054500075090E946A068091750990917609892BD9
:1054600089F468E578E084E39DE00E94B23F809192
:105470007509909176090196909376098093750944
:105480000E94BC0364E37DE0CE0101960E94ED041E
:10549000CE0101960E948316CE0101960E94FB3F29
:1054A00080917C0981110E94CD1A0E946408269681
:1054B0000FB6F894DEBF0FBECDBFDF91CF91089538
:1054C00085E593E182CFCF93DF9300D000D0CDB7B5
:1054D000DEB78091750990917609029724F01092B9
:1054E00076091092750980917C09882351F084E037
:1054F00090E090937609809375090E94CD1A0E94DE
:10550000BC030E949D1A80917509909176090197BC
:1055100001F564E37DE0CE0101960E94ED0464E5AF
:1055200078E0CE0101960E946E3FBC0184E39DE0CD
:105530000E94E63FCE0101960E94FB3F80917509D3
:1055400090917609019690937609809375090E944F
:105550006A068091750990917609892B89F464E532
:1055600078E084E39DE00E94B23F809175099091BC
:105570007609019690937609809375090E94BC0381
:1055800064E37DE0CE0101960E94ED04CE01019618
:105590000E948316CE0101960E94FB3F80917C09F8
:1055A00081110E94CD1A0E94640826960FB6F894C5
:1055B000DEBF0FBECDBFDF91CF91089581E693E1AD
:1055C00082CFCF93DF9300D000D0CDB7DEB78091EC
:1055D000750990917609029724F01092760910923D
:1055E000750980917C09882351F084E090E09093C4
:1055F0007609809375090E94CD1A0E94BC030E940F
:105600009D1A8091750990917609019701F564E3DF
:105610007DE0CE0101960E94ED0460E578E0CE01C8
:1056200001960E946E3FBC0184E39DE00E94E63F2C
:10563000CE0101960E94FB3F8091750990917609F9
:10564000019690937609809375090E946A0680916D
:10565000750990917609892B89F460E578E084E3F7
:105660009DE00E94B23F8091750990917609019664
:1056700090937609809375090E94BC0364E37DE0F2
:10568000CE0101960E94ED04CE0101960E94831680
:10569000CE0101960E94FB3F80917C0981110E94FE
:1056A000CD1A0E94640826960FB6F894DEBF0FBE8E
:1056B000CDBFDF91CF9108958DE693E182CFCF9357
:1056C000DF9300D000D0CDB7DEB7809175099091FF
:1056D0007609029724F0109276091092750980914C
:1056E0007C09882351F084E090E0909376098093C0
:1056F00075090E94CD1A0E94BC030E949D1A8091D8
:10570000750990917609019701F564E37DE0CE017A
:1057100001960E94ED046CE478E0CE0101960E94AF
:105720006E3FBC0184E39DE00E94E63FCE010196FE
:105730000E94FB3F809175099091760901969093A4
:105740007609809375090E946A0680917509909187
:105750007609892B89F46CE478E084E39DE00E946B
:10576000B23F8091750990917609019690937609E0
:10577000809375090E94BC0364E37DE0CE0101962D
:105780000E94ED04CE0101960E948316CE0101967F
:105790000E94FB3F80917C0981110E94CD1A0E94DA
:1057A000640826960FB6F894DEBF0FBECDBFDF911A
:1057B000CF91089589E793E182CFCF93DF9300D013
:1057C00000D0CDB7DEB78091750990917609029728
:1057D00024F0109276091092750980917C09882333
:1057E00051F084E090E090937609809375090E94CF
:1057F000CD1A0E94BC030E949D1A80917509909158
:105800007609019701F564E37DE0CE0101960E94DF
:10581000ED0467E775E0CE0101960E946E3FBC0182
:1058200084E39DE00E94E63FCE0101960E94FB3F8B
:1058300080917509909176090196909376098093ED
:1058400075090E946A068091750990917609892BE5
:1058500089F467E775E084E39DE00E94B23F8091A0
:105860007509909176090196909376098093750950
:105870000E94BC0364E37DE0CE0101960E94ED042A
:10588000CE0101960E948316CE0101960E94FB3F35
:1058900080917C0981110E94CD1A0E94640826968D
:1058A0000FB6F894DEBF0FBECDBFDF91CF91089544
:1058B00085E893E182CFCF93DF9300D000D0CDB7BE
:1058C000DEB78091750990917609029724F01092C5
:1058D00076091092750980917C09882351F084E043
:1058E00090E090937609809375090E94CD1A0E94EA
:1058F000BC030E949D1A80917509909176090197C9
:1059000001F564E37DE0CE0101960E94ED0464E4BC
:1059100078E0CE0101960E946E3FBC0184E39DE0D9
:105920000E94E63FCE0101960E94FB3F80917509DF
:1059300090917609019690937609809375090E945B
:105940006A068091750990917609892B89F464E43F
:1059500078E084E39DE00E94B23F809175099091C8
:105960007609019690937609809375090E94BC038D
:1059700064E37DE0CE0101960E94ED04CE01019624
:105980000E948316CE0101960E94FB3F80917C0904
:1059900081110E94CD1A0E94640826960FB6F894D1
:1059A000DEBF0FBECDBFDF91CF91089581E993E1B6
:1059B00082CFCF93DF9300D000D0CDB7DEB78091F8
:1059C000750990917609029724F010927609109249
:1059D000750980917C09882351F084E090E09093D0
:1059E0007609809375090E94CD1A0E94BC030E941B
:1059F0009D1A8091750990917609019701F564E3EC
:105A00007DE0CE0101960E94ED046DED78E0CE01BF
:105A100001960E946E3FBC0184E39DE00E94E63F38
:105A2000CE0101960E94FB3F809175099091760905
:105A3000019690937609809375090E946A06809179
:105A4000750990917609892B89F46DED78E084E3EE
:105A50009DE00E94B23F8091750990917609019670
:105A600090937609809375090E94BC0364E37DE0FE
:105A7000CE0101960E94ED04CE0101960E9483168C
:105A8000CE0101960E94FB3F80917C0981110E940A
:105A9000CD1A0E94640826960FB6F894DEBF0FBE9A
:105AA000CDBFDF91CF9108958DE993E182CFBF9271
:105AB000CF92DF92EF92FF920F931F93CF93DF93DA
:105AC000CDB7DEB7EC970FB6F894DEBF0FBECDBFF3
:105AD00080917C098823B1F00E947F0381E094E1EA
