:1000000029C100000C940808D8C70000ABC7000045
:100010007EC7000051C7000024C70000F7C60000DB
:10002000CAC6000048C1000046C1000044C100002B
:1000300042C1000040C100003EC100003CC10000C0
:100040003AC100000C94410836C1000034C10000E0
:1000500032C1000030C100002EC1000062C60000A5
:100060002AC1000077C500004CC5000024C1000073
:1000700022C1000020C100001EC100001CC1000000
:100080001AC1000018C1000016C1000014C1000010
:1000900002C50000D7C400000EC100000CC1000062
:1000A0000AC1000008C1000006C1000004C1000030
:1000B00002C1000000C10000FEC00000FCC0000042
:1000C000FAC00000F8C00000F6C00000F4C0000054
:1000D000F2C00000F0C00000EEC00000ECC0000064
:1000E000EAC000004E414E494E495459494E46CD52
:1000F000CCCC3D0AD7233C17B7D13877CC2B3295DF
:1001000095E6241FB14F0A000020410000C84200BC
:10011000401C4620BCBE4CCA1B0E5AAEC59D747C0A
:100120003C3E5E2B3D3F2F5B5D3B2C2A225C00005A
:10013000002200250028002B002E00310034000290
:10014000010000050108010B01000020002300262A
:100150000029002C002F00320000010000030106DE
:1001600001090100000A0B02090C0D0E0807030427
:10017000010000000000000000000000000000007E
:10018000000000000000000000000000000000125D
:10019000111000000000000000000000000000003E
:1001A00000000000000000000000002100240027E3
:1001B000002A002D00300033000101000004010777
:1001C000010A0101021020200808102040102040E0
:1001D000800201020108040201010204081020400B
:1001E0008080402010080402018004020180402029
:1001F0001008040201080402010102040810204052
:100200008001020408102040800505050507050847
:10021000080808020202020A0A0808040404040189
:1002200001010101010101030303030303030304AB
:100230000707070C0C0C0C0C0C0C0C02020202063B
:10024000060606060606060B0B0B0B0B0B0B0B002C
:10025000D941CD4111241FBECFEFD1E2DEBFCDBFCA
:1002600000E00CBF25E1A4EFB9E001C01D92A73862
:10027000B207E1F719E0A0E0B2E0E6E0F8EB00E059
:100280000BBF02C007900D92A43FB107D9F711E050
:10029000C9E2D1E000E006C021970109802FFE01EC
:1002A0000E94A159C832D10780E00807A9F70E942F
:1002B0002F4D0C94F25BA4CEAF92BF92CF92DF92FF
:1002C000EF92FF920F931F93CF93DF936C017B010B
:1002D0008B01040F151FEB015E01AE18BF08C0179C
:1002E000D10759F06991D601ED91FC910190F0810F
:1002F000E02DC6011995892B79F7C501DF91CF91C2
:100300001F910F91FF90EF90DF90CF90BF90AF9033
:100310000895FC01538D448D252F30E0842F90E00B
:10032000821B930B541710F0CF96089501970895F0
:10033000FC01918D828D981761F0A28DAE0FBF2FB9
:10034000B11D5D968C91928D9F5F9F73928F90E00F
:1003500008958FEF9FEF0895FC01918D828D98177E
:1003600031F0828DE80FF11D858D90E008958FEFBB
:100370009FEF0895FC01918D228D892F90E0805C84
:100380009F4F821B91098F73992708958AE29CE001
:10039000F1DF21E0892B09F420E0822F089587EC1A
:1003A0009CE0E8DF21E0892B09F420E0822F08950A
:1003B000FC01A48DA80FB92FB11DA35ABF4F2C91DA
:1003C000848D90E001968F739927848FA689B789D1
:1003D0002C93A089B1898C91837080648C93938DC8
:1003E000848D981306C00288F389E02D80818F7D6B
:1003F00080830895EF92FF920F931F93CF93DF9323
:10040000EC0181E0888F9B8D8C8D98131AC0E88950
:10041000F989808185FF15C09FB7F894EE89FF891F
:100420006083E889F98980818370806480839FBFBD
:1004300081E090E0DF91CF911F910F91FF90EF90BD
:100440000895F62E0B8D10E00F5F1F4F0F731127CD
:10045000E02E8C8D8E110BC00FB607FCFACFE88909
:10046000F989808185FFF5CFCE01A2DFF2CFEB8D38
:10047000EC0FFD2FF11DE35AFF4FF0829FB7F89468
:100480000B8FEA89FB8980818062D0CFCF93DF9385
:10049000EC01888D8823B1F0AA89BB89E889F989A4
:1004A0008C9185FD03C0808186FD0CC00FB607FCD2
:1004B000F7CF8C9185FFF2CF808185FFEDCFCE0104
:1004C00077DFEACFDF91CF91089580E090E0892B2C
:1004D00021F065DF81110E94000080E090E0892B0F
:1004E00021F054DF81110E94000080E090E0892B10
:1004F00049F080E090E0892B29F00E9400008111F2
:100500000E94000080E090E0892B49F080E090E0BC
:10051000892B29F00E94000081110C94000008959D
:100520008150823108F05AC0E82FF0E08827E45665
:10053000FD4F8F4F0C94A159BC02C002AE02B40211
:10054000B802EE02C302C902CD02D302D702DB0217
:10055000E102E502EE02E902EF02F302809180007F
:100560008F77809380000895809180008F7DF9CFF0
:1005700080918000877FF5CF84B58F7784BD089503
:1005800084B58F7DFBCF8091B0008F778093B000D2
:1005900008958091B0008F7DF9CF809190008F7782
:1005A000809390000895809190008F7DF9CF809185
:1005B0009000877FF5CF8091A0008F778093A00077
:1005C00008958091A0008F7DF9CF8091A000877F52
:1005D000F5CF809120018F7780932001089580913D
:1005E00020018F7DF9CF80912001877FF5CFCF93B8
:1005F000DF93282F30E0F901ED59FE4F8491F90186
:10060000ED53FE4FD491F901E75FFD4FC491CC2328
:1006100099F0811185DFEC2FF0E0EE0FFF1FE75B13
:10062000FE4FA591B491EC91ED2381E090E009F4A7
:1006300080E0DF91CF91089580E090E0FACF3FB75E
:10064000F89480911A0A90911B0AA0911C0AB0910B
:100650001D0A26B5A89B05C02F3F19F00196A11DC4
:10066000B11D3FBFBA2FA92F982F8827BC01CD01FC
:10067000620F711D811D911D42E0660F771F881F5B
:10068000991F4A95D1F7089508950895DC01599668
:10069000ED91FC913097B9F083899489A589B68949
:1006A0004285538564857585841B950BA60BB70B16
:1006B000811520E89207A105B10538F08FEF9FE77B
:1006C000A0E0B0E0089590E080E00895CF93DF933C
:1006D0001F92CDB7DEB76983DC01ED91FC910280FA
:1006E000F381E02D41E050E0BE016F5F7F4F19952F
:1006F0000F90DF91CF91089590E080E008950F93DF
:100700001F93CF93DF93C7E0D0E00FE010E020E02D
:1007100030E04091610368E572E080E090E00E9483
:10072000F03D0FE010E020E030E0409161036CED1F
:1007300075E080E090E00E94F03D0FE010E020E0E6
:1007400030E04091610360E273E080E090E00E945D
:10075000F03D0FE010E020E030E04091610360EBFD
:1007600074E080E090E00E94F03D219771F6DF9107
:10077000CF911F910F9108950F931F9308EC10E0F4
:1007800020E030E04091610360E273E080E090E0BF
:100790000E94F03D1F910F91089581E08093090A16
:1007A0000895EACFE9CFE8CFE7CFE6CFE5CF0895C8
:1007B0000895CF93DF93FB0122813381DC011396EF
:1007C0003C932E93129744815581668177811496CC
:1007D0004D935D936D937C9317974085518562850A
:1007E000738518964D935D936D937C931B971C9620
:1007F000EF012C969C01275E3F4F49914D93A21724
:10080000B307D9F7218D328DFC01328F218FDF9113
:10081000CF910895FF920F931F93CF93DF93EC0135
:10082000F62E08811981C8010E944E58F81621F051
:100830006F2DC8010E945658CE01DF91CF911F91B4
:100840000F91FF9008950F931F93CF93DF931F9203
:100850001F92CDB7DEB710E000E060E0C8010E9453
:1008600056580F5F1F4F011580E11807B1F78FEF42
:1008700093E09A83898362E5CE010196CBDF7CDF2A
:100880000F900F90DF91CF911F910F910895EF92EC
:10089000FF920F931F93CF93DF93CDB7DEB7A3974C
:1008A0000FB6F894DEBF0FBECDBF80915F0390916D
:1008B00060039A83898380916103909162039C8392
:1008C0008B838091210290912202A0912302B0910A
:1008D00024028D839E83AF83B88780911D029091FF
:1008E0001E02A0911F02B091200289879A87AB87D0
:1008F000BC878091020A8D8760910002709101028D
:10090000072E000C880B990B0E9438576E877F8743
:10091000888B998B8091FE099091FF09A091000A24
:10092000B091010A8A8B9B8BAC8BBD8B8091640349
:1009300090916503A0916603B09167038E8B9F8BA6
:10094000A88FB98F8091040A9091050A9B8F8A8F96
:1009500080915D0390915E039D8F8C8F8091FC0947
:100960009091FD099F8F8E8F8091630388A3809162
:10097000030A89A3CE0101967C0101E010E01BA3CC
:100980000AA3F70161917F01CE01829643DF0F5FD9
:100990001F4F0232110599F786E1E82E82E0F82E0A
:1009A00008EC10E01BA30AA3F70161917F01CE01BF
:1009B000829630DF0F5F1F4F0F3C110599F7A3960A
:1009C0000FB6F894DEBF0FBECDBFDF91CF911F9160
:1009D0000F91FF90EF9008951092FD091092FC097D
:1009E00056DFCACEFC011182108213821282158258
:1009F00014820C94B041FC01118210821382128285
:100A000015821482FB0101900020E9F73197AF01B4
:100A1000461B570B0C945D41FB0101900020E9F748
:100A20003197AF01461B570BDC01ED91FC91028021
:100A3000F381E02D19946115710509F0EDCF90E077
:100A400080E008951F920F920FB60F9211240BB6FB
:100A50000F922F933F934F935F936F937F938F9357
:100A60009F93AF93BF93EF93FF938AE29CE0A0DC48
:100A7000FF91EF91BF91AF919F918F917F916F9176
:100A80005F914F913F912F910F900BBE0F900FBE32
:100A90000F901F9018951F920F920FB60F9211246E
:100AA0000BB60F922F938F939F93EF93FF93E09149
:100AB0003A0CF0913B0C8081E091400CF091410C9C
:100AC00082FD1DC090818091430C8F5F8F732091B8
:100AD000440C821741F0E091430CF0E0E65DF34FE7
:100AE000958F8093430CFF91EF919F918F912F9160
:100AF0000F900BBE0F900FBE0F901F901895808126
:100B0000F2CF1F920F920FB60F9211240BB60F92D5
:100B10002F933F934F935F936F937F938F939F9305
:100B2000AF93BF93EF93FF9387EC9CE041DCFF9181
:100B3000EF91BF91AF919F918F917F916F915F9155
:100B40004F913F912F910F900BBE0F900FBE0F90C2
:100B50001F9018951F920F920FB60F9211240BB68B
:100B60000F922F938F939F93EF93FF93E091D70C66
:100B7000F091D80C8081E091DD0CF091DE0C82FDCB
:100B80001DC090818091E00C8F5F8F732091E10CEC
:100B9000821741F0E091E00CF0E0E953F34F958FBC
:100BA0008093E00CFF91EF919F918F912F910F9087
:100BB0000BBE0F900FBE0F901F9018958081F2CF43
:100BC0001F93CF93DF93282F30E0F901ED59FE4FAB
:100BD0008491F901ED53FE4FD491F901E75FFD4F88
:100BE000C491CC23A1F0162F81119ADCEC2FF0E0F8
:100BF000EE0FFF1FE15DFE4FA591B4918FB7F89402
:100C0000EC91111108C0D095DE23DC938FBFDF91EA
:100C1000CF911F910895DE2BF8CFCF93DF9390E013
:100C2000FC01ED53FE4F2491875F9D4FFC018491A1
:100C30008823D1F090E0880F991FFC01E755FE4F03
:100C4000A591B491FC01E15DFE4FC591D491623054
:100C500071F49FB7F8943C91822F809583238C93F5
:100C6000E8812E2B28839FBFDF91CF9108958FB706
:100C7000F894EC912E2B2C938FBFF6CF8F929F92EE
:100C8000AF92BF92CF92DF92EF92FF926B017C0105
:100C9000D6DC4B015C01C114D104E104F104B1F0D4
:100CA000CEDC681979098A099B09683E7340810581
:100CB000910588F321E0C21AD108E108F10888EE15
:100CC000880E83E0981EA11CB11CE5CFFF90EF9029
:100CD000DF90CF90BF90AF909F908F9008950F932B
:100CE0001F9308EC10E020E030E04091610360E9E0
:100CF00071E080E090E00E94F03D62E370E080E00F
:100D000090E0BCDF1F910F9137CD2FB7F894609121
:100D1000160A7091170A8091180A9091190A2FBF2C
:100D200008951F920F920FB60F9211242F933F93A5
:100D30008F939F93AF93BF938091160A9091170A58
:100D4000A091180AB091190A3091150A23E0230FD7
:100D50002D3758F50196A11DB11D2093150A8093DA
:100D6000160A9093170AA093180AB093190A809153
:100D70001A0A90911B0AA0911C0AB0911D0A0196B3
:100D8000A11DB11D80931A0A90931B0AA0931C0AFF
:100D9000B0931D0ABF91AF919F918F913F912F9179
:100DA0000F900FBE0F901F90189526E8230F029604
:100DB000A11DB11DD2CF1F920F920FB60F92112419
:100DC0000BB60F922F933F934F935F936F937F9345
:100DD0008F939F93AF93BF93EF93FF93E091140290
:100DE000F09115021995FF91EF91BF91AF919F91ED
:100DF0008F917F916F915F914F913F912F910F90C4
:100E00000BBE0F900FBE0F901F9018951F920F9260
:100E10000FB60F9211240BB60F922F933F934F935F
:100E20005F936F937F938F939F93AF93BF93EF9352
:100E3000FF93E0911202F09113021995FF91EF9147
:100E4000BF91AF919F918F917F916F915F914F91E2
:100E50003F912F910F900BBE0F900FBE0F901F90E0
:100E600018951F920F920FB60F9211240BB60F9286
:100E70002F933F934F935F936F937F938F939F93A2
:100E8000AF93BF93EF93FF93E0910802F0910902B3
:100E90001995FF91EF91BF91AF919F918F917F91A4
:100EA0006F915F914F913F912F910F900BBE0F90DB
:100EB0000FBE0F901F9018951F920F920FB60F92B2
:100EC00011240BB60F922F933F934F935F936F9321
:100ED0007F938F939F93AF93BF93EF93FF93E09193
:100EE0000602F09107021995FF91EF91BF91AF9122
:100EF0009F918F917F916F915F914F913F912F9132
:100F00000F900BBE0F900FBE0F901F9018951F9261
:100F10000F920FB60F9211240BB60F922F933F939F
:100F20004F935F936F937F938F939F93AF93BF93F1
:100F3000EF93FF93E0911002F09111021995FF9148
:100F4000EF91BF91AF919F918F917F916F915F9141
:100F50004F913F912F910F900BBE0F900FBE0F90AE
:100F60001F9018951F920F920FB60F9211240BB677
:100F70000F922F933F934F935F936F937F938F9332
:100F80009F93AF93BF93EF93FF93E0910E02F09185
:100F90000F021995FF91EF91BF91AF919F918F91A2
:100FA0007F916F915F914F913F912F910F900BBE69
:100FB0000F900FBE0F901F9018951F920F920FB6B3
:100FC0000F9211240BB60F922F933F934F935F9381
:100FD0006F937F938F939F93AF93BF93EF93FF9301
:100FE000E0910C02F0910D021995FF91EF91BF91E4
:100FF000AF919F918F917F916F915F914F913F91B1
:101000002F910F900BBE0F900FBE0F901F90189551
:101010001F920F920FB60F9211240BB60F922F93BF
:101020003F934F935F936F937F938F939F93AF9370
:10103000BF93EF93FF93E0910A02F0910B02199591
:10104000FF91EF91BF91AF919F918F917F916F91A0
:101050005F914F913F912F910F900BBE0F900FBE5C
:101060000F901F901895EFE6F0E080818D7F8083D0
:1010700082E08093810081E0809380002D982E98FB
:1010800008951F920F920FB60F9211240BB60F9274
:101090002F933F934F935F936F937F938F939F9380
:1010A000AF93BF93EF93FF9330DEDDDFFF91EF91BE
:1010B000BF91AF919F918F917F916F915F914F9170
:1010C0003F912F910F900BBE0F900FBE0F901F906E
:1010D0001895C9DF8091280A811112C060E086E06E
:1010E0006FDD60915D0370915E03072E000C880B2D
:1010F000990BC4DD60E085E063DD60E08DE060DDDC
:1011000010920D0A0895E5DF1092070A1092060A60
:1011100033CB82E06CDA892B19F40E94C03EF9CF00
:1011200084E065DA892BC9F3D4CF8F929F92AF9276
:10113000BF92CF92DF92EF92FF92CF930E94C03E78
:10114000F090020A20E030E040E450E4FF2009F48F
:101150005FC06091F7097091F8098091F909909149
:10116000FA090E947E582091220A3091230A409168
:10117000240A5091250A0E9497570E944F597EDDFC
:101180008091040A9091050A009709F04AC083E013
:101190002EDAC1E0892B09F0C0E09BDFFF2009F4C3
:1011A00045C0C090220AD090230AE090240AF09013
:1011B000250AA7019601C701B6010E947E584B017E
:1011C0005C0120E030E040E85FE36091F709709156
:1011D000F8098091F9099091FA090E947E58A701B7
:1011E00096010E9497579B01AC01C501B4010E9472
:1011F0007D580E944F5942DDCC2309F1CF91FF90D9
:10120000EF90DF90CF90BF90AF909F908F9021C0D4
:101210006091220A7091230A8091240A9091250AF4
:10122000AACF019709F0B8CF84E0B2CF6091220A2B
:101230007091230A8091240A9091250ADACFCF91E8
:10124000FF90EF90DF90CF90BF90AF909F908F90E6
:1012500008954F925F926F927F928F929F92AF927A
:10126000BF92CF92DF92EF92FF920E94C03EF09029
:10127000020AFF2009F457C020E030E040E85FE3B5
:101280006091F7097091F8098091F9099091FA0934
:101290000E947E584B015C012091220A3091230A62
:1012A0004091240A5091250A0E9497570E944F5955
:1012B000E5DC0FDFFF2009F43FC0C090220AD09088
:1012C000230AE090240AF090250AA7019601C7019D
:1012D000B6010E947E582B013C01A5019401C70173
:1012E000B6010E9497579B01AC01C301B2010E9455
:1012F0007D580E944F59C2DC8091040A9091050AE2
:10130000009719F584E073D9892B19F5FF90EF90B8
:10131000DF90CF90BF90AF909F908F907F906F9015
:101320005F904F9002CF6091220A7091230A8091C2
:10133000240A9091250ABACF6091220A7091230A5B
:101340008091240A9091250AD4CF019711F483E06B
:10135000DACFFF90EF90DF90CF90BF90AF909F904B
:101360008F907F906F905F904F9008958FB7F89413
:1013700080910F0A8FBF089561E0FC01848120DC19
:1013800080910E0A811110920E0A08958EBD000000
:101390000DB407FEFDCF8EB508958FEFF7CF8CBD4E
:1013A0009DBD0895CF93DF93EC0180910E0A8111CA
:1013B00008C081E080930E0A8091640D9091650DC4
:1013C000EEDF60E08C81DF91CF91FACB8F929F921C
:1013D000AF92BF92FF920F931F93CF93DF93EC01D5
:1013E000F62E49015A018E81882379F08F819885E4
:1013F0009C012F5F3F4F38872F838230924010F43B
:10140000CCDFF4CFCE01B8DF1E82CE01CBDF8CE281
:1014100091E00E94773B8F2D8064B8DF08E110E0F7
:10142000D501C401002E04C0B695A7959795879560
:101430000A94D2F7ABDF08501109083F8FEF180765
:1014400079F785E9FF2021F028E087E8F2128FEF95
:101450009DDF10E0A2DF8A8787FF04C01F3F11F0E5
:101460001F5FF8CFDF91CF911F910F91FF90BF9039
:10147000AF909F908F900895AF92BF92CF92DF92DE
:10148000EF92FF920F931F93CF93DF93EC016901CB
:10149000C801820F931F8130924048F58E818823C6
:1014A00079F088819981AA81BB8184179507A60765
:1014B000B70731F48F819885C816D90608F03CC06B
:1014C000488359836A837B838B85833039F089E035
:1014D000440F551F661F771F8A95D1F79A01AB01FC
:1014E00061E1CE0173DF882381F083E08D83CE013B
:1014F00043DF80E0DF91CF911F910F91FF90EF903C
:10150000DF90CF90BF90AF900895FFDB5B0145DF88
:101510008A878F3F59F4F9DB6A197B096D32714074
:10152000B0F38FE08D83CE0127DFE1CF8E3F81F4D2
:1015300018861F8281E08E838F8198858C159D058A
:1015400048F42BDF8F819885019698878F83F4CF9D
:101550008DE0E8CF6701E00EF11E1FDFF6018193F9
:101560006F01EE15FF05C9F78F819885080F191FC8
:1015700018870F838985882319F00115124090F090
:101580008E81882379F08F8198859C012F5F3F4F52
:1015900038872F838230924010F4FFDEF4CFCE01E3
:1015A000EBDE1E8281E0A6CFEF92FF920F931F9396
:1015B000CF93DF93EC01790182E14115510561057B
:1015C000710591F08B85833039F089E0440F551F08
:1015D000661F771F8A95D1F79A01AB0168E1CE01AA
:1015E000F5DE882319F084E08D8329C08EEFCEDEEE
:1015F00087018EEFF81AF80181918F01C7DE0E1571
:101600001F05C9F78FEFC2DE8FEFC0DEC6DE8A8707
:101610008F71853081F488E592E00E94773B8823C2
:1016200091F020E030E0A9016DE0CE01CFDE88230B
:1016300061F084E1D9CF81E18D83CE019DDECE01C1
:101640009BDE80E008C085E1CFCFA7DE8111F1CF1E
:10165000CE0192DE81E0DF91CF911F910F91FF903B
:10166000EF9008958091100A882399F14091020229
:101670005091030260910402709105022AE23AE05F
:101680008091260A9091270A8FDF811102C080E0A5
:1016900008954091110A5091120A6091130A7091B5
:1016A000140A411551056105710589F02AE23AE0F5
:1016B0008091260A9091270A77DF882341F31092C0
:1016C000110A1092120A1092130A1092140A109220
:1016D000100A81E008958F929F92AF92BF92EF928D
:1016E000FF920F931F93CF934B015C01C42F809106
:1016F000020290910302A0910402B09105028815A4
:101700009905AA05BB0539F1ADDF81110BC080E059
:10171000CF911F910F91FF90EF90BF90AF909F904E
:101720008F9008958AE2E82E8AE0F82E00E012E019
:1017300030E020E0B501A4018091260A9091270AAB
:101740009BDE882321F38092020290920302A092F2
:101750000402B09205024091100A4C2B4093100AEB
:1017600081E0D6CF4F925F926F927F928F929F923D
:10177000AF92BF92CF92DF92EF92FF920F931F939F
:10178000CF93DF93EC01423051056105710590F470
:1017900080E0DF91CF911F910F91FF90EF90DF904C
:1017A000CF90BF90AF909F908F907F906F905F9001
:1017B0004F90089589859A85AB85BC850196A11DBA
:1017C000B11D84179507A607B70710F3CB88DC88EF
:1017D000ED88FE888F89803109F042C0BB27A72F92
:1017E000962F852F480159012A013B01C80ED91EA9
:1017F000EA1EFB1E8091020290910302A091040256
:10180000B0910502C816D906EA06FB0699F58F893C
:101810008031B9F5B301A201552766277727440F18
:10182000551F465D554FFA01918280828091100AC2
:1018300081608093100A8A89823080F08D819E8138
:10184000AF81B8858C0D9D1DAE1DBF1D8093110A03
:101850009093120AA093130AB093140A81E099CFCF
:10186000DB01CA01E7E0B695A79597958795EA95BC
:10187000D1F7B8CF40E0C701B6012DDF8111C7CF46
:1018800087CFB301A2014F77552766277727440FEB
:10189000551F440F551F465D554FFA0180829182B6
:1018A000A282B382C3CF8F929F92AF92BF92CF9208
:1018B000DF92EF92FF920F931F93CF93DF93FC0180
:1018C00081859285A385B4850196A11DB11D8417DC
:1018D0009507A607B70770F480E0DF91CF911F91BD
:1018E0000F91FF90EF90DF90CF90BF90AF909F90BF
:1018F0008F90089583889488A588B68887898031D9
:1019000089F5BB27A72F962F852FE9016A017B0157
:101910008F01BC01CD01680D791D8A1D9B1D809032
:10192000020290900302A0900402B0900502861675
:101930009706A806B90601F5F8018789803109F5EF
:10194000DD24EE24FF24F601EE0FFF1FE65DF54FC8
:1019500080819181B0E0A0E088839983AA83BB83D2
:1019600081E0BBCFDB01CA01C7E0B695A79597958B
:101970008795CA95D1F7C9CF40E0ADDE8111DCCFA4
:10198000ABCFE894C7F8DD24EE24FF24F601EE0F78
:10199000FF1FEE0FFF1FE65DF54F80819181A28151
:1019A000B381BF70D9CF4F925F926F927F92AF9207
:1019B000BF92CF92DF92EF92FF920F931F93CF933C
:1019C000DF9300D01F92CDB7DEB78C0149835A83D5
:1019D0006B837C835901C12CD12C7601412C82E090
:1019E000582E612C712C49815A816B817C819E011A
:1019F0002F5F3F4FC80157DF882339F1F8018585F4
:101A0000A301920104C0220F331F441F551F8A9562
:101A1000D2F7DA01C901C80ED91EEA1EFB1E4981A0
:101A20005A816B817C818789803111F188EF9FEF2A
:101A3000AFEFBFE0481759076A077B07A0F2F5012F
:101A4000C082D182E282F38281E00F900F900F90EA
:101A50000F90DF91CF911F910F91FF90EF90DF904A
:101A6000CF90BF90AF907F906F905F904F90089510
:101A700088EF9FEFA0E0B0E0DDCFCF92DF92EF9252
:101A8000FF921F93CF93DF93EC0180E2689FF001F8
:101A90001124E65DF54F9385917161F0842F827476
:101AA00049F080E0DF91CF911F91FF90EF90DF90A0
:101AB000CF900895142F6A8B8091020290910302B7
:101AC000A0910402B09105028E879F87A88BB98BE5
:101AD000C488D588F12CE12C7601DD24CC24CF8A72
:101AE000D88EE98EFA8E828D938DB0E0A0E0AC01A5
:101AF000BD014C295D296E297F294F8B588F698F35
:101B00007A8F83858871B1F4848D958DA68DB78D7C
:101B10008B8B9C8BAD8BBE8B81E08D831F701C8368
:101B20001E821F82188619861A861B861C861D86B1
:101B300081E0B8CF803109F0B4CF9E012D5E3F4FD8
:101B40008B8D9C8D30DF882309F4ABCF84E0E5CF0B
:101B50008F929F92AF92BF92CF92DF92EF92FF92BD
:101B60000F931F93CF93DF93EC018D8181110EC0F2
:101B700080E0DF91CF911F910F91FF90EF90DF9068
:101B8000CF90BF90AF909F908F9008950B891C8944
:101B90002D893E89041715072607370748F34A01A0
:101BA0005B01823031F48A869B86AC86BD8681E0FB
:101BB000E0CF81149104A104B10449F41E821F8274
:101BC000188619861A861B861C861D86F0CF0A8504
:101BD0001B852C853D85EB8DFC8D858590E00996D8
:101BE000B901A8014150510961097109082E04C0C9
:101BF00076956795579547950A94D2F775016401D4
:101C0000E1E0CE1AD108E108F10804C0F694E794A7
:101C1000D794C7948A95D2F7C416D506E606F70678
:101C200020F0012B022B032B09F58F89988DA98DAC
:101C3000BA8D8E839F83A887B9878E010A5F1F4F55
:101C4000C114D104E104F10409F4ADCF4E815F81E8
:101C50006885798598018B8D9C8D25DE91E0C91A68
:101C6000D108E108F1088111EBCF82CFC41AD50A5F
:101C7000E60AF70AE2CF3F924F925F926F927F920D
:101C80008F929F92AF92BF92CF92DF92EF92FF928C
:101C90000F931F93CF93DF93CDB7DEB72C970FB67B
:101CA000F894DEBF0FBECDBF5C01DC015B968D906A
:101CB0009C905C9716964D905D906D907C901997D6
:101CC000411451046104710409F467C0BFEF4B1A59
:101CD0005B0A6B0A7B0A312CF40181859285A3850E
:101CE000B4859C01AD012F5F3F4F4F4F5F4F298758
:101CF0003A874B875C87730162011D821E821F82B7
:101D00001886F40181859285A385B4852D813E8155
:101D10004F815885281739074A075B0708F054C0D8
:101D200089859A85AB85BC858C159D05AE05BF055B
:101D300050F482E0C82ED12CE12CF12C92E0492EF7
:101D4000512C612C712C9E012F5F3F4FB701A601D2
:101D5000C401A9DD8823C1F189819A81AB81BC814D
:101D6000892B8A2B8B2B09F1260137019FEF491A0A
:101D7000590A690A790A2D813E814F8158852F5F62
:101D80003F4F4F4F5F4F2D833E834F8358873FEF29
:101D9000C31AD30AE30AF30AB4CFF4014080518096
:101DA000628073803324339497CFC414D504E6043F
:101DB000F70409F70FEF1FEF2FEF3FE0B701A60180
:101DC000C401D0DC811119C080E02C960FB6F894C4
:101DD000DEBF0FBECDBFDF91CF911F910F91FF905E
:101DE000EF90DF90CF90BF90AF909F908F907F90BB
:101DF0006F905F904F903F900895F5014681578115
:101E000060857185411551056105710531F09701B6
:101E10008601C401A7DC8823B9F2D5011696CD92BC
:101E2000DD92ED92FC921997332051F0D701C60153
:101E30000196A11DB11DF40180839183A283B38318
:101E4000F5018789908DA18DB28D892B8A2B8B2BE3
:101E500039F4C78AD08EE18EF28E848180688483C3
:101E600081E0B3CF2F923F924F925F926F927F9219
:101E70008F929F92AF92BF92CF92DF92EF92FF929A
:101E80000F931F93CF93DF9300D0CDB7DEB7FC0144
:101E90008581811118C08FEF9FEF0F900F900F90E9
:101EA000DF91CF911F910F91FF90EF90DF90CF9036
:101EB000BF90AF909F908F907F906F905F904F906A
:101EC0003F902F900895848180FFE5CF4389548906
:101ED0006589768982859385A485B585312C212CE9
:101EE000481759076A077B0719F022242394312CDD
:101EF0006F012101CE0101963C01DF011696BB83E3
:101F0000AA834114510409F4C2C0F60142855385E5
:101F1000648575854A01F1E09F22D6015B968D911B
:101F20009C915C978A019B01E9E03695279517956E
:101F30000795EA95D1F71596EC91E230E1F5FC01B1
:101F4000628D738D848D958D600F711F821F931F1D
:101F5000A12C22E0B22EA818B9084A145B0408F498
:101F60005201F601248126FD04C0A114F2E0BF064F
:101F700071F4009102021091030220910402309149
:101F80000502061717072807390709F05CC040E06B
:101F9000A2DB882309F47FCFC401865D954FD3016E
:101FA0009C012A0D3B1DFC012E173F0709F46AC056
:101FB00041914D93F9CFDC011496BC90BA94B022B4
:101FC0008114910479F4B1100DC0452B462B472B99
:101FD00069F5F6018789908DA18DB28D86839783EF
:101FE000A087B187D6015B96ED91FC915C97169620
:101FF0006D917D918D919C91199762507109810924
:102000009109258504C0660F771F881F991F2A959F
:10201000D2F70685178520893189600F711F821FCD
:10202000931F6B0D711D811D911D92CFD6011696C8
:102030004D915D916D917C9119972A813B8133DCA3
:102040008111D0CF28CF730185019401AB01BC0170
:102050008091260A9091270A0FDA882309F41BCF72
:102060006A0C7B1CF60182859385A485B5858A0D53
:102070009B1DA11DB11D82879387A487B5874A1830
:102080005B083FCF281B390B620E731EEBCF2A94DF
:10209000232809F000CF898190E0FFCEFC01818DDB
:1020A000928D009709F0DECE8FEF9FEF08950F938A
:1020B0001F93CF93DF93EC01898D9A8D10E000E0A0
:1020C000009789F0CFDE8C010F3F100761F0898DFA
:1020D0009A8DFC014285538564857585415051096F
:1020E0006109710935DDC801DF91CF911F910F9111
:1020F0000895CF93DF93EC018D81882321F18C81AA
:1021000087FF1EC0CE010E94923BFC01892BD9F0B3
:102110008D81823040F48B899C89AD89BE89848F02
:10212000958FA68FB78F8F89988D938F828F8F8988
:10213000988DA98DBA8DB58BA48B8C818F778C836C
:10214000DF91CF918FCA80E0DF91CF910895CF9337
:10215000DF93EC01CEDF882311F01D8281E0DF9157
:10216000CF910895FC01818D928D009709F0C1CF28
:1021700008953F924F925F926F927F928F929F92BB
:10218000AF92BF92CF92DF92EF92FF920F931F9385
:10219000CF93DF9300D000D000D01F921F92CDB715
:1021A000DEB77C01DC0115968C91811115C0FE0112
:1021B0003196CE010C966F0130E23193E817F907A2
:1021C000E1F7DA0130E087E09D91B92E992329F1FA
:1021D0009E3239F48A3011F480E0D6C038E08AE0CB
:1021E000F3CFEFE1F1E04491442321F031969413D1
:1021F000FACFF2CF831780F34FED490F4E3560F7DA
:102200004FE9490F4A3118F440EEB42EB90EF601E9
:10221000E30FF11DB0823F5FD7CF89818032E1F2B9
:10222000322E8B01FB01838D948DD7015C969C939C
:102230008E935B97168217821086118612861386FC
:1022400014861586F80182859385A485B585438912
:1022500054896589768984179507A607B70708F01A
:102260004CC025E0B695A795979587952A95D1F707
:10227000F82FFF70AF2ED80115968C91823008F49C
:10228000ABCFC801EFDD97FDA7CFF801828593851D
:10229000A485B5854F96A11DB11D82879387A4871C
:1022A000B587F0E2AF9EB0011124665D754F6115F0
:1022B000710509F491CFDB018C91882341F0853EB3
:1022C00009F056C0BB2029F0BB24B394BBCFB1109A
:1022D0000EC0F701A28A8091020290910302A091A0
:1022E0000402B091050286879787A08BB18BDB0132
:1022F0008C918111E9CFBB24B394832D82718231FB
:1023000009F06ACFBB2009F457C0C7010E94923B75
:10231000009709F461CF20E2FC0111922A95E9F7B8
:102320002BE0F601DC0101900D922A95E1F721E204
:1023300038E2DC0151963C932E93509740E058E0F0
:102340001F965C934E931E9753963C932E935297F1
:1023500059963C932E93589757965C934E93569765
:1023600081D9882309F438CF432DF70162890AC047
:102370004BE050E0C6010E94B25B892B09F062CFAE
:10238000432D6A2DC70179DB2B960FB6F894DEBF7B
:102390000FBECDBFDF91CF911F910F91FF90EF90B6
:1023A000DF90CF90BF90AF909F908F907F906F9075
:1023B0005F904F903F900895F8018581823009F435
:1023C0000BCFC80158DC882309F406CFD8015B96EF
:1023D000ED91FC915C9716968D909D90AD90BC9080
:1023E0001997B2E08B1A9108A108B108858504C03D
:1023F000880C991CAA1CBB1C8A95D2F786859785E8
:10240000A089B189880E991EAA1EBB1E8481240151
:102410003501480E511C611C711C84149504A604DE
:10242000B704F9F0E1E04E1A5108610871081AD9B1
:10243000882309F4D1CEEAE2FAE011928AE29CE024
:102440008E179F07D1F740920202509203026092CA
:102450000402709205028091100A81608093100A34
:10246000DCCFD8015B96ED91FC91258580E092E070
:10247000A0E0B0E004C0880F991FAA1FBB1F2A95D7
:10248000D2F7F8014389548965897689840F951FAD
:10249000A61FB71F838B948BA58BB68BD701529643
:1024A0001C928AE29AE037CF1F93CF93DF93CDB788
:1024B000DEB76D970FB6F894DEBF0FBECDBFAB0190
:1024C0001C821B8223E933E03A8329831E8221E0A8
:1024D000BC01CE0101964DDE11E081110CC010E06F
:1024E000812F6D960FB6F894DEBF0FBECDBFDF9182
:1024F000CF911F910895CE01019629DEF1CFCF93A0
:10250000DF93CDB7DEB76D970FB6F894DEBF0FBE81
:10251000CDBF442381F1AB01BC011C821B8283E946
:1025200093E09A8389831E8222E0CE01019621DE08
:1025300081110EC090E081E0911101C080E06D96A4
:102540000FB6F894DEBF0FBECDBFDF91CF910895D7
:10255000CE0101960E94AB3B882361F3CE01019628
:102560000E94923B009731F325EEFC0120831E82EE
:1025700079D8982FE0CF81E0E2CF2F923F924F920F
:102580005F926F927F928F929F92AF92BF92CF9203
:10259000DF92EF92FF920F931F93CF93DF9300D0C0
:1025A0001F92CDB7DEB78C015B011A01DC011596D5
:1025B0008C911597813009F0C6C014968C9181FFDB
:1025C000C2C082FDADC06101D8011A964D915D91E6
:1025D0006D917C911D97C114D10409F426C15B96BD
:1025E0008D919C915C97FC0174802FEF270D2A013F
:1025F0003B0139E076946794579447943A95D1F724
:10260000722E74207A01F1E0FF2271101FC0E114D4
:10261000F104E1F416964D915D916D917C911997BD
:10262000411551056105710509F096C057968D91C8
:102630009D910D90BC91A02D0097A105B10509F0C9
:10264000ACC0C80118DB882309F47DC080E092E0AB
:102650008E199F0946018C159D0508F44C01D8017F
:102660005B964D915C915C9716968D919D910D9026
:10267000BC91A02D0297A109B109FA01258504C0DA
:10268000880F991FAA1FBB1F2A95D2F74685578529
:1026900060897189840F951FA61FB71F9C01AD012A
:1026A000270D311D411D511D29013A01811432E0D0
:1026B000930609F078C08091020290910302A091E4
:1026C0000402B091050284159505A605B70559F4D5
:1026D0008FEF9FEFDC018093020290930302A0939F
:1026E0000402B09305029501B301A2018091260A6C
:1026F0009091270A0E94D40A882329F19EEFB91AE3
:10270000C818D908F80182859385A485B585880DF8
:10271000991DA11DB11D82879387A487B58754CFCA
:10272000F801438954896589768982859385A485D2
:10273000B585481759076A077B0709F444CFC801D4
:1027400007DA811140CF81E090E0D80113969C9385
:102750008E93129780E006C09E012F5F3F4FA3D853
:10276000811102C090E077C089819A81AB81BC81E0
:10277000F801238D348DF901278948EF5FEF60E080
:1027800070E0203121F048EF5FEF6FEF7FE08417BA
:102790009507A607B70708F054CFF80186839783FB
:1027A000A087B18753CFE114F10491F5D8011A96AF
:1027B0004D915D916D917C911D9753968D919D9159
:1027C0000D90BC91A02D481759076A077B0700F1AF
:1027D0000E94320B882309F4B6CF40920202509235
:1027E000030260920402709205028091100A8160D7
:1027F0008093100A9701265D354FD501C901880DD8
:10280000991DF9018E179F0759F04D914193FACF09
:1028100041E0C301B2010E946B0B8111EBCF93CF5A
:10282000821B930BA80EB91E6BCFF8018389948984
:10283000A589B68984179507A607B70738F4848158
:10284000438B548B658B768B80688483F8018481FD
:1028500083FD18C0C1010F900F900F900F90DF9172
:10286000CF911F910F91FF90EF90DF90CF90BF908D
:10287000AF909F908F907F906F905F904F903F9020
:102880002F900895C80135DC882309F45CCFE2CF8E
:10289000CF93DF931F92CDB7DEB7698341E050E05D
:1028A000BE016F5F7F4F69DE0F90DF91CF9108957A
:1028B000CF93DF93EC01E98DFA8D309749F481E0F5
:1028C00090E09B838A8390E080E0DF91CF91089530
:1028D00013821282898D9A8D50DEE98DFA8D2281C4
:1028E0003381232B61F7F1CFFC01DB0112968D912F
:1028F0009C9113979383828383E993E091838083F0
:1029000014968C911497848315968C9115978583D2
:1029100016964D915D916D917C91199746835783E1
:10292000608771871A964D915D916D917C911D978D
:1029300042875387648775871E964D915D916D918F
:102940007C91519746875787608B718B52968C91FB
:102950005297828B53964D915D916D917C915697D4
:10296000438B548B658B768B57964D915D916D9112
:102970007C915A97478B508F618F728F5B968D91A8
:102980009C91948F838F0895EF92FF920F931F93E2
:10299000CF93DF93EC017B018A011B821A8288EEC0
:1029A00093E0A0E0B0E08C839D83AE83BF838FE98A
:1029B00093E0998388838DE190E00E94A9599A8FD2
:1029C000898F009779F02DE1F701DC0101900D92DC
:1029D0002A95E1F74CE050E0B801CE010C960E9438
:1029E000E35B188EDF91CF911F910F91FF90EF90D5
:1029F0000895CF93DF93EC016DEA73E087EC9CE0E0
:102A00000E941B05BE010D2E000C880B990B4AE09D
:102A10000E947A3E6DE174E087EC9CE00E941B0509
:102A2000688170E090E080E04AE00E947A3E6FEAC0
:102A300073E087EC9CE00E941B05698170E090E0E8
:102A400080E04AE00E947A3E6FEA73E087EC9CE007
:102A50000E941B056A817B816115710551F087EC2D
:102A60009CE00E941B0582EF99E0DF91CF910C94CE
:102A7000E03A61EB73E0F3CFCF93DF93EC018AE2AE
:102A80009CE00E94BA01892B29F08AE29CE00E9416
:102A90009801F5CFBE018AE29CE00E941B056FEF12
:102AA0008AE29CE00E94FA016FEF8AE29CE00E94B9
:102AB000FA016FEF8AE29CE0DF91CF910C94FA016A
:102AC00083B78E7F83BFEC98E6E0F2E084E493E086
:102AD00091838083ED989383828388EB93E0CCDFAE
:102AE0008AE29CE00C94460283B78E7F83BFEC9809
:102AF000E6E0F2E084E493E091838083ED989383B1
:102B0000828380EC93E0B8DF88EB93E0B5DF8AE264
:102B10009CE00C9446028F929F92AF92BF92CF920C
:102B2000DF92EF92FF924B015C010E9485066B01E0
:102B30007C010E9485066C197D098E099F09681524
:102B400079058A059B0518F40E94F73EF2CFFF90A5
:102B5000EF90DF90CF90BF90AF909F908F900895AF
:102B600087EC93E089DF8091030A811127C064E636
:102B700070E080E090E0CFDF8AE29CE00E944602B5
:102B800083B7816083BF20E635E13093070220934D
:102B9000060280916A008C7F80936A00EC9A3093E1
:102BA00009022093080280916A00837F80936A0063
:102BB000ED9A83B7817F846083BF8895089564E62A
:102BC00070E080E090E0A7DF8FEC93E055DF86EDCA
:102BD00093E052DF87EC93E04FDF8AE29CE00E94B3
:102BE000460283B7816083BFA6E0B2E024E735E107
:102BF00011963C932E93EAE6F0E080818C7F8083EF
:102C0000EC9A13963C932E9312978081837F808356
:102C1000ED9A83B7817F846083BF8895089586ECA1
:102C200092E1CDCFEF92FF920F931F93CF93DF935B
:102C3000CDB7DEB7A1970FB6F894DEBF0FBECDBFFC
:102C40008FEF93E00E944E58843559F00E9447045C
:102C50008FEF93E09A83898364E5CE0101960E9409
:102C60000A048E010F5F1F4FEE24E394F12CC7017D
:102C70000E944E58F80181938F01FFEFEF1AFF0A6F
:102C800082E2E816F10499F789819A8190936003B2
:102C900080935F038B819C81909362038093610397
:102CA0008D819E81AF81B88580932102909322020D
:102CB000A0932302B093240289859A85AB85BC85B5
:102CC00080931D0290931E02A0931F02B0932002D6
:102CD0008D858093020A6E857F85888999890E94F7
:102CE0004A5970930102609300028A899B89AC89DA
:102CF000BD898093FE099093FF09A093000AB093C9
:102D0000010A8E899F89A88DB98D80936403909361
:102D10006503A0936603B09367038A8D9B8D9093A0
:102D2000050A8093040A8C8D9D8D90935E03809399
:102D30005D038E8D9F8D9093FD098093FC0988A182
:102D40008093630389A18093030A86E1E82E82E0E1
:102D5000F82E08EC10E0C8010E944E58F70181934C
:102D60007F010F5F1F4F0F3C1105A9F7A1960FB60A
:102D7000F894DEBF0FBECDBFDF91CF911F910F91B1
:102D8000FF90EF900895EF92FF920F931F93CF93D0
:102D9000DF9300D000D0CDB7DEB77C018B0161E2BC
:102DA00074E0CE0101960E94FB04F70162817381F9
:102DB000CE0101960E94DB406DED73E0CE010196DD
:102DC0000E94DB40B801CE0101960E94DB4062EE1A
:102DD00073E0CE0101960E94DB4089819A814CDE2E
:102DE0000E94403B182FCE0101960E94C541812FC1
:102DF00026960FB6F894DEBF0FBECDBFDF91CF9100
:102E00001F910F91FF90EF900895CF93DF93CDB76F
:102E1000DEB7C456D1090FB6F894DEBF0FBECDBFE2
:102E200044E650E0BE016F5F7F4F0E94863FBE01C7
:102E30006F5F7F4F86EC92E1A6DFBE016F5F7F4F31
:102E400082EA92E1A0DFCC59DF4F0FB6F894DEBFE3
:102E50000FBECDBFDF91CF910895CF93DF93CDB754
:102E6000DEB76E970FB6F894DEBF0FBECDBF4EE152
:102E700050E0BE016F5F7F4F0E94863FBE016F5FD3
:102E80007F4F86E992E17FDFBE016F5F7F4F8AE867
:102E900092E179DF6E960FB6F894DEBF0FBECDBF1C
:102EA000DF91CF910895CF93DF93CDB7DEB76E97C3
:102EB0000FB6F894DEBF0FBECDBF4EE150E0BE01AD
:102EC0006F5F7F4F0E94863FBE016F5F7F4F8EE531
:102ED00091E159DF6E960FB6F894DEBF0FBECDBFFD
:102EE000DF91CF9108950E94690880916303811159
:102EF00012C081E0809363038091630364EE73E00A
:102F0000882311F066EE73E086EB93E13CDF0E94CC
:102F100047040C94BC0310926303EECF8F929F92F0
:102F2000AF92BF92EF92FF920F931F93CF93DF93D5
:102F3000CDB7DEB760970FB6F894DEBF0FBECDBF3A
:102F40007C014A018E010F5F1F4F8AE0F801119248
:102F50008A95E9F761E274E0CE010B960E94FB04CA
:102F60004AE0B801C4010E949455F701628173815F
:102F7000CE010B960E94DB406BEE73E0CE010B9608
:102F80000E94DB40B801CE010B960E94DB408B858E
:102F90009C8572DD0E94403B182FCE010B960E944B
:102FA000C541812F60960FB6F894DEBF0FBECDBF2E
:102FB000DF91CF911F910F91FF90EF90BF90AF9055
:102FC0009F908F90089520E030E040E85FE36091AB
:102FD00021027091220280912302909124020E948A
:102FE0007D580E944F59AB01BC018EE394E196DFFE
:102FF000609121027091220280912302909124021B
:103000000E944F59AB01BC018EE394E187CF409100
:103010005F0350916003052E000C660B770B8EE169
:1030200092E17CDF4091610350916203052E000C18
:10303000660B770B86E692E171DF40916103509158
:103040006203052E000C660B770B82E192E166DFCE
:1030500060916403709165038091660390916703AA
:103060000E944F59AB01BC018AE592E157DF6091A4
:1030700064037091650380916603909167030E94D9
:103080004F59AB01BC0186E092E148DF40915D03FE
:1030900050915E03052E000C660B770B8EE492E1D7
:1030A0003DDF40915D0350915E03052E000C660BE1
:1030B000770B8EEE91E132DF4091040A5091050AC0
:1030C000052E000C660B770B8EE792E127DF8091CF
:1030D000040A9091050A8130910549F082309105EA
:1030E00061F061EF73E0892B21F00C94BC0368EF71
:1030F00073E08AE292E147DEF8CF61E074E0F9CF55
:103100004091030A50E070E060E086EE94E106DF53
:103110000C94BC038091030A81110EC081E080935E
:10312000030A41E050E060E070E086EE94E1F6DEF4
:103130000E9447040C94BC031092030A40E050E044
:10314000BA01F3CF86EE94E1E5CFEF92FF920F93B1
:103150001F93CF93DF93CDB7DEB72E970FB6F894BA
:10316000DEBF0FBECDBF7C018B0165E074E0CE01F8
:1031700009960E94FB04F70162817381CE010996D2
:103180000E94DB406AE074E0CE0109960E94DB40B9
:1031900089859A8571DCCE01019628E0FC011192A7
:1031A0002A95E9F744E650E060E070E040932E0C89
:1031B00050932F0C6093300C7093310C68E070E0EA
:1031C0000E94F33A089709F053C08981813709F0CA
:1031D0004FC08E818F3F09F04BC08F818F3F09F028
:1031E00047C088858F3F09F043C02D818C8190E0D6
:1031F000B0E0A0E0DC0199278827B22B2A81822B3E
:103200004B8150E0542F4427052E000C660B770BA2
:10321000842B952BA62BB72BF80180839183A28357
:10322000B3836FE074E087EC9CE00E941B05F8011B
:1032300060817181828193814AE00E947A3E6FE1D0
:1032400074E087EC9CE00E940C0511E0CE01099629
:103250000E94C541812F2E960FB6F894DEBF0FBE97
:10326000CDBFDF91CF911F910F91FF90EF90089507
:1032700082E294E00E94E03A10E0E8CFCF93DF933F
:1032800000D01F92CDB7DEB719821A821B821C8232
:10329000BE016F5F7F4F8EE492E157DF49815A8113
:1032A0006B817C818EEE91E139DE89819A819093E8
:1032B0005E0380935D030E9447040E94BC030F904D
:1032C0000F900F900F90DF91CF910895CF93DF93E0
:1032D00000D01F92CDB7DEB719821A821B821C82E2
:1032E000BE016F5F7F4F8AE592E12FDF49815A81EE
:1032F0006B817C8186E092E111DE69817A818B812C
:103300009C810E9436576093640370936503809399
:103310006603909367030E9447040E94BC030F90CA
:103320000F900F900F90DF91CF9108950F931F93FF
:10333000CF93DF9300D01F92CDB7DEB719821A82E8
:103340001B821C82BE016F5F7F4F86E692E1FDDE2D
:1033500049815A816B817C8182E192E1DFDD998133
:10336000492F8A81909361038093620360915F0388
:1033700070916003072E000C880B990B00E010E0A1
:1033800098010E94F03D64EF71E080E090E00E94BF
:103390003E060E9433080E9447040F900F900F9042
:1033A0000F90DF91CF911F910F9108950F931F936D
:1033B000CF93DF9300D01F92CDB7DEB719821A8268
:1033C0001B821C82BE016F5F7F4F82E792E1BDDEF0
:1033D00069817A817093600360935F03072E000C0C
:1033E000880B990B00E010E09801409161030E9466
:1033F000F03D64EF71E080E090E00E943E060E94A4
:1034000033080E9447040F900F900F900F90DF91A8
:10341000CF911F910F9108958F929F92AF92BF927B
:10342000EF92FF920F931F93CF93DF93CDB7DEB749
:1034300060970FB6F894DEBF0FBECDBF7C014A0186
:103440008E010F5F1F4F8AE0F80111928A95E9F70C
:1034500061E274E0CE010B960E94FB044AE0B801E1
:10346000C4010E949455F70162817381CE010B96CD
:103470000E94DB4064E374E0CE010B960E94DB40C7
:10348000B801CE010B960E94DB408B859C85F4DA57
:1034900061E274E0CE010B960E947C416AE374E025
:1034A000CE010B960E94DB40F70162817381CE0151
:1034B0000B960E94DB408B859C85DEDA0E94403BA8
:1034C000182FCE010B960E94C541812F60960FB632
:1034D000F894DEBF0FBECDBFDF91CF911F910F914A
:1034E000FF90EF90BF90AF909F908F9008958F9234
:1034F0009F92AF92BF92EF92FF920F931F93CF9341
:10350000DF93CDB7DEB760970FB6F894DEBF0FBE7E
:10351000CDBF7C014A018E010F5F1F4F8AE0F80189
:1035200011928A95E9F761E274E0CE010B960E9450
:10353000FB044AE0B801C4010E949455F70162817E
:103540007381CE010B960E94DB406FE374E0CE01E5
:103550000B960E94DB40B801CE010B960E94DB4027
:103560008B859C8589DA61E274E0CE010B960E941E
:103570007C416AE374E0CE010B960E94DB40F701C8
:1035800062817381CE010B960E94DB408B859C8506
:1035900073DA0E94403B182FCE010B960E94C54162
:1035A000812F60960FB6F894DEBF0FBECDBFDF91BE
:1035B000CF911F910F91FF90EF90BF90AF909F9090
:1035C0008F9008954FEF5FEF60E070E08EE093E141
:1035D0008EDF4FEF5FEF60E070E08EE093E11CDF85
:1035E0004FEF5FEF60E070E082ED92E180DF4FEF40
:1035F0005FEF60E070E082ED92E10EDF10920C0A66
:10360000089540E058EF60E070E08EE093E16FDFF6
:1036100040E058EF60E070E08EE093E1FDDE40E0D6
:1036200058EF60E070E082ED92E161DF40E058EF3A
:1036300060E070E082ED92E1EFDE81E080930C0AC1
:1036400008954FEF5FEF60E070E08AE193E14FDFB4
:103650004FEF5FEF60E070E08AE193E1DDDE4FEF76
:103660005FEF60E070E08EED92E141DF4FEF5FEFE2
:1036700060E070E08EED92E1CFDE10920B0A0895CB
:103680004FEF5FEF60E070E08EE393E130DF4FEFEC
:103690005FEF60E070E08EE393E1BEDE4FEF5FEF3F
:1036A00060E070E082E093E122DF4FEF5FEF60E0E7
:1036B00070E082E093E1B0DE10920A0A08954FEFC5
:1036C0005FEF60E070E08EE393E111DF40E058EFE0
:1036D00060E070E08EE393E19FDE4FEF5FEF60E02C
:1036E00070E082E093E103DF40E058EF60E070E0DB
:1036F00082E093E191DE81E080930A0A089581E0FF
:1037000080930D0A0E94C03EDADF1092070A1092E1
:10371000060A61E274E085EC9DE00C947C4140E097
:1037200058EF60E070E08EE393E1E1DE40E058EFB7
:1037300060E070E08EE393E16FDE40E058EF60E020
:1037400070E082E093E1D3DE40E058EF60E070E0AB
:1037500082E093E161DE81E080930A0A089580911E
:103760000B0A811137C080910A0A81110E947F03E0
:103770008091FB09811104C080910C0A882369F1B2
:1037800061E274E08FEB9DE00E94C640811125C08C
:103790000E946F0640E058EF60E070E08AE193E13C
:1037A000A6DE40E058EF60E070E08AE193E134DEAD
:1037B00040E058EF60E070E08EED92E198DE40E08E
:1037C00058EF60E070E08EED92E126DE81E08093BC
:1037D0000B0A089536DF0C94BC0308958EE295E140
:1037E000BECF4FEF57E860E070E08EEC94E17FDEF3
:1037F0004FEF57E860E070E086EB94E178DE4FEF42
:1038000057E860E070E08AEA94E171DE4FEF57E834
:1038100060E070E08EE994E16ADE40EF5FEF60E027
:1038200070E082E994E163DE0C94BC034FEF57E84B
:1038300060E070E08EEC94E15ADE4FEF57E860E014
:1038400070E086EB94E153DE4FEF57E860E070E004
:103850008AEA94E14CDE40EF5FEF60E070E08EE9D1
:1038600094E145DE4FEF57E860E070E082E994E1D3
:103870003EDE0C94BC034FEF57E860E070E08EEC46
:1038800094E135DE4FEF57E860E070E086EB94E1BD
:103890002EDE40EF5FEF60E070E08AEA94E127DE21
:1038A0004FEF57E860E070E08EE994E120DE4FEFE3
:1038B00057E860E070E082E994E119DE0C94BC0303
:1038C0004FEF57E860E070E08EEC94E110DE40EFDF
:1038D0005FEF60E070E086EB94E109DE4FEF57E8C0
:1038E00060E070E08AEA94E102DE4FEF57E860E0C2
:1038F00070E08EE994E1FBDD4FEF57E860E070E0A7
:1039000082E994E1F4DD0C94BC0340EF5FEF60E0EA
:1039100070E08EEC94E1EBDD4FEF57E860E070E093
:1039200086EB94E1E4DD4FEF57E860E070E08AEA6F
:1039300094E1DDDD4FEF57E860E070E08EE994E15F
:10394000D6DD4FEF57E860E070E082E994E1CFDD2B
:103950000E94BC038AE695E103C940EF5FEF60E097
:1039600070E08EEC94E1C3DD4FEF57E860E070E06B
:1039700086EB94E1BCDD4FEF57E860E070E08AEA47
:1039800094E1B5DD4FEF57E860E070E08EE994E137
:10399000AEDD4FEF57E860E070E082E994E1A7DD2B
:1039A0000C94BC03CF93DF9300D000D0CDB7DEB72B
:1039B0008091290A811102C00E94BC030E946908FB
:1039C00061E274E085EC9DE00E947C411092070A60
:1039D0001092060A1092FE091092FF091092000A36
:1039E0001092010A8091FB098823F1F04FEF5FEFFD
:1039F00060E070E082E393E17ADD4FEF5FEF60E03B
:103A000070E082E393E108DD4FEF5FEF60E070E08C
:103A100086EF92E16CDD4FEF5FEF60E070E086EFE4
:103A200092E1FADC1092FB098091080A8823F1F0F8
:103A30004FEF5FEF60E070E086E293E158DD4FEF1B
:103A40005FEF60E070E086E293E1E6DC4FEF5FEF6E
:103A500060E070E08AEE92E14ADD4FEF5FEF60E0F8
:103A600070E08AEE92E1D8DC1092080A80910B0A8D
:103A70008111E7DD80910C0A8111A4DD50DE65E43F
:103A800074E0CE0101960E94FB04CE010196BDD9DF
:103A9000CE0101960E94C54166ED74E0CE0101960B
:103AA0000E94FB04CE010196FED9CE0101960E9430
:103AB000C54166ED74E0CE0101960E94FB04CE0183
:103AC0000196CBD9CE0101960E94C54161E274E016
:103AD0008FEB9DE00E947C416091FE097091FF098F
:103AE0008091000A9091010A0E944F59AB01BC01DC
:103AF0008AE493E113DA6091FE097091FF098091E5
:103B0000000A9091010A0E944F59AB01BC0186EE58
:103B10009DE004DA0E94470485D81092280A10928A
:103B2000090A26960FB6F894DEBF0FBECDBFDF910F
:103B3000CF91089582EF94E135CF66E172E08EEA8D
:103B400092E121D982EF94E12DCF1092070A1092D1
:103B5000060A66E172E08AEB92E115D960912102D2
:103B60007091220280912302909124020E944F5969
:103B7000AB01BC018EE394E1D1D960912102709137
:103B8000220280912302909124020E944F59AB019E
:103B9000BC018EE693E1C2D98091020A882331F0FC
:103BA00040E050E0BA0182E693E136DC4091000249
:103BB00050910102052E000C660B770B82E693E113
:103BC000ADD960911D0270911E0280911F029091EB
:103BD00020020E944F59AB01BC0186E593E19ED9BA
:103BE0006091FE097091FF098091000A9091010A8D
:103BF0000E944F59AB01BC018AE493E18FD94091F7
:103C0000030A50E070E060E086EE94E187D980918D
:103C1000630364EE73E0882311F066EE73E086EBD5
:103C200093E1B1D882EF94E1BDCE8EE993E18DCFDF
:103C30008EE993E18ACF8EE993E187CF8EE993E114
:103C400084CFCF93DF9300D01F92CDB7DEB7198218
:103C50001A821B821C82BE016F5F7F4F8EE792E14A
:103C600074DA89819A81AB81BC8181309105A1058B
:103C7000B105D9F080F00297A105B105F9F00E94D5
:103C8000BC0382EF94E18EDE0F900F900F900F90A7
:103C9000DF91CF9108951092050A1092040A61EF06
:103CA00073E08AE292E16FD8EACF81E090E09093EE
:103CB000050A8093040A68EF73E0F3CF82E090E096
:103CC0009093050A8093040A61E074E0EACF8F9232
:103CD0009F92AF92BF92CF92DF92EF92FF9280912C
:103CE000060A9091070A0197029708F045C0809153
:103CF000C50D9091C60DC12CD12C7601009721F0F5
:103D00000E944C556B017C01C0922102D09222028C
:103D1000E0922302F0922402C0921D02D0921E0271
:103D2000E0921F02F092200220E030E048EC52E4E2
:103D300060916403709165038091660390916703BD
:103D40000E94E2584B015C01A701960160E070E01F
:103D500086E994E40E94E2589B01AC01C501B401DC
:103D60000E9497576093220A7093230A8093240A33
:103D70009093250A0E9447048091060A9091070AB1
:103D8000892B31F480910D0A811102C00E947F03BA
:103D9000609121027091220280912302909124026D
:103DA0000E944F59AB01BC018EE394E1B7D86091FA
:103DB00021027091220280912302909124020E949C
:103DC0004F59AB01BC018EE693E1A8D860911D026A
:103DD00070911E0280911F02909120020E944F5903
:103DE000AB01BC0186E593E199D882EF94E1FF90A5
:103DF000EF90DF90CF90BF90AF909F908F90D2CDFB
:103E000080910D0A811159C08091060A9091070A8C
:103E1000019709F039C081E08093020A0E94A93F0E
:103E20007093010260930002AB01770F660B770B72
:103E300082E693E173D840E050E0BA0182E693E174
:103E4000EBDAE0910002F0910102EA30F105E0F4D2
:103E50008827E25DF04E8F4F0C94A159381F601FE8
:103E6000651F6A1F6F1F741F791F7E1F831F881FA6
:103E70008DEC9CECACECBEEB8093F7099093F809C9
:103E8000A093F909B093FA098091060A9091070A64
:103E9000892B49F41092020A40EE5FEF60E070E077
:103EA00082E693E1B9DA8091060A9091070A0297B7
:103EB00014F00E947F030E94470482EF94E172CDC8
:103EC0008AE999E9A9E9BEEBD7CF8DEC9CECACE48B
:103ED000BEEBD2CF8DEC9CECACECBDEBCDCF8DEC42
:103EE0009CECACE4BDEBC8CF8DEC9CECACE4BDE34A
:103EF000C3CF8DEC9CECACECBDE3BECF8DEC9CEC69
:103F0000ACE4BEE3B9CF8AE999E9A9E9BEE3B4CF4D
:103F10008DEC9CECACECBEE3AFCF4F925F926F9216
:103F20007F928F929F92AF92BF92CF92DF92EF9249
:103F3000FF92CF93DF9300D01F92CDB7DEB7C09032
:103F40002102D0902202E0902302F090240280917E
:103F50000D0A81111AC00E94A93F0E943857609330
:103F60001D0270931E0280931F0290932002809185
:103F7000060A9091070A892B41F4C0921D02D09243
:103F80001E02E0921F02F092200240901D0250900B
:103F90001E0260901F027090200220E030E048EC8A
:103FA00052E460916403709165038091660390917F
:103FB00067030E94E2584B015C0120E030E046E9D3
:103FC00053E4C701B6010E94975769837A838B83B4
:103FD0009C8320E030E04AE353E4C301B2010E9435
:103FE00097579B01AC0169817A818B819C810E94EA
:103FF0007D589B01AC01C501B4010E9497574B014C
:104000005C0120E030E04EEB52E4C701B6010E94B3
:104010009757A30192010E9497579B01AC01C501DC
:10402000B4010E94E25820E030E04AE754E40E94E4
:10403000975760931E0A70931F0A8093200A9093EB
:10404000210A20E030E0A9010E947B5987FD27C0AA
:104050000E94470460911D0270911E0280911F0210
:10406000909120020E944F59AB01BC0186E593E17B
:104070000E948E1782EF94E10F900F900F900F9097
:10408000DF91CF91FF90EF90DF90CF90BF90AF90F6
:104090009F908F907F906F905F904F9083CC0E9405
:1040A0007F03E8CF80910D0A882319F082EF94E115
:1040B00079CC80910A0A882321F1E2DA40E058EFB6
:1040C00060E070E082E393E112DA40E058EF60E0F4
:1040D00070E082E393E1A0D940E058EF60E070E047
:1040E00086EF92E104DA40E058EF60E070E086EF9E
:1040F00092E192D981E08093FB098093280A0C9485
:1041000047041092280A82EF94E14CDCF8CF82E554
:1041100095E1C8CFCF93DF9300D000D0CDB7DEB705
:1041200080910B0A882359F161E274E08FEB9DE0E6
:104130000E947C4161E274E0CE0101960E94FB0482
:10414000CE0101960E945317CE0101960E94C541EF
:1041500061E274E0CE0101960E94FB04CE0101965B
:104160000E942D17CE0101960E94C54126960FB6DA
:10417000F894DEBF0FBECDBFDF91CF91089580913F
:104180000D0A811160C00E94BC038091060A9091C3
:10419000070A8130910509F446C08230910509F47F
:1041A00042C0892B09F04CC01092FE091092FF0901
:1041B0001092000A1092010A61E274E085EC9DE021
:1041C0000E947C411092070A1092060A6091FE0933
:1041D0007091FF098091000A9091010A0E944F5945
:1041E000AB01BC018AE493E10E948E176091FE0945
:1041F0007091FF098091000A9091010A0E944F5925
:10420000AB01BC0186EE9DE00E948E170E94470420
:1042100065E474E0CE0101960E94FB04CE01019694
:104220000E9405179FCF0E94A93F0E9438576093B4
:10423000FE097093FF098093000A9093010ABCCF96
:104240000E947F03E5CF82EF94E1ACDB8FCF86E461
:1042500095E160CFCF93DF9300D000D0CDB7DEB72C
:104260006FEB7DE0CE0101960E94F20469E474E0F8
:10427000CE0101960E943841BC018FEB9DE00E9467
:10428000B041CE0101960E94C54126960FB6F89422
:10429000DEBF0FBECDBFDF91CF910895DBCFCF93AF
:1042A000DF9300D000D0CDB7DEB76FEB7DE0CE015D
:1042B00001960E94F2046CE474E0CE0101960E9423
:1042C0003841BC018FEB9DE00E94B041CE010196C8
:1042D0000E94C54126960FB6F894DEBF0FBECDBF33
:1042E000DF91CF910895CF93DF9300D000D0CDB769
:1042F000DEB76FEB7DE0CE0101960E94F20460E52F
:1043000074E0CE0101960E943841BC018FEB9DE024
:104310000E94B041CE0101960E94C54126960FB67B
:10432000F894DEBF0FBECDBFDF91CF910895CF933C
:10433000DF9300D000D0CDB7DEB78091080A6FEBD5
:104340007DE08823E1F0CE0101960E94F20464E54D
:1043500074E0CE0101960E943841BC018FEB9DE0D4
:104360000E94B041CE0101960E94C54126960FB62B
:10437000F894DEBF0FBECDBFDF91CF910895CE017F
:1043800001960E94F20466E172E0E3CFCF93DF93DF
:1043900000D000D0CDB7DEB76FEB7DE0CE01019647
:1043A0000E94F20466E574E0CE0101960E94384155
:1043B000BC018FEB9DE00E94B041CE0101960E94AE
:1043C000C54126960FB6F894DEBF0FBECDBFDF9174
:1043D000CF910895CF93DF9300D000D0CDB7DEB753
:1043E0006FEB7DE0CE0101960E94F20469E574E076
:1043F000CE0101960E943841BC018FEB9DE00E94E6
:10440000B041CE0101960E94C54126960FB6F894A0
:10441000DEBF0FBECDBFDF91CF910895CF93DF9365
:1044200000D000D0CDB7DEB76FEB7DE0CE010196B6
:104430000E94F2046CE574E0CE0101960E943841BE
:10444000BC018FEB9DE00E94B041CE0101960E941D
:10445000C54126960FB6F894DEBF0FBECDBFDF91E3
:10446000CF910895CF93DF9300D000D0CDB7DEB7C2
:104470006FEB7DE0CE0101960E94F2046EE574E0E0
:10448000CE0101960E943841BC018FEB9DE00E9455
:10449000B041CE0101960E94C54126960FB6F89410
:1044A000DEBF0FBECDBFDF91CF910895CF93DF93D5
:1044B00000D000D0CDB7DEB76FEB7DE0CE01019626
:1044C0000E94F20460E674E0CE0101960E94384139
:1044D000BC018FEB9DE00E94B041CE0101960E948D
:1044E000C54126960FB6F894DEBF0FBECDBFDF9153
:1044F000CF910895CF93DF9300D000D0CDB7DEB732
:104500006FEB7DE0CE0101960E94F20461E974E058
:10451000CE0101960E943841BC018FEB9DE00E94C4
:10452000B041CE0101960E94C54126960FB6F8947F
:10453000DEBF0FBECDBFDF91CF910895CF93DF9344
:1045400000D000D0CDB7DEB76FEB7DE0CE01019695
:104550000E94F20462E674E0CE0101960E943841A6
:10456000BC018FEB9DE00E94B041CE0101960E94FC
:10457000C54126960FB6F894DEBF0FBECDBFDF91C2
:10458000CF910895CF93DF9300D000D0CDB7DEB7A1
:104590006FEB7DE0CE0101960E94F20465E674E0C7
:1045A000CE0101960E943841BC018FEB9DE00E9434
:1045B000B041CE0101960E94C54126960FB6F894EF
:1045C000DEBF0FBECDBFDF91CF910895CF93DF93B4
:1045D00000D000D0CDB7DEB76FEB7DE0CE01019605
:1045E0000E94F2046AE674E0CE0101960E9438410E
:1045F000BC018FEB9DE00E94B041CE0101960E946C
:10460000C54126960FB6F894DEBF0FBECDBFDF9131
:10461000CF910895CF93DF9300D000D0CDB7DEB710
:104620006FEB7DE0CE0101960E94F2046FE674E02C
:10463000CE0101960E943841BC018FEB9DE00E94A3
:10464000B041CE0101960E94C54126960FB6F8945E
:10465000DEBF0FBECDBFDF91CF910895CF93DF9323
:1046600000D000D0CDB7DEB76FEB7DE0CE01019674
:104670000E94F20464E774E0CE0101960E94384182
:10468000BC018FEB9DE00E94B041CE0101960E94DB
:10469000C54126960FB6F894DEBF0FBECDBFDF91A1
:1046A000CF910895CF93DF9300D000D0CDB7DEB780
:1046B0006FEB7DE0CE0101960E94F20467E774E0A3
:1046C000CE0101960E943841BC018FEB9DE00E9413
:1046D000B041CE0101960E94C54126960FB6F894CE
:1046E000DEBF0FBECDBFDF91CF910895CF93DF9393
:1046F00000D000D0CDB7DEB76FEB7DE0CE010196E4
:104700000E94F2046BE774E0CE0101960E943841EA
:10471000BC018FEB9DE00E94B041CE0101960E944A
:10472000C54126960FB6F894DEBF0FBECDBFDF9110
:10473000CF910895CF93DF9300D000D0CDB7DEB7EF
:104740006FEB7DE0CE0101960E94F2046FE774E00A
:10475000CE0101960E943841BC018FEB9DE00E9482
:10476000B041CE0101960E94C54126960FB6F8943D
:10477000DEBF0FBECDBFDF91CF910895CF93DF9302
:1047800000D000D0CDB7DEB76FEB7DE0CE01019653
:104790000E94F20464E874E0CE0101960E94384160
:1047A000BC018FEB9DE00E94B041CE0101960E94BA
:1047B000C54126960FB6F894DEBF0FBECDBFDF9180
:1047C000CF910895CF93DF9300D000D0CDB7DEB75F
:1047D0006FEB7DE0CE0101960E94F2046FEE73E074
:1047E000CE0101960E943841BC018FEB9DE00E94F2
:1047F000B041CE0101960E94C54126960FB6F894AD
:10480000DEBF0FBECDBFDF91CF910895CF93DF9371
:1048100000D000D0CDB7DEB76FEB7DE0CE010196C2
:104820000E94F20466ED74E0CE0101960E943841C8
:10483000BC018FEB9DE00E94B041CE0101960E9429
:10484000C54126960FB6F894DEBF0FBECDBFDF91EF
:10485000CF910895CF93DF9300D000D0CDB7DEB7CE
:104860006FEB7DE0CE0101960E94F2046FE874E0E8
:10487000CE0101960E943841BC018FEB9DE00E9461
:10488000B041CE0101960E94C54126960FB6F8941C
:10489000DEBF0FBECDBFDF91CF910895CF93DF93E1
:1048A00000D000D0CDB7DEB76FEB7DE0CE01019632
:1048B0000E94F2046DE679E0CE0101960E94384133
:1048C000BC018FEB9DE00E94B041CE0101960E9499
:1048D000C54126960FB6F894DEBF0FBECDBFDF915F
:1048E000CF910895CF93DF9300D000D0CDB7DEB73E
:1048F0006FEB7DE0CE0101960E94F20463EE78E05A
:10490000CE0101960E943841BC018FEB9DE00E94D0
:10491000B041CE0101960E94C54126960FB6F8948B
:10492000DEBF0FBECDBFDF91CF910895CF93DF9350
:1049300000D000D0CDB7DEB76FEB7DE0CE010196A1
:104940000E94F2046FED78E0CE0101960E9438419A
:10495000BC018FEB9DE00E94B041CE0101960E9408
:10496000C54126960FB6F894DEBF0FBECDBFDF91CE
:10497000CF910895CF93DF9300D000D0CDB7DEB7AD
:104980006FEB7DE0CE0101960E94F2046BED78E0C2
:10499000CE0101960E943841BC018FEB9DE00E9440
:1049A000B041CE0101960E94C54126960FB6F894FB
:1049B000DEBF0FBECDBFDF91CF910895CF93DF93C0
:1049C00000D000D0CDB7DEB76FEB7DE0CE01019611
:1049D0000E94F20467ED78E0CE0101960E94384112
:1049E000BC018FEB9DE00E94B041CE0101960E9478
:1049F000C54126960FB6F894DEBF0FBECDBFDF913E
:104A0000CF910895CF93DF9300D000D0CDB7DEB71C
:104A10006FEB7DE0CE0101960E94F20463ED78E039
:104A2000CE0101960E943841BC018FEB9DE00E94AF
:104A3000B041CE0101960E94C54126960FB6F8946A
:104A4000DEBF0FBECDBFDF91CF910895CF93DF932F
:104A500000D000D0CDB7DEB76FEB7DE0CE01019680
:104A60000E94F2046FEC78E0CE0101960E9438417A
:104A7000BC018FEB9DE00E94B041CE0101960E94E7
:104A8000C54126960FB6F894DEBF0FBECDBFDF91AD
:104A9000CF910895CF93DF9300D000D0CDB7DEB78C
:104AA0006FEB7DE0CE0101960E94F2046BEC78E0A2
:104AB000CE0101960E943841BC018FEB9DE00E941F
:104AC000B041CE0101960E94C54126960FB6F894DA
:104AD000DEBF0FBECDBFDF91CF910895CF93DF939F
:104AE00000D000D0CDB7DEB76FEB7DE0CE010196F0
:104AF0000E94F2046FEA75E0CE0101960E943841EF
:104B0000BC018FEB9DE00E94B041CE0101960E9456
:104B1000C54126960FB6F894DEBF0FBECDBFDF911C
:104B2000CF910895CF93DF9300D000D0CDB7DEB7FB
:104B30006FEB7DE0CE0101960E94F20469E075E022
:104B4000CE0101960E943841BC018FEB9DE00E948E
:104B5000B041CE0101960E94C54126960FB6F89449
:104B6000DEBF0FBECDBFDF91CF910895CF93DF930E
:104B700000D000D0CDB7DEB76FEB7DE0CE0101965F
:104B80000E94F2046EE579E0CE0101960E94384160
:104B9000BC018FEB9DE00E94B041CE0101960E94C6
:104BA000C54126960FB6F894DEBF0FBECDBFDF918C
:104BB000CF910895CF93DF9300D000D0CDB7DEB76B
:104BC0006FEB7DE0CE0101960E94F20463E974E090
:104BD000CE0101960E943841BC018FEB9DE00E94FE
:104BE000B041CE0101960E94C54126960FB6F894B9
:104BF000DEBF0FBECDBFDF91CF910895CF93DF937E
:104C000000D000D0CDB7DEB76FEB7DE0CE010196CE
:104C10000E94F20465E974E0CE0101960E943841D9
:104C2000BC018FEB9DE00E94B041CE0101960E9435
:104C3000C54126960FB6F894DEBF0FBECDBFDF91FB
:104C4000CF910895CF93DF9300D000D0CDB7DEB7DA
:104C50006FEB7DE0CE0101960E94F20467E974E0FB
:104C6000CE0101960E943841BC018FEB9DE00E946D
:104C7000B041CE0101960E94C54126960FB6F89428
:104C8000DEBF0FBECDBFDF91CF910895CF93DF93ED
:104C900000D000D0CDB7DEB76FEB7DE0CE0101963E
:104CA0000E94F2046DEF74E0CE0101960E9438413B
:104CB000BC018FEB9DE00E94B041CE0101960E94A5
:104CC000C54126960FB6F894DEBF0FBECDBFDF916B
:104CD000CF910895CF93DF9300D000D0CDB7DEB74A
:104CE0006FEB7DE0CE0101960E94F20460EA77E06E
:104CF000CE0101960E943841BC018FEB9DE00E94DD
:104D0000B041CE0101960E94C54126960FB6F89497
:104D1000DEBF0FBECDBFDF91CF910895CF93DF935C
:104D200000D000D0CDB7DEB76FEB7DE0CE010196AD
:104D30000E94F20462E776E0CE0101960E943841BB
:104D4000BC018FEB9DE00E94B041CE0101960E9414
:104D5000C54126960FB6F894DEBF0FBECDBFDF91DA
:104D6000CF910895CF93DF9300D000D0CDB7DEB7B9
:104D70006FEB7DE0CE0101960E94F20465E078E0E1
:104D8000CE0101960E943841BC018FEB9DE00E944C
:104D9000B041CE0101960E94C54126960FB6F89407
:104DA000DEBF0FBECDBFDF91CF910895CF93DF93CC
:104DB00000D000D0CDB7DEB76FEB7DE0CE0101961D
:104DC0000E94F20469E974E0CE0101960E94384124
:104DD000BC018FEB9DE00E94B041CE0101960E9484
:104DE000C54126960FB6F894DEBF0FBECDBFDF914A
:104DF000CF910895CF93DF9300D000D0CDB7DEB729
:104E00006FEB7DE0CE0101960E94F2046FE079E045
:104E1000CE0101960E943841BC018FEB9DE00E94BB
:104E2000B041CE0101960E94C54126960FB6F89476
:104E3000DEBF0FBECDBFDF91CF910895CF93DF933B
:104E400000D000D0CDB7DEB76FEB7DE0CE0101968C
:104E50000E94F20462E874E0CE0101960E9438419B
:104E6000BC018FEB9DE00E94B041CE0101960E94F3
:104E7000C54126960FB6F894DEBF0FBECDBFDF91B9
:104E8000CF910895CF93DF9300D000D0CDB7DEB798
:104E90006FEB7DE0CE0101960E94F2046DE074E0BC
:104EA000CE0101960E943841BC018FEB9DE00E942B
:104EB000B041CE0101960E94C54126960FB6F894E6
:104EC000DEBF0FBECDBFDF91CF910895CF93DF93AB
:104ED00000D000D0CDB7DEB76FEB7DE0CE010196FC
:104EE0000E94F2046FED74E0CE0101960E943841F9
:104EF000BC018FEB9DE00E94B041CE0101960E9463
:104F0000C54126960FB6F894DEBF0FBECDBFDF9128
:104F1000CF910895CF93DF9300D000D0CDB7DEB707
:104F20006FEB7DE0CE0101960E94F2046BE974E024
:104F3000CE0101960E943841BC018FEB9DE00E949A
:104F4000B041CE0101960E94C54126960FB6F89455
:104F5000DEBF0FBECDBFDF91CF910895CF93DF931A
:104F600000D000D0CDB7DEB76FEB7DE0CE0101966B
:104F70000E94F20460E977E0CE0101960E94384178
:104F8000BC018FEB9DE00E94B041CE0101960E94D2
:104F9000C54126960FB6F894DEBF0FBECDBFDF9198
:104FA000CF910895CF93DF9300D000D0CDB7DEB777
:104FB0006FEB7DE0CE0101960E94F2046EE474E096
:104FC000CE0101960E943841BC018FEB9DE00E940A
:104FD000B041CE0101960E94C54126960FB6F894C5
:104FE000DEBF0FBECDBFDF91CF910895CF93DF938A
:104FF00000D000D0CDB7DEB76FEB7DE0CE010196DB
:105000000E94F20467EE77E0CE0101960E943841DB
:10501000BC018FEB9DE00E94B041CE0101960E9441
:10502000C54126960FB6F894DEBF0FBECDBFDF9107
:10503000CF910895CF93DF9300D000D0CDB7DEB7E6
:105040006FEB7DE0CE0101960E94F2046FEF73E0FA
:10505000CE0101960E943841BC018FEB9DE00E9479
:10506000B041CE0101960E94C54126960FB6F89434
:10507000DEBF0FBECDBFDF91CF910895CF93DF93F9
:1050800000D000D0CDB7DEB76FEB7DE0CE0101964A
:105090000E94F2046EEA77E0CE0101960E94384148
:1050A000BC018FEB9DE00E94B041CE0101960E94B1
:1050B000C54126960FB6F894DEBF0FBECDBFDF9177
:1050C000CF910895CF93DF9300D000D0CDB7DEB756
:1050D0006FEB7DE0CE0101960E94F2046DE974E071
:1050E000CE0101960E943841BC018FEB9DE00E94E9
:1050F000B041CE0101960E94C54126960FB6F894A4
:10510000DEBF0FBECDBFDF91CF910895CF93DF9368
:1051100000D000D0CDB7DEB76FEB7DE0CE010196B9
:105120000E94F2046FE974E0CE0101960E943841BA
:10513000BC018FEB9DE00E94B041CE0101960E9420
:10514000C54126960FB6F894DEBF0FBECDBFDF91E6
:10515000CF910895CF93DF9300D000D0CDB7DEB7C5
:105160006FEB7DE0CE0101960E94F2046EEC75E0DB
:10517000CE0101960E943841BC018FEB9DE00E9458
:10518000B041CE0101960E94C54126960FB6F89413
:10519000DEBF0FBECDBFDF91CF910895CF93DF93D8
:1051A00000D000D0CDB7DEB76FEB7DE0CE01019629
:1051B0000E94F2046FEA73E0CE0101960E9438412A
:1051C000BC018FEB9DE00E94B041CE0101960E9490
:1051D000C54126960FB6F894DEBF0FBECDBFDF9156
:1051E000CF910895CF93DF9300D000D0CDB7DEB735
:1051F0006FEB7DE0CE0101960E94F20461EA74E05B
:10520000CE0101960E943841BC018FEB9DE00E94C7
:10521000B041CE0101960E94C54126960FB6F89482
:10522000DEBF0FBECDBFDF91CF910895CF93DF9347
:1052300000D000D0CDB7DEB76FEB7DE0CE01019698
:105240000E94F20464EB74E0CE0101960E943841A2
:10525000BC018FEB9DE00E94B041CE0101960E94FF
:10526000C54126960FB6F894DEBF0FBECDBFDF91C5
:10527000CF910895CF93DF9300D000D0CDB7DEB7A4
:105280006FEB7DE0CE0101960E94F20462E676E0CB
:10529000CE0101960E943841BC018FEB9DE00E9437
:1052A000B041CE0101960E94C54126960FB6F894F2
:1052B000DEBF0FBECDBFDF91CF910895CF93DF93B7
:1052C00000D000D0CDB7DEB76FEB7DE0CE01019608
:1052D0000E94F20463EA74E0CE0101960E94384114
:1052E000BC018FEB9DE00E94B041CE0101960E946F
:1052F000C54126960FB6F894DEBF0FBECDBFDF9135
:10530000CF910895CF93DF9300D000D0CDB7DEB713
:105310006FEB7DE0CE0101960E94F2046EE876E02C
:10532000CE0101960E943841BC018FEB9DE00E94A6
:10533000B041CE0101960E94C54126960FB6F89461
:10534000DEBF0FBECDBFDF91CF910895CF93DF9326
:1053500000D000D0CDB7DEB76FEB7DE0CE01019677
:105360000E94F2046AE474E0CE0101960E94384182
:10537000BC018FEB9DE00E94B041CE0101960E94DE
:10538000C54126960FB6F894DEBF0FBECDBFDF91A4
:10539000CF910895CF93DF9300D000D0CDB7DEB783
:1053A0006FEB7DE0CE0101960E94F20465EA74E0A5
:1053B000CE0101960E943841BC018FEB9DE00E9416
:1053C000B041CE0101960E94C54126960FB6F894D1
:1053D000DEBF0FBECDBFDF91CF910895CF93DF9396
:1053E00000D000D0CDB7DEB78091060A9091070AB1
:1053F000029724F01092070A1092060A80910D0A73
:10540000882351F084E090E09093070A8093060A85
:105410000E948F1B0E94BC030E945F1B8091060AA2
:105420009091070A019701F565EC7DE0CE010196A8
:105430000E94F20463EE78E0CE0101960E943841AA
:10544000BC0185EC9DE00E94B041CE0101960E9416
:10545000C5418091060A9091070A01969093070A28
:105460008093060A0E946F068091060A9091070AAF
:10547000892B89F463EE78E085EC9DE00E947C4105
:105480008091060A9091070A01969093070A8093EB
:10549000060A0E94BC0365EC7DE0CE0101960E94E5
:1054A000F204CE0101960E940517CE0101960E94DA
:1054B000C54180910D0A81110E948F1B0E946908CD
:1054C00026960FB6F894DEBF0FBECDBFDF91CF9109
:1054D000089582EC93E182CFCF93DF9300D000D088
:1054E000CDB7DEB78091060A9091070A029724F0A3
:1054F0001092070A1092060A80910D0A882351F033
:1055000084E090E09093070A8093060A0E948F1B24
:105510000E94BC030E945F1B8091060A9091070ABB
:10552000019701F565EC7DE0CE0101960E94F20441
:105530006FED78E0CE0101960E943841BC0185EC08
:105540009DE00E94B041CE0101960E94C54180912C
:10555000060A9091070A01969093070A8093060A1B
:105560000E946F068091060A9091070A892B89F4A0
:105570006FED78E085EC9DE00E947C418091060A09
:105580009091070A01969093070A8093060A0E9459
:10559000BC0365EC7DE0CE0101960E94F204CE01D1
:1055A00001960E940517CE0101960E94C541809187
:1055B0000D0A81110E948F1B0E94690826960FB662
:1055C000F894DEBF0FBECDBFDF91CF9108958EEC72
:1055D00093E182CFCF93DF9300D000D0CDB7DEB779
:1055E0008091060A9091070A029724F01092070A08
:1055F0001092060A80910D0A882351F084E090E011
:105600009093070A8093060A0E948F1B0E94BC0396
:105610000E945F1B8091060A9091070A019701F58D
:1056200065EC7DE0CE0101960E94F2046BED78E01E
:10563000CE0101960E943841BC0185EC9DE00E949C
:10564000B041CE0101960E94C5418091060A909119
:10565000070A01969093070A8093060A0E946F0634
:105660008091060A9091070A892B89F46BED78E006
:1056700085EC9DE00E947C418091060A9091070A8A
:1056800001969093070A8093060A0E94BC0365EC7A
:105690007DE0CE0101960E94F204CE0101960E94A7
:1056A0000517CE0101960E94C54180910D0A811116
:1056B0000E948F1B0E94690826960FB6F894DEBFE1
:1056C0000FBECDBFDF91CF9108958AED93E182CFD8
:1056D000CF93DF9300D000D0CDB7DEB78091060A1C
:1056E0009091070A029724F01092070A1092060A76
:1056F00080910D0A882351F084E090E09093070A8E
:105700008093060A0E948F1B0E94BC030E945F1BAD
:105710008091060A9091070A019701F565EC7DE0FA
:10572000CE0101960E94F20467ED78E0CE01019669
:105730000E943841BC0185EC9DE00E94B041CE0141
:1057400001960E94C5418091060A9091070A019630
:105750009093070A8093060A0E946F068091060ABA
:105760009091070A892B89F467ED78E085EC9DE03C
:105770000E947C418091060A9091070A01969093BD
:10578000070A8093060A0E94BC0365EC7DE0CE0107
:1057900001960E94F204CE0101960E940517CE01E7
:1057A00001960E94C54180910D0A81110E948F1BB4
:1057B0000E94690826960FB6F894DEBF0FBECDBFD3
:1057C000DF91CF91089586EE93E182CFCF93DF935F
:1057D00000D000D0CDB7DEB78091060A9091070ABD
:1057E000029724F01092070A1092060A80910D0A7F
:1057F000882351F084E090E09093070A8093060A92
:105800000E948F1B0E94BC030E945F1B8091060AAE
:105810009091070A019701F565EC7DE0CE010196B4
:105820000E94F20463ED78E0CE0101960E943841B7
:10583000BC0185EC9DE00E94B041CE0101960E9422
:10584000C5418091060A9091070A01969093070A34
:105850008093060A0E946F068091060A9091070ABB
:10586000892B89F463ED78E085EC9DE00E947C4112
:105870008091060A9091070A01969093070A8093F7
:10588000060A0E94BC0365EC7DE0CE0101960E94F1
:10589000F204CE0101960E940517CE0101960E94E6
:1058A000C54180910D0A81110E948F1B0E946908D9
:1058B00026960FB6F894DEBF0FBECDBFDF91CF9115
:1058C000089582EF93E182CFCF93DF9300D000D091
:1058D000CDB7DEB78091060A9091070A029724F0AF
:1058E0001092070A1092060A80910D0A882351F03F
:1058F00084E090E09093070A8093060A0E948F1B31
:105900000E94BC030E945F1B8091060A9091070AC7
:10591000019701F565EC7DE0CE0101960E94F2044D
:105920006FEC78E0CE0101960E943841BC0185EC15
:105930009DE00E94B041CE0101960E94C541809138
:10594000060A9091070A01969093070A8093060A27
:105950000E946F068091060A9091070A892B89F4AC
:105960006FEC78E085EC9DE00E947C418091060A16
:105970009091070A01969093070A8093060A0E9465
:10598000BC0365EC7DE0CE0101960E94F204CE01DD
:1059900001960E940517CE0101960E94C541809193
:1059A0000D0A81110E948F1B0E94690826960FB66E
:1059B000F894DEBF0FBECDBFDF91CF9108958EEF7B
:1059C00093E182CFCF93DF9300D000D0CDB7DEB785
:1059D0008091060A9091070A029724F01092070A14
:1059E0001092060A80910D0A882351F084E090E01D
:1059F0009093070A8093060A0E948F1B0E94BC03A3
:105A00000E945F1B8091060A9091070A019701F599
:105A100065EC7DE0CE0101960E94F2046BEC78E02B
:105A2000CE0101960E943841BC0185EC9DE00E94A8
:105A3000B041CE0101960E94C5418091060A909125
:105A4000070A01969093070A8093060A0E946F0640
:105A50008091060A9091070A892B89F46BEC78E013
:105A600085EC9DE00E947C418091060A9091070A96
:105A700001969093070A8093060A0E94BC0365EC86
:105A80007DE0CE0101960E94F204CE0101960E94B3
:105A90000517CE0101960E94C54180910D0A811122
:105AA0000E948F1B0E94690826960FB6F894DEBFED
:105AB0000FBECDBFDF91CF9108958AE094E182CFF0
:105AC000CF93DF9300D000D0CDB7DEB78091060A28
:105AD0009091070A029724F01092070A1092060A82
