:1000000029C100000C940608D6C70000A9C700004B
:100010007CC700004FC7000022C70000F5C60000E3
:10002000C8C6000048C1000046C1000044C100002D
:1000300042C1000040C100003EC100003CC10000C0
:100040003AC100000C943F0836C1000034C10000E2
:1000500032C1000030C100002EC1000060C60000A7
:100060002AC1000075C500004AC5000024C1000077
:1000700022C1000020C100001EC100001CC1000000
:100080001AC1000018C1000016C1000014C1000010
:1000900000C50000D5C400000EC100000CC1000066
:1000A0000AC1000008C1000006C1000004C1000030
:1000B00002C1000000C10000FEC00000FCC0000042
:1000C000FAC00000F8C00000F6C00000F4C0000054
:1000D000F2C00000F0C00000EEC00000ECC0000064
:1000E000EAC000004E414E494E495459494E46CD52
:1000F000CCCC3D0AD7233C17B7D13877CC2B3295DF
:1001000095E6241FB14F0A000020410000C84200BC
:10011000401C4620BCBE4CCA1B0E5AAEC59D747C0A
:100120003C3E5E2B3D3F2F5B5D3B2C2A225C00005A
:10013000002200250028002B002E00310034000290
:10014000010000050108010B01000020002300262A
:100150000029002C002F00320000010000030106DE
:1001600001090100000A0B02090C0D0E0807030427
:10017000010000000000000000000000000000007E
:10018000000000000000000000000000000000125D
:10019000111000000000000000000000000000003E
:1001A00000000000000000000000002100240027E3
:1001B000002A002D00300033000101000004010777
:1001C000010A0101021020200808102040102040E0
:1001D000800201020108040201010204081020400B
:1001E0008080402010080402018004020180402029
:1001F0001008040201080402010102040810204052
:100200008001020408102040800505050507050847
:10021000080808020202020A0A0808040404040189
:1002200001010101010101030303030303030304AB
:100230000707070C0C0C0C0C0C0C0C02020202063B
:10024000060606060606060B0B0B0B0B0B0B0B002C
:100250004C40404011241FBECFEFD1E2DEBFCDBFE6
:1002600000E00CBF24E1AEE6B9E001C01D92A43964
:10027000B207E1F719E0A0E0B2E0E6EEF2EB00E051
:100280000BBF02C007900D92AE36B107D9F711E04F
:10029000C9E2D1E000E006C021970109802FFE01EC
:1002A0000E941157C832D10780E00807A9F70E94C1
:1002B0000B4B0C946259A4CEAF92BF92CF92DF92B7
:1002C000EF92FF920F931F93CF93DF936C017B010B
:1002D0008B01040F151FEB015E01AE18BF08C0179C
:1002E000D10759F06991D601ED91FC910190F0810F
:1002F000E02DC6011995892B79F7C501DF91CF91C2
:100300001F910F91FF90EF90DF90CF90BF90AF9033
:100310000895FC01538D448D252F30E0842F90E00B
:10032000821B930B541710F0CF96089501970895F0
:10033000FC01918D828D981761F0A28DAE0FBF2FB9
:10034000B11D5D968C91928D9F5F9F73928F90E00F
:1003500008958FEF9FEF0895FC01918D828D98177E
:1003600031F0828DE80FF11D858D90E008958FEFBB
:100370009FEF0895FC01918D228D892F90E0805C84
:100380009F4F821B91098F739927089583EA9BE001
:10039000F1DF21E0892B09F420E0822F089580E429
:1003A0009CE0E8DF21E0892B09F420E0822F08950A
:1003B000FC01A48DA80FB92FB11DA35ABF4F2C91DA
:1003C000848D90E001968F739927848FA689B789D1
:1003D0002C93A089B1898C91837080648C93938DC8
:1003E000848D981306C00288F389E02D80818F7D6B
:1003F00080830895EF92FF920F931F93CF93DF9323
:10040000EC0181E0888F9B8D8C8D98131AC0E88950
:10041000F989808185FF15C09FB7F894EE89FF891F
:100420006083E889F98980818370806480839FBFBD
:1004300081E090E0DF91CF911F910F91FF90EF90BD
:100440000895F62E0B8D10E00F5F1F4F0F731127CD
:10045000E02E8C8D8E110BC00FB607FCFACFE88909
:10046000F989808185FFF5CFCE01A2DFF2CFEB8D38
:10047000EC0FFD2FF11DE35AFF4FF0829FB7F89468
:100480000B8FEA89FB8980818062D0CFCF93DF9385
:10049000EC01888D8823B1F0AA89BB89E889F989A4
:1004A0008C9185FD03C0808186FD0CC00FB607FCD2
:1004B000F7CF8C9185FFF2CF808185FFEDCFCE0104
:1004C00077DFEACFDF91CF91089580E090E0892B2C
:1004D00021F065DF81110E94000080E090E0892B0F
:1004E00021F054DF81110E94000080E090E0892B10
:1004F00049F080E090E0892B29F00E9400008111F2
:100500000E94000080E090E0892B49F080E090E0BC
:10051000892B29F00E94000081110C94000008959D
:100520008150823108F05AC0E82FF0E08827E45665
:10053000FD4F8F4F0C941157BC02C002AE02B402A3
:10054000B802EE02C302C902CD02D302D702DB0217
:10055000E102E502EE02E902EF02F302809180007F
:100560008F77809380000895809180008F7DF9CFF0
:1005700080918000877FF5CF84B58F7784BD089503
:1005800084B58F7DFBCF8091B0008F778093B000D2
:1005900008958091B0008F7DF9CF809190008F7782
:1005A000809390000895809190008F7DF9CF809185
:1005B0009000877FF5CF8091A0008F778093A00077
:1005C00008958091A0008F7DF9CF8091A000877F52
:1005D000F5CF809120018F7780932001089580913D
:1005E00020018F7DF9CF80912001877FF5CFCF93B8
:1005F000DF93282F30E0F901ED59FE4F8491F90186
:10060000ED53FE4FD491F901E75FFD4FC491CC2328
:1006100099F0811185DFEC2FF0E0EE0FFF1FE75B13
:10062000FE4FA591B491EC91ED2381E090E009F4A7
:1006300080E0DF91CF91089580E090E0FACF3FB75E
:10064000F8948091930990919409A0919509B091A3
:10065000960926B5A89B05C02F3F19F00196A11D4C
:10066000B11D3FBFBA2FA92F982F8827BC01CD01FC
:10067000620F711D811D911D42E0660F771F881F5B
:10068000991F4A95D1F7089508950895DC01599668
:10069000ED91FC913097B9F083899489A589B68949
:1006A0004285538564857585841B950BA60BB70B16
:1006B000811520E89207A105B10538F08FEF9FE77B
:1006C000A0E0B0E0089590E080E00895CF93DF933C
:1006D0001F92CDB7DEB76983DC01ED91FC910280FA
:1006E000F381E02D41E050E0BE016F5F7F4F19952F
:1006F0000F90DF91CF91089590E080E008950F93DF
:100700001F93CF93DF93C7E0D0E00FE010E020E02D
:1007100030E040914F0368E572E080E090E00E9495
:10072000423C0FE010E020E030E040914F036CEDE0
:1007300075E080E090E00E94423C0FE010E020E095
:1007400030E040914F0360E273E080E090E00E946F
:10075000423C0FE010E020E030E040914F0360EBBE
:1007600074E080E090E00E94423C219771F6DF91B6
:10077000CF911F910F9108950F931F9308EC10E0F4
:1007800020E030E040914F0360E273E080E090E0D1
:100790000E94423C1F910F91089581E0809382094D
:1007A0000895EACFE9CFE8CFE7CFE6CFE5CFE4CFB2
:1007B00008950895CF93DF93FB0122813381DC01FB
:1007C00013963C932E9312974481558166817781CD
:1007D00014964D935D936D937C9317974085518547
:1007E0006285738518964D935D936D937C931B97EB
:1007F0001C96EF012C969C01275E3F4F49914D932B
:10080000A217B307D9F7218D328DFC01328F218FCA
:10081000DF91CF910895FF920F931F93CF93DF93B2
:10082000EC01F62E08811981C8010E94BE55F81608
:1008300021F06F2DC8010E94C655CE01DF91CF91E6
:100840001F910F91FF9008950F931F93CF93DF9304
:100850001F921F92CDB7DEB710E000E060E0C80144
:100860000E94C6550F5F1F4F011580E11807B1F7B1
:100870008FEF93E09A83898362E5CE010196CBDF07
:100880007BDF0F900F90DF91CF911F910F91089513
:10089000EF92FF920F931F93CF93DF93CDB7DEB705
:1008A000A2970FB6F894DEBF0FBECDBF80914D0367
:1008B00090914E039A83898380914F0390915003C6
:1008C0009C838B838091210290912202A09123022C
:1008D000B09124028D839E83AF83B88780911D02DF
:1008E00090911E02A0911F02B091200289879A87E1
:1008F000AB87BC8780917C098D87609100027091E5
:100900000102072E000C880B990B0E94A8546E87D9
:100910007F87888B998B8091780990917909A09134
:100920007A09B0917B098A8B9B8BAC8BBD8B8091B4
:10093000520390915303A0915403B09155038E8BB1
:100940009F8BA88FB98F80917D0990917E099B8F95
:100950008A8F80914B0390914C039D8F8C8F809157
:100960007609909177099F8F8E8F8091510388A38C
:10097000CE0101967C0101E010E01AA309A3F70162
:1009800061917F01CE01819646DF0F5F1F4F0132DB
:10099000110599F786E1E82E82E0F82E08EC10E0C8
:1009A0001AA309A3F70161917F01CE01819633DF7C
:1009B0000F5F1F4F0F3C110599F7A2960FB6F894E1
:1009C000DEBF0FBECDBFDF91CF911F910F91FF9082
:1009D000EF900895109277091092760959DFCCCEE6
:1009E000FC011182108213821282158214820C94EF
:1009F0002640FC0111821082138212821582148219
:100A0000FB0101900020E9F73197AF01461B570B1E
:100A10000C94D33FFB0101900020E9F73197AF011F
:100A2000461B570BDC01ED91FC910280F381E02D18
:100A300019946115710509F0EDCF90E080E00895FB
:100A40001F920F920FB60F9211240BB60F922F9395
:100A50003F934F935F936F937F938F939F93AF9346
:100A6000BF93EF93FF9383EA9BE0A2DCFF91EF91AA
:100A7000BF91AF919F918F917F916F915F914F91B6
:100A80003F912F910F900BBE0F900FBE0F901F90B4
:100A900018951F920F920FB60F9211240BB60F925A
:100AA0002F938F939F93EF93FF93E091B30BF0916C
:100AB000B40B8081E091B90BF091BA0B82FD1DC09F
:100AC00090818091BC0B8F5F8F732091BD0B82173B
:100AD00041F0E091BC0BF0E0ED55F44F958F809321
:100AE000BC0BFF91EF919F918F912F910F900BBEB7
:100AF0000F900FBE0F901F9018958081F2CF1F921C
:100B00000F920FB60F9211240BB60F922F933F93B3
:100B10004F935F936F937F938F939F93AF93BF9305
:100B2000EF93FF9380E49CE043DCFF91EF91BF9152
:100B3000AF919F918F917F916F915F914F913F9175
:100B40002F910F900BBE0F900FBE0F901F90189516
:100B50001F920F920FB60F9211240BB60F922F9384
:100B60008F939F93EF93FF93E091500CF091510C72
:100B70008081E091560CF091570C82FD1DC0908150
:100B80008091590C8F5F8F7320915A0C821741F01E
:100B9000E091590CF0E0E05CF34F958F8093590C95
:100BA000FF91EF919F918F912F910F900BBE0F901E
:100BB0000FBE0F901F9018958081F2CF1F93CF9397
:100BC000DF93282F30E0F901ED59FE4F8491F901B0
:100BD000ED53FE4FD491F901E75FFD4FC491CC2353
:100BE000A1F0162F81119CDCEC2FF0E0EE0FFF1F1F
:100BF000E15DFE4FA591B4918FB7F894EC9111117E
:100C000008C0D095DE23DC938FBFDF91CF911F9179
:100C10000895DE2BF8CFCF93DF9390E0FC01ED53E6
:100C2000FE4F2491875F9D4FFC0184918823D1F072
:100C300090E0880F991FFC01E755FE4FA591B491F4
:100C4000FC01E15DFE4FC591D491623071F49FB714
:100C5000F8943C91822F809583238C93E8812E2BEE
:100C600028839FBFDF91CF9108958FB7F894EC91BF
:100C70002E2B2C938FBFF6CF8F929F92AF92BF9265
:100C8000CF92DF92EF92FF926B017C01D8DC4B0197
:100C90005C01C114D104E104F104B1F0D0DC6819A5
:100CA00079098A099B09683E73408105910588F39B
:100CB00021E0C21AD108E108F10888EE880E83E02D
:100CC000981EA11CB11CE5CFFF90EF90DF90CF9054
:100CD000BF90AF909F908F9008950F931F9308EC53
:100CE00010E020E030E040914F0360E971E080E0E7
:100CF00090E00E94423C62E370E080E090E0BCDF64
:100D00001F910F9139CD2FB7F89460918F09709191
:100D1000900980919109909192092FBF08951F9297
:100D20000F920FB60F9211242F933F938F939F939F
:100D3000AF93BF9380918F0990919009A0919109F1
:100D4000B091920930918E0923E0230F2D3758F589
:100D50000196A11DB11D20938E0980938F09909358
:100D60009009A0939109B093920980919309909171
:100D70009409A0919509B09196090196A11DB11D04
:100D80008093930990939409A0939509B093960941
:100D9000BF91AF919F918F913F912F910F900FBE77
:100DA0000F901F90189526E8230F0296A11DB11DE4
:100DB000D2CF1F920F920FB60F9211240BB60F9243
:100DC0002F933F934F935F936F937F938F939F9353
:100DD000AF93BF93EF93FF93E0911402F09115024C
:100DE0001995FF91EF91BF91AF919F918F917F9155
:100DF0006F915F914F913F912F910F900BBE0F908C
:100E00000FBE0F901F9018951F920F920FB60F9262
:100E100011240BB60F922F933F934F935F936F93D1
:100E20007F938F939F93AF93BF93EF93FF93E09143
:100E30001202F09113021995FF91EF91BF91AF91BA
:100E40009F918F917F916F915F914F913F912F91E2
:100E50000F900BBE0F900FBE0F901F9018951F9212
:100E60000F920FB60F9211240BB60F922F933F9350
:100E70004F935F936F937F938F939F93AF93BF93A2
:100E8000EF93FF93E0910802F09109021995FF9109
:100E9000EF91BF91AF919F918F917F916F915F91F2
:100EA0004F913F912F910F900BBE0F900FBE0F905F
:100EB0001F9018951F920F920FB60F9211240BB628
:100EC0000F922F933F934F935F936F937F938F93E3
:100ED0009F93AF93BF93EF93FF93E0910602F0913E
:100EE00007021995FF91EF91BF91AF919F918F915B
:100EF0007F916F915F914F913F912F910F900BBE1A
:100F00000F900FBE0F901F9018951F920F920FB663
:100F10000F9211240BB60F922F933F934F935F9331
:100F20006F937F938F939F93AF93BF93EF93FF93B1
:100F3000E0911002F09111021995FF91EF91BF918C
:100F4000AF919F918F917F916F915F914F913F9161
:100F50002F910F900BBE0F900FBE0F901F90189502
:100F60001F920F920FB60F9211240BB60F922F9370
:100F70003F934F935F936F937F938F939F93AF9321
:100F8000BF93EF93FF93E0910E02F0910F0219953A
:100F9000FF91EF91BF91AF919F918F917F916F9151
:100FA0005F914F913F912F910F900BBE0F900FBE0D
:100FB0000F901F9018951F920F920FB60F92112449
:100FC0000BB60F922F933F934F935F936F937F9343
:100FD0008F939F93AF93BF93EF93FF93E0910C0296
:100FE000F0910D021995FF91EF91BF91AF919F91F3
:100FF0008F917F916F915F914F913F912F910F90C2
:101000000BBE0F900FBE0F901F9018951F920F925E
:101010000FB60F9211240BB60F922F933F934F935D
:101020005F936F937F938F939F93AF93BF93EF9350
:10103000FF93E0910A02F0910B021995FF91EF9155
:10104000BF91AF919F918F917F916F915F914F91E0
:101050003F912F910F900BBE0F900FBE0F901F90DE
:101060001895EFE6F0E080818D7F808382E08093A9
:10107000810081E0809380002D982E9808951F9222
:101080000F920FB60F9211240BB60F922F933F932E
:101090004F935F936F937F938F939F93AF93BF9380
:1010A000EF93FF9330DEDDDFFF91EF91BF91AF91C2
:1010B0009F918F917F916F915F914F913F912F9170
:1010C0000F900BBE0F900FBE0F901F901895C9DFA9
:1010D0008091A109811112C060E086E06FDD60910E
:1010E0004B0370914C03072E000C880B990BC4DD49
:1010F00060E085E063DD60E08DE060DD10928609F0
:101100000895E5DF1092800910927F0935CB82E0C7
:101110006EDA892B19F40E94123DF9CF84E067DA68
:10112000892BC9F3D4CF8F929F92AF92BF92CF9267
:10113000DF92EF92FF92CF930E94123DF0907C09D4
:1011400020E030E040E450E4FF2009F45FC060910B
:1011500071097091720980917309909174090E94CC
:10116000EE5520919B0930919C0940919D09509129
:101170009E090E9407550E94BF567EDD80917D0921
:1011800090917E09009709F04AC083E030DAC1E00F
:10119000892B09F0C0E09BDFFF2009F445C0C09017
:1011A0009B09D0909C09E0909D09F0909E09A701B1
:1011B0009601C701B6010E94EE554B015C0120E08B
:1011C00030E040E85FE360917109709172098091AD
:1011D0007309909174090E94EE55A70196010E942F
:1011E00007559B01AC01C501B4010E94ED550E9459
:1011F000BF5642DDCC2309F1CF91FF90EF90DF90F5
:10120000CF90BF90AF909F908F9021C060919B092D
:1012100070919C0980919D0990919E09AACF019798
:1012200009F0B8CF84E0B2CF60919B0970919C091E
:1012300080919D0990919E09DACFCF91FF90EF9018
:10124000DF90CF90BF90AF909F908F9008954F9276
:101250005F926F927F928F929F92AF92BF92CF9246
:10126000DF92EF92FF920E94123DF0907C09FF20E6
:1012700009F457C020E030E040E85FE36091710975
:101280007091720980917309909174090E94EE55D2
:101290004B015C0120919B0930919C0940919D0973
:1012A00050919E090E9407550E94BF56E5DC0FDF52
:1012B000FF2009F43FC0C0909B09D0909C09E090AA
:1012C0009D09F0909E09A7019601C701B6010E94F1
:1012D000EE552B013C01A5019401C701B6010E9406
:1012E00007559B01AC01C301B2010E94ED550E945C
:1012F000BF56C2DC80917D0990917E09009719F557
:1013000084E075D9892B19F5FF90EF90DF90CF908D
:10131000BF90AF909F908F907F906F905F904F9015
:1013200002CF60919B0970919C0980919D099091D9
:101330009E09BACF60919B0970919C0980919D098B
:1013400090919E09D4CF019711F483E0DACFFF90FA
:10135000EF90DF90CF90BF90AF909F908F907F9055
:101360006F905F904F9008958FB7F894809188099F
:101370008FBF089561E0FC01848120DC80918709A2
:1013800081111092870908958EBD00000DB407FEEB
:10139000FDCF8EB508958FEFF7CF8CBD9DBD08951D
:1013A000CF93DF93EC0180918709811108C081E020
:1013B000809387098091DD0C9091DE0CEEDF60E078
:1013C0008C81DF91CF91FACB8F929F92AF92BF9297
:1013D000FF920F931F93CF93DF93EC01F62E4901F9
:1013E0005A018E81882379F08F8198859C012F5F27
:1013F0003F4F38872F838230924010F4CCDFF4CFF8
:10140000CE01B8DF1E82CE01CBDF8CE291E00E94DC
:10141000C9398F2D8064B8DF08E110E0D501C4011F
:10142000002E04C0B695A795979587950A94D2F794
:10143000ABDF08501109083F8FEF180779F785E9EE
:10144000FF2021F028E087E8F2128FEF9DDF10E007
:10145000A2DF8A8787FF04C01F3F11F01F5FF8CF0C
:10146000DF91CF911F910F91FF90BF90AF909F9010
:101470008F900895AF92BF92CF92DF92EF92FF923A
:101480000F931F93CF93DF93EC016901C801820F83
:10149000931F8130924048F58E81882379F08881AE
:1014A0009981AA81BB8184179507A607B70731F4F4
:1014B0008F819885C816D90608F03CC048835983A7
:1014C0006A837B838B85833039F089E0440F551F15
:1014D000661F771F8A95D1F79A01AB0161E1CE01B2
:1014E00073DF882381F083E08D83CE0143DF80E0CA
:1014F000DF91CF911F910F91FF90EF90DF90CF90F0
:10150000BF90AF900895FFDB5B0145DF8A878F3F77
:1015100059F4F9DB6A197B096D327140B0F38FE041
:101520008D83CE0127DFE1CF8E3F81F418861F82A5
:1015300081E08E838F8198858C159D0548F42BDF83
:101540008F819885019698878F83F4CF8DE0E8CFBF
:101550006701E00EF11E1FDFF60181936F01EE15AA
:10156000FF05C9F78F819885080F191F18870F830A
:101570008985882319F00115124090F08E81882307
:1015800079F08F8198859C012F5F3F4F38872F839B
:101590008230924010F4FFDEF4CFCE01EBDE1E82EB
:1015A00081E0A6CFEF92FF920F931F93CF93DF932B
:1015B000EC01790182E1411551056105710591F058
:1015C0008B85833039F089E0440F551F661F771FE4
:1015D0008A95D1F79A01AB0168E1CE01F5DE882347
:1015E00019F084E08D8329C08EEFCEDE87018EEF67
:1015F000F81AF80181918F01C7DE0E151F05C9F792
:101600008FEFC2DE8FEFC0DEC6DE8A878F71853036
:1016100081F488E592E00E94C939882391F020E0A6
:1016200030E0A9016DE0CE01CFDE882361F084E1D6
:10163000D9CF81E18D83CE019DDECE019BDE80E09E
:1016400008C085E1CFCFA7DE8111F1CFCE0192DEB8
:1016500081E0DF91CF911F910F91FF90EF9008955E
:1016600080918909882399F14091020250910302E7
:10167000609104027091050223EA39E080919F098C
:101680009091A0098FDF811102C080E00895409100
:101690008A0950918B0960918C0970918D094115CF
:1016A00051056105710589F023EA39E080919F09B0
:1016B0009091A00977DF882341F310928A09109254
:1016C0008B0910928C0910928D091092890981E082
:1016D00008958F929F92AF92BF92EF92FF920F93D5
:1016E0001F93CF934B015C01C42F80910202909114
:1016F0000302A0910402B091050288159905AA057C
:10170000BB0539F1ADDF81110BC080E0CF911F9196
:101710000F91FF90EF90BF90AF909F908F900895A2
:1017200083EAE82E89E0F82E00E012E030E020E0C5
:10173000B501A40180919F099091A0099BDE8823A7
:1017400021F38092020290920302A0920402B092CE
:101750000502409189094C2B4093890981E0D6CF3D
:101760004F925F926F927F928F929F92AF92BF92B1
:10177000CF92DF92EF92FF920F931F93CF93DF935D
:10178000EC01423051056105710590F480E0DF9174
:10179000CF911F910F91FF90EF90DF90CF90BF906E
:1017A000AF909F908F907F906F905F904F90089533
:1017B00089859A85AB85BC850196A11DB11D8417CD
:1017C0009507A607B70710F3CB88DC88ED88FE885D
:1017D0008F89803109F042C0BB27A72F962F852F14
:1017E000480159012A013B01C80ED91EEA1EFB1E01
:1017F0008091020290910302A0910402B09105022F
:10180000C816D906EA06FB0699F58F898031B9F525
:10181000B301A201552766277727440F551F4D5561
:10182000564FFA019182808280918909816080936C
:1018300089098A89823080F08D819E81AF81B88547
:101840008C0D9D1DAE1DBF1D80938A0990938B0941
:10185000A0938C09B0938D0981E099CFDB01CA0177
:10186000E7E0B695A79597958795EA95D1F7B8CF14
:1018700040E0C701B6012DDF8111C7CF87CFB3018B
:10188000A2014F77552766277727440F551F440F2E
:10189000551F4D55564FFA0180829182A282B38224
:1018A000C3CF8F929F92AF92BF92CF92DF92EF926F
:1018B000FF920F931F93CF93DF93FC018185928555
:1018C000A385B4850196A11DB11D84179507A607B0
:1018D000B70770F480E0DF91CF911F910F91FF90D7
:1018E000EF90DF90CF90BF90AF909F908F90089532
:1018F00083889488A588B6888789803189F5BB2735
:10190000A72F962F852FE9016A017B018F01BC016A
:10191000CD01680D791D8A1D9B1D8090020290905B
:101920000302A0900402B090050286169706A8064E
:10193000B90601F5F8018789803109F5DD24EE2427
:10194000FF24F601EE0FFF1FED55F64F80819181C8
:10195000B0E0A0E088839983AA83BB8381E0BBCFFA
:10196000DB01CA01C7E0B695A79597958795CA95FB
:10197000D1F7C9CF40E0ADDE8111DCCFABCFE89429
:10198000C7F8DD24EE24FF24F601EE0FFF1FEE0F53
:10199000FF1FED55F64F80819181A281B381BF7009
:1019A000D9CF4F925F926F927F92AF92BF92CF92B8
:1019B000DF92EF92FF920F931F93CF93DF9300D0AC
:1019C0001F92CDB7DEB78C0149835A836B837C832A
:1019D0005901C12CD12C7601412C82E0582E612C6A
:1019E000712C49815A816B817C819E012F5F3F4F11
:1019F000C80157DF882339F1F8018585A3019201D9
:101A000004C0220F331F441F551F8A95D2F7DA01F5
:101A1000C901C80ED91EEA1EFB1E49815A816B817D
:101A20007C818789803111F188EF9FEFAFEFBFE0B4
:101A3000481759076A077B07A0F2F501C082D182D7
:101A4000E282F38281E00F900F900F900F90DF9170
:101A5000CF911F910F91FF90EF90DF90CF90BF90AB
:101A6000AF907F906F905F904F90089588EF9FEFB9
:101A7000A0E0B0E0DDCFCF92DF92EF92FF921F9314
:101A8000CF93DF93EC0180E2689FF0011124ED55C4
:101A9000F64F9385917161F0842F827449F080E054
:101AA000DF91CF911F91FF90EF90DF90CF9008953D
:101AB000142F6A8B8091020290910302A09104027C
:101AC000B09105028E879F87A88BB98BC488D58873
:101AD000F12CE12C7601DD24CC24CF8AD88EE98E3E
:101AE000FA8E828D938DB0E0A0E0AC01BD014C294F
:101AF0005D296E297F294F8B588F698F7A8F838557
:101B00008871B1F4848D958DA68DB78D8B8B9C8B50
:101B1000AD8BBE8B81E08D831F701C831E821F8264
:101B2000188619861A861B861C861D8681E0B8CF0A
:101B3000803109F0B4CF9E012D5E3F4F8B8D9C8D7F
:101B400030DF882309F4ABCF84E0E5CF8F929F92FA
:101B5000AF92BF92CF92DF92EF92FF920F931F93BB
:101B6000CF93DF93EC018D8181110EC080E0DF9176
:101B7000CF911F910F91FF90EF90DF90CF90BF908A
:101B8000AF909F908F9008950B891C892D893E8975
:101B9000041715072607370748F34A015B0182300F
:101BA00031F48A869B86AC86BD8681E0E0CF8114C5
:101BB0009104A104B10449F41E821F82188619867B
:101BC0001A861B861C861D86F0CF0A851B852C85F0
:101BD0003D85EB8DFC8D858590E00996B901A801C6
:101BE0004150510961097109082E04C07695679525
:101BF000579547950A94D2F775016401E1E0CE1A32
:101C0000D108E108F10804C0F694E794D794C7948A
:101C10008A95D2F7C416D506E606F70620F0012B02
:101C2000022B032B09F58F89988DA98DBA8D8E8390
:101C30009F83A887B9878E010A5F1F4FC114D10403
:101C4000E104F10409F4ADCF4E815F8168857985A7
:101C500098018B8D9C8D25DE91E0C91AD108E10891
:101C6000F1088111EBCF82CFC41AD50AE60AF70A30
:101C7000E2CF3F924F925F926F927F928F929F92AC
:101C8000AF92BF92CF92DF92EF92FF920F931F938A
:101C9000CF93DF93CDB7DEB72C970FB6F894DEBFA6
:101CA0000FBECDBF5C01DC015B968D909C905C9774
:101CB00016964D905D906D907C901997411451044B
:101CC0006104710409F467C0BFEF4B1A5B0A6B0A29
:101CD0007B0A312CF40181859285A385B4859C0112
:101CE000AD012F5F3F4F4F4F5F4F29873A874B879B
:101CF0005C87730162011D821E821F821886F401B7
:101D000081859285A385B4852D813E814F8158853B
:101D1000281739074A075B0708F054C089859A8558
:101D2000AB85BC858C159D05AE05BF0550F482E0E2
:101D3000C82ED12CE12CF12C92E0492E512C612C93
:101D4000712C9E012F5F3F4FB701A601C401A9DD91
:101D50008823C1F189819A81AB81BC81892B8A2B2F
:101D60008B2B09F1260137019FEF491A590A690A9D
:101D7000790A2D813E814F8158852F5F3F4F4F4F0C
:101D80005F4F2D833E834F8358873FEFC31AD30A9B
:101D9000E30AF30AB4CFF40140805180628073807B
:101DA0003324339497CFC414D504E604F70409F719
:101DB0000FEF1FEF2FEF3FE0B701A601C401D0DC0A
:101DC000811119C080E02C960FB6F894DEBF0FBECB
:101DD000CDBFDF91CF911F910F91FF90EF90DF90DA
:101DE000CF90BF90AF909F908F907F906F905F90BB
:101DF0004F903F900895F501468157816085718528
:101E0000411551056105710531F097018601C40145
:101E1000A7DC8823B9F2D5011696CD92DD92ED921A
:101E2000FC921997332051F0D701C6010196A11DEC
:101E3000B11DF40180839183A283B383F501878967
:101E4000908DA18DB28D892B8A2B8B2B39F4C78A6B
:101E5000D08EE18EF28E84818068848381E0B3CF5E
:101E60002F923F924F925F926F927F928F929F92AA
:101E7000AF92BF92CF92DF92EF92FF920F931F9398
:101E8000CF93DF9300D0CDB7DEB7FC018581811100
:101E900018C08FEF9FEF0F900F900F90DF91CF91B1
:101EA0001F910F91FF90EF90DF90CF90BF90AF9078
:101EB0009F908F907F906F905F904F903F902F906A
:101EC0000895848180FFE5CF4389548965897689A7
:101ED00082859385A485B585312C212C4817590717
:101EE0006A077B0719F022242394312C6F0121010A
:101EF000CE0101963C01DF011696BB83AA834114F3
:101F0000510409F4C2C0F601428553856485758584
:101F10004A01F1E09F22D6015B968D919C915C97DE
:101F20008A019B01E9E03695279517950795EA9573
:101F3000D1F71596EC91E230E1F5FC01628D738DDD
:101F4000848D958D600F711F821F931FA12C22E03D
:101F5000B22EA818B9084A145B0408F45201F6011D
:101F6000248126FD04C0A114F2E0BF0671F40091A3
:101F7000020210910302209104023091050206171B
:101F800017072807390709F05CC040E0A2DB882367
:101F900009F47FCFC4018D55964FD3019C012A0DC2
:101FA0003B1DFC012E173F0709F46AC041914D9378
:101FB000F9CFDC011496BC90BA94B022811491043C
:101FC00079F4B1100DC0452B462B472B69F5F6016E
:101FD0008789908DA18DB28D86839783A087B187E5
:101FE000D6015B96ED91FC915C9716966D917D9173
:101FF0008D919C91199762507109810991092585EC
:1020000004C0660F771F881F991F2A95D2F706858F
:10201000178520893189600F711F821F931F6B0DF7
:10202000711D811D911D92CFD60116964D915D9126
:102030006D917C9119972A813B8133DC8111D0CF3E
:1020400028CF730185019401AB01BC0180919F09E8
:102050009091A0090FDA882309F41BCF6A0C7B1C2E
:10206000F60182859385A485B5858A0D9B1DA11DEA
:10207000B11D82879387A487B5874A185B083FCF35
:10208000281B390B620E731EEBCF2A94232809F00C
:1020900000CF898190E0FFCEFC01818D928D009769
:1020A00009F0DECE8FEF9FEF08950F931F93CF932C
:1020B000DF93EC01898D9A8D10E000E0009789F0A4
:1020C000CFDE8C010F3F100761F0898D9A8DFC01E6
:1020D00042855385648575854150510961097109AF
:1020E00035DDC801DF91CF911F910F910895CF93F6
:1020F000DF93EC018D81882321F18C8187FF1EC045
:10210000CE010E94E439FC01892BD9F08D81823007
:1021100040F48B899C89AD89BE89848F958FA68F69
:10212000B78F8F89988D938F828F8F89988DA98D86
:10213000BA8DB58BA48B8C818F778C83DF91CF91F7
:102140008FCA80E0DF91CF910895CF93DF93EC01A8
:10215000CEDF882311F01D8281E0DF91CF910895B9
:10216000FC01818D928D009709F0C1CF08953F92B7
:102170004F925F926F927F928F929F92AF92BF9297
:10218000CF92DF92EF92FF920F931F93CF93DF9343
:1021900000D000D000D01F921F92CDB7DEB77C01D7
:1021A000DC0115968C91811115C0FE013196CE018E
:1021B0000C966F0130E23193E817F907E1F7DA0185
:1021C00030E087E09D91B92E992329F19E3239F4B0
:1021D0008A3011F480E0D6C038E08AE0F3CFEFE136
:1021E000F1E04491442321F031969413FACFF2CFD9
:1021F000831780F34FED490F4E3560F74FE9490FD4
:102200004A3118F440EEB42EB90EF601E30FF11D79
:10221000B0823F5FD7CF89818032E1F2322E8B01CD
:10222000FB01838D948DD7015C969C938E935B9775
:1022300016821782108611861286138614861586DA
:10224000F80182859385A485B5854389548965897C
:10225000768984179507A607B70708F04CC025E0D4
:10226000B695A795979587952A95D1F7F82FFF7082
:10227000AF2ED80115968C91823008F4ABCFC801EF
:10228000EFDD97FDA7CFF80182859385A485B585FD
:102290004F96A11DB11D82879387A487B587F0E271
:1022A000AF9EB00111246D55764F6115710509F48B
:1022B00091CFDB018C91882341F0853E09F056C017
:1022C000BB2029F0BB24B394BBCFB1100EC0F701E3
:1022D000A28A8091020290910302A0910402B0911F
:1022E000050286879787A08BB18BDB018C918111CA
:1022F000E9CFBB24B394832D8271823109F06ACF78
:10230000BB2009F457C0C7010E94E439009709F4C3
:1023100061CF20E2FC0111922A95E9F72BE0F6014A
:10232000DC0101900D922A95E1F721E238E2DC010F
:1023300051963C932E93509740E058E01F965C9343
:102340004E931E9753963C932E93529759963C93D7
:102350002E93589757965C934E93569781D988231E
:1023600009F438CF432DF70162890AC04BE050E0F1
:10237000C6010E942259892B09F062CF432D6A2D94
:10238000C70179DB2B960FB6F894DEBF0FBECDBF29
:10239000DF91CF911F910F91FF90EF90DF90CF9041
:1023A000BF90AF909F908F907F906F905F904F9075
:1023B0003F900895F8018581823009F40BCFC80160
:1023C00058DC882309F406CFD8015B96ED91FC9187
:1023D0005C9716968D909D90AD90BC901997B2E049
:1023E0008B1A9108A108B108858504C0880C991C36
:1023F000AA1CBB1C8A95D2F786859785A089B189CE
:10240000880E991EAA1EBB1E848124013501480E28
:10241000511C611C711C84149504A604B704F9F0C6
:10242000E1E04E1A5108610871081AD9882309F4AD
:10243000D1CEE3EAF9E0119283EA9BE08E179F0781
:10244000D1F740920202509203026092040270920D
:10245000050280918909816080938909DCCFD801C8
:102460005B96ED91FC91258580E092E0A0E0B0E0E4
:1024700004C0880F991FAA1FBB1F2A95D2F7F80125
:102480004389548965897689840F951FA61FB71FD4
:10249000838B948BA58BB68BD70152961C9283EAC3
:1024A00099E037CF1F93CF93DF93CDB7DEB76D970A
:1024B0000FB6F894DEBF0FBECDBFAB011C821B82EE
:1024C00021E833E03A8329831E8221E0BC01CE015A
:1024D00001964DDE11E081110CC010E0812F6D9648
:1024E0000FB6F894DEBF0FBECDBFDF91CF911F9125
:1024F0000895CE01019629DEF1CFCF93DF93CDB7BA
:10250000DEB76D970FB6F894DEBF0FBECDBF442384
:1025100081F1AB01BC011C821B8281E893E09A83AC
:1025200089831E8222E0CE01019621DE81110EC038
:1025300090E081E0911101C080E06D960FB6F894B3
:10254000DEBF0FBECDBFDF91CF910895CE010196C2
:102550000E94FD39882361F3CE0101960E94E4397F
:10256000009731F325EEFC0120831E8279D8982F45
:10257000E0CF81E0E2CF2F923F924F925F926F9235
:102580007F928F929F92AF92BF92CF92DF92EF9203
:10259000FF920F931F93CF93DF9300D01F92CDB77D
:1025A000DEB78C015B011A01DC0115968C91159741
:1025B000813009F0C6C014968C9181FFC2C082FDA3
:1025C000ADC06101D8011A964D915D916D917C91DC
:1025D0001D97C114D10409F426C15B968D919C917D
:1025E0005C97FC0174802FEF270D2A013B0139E035
:1025F00076946794579447943A95D1F7722E742045
:102600007A01F1E0FF2271101FC0E114F104E1F43E
:1026100016964D915D916D917C91199741155105DB
:102620006105710509F096C057968D919D910D90A9
:10263000BC91A02D0097A105B10509F0ACC0C8015F
:1026400018DB882309F47DC080E092E08E199F0991
:1026500046018C159D0508F44C01D8015B964D91FF
:102660005C915C9716968D919D910D90BC91A02DDB
:102670000297A109B109FA01258504C0880F991FA5
:10268000AA1FBB1F2A95D2F7468557856089718995
:10269000840F951FA61FB71F9C01AD01270D311D8B
:1026A000411D511D29013A01811432E0930609F0C0
:1026B00078C08091020290910302A0910402B0912F
:1026C000050284159505A605B70559F48FEF9FEF10
:1026D000DC018093020290930302A0930402B09362
:1026E00005029501B301A20180919F099091A00973
:1026F0000E94D20A882329F19EEFB91AC818D90876
:10270000F80182859385A485B585880D991DA11D45
:10271000B11D82879387A487B58754CFF801438979
:1027200054896589768982859385A485B5854817FE
:1027300059076A077B0709F444CFC80107DA8111FA
:1027400040CF81E090E0D80113969C938E9312972E
:1027500080E006C09E012F5F3F4FA3D8811102C0C9
:1027600090E077C089819A81AB81BC81F801238D8B
:10277000348DF901278948EF5FEF60E070E0203188
:1027800021F048EF5FEF6FEF7FE084179507A60712
:10279000B70708F054CFF80186839783A087B187E5
:1027A00053CFE114F10491F5D8011A964D915D9142
:1027B0006D917C911D9753968D919D910D90BC913B
:1027C000A02D481759076A077B0700F10E94300BBC
:1027D000882309F4B6CF409202025092030260921D
:1027E00004027092050280918909816080938909B1
:1027F00097012D55364FD501C901880D991DF90155
:102800008E179F0759F04D914193FACF41E0C301D4
:10281000B2010E94690B8111EBCF93CF821B930B06
:10282000A80EB91E6BCFF80183899489A589B68952
:1028300084179507A607B70738F48481438B548B18
:10284000658B768B80688483F801848183FD18C052
:10285000C1010F900F900F900F90DF91CF911F91BA
:102860000F91FF90EF90DF90CF90BF90AF909F902F
:102870008F907F906F905F904F903F902F90089532
:10288000C80135DC882309F45CCFE2CFCF93DF9316
:102890001F92CDB7DEB7698341E050E0BE016F5FA4
:1028A0007F4F69DE0F90DF91CF910895CF93DF9333
:1028B000EC01E98DFA8D309749F481E090E09B833B
:1028C0008A8390E080E0DF91CF9108951382128295
:1028D000898D9A8D50DEE98DFA8D22813381232BEB
:1028E00061F7F1CFFC01DB0112968D919C9113975A
:1028F0009383828381E893E09183808314968C9103
:102900001497848315968C911597858316964D910F
:102910005D916D917C91199746835783608771878C
:102920001A964D915D916D917C911D9742875387C9
:10293000648775871E964D915D916D917C9151973D
:1029400046875787608B718B52968C915297828BFA
:1029500053964D915D916D917C915697438B548B1D
:10296000658B768B57964D915D916D917C915A97C1
:10297000478B508F618F728F5B968D919C91948F56
:10298000838F0895EF92FF920F931F93CF93DF935E
:10299000EC017B018A011B821A8288EE93E0A0E0A1
:1029A000B0E08C839D83AE83BF838DE893E09983F1
:1029B00088838DE190E00E9419579A8F898F009744
:1029C00079F02DE1F701DC0101900D922A95E1F7F4
:1029D0004CE050E0B801CE010C960E945359188E7D
:1029E000DF91CF911F910F91FF90EF900895CF93BA
:1029F000DF93EC0183EA9BE00E94BA01892B29F066
:102A000083EA9BE00E949801F5CFBE0183EA9BE038
:102A10000E9419056FEF83EA9BE00E94FA016FEFB5
:102A200083EA9BE00E94FA016FEF83EA9BE0DF916B
:102A3000CF910C94FA0183B78E7F83BFEC98E6E0C8
:102A4000F2E084E493E091838083ED989383828322
:102A50008BE993E0CCDF82EA93E0C9DF83EA9BE075
:102A60000C9446028F929F92AF92BF92CF92DF92C8
:102A7000EF92FF924B015C010E9483066B017C0187
:102A80000E9483066C197D098E099F0968157905D6
:102A90008A059B0518F40E94493DF2CFFF90EF9004
:102AA000DF90CF90BF90AF909F908F90089564E695
:102AB00070E080E090E0D6DF8AEA93E098DF81EB77
:102AC00093E095DF83EA9BE00E94460283B7816032
:102AD00083BFA6E0B2E02BE135E111963C932E9343
:102AE000EAE6F0E080818C7F8083EC9A13963C9339
:102AF0002E9312978081837F8083ED9A83B7817FA5
:102B0000846083BF61EB73E083EA9BE00E94190558
:102B1000889508958FE392E1CACFEF92FF920F93C9
:102B20001F93CF93DF93CDB7DEB7A0970FB6F8947E
:102B3000DEBF0FBECDBF8FEF93E00E94BE55843540
:102B400059F00E9448048FEF93E09A83898364E5EB
:102B5000CE0101960E940B048E010F5F1F4FEE24E1
:102B6000E394F12CC7010E94BE55F80181938F01B7
:102B7000FFEFEF1AFF0A81E2E816F10499F7898165
:102B80009A8190934E0380934D038B819C81909307
:102B9000500380934F038D819E81AF81B8858093D0
:102BA000210290932202A0932302B09324028985EC
:102BB0009A85AB85BC8580931D0290931E02A093DD
:102BC0001F02B09320028D8580937C096E857F85DE
:102BD000888999890E94BA56709301026093000215
:102BE0008A899B89AC89BD898093780990937909FA
:102BF000A0937A09B0937B098E899F89A88DB98D9E
:102C00008093520390935303A0935403B0935503BE
:102C10008A8D9B8D90937E0980937D098C8D9D8DEF
:102C200090934C0380934B038E8D9F8D90937709E7
:102C30008093760988A18093510386E1E82E82E093
:102C4000F82E08EC10E0C8010E94BE55F7018193F0
:102C50007F010F5F1F4F0F3C1105A9F7A0960FB61C
:102C6000F894DEBF0FBECDBFDF91CF911F910F91C2
:102C7000FF90EF900895EF92FF920F931F93CF93E1
:102C8000DF9300D000D0CDB7DEB77C018B016DEFB4
:102C900073E0CE0101960E94F904F701628173810D
:102CA000CE0101960E94513F69EB73E0CE0101967F
:102CB0000E94513FB801CE0101960E94513F6EEB38
:102CC00073E0CE0101960E94513F89819A818FDE87
:102CD0000E949239182FCE0101960E943B40812F0D
:102CE00026960FB6F894DEBF0FBECDBFDF91CF9111
:102CF0001F910F91FF90EF900895CF93DF93CDB781
:102D0000DEB7C456D1090FB6F894DEBF0FBECDBFF3
:102D100044E650E0BE016F5F7F4F0E94FC3DBE0164
:102D20006F5F7F4F8FE392E1A6DFBE016F5F7F4F42
:102D30008BE192E1A0DFCC59DF4F0FB6F894DEBFF4
:102D40000FBECDBFDF91CF910895CF93DF93CDB765
:102D5000DEB76E970FB6F894DEBF0FBECDBF4EE163
:102D600050E0BE016F5F7F4F0E94FC3DBE016F5F70
:102D70007F4F8FE092E17FDFBE016F5F7F4F83E087
:102D800092E179DF6E960FB6F894DEBF0FBECDBF2D
:102D9000DF91CF910895CF93DF93CDB7DEB76E97D4
:102DA0000FB6F894DEBF0FBECDBF4EE150E0BE01BE
:102DB0006F5F7F4F0E94FC3DBE016F5F7F4F87EDCD
:102DC00090E159DF6E960FB6F894DEBF0FBECDBF0F
:102DD000DF91CF9108950E9467088091510381117E
:102DE00012C081E0809351038091510360EC73E045
:102DF000882311F062EC73E08FE293E13CDF0E94E4
:102E000048040C94BC0310925103EECF8F929F9212
:102E1000AF92BF92EF92FF920F931F93CF93DF93E6
:102E2000CDB7DEB760970FB6F894DEBF0FBECDBF4B
:102E30007C014A018E010F5F1F4F8AE0F801119259
:102E40008A95E9F76DEF73E0CE010B960E94F904C5
:102E50004AE0B801C4010E940453F7016281738102
:102E6000CE010B960E94513F67EC73E0CE010B96AA
:102E70000E94513FB801CE010B960E94513F8B85B5
:102E80009C85B5DD0E949239182FCE010B960E94C9
:102E90003B40812F60960FB6F894DEBF0FBECDBFCA
:102EA000DF91CF911F910F91FF90EF90BF90AF9066
:102EB0009F908F90089520E030E040E85FE36091BC
:102EC00021027091220280912302909124020E949B
:102ED000ED550E94BF56AB01BC0187EB93E196DF35
:102EE000609121027091220280912302909124022C
:102EF0000E94BF56AB01BC0187EB93E187CF4091A5
:102F00004D0350914E03052E000C660B770B87E99D
:102F100091E17CDF40914F0350915003052E000C4E
:102F2000660B770B8FED91E171DF40914F0350916C
:102F30005003052E000C660B770B8BE891E166DFE2
:102F40006091520370915303809154039091550303
:102F50000E94BF56AB01BC0183ED91E157DF609148
:102F600052037091530380915403909155030E9432
:102F7000BF56AB01BC018FE791E148DF40914B03A5
:102F800050914C03052E000C660B770B87EC91E1FA
:102F90003DDF40914B0350914C03052E000C660B16
:102FA000770B87E691E132DF40917D0950917E09F0
:102FB000052E000C660B770B87EF91E127DF8091E0
:102FC0007D0990917E098130910549F0823091050B
:102FD00061F06DEC73E0892B21F00C94BC0364ED7F
:102FE00073E083EA91E147DEF8CF6DED73E0F9CF4E
:102FF000EF92FF920F931F93CF93DF93CDB7DEB77E
:103000002E970FB6F894DEBF0FBECDBF7C018B01AB
:1030100061EE73E0CE0109960E94F904F701628126
:103020007381CE0109960E94513F66EE73E0CE0196
:1030300009960E94513F89859A85D9DCCE01019677
:1030400028E0FC0111922A95E9F744E650E060E09F
:1030500070E04093A70B5093A80B6093A90B70935B
:10306000AA0B68E070E00E944539089709F053C048
:103070008981813709F04FC08E818F3F09F04BC0A5
:103080008F818F3F09F047C088858F3F09F043C08B
:103090002D818C8190E0B0E0A0E0DC0199278827A9
:1030A000B22B2A81822B4B8150E0542F4427052ECE
:1030B000000C660B770B842B952BA62BB72BF801F6
:1030C00080839183A283B3836BEE73E080E49CE002
:1030D0000E941905F80160817181828193814AE023
:1030E0000E94CC3C6BEF73E080E49CE00E940A05F8
:1030F00011E0CE0109960E943B40812F2E960FB61B
:10310000F894DEBF0FBECDBFDF91CF911F910F911D
:10311000FF90EF9008958EEF93E00E94323910E017
:10312000E8CFCF93DF9300D01F92CDB7DEB71982DF
:103130001A821B821C82BE016F5F7F4F87EC91E178
:1031400057DF49815A816B817C8187E691E15EDEA0
:1031500089819A8190934C0380934B030E94480489
:103160000E94BC030F900F900F900F90DF91CF91B2
:103170000895CF93DF9300D01F92CDB7DEB71982A9
:103180001A821B821C82BE016F5F7F4F83ED91E12B
:103190002FDF49815A816B817C818FE791E136DE97
:1031A00069817A818B819C810E94A654609352032D
:1031B0007093530380935403909355030E944804E3
:1031C0000E94BC030F900F900F900F90DF91CF9152
:1031D00008950F931F93CF93DF9300D01F92CDB725
:1031E000DEB719821A821B821C82BE016F5F7F4F7D
:1031F0008FED91E1FDDE49815A816B817C818BE805
:1032000091E104DE9981492F8A8190934F03809345
:10321000500360914D0370914E03072E000C880BF4
:10322000990B00E010E098010E94423C64EF71E0CD
:1032300080E090E00E943C060E9431080E94480411
:103240000F900F900F900F90DF91CF911F910F91E2
:1032500008950F931F93CF93DF9300D01F92CDB7A4
:10326000DEB719821A821B821C82BE016F5F7F4FFC
:103270008BEE91E1BDDE69817A8170934E0360939C
:103280004D03072E000C880B990B00E010E098010D
:1032900040914F030E94423C64EF71E080E090E077
:1032A0000E943C060E9431080E9448040F900F9033
:1032B0000F900F90DF91CF911F910F9108958F92F2
:1032C0009F92AF92BF92EF92FF920F931F93CF9373
:1032D000DF93CDB7DEB760970FB6F894DEBF0FBEB1
:1032E000CDBF7C014A018E010F5F1F4F8AE0F801BC
:1032F00011928A95E9F76DEF73E0CE010B960E946B
:10330000F9044AE0B801C4010E940453F701628144
:103310007381CE010B960E94513F60E174E0CE01B3
:103320000B960E94513FB801CE010B960E94513F6F
:103330008B859C855CDB6DEF73E0CE010B960E9464
:10334000F23F66E174E0CE010B960E94513FF70117
:1033500062817381CE010B960E94513F8B859C85C3
:1033600046DB0E949239182FCE010B960E943B40FB
:10337000812F60960FB6F894DEBF0FBECDBFDF91F0
:10338000CF911F910F91FF90EF90BF90AF909F90C2
:103390008F9008958F929F92AF92BF92EF92FF927B
:1033A0000F931F93CF93DF93CDB7DEB760970FB620
:1033B000F894DEBF0FBECDBF7C014A018E010F5FC6
:1033C0001F4F8AE0F80111928A95E9F76DEF73E0DB
:1033D000CE010B960E94F9044AE0B801C4010E9494
:1033E0000453F70162817381CE010B960E94513F15
:1033F0006BE174E0CE010B960E94513FB801CE0103
:103400000B960E94513F8B859C85F1DA6DEF73E03E
:10341000CE010B960E94F23F66E174E0CE010B965E
:103420000E94513FF70162817381CE010B960E9489
:10343000513F8B859C85DBDA0E949239182FCE0193
:103440000B960E943B40812F60960FB6F894DEBF2A
:103450000FBECDBFDF91CF911F910F91FF90EF90E5
:10346000BF90AF909F908F9008954FEF5FEF60E017
:1034700070E087E892E18EDF4FEF5FEF60E070E091
:1034800087E892E11CDF4FEF5FEF60E070E08BE4D4
:1034900092E180DF4FEF5FEF60E070E08BE492E15C
:1034A0000EDF10928509089540E058EF60E070E06B
:1034B00087E892E16FDF40E058EF60E070E087E876
:1034C00092E1FDDE40E058EF60E070E08BE492E1D5
:1034D00061DF40E058EF60E070E08BE492E1EFDE06
:1034E00081E08093850908954FEF5FEF60E070E021
:1034F00083E992E14FDF4FEF5FEF60E070E083E937
:1035000092E1DDDE4FEF5FEF60E070E087E592E192
:1035100041DF4FEF5FEF60E070E087E592E1CFDEE3
:103520001092840908954FEF5FEF60E070E087EB41
:1035300092E130DF4FEF5FEF60E070E087EB92E108
:10354000BEDE4FEF5FEF60E070E08BE792E122DFDD
:103550004FEF5FEF60E070E08BE792E1B0DE10923A
:10356000830908954FEF5FEF60E070E087EB92E131
:1035700011DF40E058EF60E070E087EB92E19FDE02
:103580004FEF5FEF60E070E08BE792E103DF40E038
:1035900058EF60E070E08BE792E191DE81E080938C
:1035A0008309089581E0809386090E94123DDADF45
:1035B0001092800910927F096DEF73E08EE39DE019
:1035C0000C94F23F40E058EF60E070E087EB92E14E
:1035D000E1DE40E058EF60E070E087EB92E16FDE03
:1035E00040E058EF60E070E08BE792E1D3DE40E02E
:1035F00058EF60E070E08BE792E161DE81E080935C
:103600008309089580918409811137C080918309CD
:1036100081110E947F0380917509811104C08091FE
:103620008509882369F16DEF73E088E39DE00E94CE
:103630003C3F811125C00E946D0640E058EF60E0DC
:1036400070E083E992E1A6DE40E058EF60E070E0D0
:1036500083E992E134DE40E058EF60E070E087E516
:1036600092E198DE40E058EF60E070E087E592E19B
:1036700026DE81E080938409089536DF0C94BC0334
:10368000089587E494E1BECFCF93DF9300D000D0BC
:10369000CDB7DEB78091A209811102C00E94BC03A0
:1036A0000E9467086DEF73E08EE39DE00E94F23F99
:1036B0001092800910927F0910927809109279096E
:1036C00010927A0910927B09809175098823F1F094
:1036D0004FEF5FEF60E070E08BEA92E15BDE4FEF6F
:1036E0005FEF60E070E08BEA92E1E9DD4FEF5FEFC2
:1036F00060E070E08FE692E14DDE4FEF5FEF60E05B
:1037000070E08FE692E1DBDD10927509809181090E
:103710008823F1F04FEF5FEF60E070E08FE992E116
:1037200039DE4FEF5FEF60E070E08FE992E1C7DDD7
:103730004FEF5FEF60E070E083E692E12BDE4FEF4A
:103740005FEF60E070E083E692E1B9DD10928109FD
:10375000809184098111C8DE80918509811185DEFF
:1037600031DF61E274E0CE0101960E94F904CE01DE
:103770000196C3DACE0101960E943B4064EB74E0EF
:10378000CE0101960E94F904CE01019604DBCE0120
:1037900001960E943B4064EB74E0CE0101960E94CA
:1037A000F904CE010196D1DACE0101960E943B4088
:1037B0006DEF73E088E39DE00E94F23F609178092D
:1037C0007091790980917A0990917B090E94BF5686
:1037D000AB01BC0183EC92E119DB60917809709137
:1037E000790980917A0990917B090E94BF56AB01BB
:1037F000BC018FE59DE00ADB0E9448048ED910923F
:10380000A1091092820926960FB6F894DEBF0FBE6A
:10381000CDBFDF91CF9108958BE094E135CF66E184
:1038200072E087E292E127DA8BE094E12DCF1092EB
:10383000800910927F0966E172E083E392E11BDA6E
:1038400060912102709122028091230290912402C2
:103850000E94BF56AB01BC0187EB93E1D7DA6091C0
:1038600021027091220280912302909124020E94F1
:10387000BF56AB01BC0187EE92E1C8DA80917C09AA
:10388000882331F040E050E0BA018BED92E117DD82
:103890004091000250910102052E000C660B770B3F
:1038A0008BED92E1B3DA60911D0270911E0280915E
:1038B0001F02909120020E94BF56AB01BC018FEC09
:1038C00092E1A4DA609178097091790980917A097E
:1038D00090917B090E94BF56AB01BC0183EC92E141
:1038E00095DA8091510360EC73E0882311F062EC6B
:1038F00073E08FE293E1BFD98BE094E1C5CE87E11D
:1039000093E195CF87E193E192CF87E193E18FCF68
:1039100087E193E18CCFCF93DF9300D01F92CDB797
:10392000DEB719821A821B821C82BE016F5F7F4F35
:1039300087EF91E15DDB89819A81AB81BC81813028
:103940009105A105B105D9F080F00297A105B10557
:10395000F9F00E94BC038BE094E196DE0F900F908B
:103960000F900F90DF91CF91089510927E091092E1
:103970007D096DEC73E083EA91E17DD9EACF81E0C6
:1039800090E090937E0980937D0964ED73E0F3CF1E
:1039900082E090E090937E0980937D096DED73E065
:1039A000EACF8F929F92AF92BF92CF92DF92EF9227
:1039B000FF9280917F09909180090197029708F00A
:1039C00045C080913E0D90913F0DC12CD12C7601C8
:1039D000009721F00E94BC526B017C01C092210231
:1039E000D0922202E0922302F0922402C0921D02A1
:1039F000D0921E02E0921F02F092200220E030E0FE
:103A000048EC52E460915203709153038091540347
:103A1000909155030E9452564B015C01A7019601FB
:103A200060E070E086E994E40E9452569B01AC018C
:103A3000C501B4010E94075560939B0970939C09CE
:103A400080939D0990939E090E94480480917F096C
:103A500090918009892B31F480918609811102C0EF
:103A60000E947F03609121027091220280912302C3
:103A7000909124020E94BF56AB01BC0187EB93E1F9
:103A8000C5D9609121027091220280912302909108
:103A900024020E94BF56AB01BC0187EE92E1B6D969
:103AA00060911D0270911E0280911F029091200270
:103AB0000E94BF56AB01BC018FEC92E1A7D98BE00D
:103AC00094E1FF90EF90DF90CF90BF90AF909F90E8
:103AD0008F90DACD80918609811159C080917F093C
:103AE00090918009019709F039C081E080937C09A9
:103AF0000E941F3E7093010260930002AB01770F9A
:103B0000660B770B8BED92E181D940E050E0BA0172
:103B10008BED92E1D4DBE0910002F0910102EA30FA
:103B2000F105E0F48827E856F24E8F4F0C941157B8
:103B3000A21DCA1DCF1DD41DD91DDE1DE31DE81D0C
:103B4000ED1DF21D8DEC9CECACECBEEB809371098D
:103B500090937209A0937309B093740980917F09BF
:103B600090918009892B49F410927C0940EE5FEF17
:103B700060E070E08BED92E1A2DB80917F09909193
:103B80008009029714F00E947F030E9448048BE092
:103B900094E17ACD8AE999E9A9E9BEEBD7CF8DEC1A
:103BA0009CECACE4BEEBD2CF8DEC9CECACECBDEB72
:103BB000CDCF8DEC9CECACE4BDEBC8CF8DEC9CEC98
:103BC000ACE4BDE3C3CF8DEC9CECACECBDE3BECF6D
:103BD0008DEC9CECACE4BEE3B9CF8AE999E9A9E9A4
:103BE000BEE3B4CF8DEC9CECACECBEE3AFCF4F9218
:103BF0005F926F927F928F929F92AF92BF92CF927D
:103C0000DF92EF92FF92CF93DF9300D01F92CDB758
:103C1000DEB7C0902102D0902202E0902302F09003
:103C200024028091860981111AC00E941F3E0E94C1
:103C3000A85460931D0270931E0280931F029093FC
:103C4000200280917F0990918009892B41F4C092D4
:103C50001D02D0921E02E0921F02F09220024090BC
:103C60001D0250901E0260901F027090200220E002
:103C700030E048EC52E4609152037091530380911C
:103C80005403909155030E9452564B015C0120E071
:103C900030E046E953E4C701B6010E940755698345
:103CA0007A838B839C8320E030E04AE353E4C301B2
:103CB000B2010E9407559B01AC0169817A818B8119
:103CC0009C810E94ED559B01AC01C501B4010E948D
:103CD00007554B015C0120E030E04EEB52E4C70198
:103CE000B6010E940755A30192010E9407559B014E
:103CF000AC01C501B4010E94525620E030E04AE711
:103D000054E40E9407556093970970939809809333
:103D1000990990939A0920E030E0A9010E94EB569E
:103D200087FD26C00E94480460911D0270911E020A
:103D300080911F02909120020E94BF56AB01BC01EE
:103D40008FEC92E163D88BE094E10F900F900F908D
:103D50000F90DF91CF91FF90EF90DF90CF90BF90C9
:103D6000AF909F908F907F906F905F904F908CCC92
:103D70000E947F03E8CF80918609882319F08BE0A9
:103D800094E182CC80918309882321F1CCDB40E04F
:103D900058EF60E070E08BEA92E1FCDA40E058EF27
:103DA00060E070E08BEA92E18ADA40E058EF60E090
:103DB00070E08FE692E1EEDA40E058EF60E070E00C
:103DC0008FE692E17CDA81E0809375098093A10906
:103DD0000C9448041092A1098BE094E155DCF8CFD3
:103DE0008BE694E1C8CFCF93DF9300D000D0CDB75E
:103DF000DEB780918409882359F16DEF73E088E381
:103E00009DE00E94F23F6DEF73E0CE0101960E94AB
:103E1000F904CE0101960E94CB16CE0101960E94B4
:103E20003B406DEF73E0CE0101960E94F904CE0194
:103E300001960E94A516CE0101960E943B4026964F
:103E40000FB6F894DEBF0FBECDBFDF91CF910895BE
:103E500080918609811160C00E94BC0380917F0916
:103E6000909180098130910509F446C08230910516
:103E700009F442C0892B09F04CC0109278091092C5
:103E8000790910927A0910927B096DEF73E08EE345
:103E90009DE00E94F23F1092800910927F0960918C
:103EA00078097091790980917A0990917B090E9433
:103EB000BF56AB01BC0183EC92E10E9406176091F2
:103EC00078097091790980917A0990917B090E9413
:103ED000BF56AB01BC018FE59DE00E9406170E9412
:103EE000480461E274E0CE0101960E94F904CE011B
:103EF00001960E947D169FCF0E941F3E0E94A854EB
:103F0000609378097093790980937A0990937B097B
:103F1000BCCF0E947F03E5CF8BE094E1B5DB8FCF70
:103F20008FE594E160CFCF93DF9300D000D0CDB781
:103F3000DEB768E37DE0CE0101960E94F00465E201
:103F400074E0CE0101960E94AE3FBC0188E39DE083
:103F50000E942640CE0101960E943B4026960FB655
:103F6000F894DEBF0FBECDBFDF91CF910895DBCFB8
:103F7000CF93DF9300D000D0CDB7DEB768E37DE00C
:103F8000CE0101960E94F00468E274E0CE01019631
:103F90000E94AE3FBC0188E39DE00E942640CE0116
:103FA00001960E943B4026960FB6F894DEBF0FBEE6
:103FB000CDBFDF91CF910895CF93DF9300D000D094
:103FC000CDB7DEB768E37DE0CE0101960E94F00434
:103FD0006CE274E0CE0101960E94AE3FBC0188E322
:103FE0009DE00E942640CE0101960E943B4026960D
:103FF0000FB6F894DEBF0FBECDBFDF91CF9108950D
:10400000CF93DF9300D000D0CDB7DEB78091810988
:1040100068E37DE08823E1F0CE0101960E94F00480
:1040200060E374E0CE0101960E94AE3FBC0188E3DC
:104030009DE00E942640CE0101960E943B402696BC
:104040000FB6F894DEBF0FBECDBFDF91CF910895BC
:10405000CE0101960E94F00466E172E0E3CFCF93B7
:10406000DF9300D000D0CDB7DEB768E37DE0CE01AE
:1040700001960E94F00462E374E0CE0101960E9472
:10408000AE3FBC0188E39DE00E942640CE01019630
:104090000E943B4026960FB6F894DEBF0FBECDBF00
:1040A000DF91CF910895CF93DF9300D000D0CDB7AB
:1040B000DEB768E37DE0CE0101960E94F00465E37F
:1040C00074E0CE0101960E94AE3FBC0188E39DE002
:1040D0000E942640CE0101960E943B4026960FB6D4
:1040E000F894DEBF0FBECDBFDF91CF910895CF937F
:1040F000DF9300D000D0CDB7DEB768E37DE0CE011E
:1041000001960E94F00468E374E0CE0101960E94DB
:10411000AE3FBC0188E39DE00E942640CE0101969F
:104120000E943B4026960FB6F894DEBF0FBECDBF6F
:10413000DF91CF910895CF93DF9300D000D0CDB71A
:10414000DEB768E37DE0CE0101960E94F0046AE3E9
:1041500074E0CE0101960E94AE3FBC0188E39DE071
:104160000E942640CE0101960E943B4026960FB643
:10417000F894DEBF0FBECDBFDF91CF910895CF93EE
:10418000DF9300D000D0CDB7DEB768E37DE0CE018D
:1041900001960E94F0046CE374E0CE0101960E9447
:1041A000AE3FBC0188E39DE00E942640CE0101960F
:1041B0000E943B4026960FB6F894DEBF0FBECDBFDF
:1041C000DF91CF910895CF93DF9300D000D0CDB78A
:1041D000DEB768E37DE0CE0101960E94F0046DE653
:1041E00074E0CE0101960E94AE3FBC0188E39DE0E1
:1041F0000E942640CE0101960E943B4026960FB6B3
:10420000F894DEBF0FBECDBFDF91CF910895CF935D
:10421000DF9300D000D0CDB7DEB768E37DE0CE01FC
:1042200001960E94F0046EE374E0CE0101960E94B4
:10423000AE3FBC0188E39DE00E942640CE0101967E
:104240000E943B4026960FB6F894DEBF0FBECDBF4E
:10425000DF91CF910895CF93DF9300D000D0CDB7F9
:10426000DEB768E37DE0CE0101960E94F00461E4D0
:1042700074E0CE0101960E94AE3FBC0188E39DE050
:104280000E942640CE0101960E943B4026960FB622
:10429000F894DEBF0FBECDBFDF91CF910895CF93CD
:1042A000DF9300D000D0CDB7DEB768E37DE0CE016C
:1042B00001960E94F00466E474E0CE0101960E942B
:1042C000AE3FBC0188E39DE00E942640CE010196EE
:1042D0000E943B4026960FB6F894DEBF0FBECDBFBE
:1042E000DF91CF910895CF93DF9300D000D0CDB769
:1042F000DEB768E37DE0CE0101960E94F0046BE436
:1043000074E0CE0101960E94AE3FBC0188E39DE0BF
:104310000E942640CE0101960E943B4026960FB691
:10432000F894DEBF0FBECDBFDF91CF910895CF933C
:10433000DF9300D000D0CDB7DEB768E37DE0CE01DB
:1043400001960E94F00460E574E0CE0101960E949F
:10435000AE3FBC0188E39DE00E942640CE0101965D
:104360000E943B4026960FB6F894DEBF0FBECDBF2D
:10437000DF91CF910895CF93DF9300D000D0CDB7D8
:10438000DEB768E37DE0CE0101960E94F00463E5AC
:1043900074E0CE0101960E94AE3FBC0188E39DE02F
:1043A0000E942640CE0101960E943B4026960FB601
:1043B000F894DEBF0FBECDBFDF91CF910895CF93AC
:1043C000DF9300D000D0CDB7DEB768E37DE0CE014B
:1043D00001960E94F00467E574E0CE0101960E9408
:1043E000AE3FBC0188E39DE00E942640CE010196CD
:1043F0000E943B4026960FB6F894DEBF0FBECDBF9D
:10440000DF91CF910895CF93DF9300D000D0CDB747
:10441000DEB768E37DE0CE0101960E94F0046BE513
:1044200074E0CE0101960E94AE3FBC0188E39DE09E
:104430000E942640CE0101960E943B4026960FB670
:10444000F894DEBF0FBECDBFDF91CF910895CF931B
:10445000DF9300D000D0CDB7DEB768E37DE0CE01BA
:1044600001960E94F00460E674E0CE0101960E947D
:10447000AE3FBC0188E39DE00E942640CE0101963C
:104480000E943B4026960FB6F894DEBF0FBECDBF0C
:10449000DF91CF910895CF93DF9300D000D0CDB7B7
:1044A000DEB768E37DE0CE0101960E94F0046BEC7C
:1044B00073E0CE0101960E94AE3FBC0188E39DE00F
:1044C0000E942640CE0101960E943B4026960FB6E0
:1044D000F894DEBF0FBECDBFDF91CF910895CF938B
:1044E000DF9300D000D0CDB7DEB768E37DE0CE012A
:1044F00001960E94F00464EB74E0CE0101960E94E4
:10450000AE3FBC0188E39DE00E942640CE010196AB
:104510000E943B4026960FB6F894DEBF0FBECDBF7B
:10452000DF91CF910895CF93DF9300D000D0CDB726
:10453000DEB768E37DE0CE0101960E94F0046BE6F1
:1045400074E0CE0101960E94AE3FBC0188E39DE07D
:104550000E942640CE0101960E943B4026960FB64F
:10456000F894DEBF0FBECDBFDF91CF910895CF93FA
:10457000DF9300D000D0CDB7DEB768E37DE0CE0199
:1045800001960E94F00467EE78E0CE0101960E9449
:10459000AE3FBC0188E39DE00E942640CE0101961B
:1045A0000E943B4026960FB6F894DEBF0FBECDBFEB
:1045B000DF91CF910895CF93DF9300D000D0CDB796
:1045C000DEB768E37DE0CE0101960E94F0046EE65E
:1045D00078E0CE0101960E94AE3FBC0188E39DE0E9
:1045E0000E942640CE0101960E943B4026960FB6BF
:1045F000F894DEBF0FBECDBFDF91CF910895CF936A
:10460000DF9300D000D0CDB7DEB768E37DE0CE0108
:1046100001960E94F0046AE678E0CE0101960E94BD
:10462000AE3FBC0188E39DE00E942640CE0101968A
:104630000E943B4026960FB6F894DEBF0FBECDBF5A
:10464000DF91CF910895CF93DF9300D000D0CDB705
:10465000DEB768E37DE0CE0101960E94F00466E6D5
:1046600078E0CE0101960E94AE3FBC0188E39DE058
:104670000E942640CE0101960E943B4026960FB62E
:10468000F894DEBF0FBECDBFDF91CF910895CF93D9
:10469000DF9300D000D0CDB7DEB768E37DE0CE0178
:1046A00001960E94F00462E678E0CE0101960E9435
:1046B000AE3FBC0188E39DE00E942640CE010196FA
:1046C0000E943B4026960FB6F894DEBF0FBECDBFCA
:1046D000DF91CF910895CF93DF9300D000D0CDB775
:1046E000DEB768E37DE0CE0101960E94F0046EE53E
:1046F00078E0CE0101960E94AE3FBC0188E39DE0C8
:104700000E942640CE0101960E943B4026960FB69D
:10471000F894DEBF0FBECDBFDF91CF910895CF9348
:10472000DF9300D000D0CDB7DEB768E37DE0CE01E7
:1047300001960E94F0046AE578E0CE0101960E949D
:10474000AE3FBC0188E39DE00E942640CE01019669
:104750000E943B4026960FB6F894DEBF0FBECDBF39
:10476000DF91CF910895CF93DF9300D000D0CDB7E4
:10477000DEB768E37DE0CE0101960E94F00466E5B5
:1047800078E0CE0101960E94AE3FBC0188E39DE037
:104790000E942640CE0101960E943B4026960FB60D
:1047A000F894DEBF0FBECDBFDF91CF910895CF93B8
:1047B000DF9300D000D0CDB7DEB768E37DE0CE0157
:1047C00001960E94F00461E875E0CE0101960E9416
:1047D000AE3FBC0188E39DE00E942640CE010196D9
:1047E0000E943B4026960FB6F894DEBF0FBECDBFA9
:1047F000DF91CF910895CF93DF9300D000D0CDB754
:10480000DEB768E37DE0CE0101960E94F0046EE41D
:1048100078E0CE0101960E94AE3FBC0188E39DE0A6
:104820000E942640CE0101960E943B4026960FB67C
:10483000F894DEBF0FBECDBFDF91CF910895CF9327
:10484000DF9300D000D0CDB7DEB768E37DE0CE01C6
:1048500001960E94F0046EE274E0CE0101960E947F
:10486000AE3FBC0188E39DE00E942640CE01019648
:104870000E943B4026960FB6F894DEBF0FBECDBF18
:10488000DF91CF910895CF93DF9300D000D0CDB7C3
:10489000DEB768E37DE0CE0101960E94F0046FE68A
:1048A00074E0CE0101960E94AE3FBC0188E39DE01A
:1048B0000E942640CE0101960E943B4026960FB6EC
:1048C000F894DEBF0FBECDBFDF91CF910895CF9397
:1048D000DF9300D000D0CDB7DEB768E37DE0CE0136
:1048E00001960E94F00461E774E0CE0101960E94F7
:1048F000AE3FBC0188E39DE00E942640CE010196B8
:104900000E943B4026960FB6F894DEBF0FBECDBF87
:10491000DF91CF910895CF93DF9300D000D0CDB732
:10492000DEB768E37DE0CE0101960E94F00463E704
:1049300074E0CE0101960E94AE3FBC0188E39DE089
:104940000E942640CE0101960E943B4026960FB65B
:10495000F894DEBF0FBECDBFDF91CF910895CF9306
:10496000DF9300D000D0CDB7DEB768E37DE0CE01A5
:1049700001960E94F0046BED74E0CE0101960E9456
:10498000AE3FBC0188E39DE00E942640CE01019627
:104990000E943B4026960FB6F894DEBF0FBECDBFF7
:1049A000DF91CF910895CF93DF9300D000D0CDB7A2
:1049B000DEB768E37DE0CE0101960E94F0046BE271
:1049C00077E0CE0101960E94AE3FBC0188E39DE0F6
:1049D0000E942640CE0101960E943B4026960FB6CB
:1049E000F894DEBF0FBECDBFDF91CF910895CF9376
:1049F000DF9300D000D0CDB7DEB768E37DE0CE0115
:104A000001960E94F0046DEF75E0CE0101960E94C0
:104A1000AE3FBC0188E39DE00E942640CE01019696
:104A20000E943B4026960FB6F894DEBF0FBECDBF66
:104A3000DF91CF910895CF93DF9300D000D0CDB711
:104A4000DEB768E37DE0CE0101960E94F00460E9E4
:104A500077E0CE0101960E94AE3FBC0188E39DE065
:104A60000E942640CE0101960E943B4026960FB63A
:104A7000F894DEBF0FBECDBFDF91CF910895CF93E5
:104A8000DF9300D000D0CDB7DEB768E37DE0CE0184
:104A900001960E94F00465E774E0CE0101960E9441
:104AA000AE3FBC0188E39DE00E942640CE01019606
:104AB0000E943B4026960FB6F894DEBF0FBECDBFD6
:104AC000DF91CF910895CF93DF9300D000D0CDB781
:104AD000DEB768E37DE0CE0101960E94F0046AE94A
:104AE00078E0CE0101960E94AE3FBC0188E39DE0D4
:104AF0000E942640CE0101960E943B4026960FB6AA
:104B0000F894DEBF0FBECDBFDF91CF910895CF9354
:104B1000DF9300D000D0CDB7DEB768E37DE0CE01F3
:104B200001960E94F0046EE574E0CE0101960E94A9
:104B3000AE3FBC0188E39DE00E942640CE01019675
:104B40000E943B4026960FB6F894DEBF0FBECDBF45
:104B5000DF91CF910895CF93DF9300D000D0CDB7F0
:104B6000DEB768E37DE0CE0101960E94F00469EEB5
:104B700073E0CE0101960E94AE3FBC0188E39DE048
:104B80000E942640CE0101960E943B4026960FB619
:104B9000F894DEBF0FBECDBFDF91CF910895CF93C4
:104BA000DF9300D000D0CDB7DEB768E37DE0CE0163
:104BB00001960E94F0046DEB74E0CE0101960E9414
:104BC000AE3FBC0188E39DE00E942640CE010196E5
:104BD0000E943B4026960FB6F894DEBF0FBECDBFB5
:104BE000DF91CF910895CF93DF9300D000D0CDB760
:104BF000DEB768E37DE0CE0101960E94F00467E72E
:104C000074E0CE0101960E94AE3FBC0188E39DE0B6
:104C10000E942640CE0101960E943B4026960FB688
:104C2000F894DEBF0FBECDBFDF91CF910895CF9333
:104C3000DF9300D000D0CDB7DEB768E37DE0CE01D2
:104C400001960E94F0046BE177E0CE0101960E948C
:104C5000AE3FBC0188E39DE00E942640CE01019654
:104C60000E943B4026960FB6F894DEBF0FBECDBF24
:104C7000DF91CF910895CF93DF9300D000D0CDB7CF
:104C8000DEB768E37DE0CE0101960E94F0046AE29F
:104C900074E0CE0101960E94AE3FBC0188E39DE026
:104CA0000E942640CE0101960E943B4026960FB6F8
:104CB000F894DEBF0FBECDBFDF91CF910895CF93A3
:104CC000DF9300D000D0CDB7DEB768E37DE0CE0142
:104CD00001960E94F00462E777E0CE0101960E94FF
:104CE000AE3FBC0188E39DE00E942640CE010196C4
:104CF0000E943B4026960FB6F894DEBF0FBECDBF94
:104D0000DF91CF910895CF93DF9300D000D0CDB73E
:104D1000DEB768E37DE0CE0101960E94F0046BED02
:104D200073E0CE0101960E94AE3FBC0188E39DE096
:104D30000E942640CE0101960E943B4026960FB667
:104D4000F894DEBF0FBECDBFDF91CF910895CF9312
:104D5000DF9300D000D0CDB7DEB768E37DE0CE01B1
:104D600001960E94F00469E377E0CE0101960E946B
:104D7000AE3FBC0188E39DE00E942640CE01019633
:104D80000E943B4026960FB6F894DEBF0FBECDBF03
:104D9000DF91CF910895CF93DF9300D000D0CDB7AE
:104DA000DEB768E37DE0CE0101960E94F00469E77A
:104DB00074E0CE0101960E94AE3FBC0188E39DE005
:104DC0000E942640CE0101960E943B4026960FB6D7
:104DD000F894DEBF0FBECDBFDF91CF910895CF9382
:104DE000DF9300D000D0CDB7DEB768E37DE0CE0121
:104DF00001960E94F0046BE774E0CE0101960E94D8
:104E0000AE3FBC0188E39DE00E942640CE010196A2
:104E10000E943B4026960FB6F894DEBF0FBECDBF72
:104E2000DF91CF910895CF93DF9300D000D0CDB71D
:104E3000DEB768E37DE0CE0101960E94F00460EAEF
:104E400075E0CE0101960E94AE3FBC0188E39DE073
:104E50000E942640CE0101960E943B4026960FB646
:104E6000F894DEBF0FBECDBFDF91CF910895CF93F1
:104E7000DF9300D000D0CDB7DEB768E37DE0CE0190
:104E800001960E94F0046DE774E0CE0101960E9445
:104E9000AE3FBC0188E39DE00E942640CE01019612
:104EA0000E943B4026960FB6F894DEBF0FBECDBFE2
:104EB000DF91CF910895CF93DF9300D000D0CDB78D
:104EC000DEB768E37DE0CE0101960E94F0046FE753
:104ED00074E0CE0101960E94AE3FBC0188E39DE0E4
:104EE0000E942640CE0101960E943B4026960FB6B6
:104EF000F894DEBF0FBECDBFDF91CF910895CF9361
:104F0000DF9300D000D0CDB7DEB768E37DE0CE01FF
:104F100001960E94F00462E974E0CE0101960E94BD
:104F2000AE3FBC0188E39DE00E942640CE01019681
:104F30000E943B4026960FB6F894DEBF0FBECDBF51
:104F4000DF91CF910895CF93DF9300D000D0CDB7FC
:104F5000DEB768E37DE0CE0101960E94F0046DEEBD
:104F600075E0CE0101960E94AE3FBC0188E39DE052
:104F70000E942640CE0101960E943B4026960FB625
:104F8000F894DEBF0FBECDBFDF91CF910895CF93D0
:104F9000DF9300D000D0CDB7DEB768E37DE0CE016F
:104FA00001960E94F00461E874E0CE0101960E942F
:104FB000AE3FBC0188E39DE00E942640CE010196F1
:104FC0000E943B4026960FB6F894DEBF0FBECDBFC1
:104FD000DF91CF910895CF93DF9300D000D0CDB76C
:104FE000DEB768E37DE0CE0101960E94F00469E13E
:104FF00076E0CE0101960E94AE3FBC0188E39DE0C1
:105000000E942640CE0101960E943B4026960FB694
:10501000F894DEBF0FBECDBFDF91CF910895CF933F
:10502000DF9300D000D0CDB7DEB768E37DE0CE01DE
:1050300001960E94F00466E274E0CE0101960E949F
:10504000AE3FBC0188E39DE00E942640CE01019660
:105050000E943B4026960FB6F894DEBF0FBECDBF30
:10506000DF91CF910895CF93DF9300D000D0CDB7DB
:10507000DEB768E37DE0CE0101960E94F00463E8AC
:1050800074E0CE0101960E94AE3FBC0188E39DE032
:105090000E942640CE0101960E943B4026960FB604
:1050A000F894DEBF0FBECDBFDF91CF910895CF93AF
:1050B000DF9300D000D0CDB7DEB780917F0990910B
:1050C0008009029724F01092800910927F09809144
:1050D0008609882351F084E090E0909380098093C2
:1050E0007F090E94E21A0E94BC030E94B21A8091BA
:1050F0007F0990918009019701F56EE37DE0CE0173
:1051000001960E94F0046EE678E0CE0101960E94BE
:10511000AE3FBC018EE39DE00E942640CE01019689
:105120000E943B4080917F09909180090196909365
:10513000800980937F090E946D0680917F0990917C
:105140008009892B89F46EE678E08EE39DE00E9469
:10515000F23F80917F099091800901969093800998
:1051600080937F090E94BC036EE37DE0CE0101962F
:105170000E94F004CE0101960E947D16CE01019698
:105180000E943B408091860981110E94E21A0E9490
:10519000670826960FB6F894DEBF0FBECDBFDF912D
:1051A000CF9108958BE393E182CFCF93DF9300D02B
:1051B00000D0CDB7DEB780917F099091800902972A
:1051C00024F01092800910927F098091860988232B
:1051D00051F084E090E09093800980937F090E94D1
:1051E000E21A0E94BC030E94B21A80917F0990913A
:1051F0008009019701F56EE37DE0CE0101960E94E2
:10520000F0046AE678E0CE0101960E94AE3FBC0150
:105210008EE39DE00E942640CE0101960E943B4015
:1052200080917F09909180090196909380098093E5
:105230007F090E946D0680917F0990918009892BDA
:1052400089F46AE678E08EE39DE00E94F23F809167
:105250007F099091800901969093800980937F093E
:105260000E94BC036EE37DE0CE0101960E94F00433
:10527000CE0101960E947D16CE0101960E943B4010
:105280008091860981110E94E21A0E946708269681
:105290000FB6F894DEBF0FBECDBFDF91CF9108955A
:1052A00087E493E182CFCF93DF9300D000D0CDB7D6
:1052B000DEB780917F0990918009029724F01092C7
:1052C000800910927F0980918609882351F084E03B
:1052D00090E09093800980937F090E94E21A0E94D7
:1052E000BC030E94B21A80917F09909180090197B6
:1052F00001F56EE37DE0CE0101960E94F00466E6C2
:1053000078E0CE0101960E94AE3FBC018EE39DE0A5
:105310000E942640CE0101960E943B4080917F0969
:105320009091800901969093800980937F090E9453
:105330006D0680917F0990918009892B89F466E63A
:1053400078E08EE39DE00E94F23F80917F0990918A
:10535000800901969093800980937F090E94BC0385
:105360006EE37DE0CE0101960E94F004CE0101962D
:105370000E947D16CE0101960E943B4080918609D5
:1053800081110E94E21A0E94670826960FB6F894CF
:10539000DEBF0FBECDBFDF91CF91089583E593E1CE
:1053A00082CFCF93DF9300D000D0CDB7DEB780910E
:1053B0007F0990918009029724F010928009109241
:1053C0007F0980918609882351F084E090E09093D2
:1053D000800980937F090E94E21A0E94BC030E9408
:1053E000B21A80917F0990918009019701F56EE3CF
:1053F0007DE0CE0101960E94F00462E678E0CE01E5
:1054000001960E94AE3FBC018EE39DE00E942640C3
:10541000CE0101960E943B4080917F0990918009C6
:1054200001969093800980937F090E946D06809178
:105430007F0990918009892B89F462E678E08EE3F8
:105440009DE00E94F23F80917F0990918009019632
:105450009093800980937F090E94BC036EE37DE0F6
:10546000CE0101960E94F004CE0101960E947D16A5
:10547000CE0101960E943B408091860981110E94D5
:10548000E21A0E94670826960FB6F894DEBF0FBE98
:10549000CDBFDF91CF9108958FE593E182CFCF9378
:1054A000DF9300D000D0CDB7DEB780917F09909117
:1054B0008009029724F01092800910927F09809150
:1054C0008609882351F084E090E0909380098093CE
:1054D0007F090E94E21A0E94BC030E94B21A8091C6
:1054E0007F0990918009019701F56EE37DE0CE017F
:1054F00001960E94F0046EE578E0CE0101960E94CC
:10550000AE3FBC018EE39DE00E942640CE01019695
:105510000E943B4080917F09909180090196909371
:10552000800980937F090E946D0680917F09909188
:105530008009892B89F46EE578E08EE39DE00E9476
:10554000F23F80917F0990918009019690938009A4
:1055500080937F090E94BC036EE37DE0CE0101963B
:105560000E94F004CE0101960E947D16CE010196A4
:105570000E943B408091860981110E94E21A0E949C
:10558000670826960FB6F894DEBF0FBECDBFDF9139
:10559000CF9108958BE693E182CFCF93DF9300D034
:1055A00000D0CDB7DEB780917F0990918009029736
:1055B00024F01092800910927F0980918609882337
:1055C00051F084E090E09093800980937F090E94DD
:1055D000E21A0E94BC030E94B21A80917F09909146
:1055E0008009019701F56EE37DE0CE0101960E94EE
:1055F000F0046AE578E0CE0101960E94AE3FBC015E
:105600008EE39DE00E942640CE0101960E943B4021
:1056100080917F09909180090196909380098093F1
:105620007F090E946D0680917F0990918009892BE6
:1056300089F46AE578E08EE39DE00E94F23F809174
:105640007F099091800901969093800980937F094A
:105650000E94BC036EE37DE0CE0101960E94F0043F
:10566000CE0101960E947D16CE0101960E943B401C
:105670008091860981110E94E21A0E94670826968D
:105680000FB6F894DEBF0FBECDBFDF91CF91089566
:1056900087E793E182CFCF93DF9300D000D0CDB7DF
:1056A000DEB780917F0990918009029724F01092D3
:1056B000800910927F0980918609882351F084E047
:1056C00090E09093800980937F090E94E21A0E94E3
:1056D000BC030E94B21A80917F09909180090197C2
:1056E00001F56EE37DE0CE0101960E94F00466E5CF
:1056F00078E0CE0101960E94AE3FBC018EE39DE0B2
:105700000E942640CE0101960E943B4080917F0975
:105710009091800901969093800980937F090E945F
:105720006D0680917F0990918009892B89F466E547
:1057300078E08EE39DE00E94F23F80917F09909196
:10574000800901969093800980937F090E94BC0391
:105750006EE37DE0CE0101960E94F004CE01019639
:105760000E947D16CE0101960E943B4080918609E1
:1057700081110E94E21A0E94670826960FB6F894DB
:10578000DEBF0FBECDBFDF91CF91089583E893E1D7
:1057900082CFCF93DF9300D000D0CDB7DEB780911A
:1057A0007F0990918009029724F01092800910924D
:1057B0007F0980918609882351F084E090E09093DE
:1057C000800980937F090E94E21A0E94BC030E9414
:1057D000B21A80917F0990918009019701F56EE3DB
:1057E0007DE0CE0101960E94F00461E875E0CE01F3
:1057F00001960E94AE3FBC018EE39DE00E942640D0
:10580000CE0101960E943B4080917F0990918009D2
:1058100001969093800980937F090E946D06809184
:105820007F0990918009892B89F461E875E08EE306
:105830009DE00E94F23F80917F099091800901963E
:105840009093800980937F090E94BC036EE37DE002
:10585000CE0101960E94F004CE0101960E947D16B1
:10586000CE0101960E943B408091860981110E94E1
:10587000E21A0E94670826960FB6F894DEBF0FBEA4
:10588000CDBFDF91CF9108958FE893E182CFCF9381
:10589000DF9300D000D0CDB7DEB780917F09909123
:1058A0008009029724F01092800910927F0980915C
:1058B0008609882351F084E090E0909380098093DA
:1058C0007F090E94E21A0E94BC030E94B21A8091D2
:1058D0007F0990918009019701F56EE37DE0CE018B
:1058E00001960E94F0046EE478E0CE0101960E94D9
:1058F000AE3FBC018EE39DE00E942640CE010196A2
:105900000E943B4080917F0990918009019690937D
:10591000800980937F090E946D0680917F09909194
:105920008009892B89F46EE478E08EE39DE00E9483
:10593000F23F80917F0990918009019690938009B0
:1059400080937F090E94BC036EE37DE0CE01019647
:105950000E94F004CE0101960E947D16CE010196B0
:105960000E943B408091860981110E94E21A0E94A8
:10597000670826960FB6F894DEBF0FBECDBFDF9145
:10598000CF9108958BE993E182CFCF93DF9300D03D
:1059900000D0CDB7DEB780917F0990918009029742
:1059A00024F01092800910927F0980918609882343
:1059B00051F084E090E09093800980937F090E94E9
:1059C000E21A0E94BC030E94B21A80917F09909152
:1059D0008009019701F56EE37DE0CE0101960E94FA
:1059E000F00467EE78E0CE0101960E94AE3FBC0164
:1059F0008EE39DE00E942640CE0101960E943B402E
:105A000080917F09909180090196909380098093FD
:105A10007F090E946D0680917F0990918009892BF2
:105A200089F467EE78E08EE39DE00E94F23F80917A
:105A30007F099091800901969093800980937F0956
:105A40000E94BC036EE37DE0CE0101960E94F0044B
:105A5000CE0101960E947D16CE0101960E943B4028
:105A60008091860981110E94E21A0E946708269699
:105A70000FB6F894DEBF0FBECDBFDF91CF91089572
:105A800087EA93E182CFBF92CF92DF92EF92FF92AB
:105A90000F931F93CF93DF93CDB7DEB7EC970FB67D
:105AA000F894DEBF0FBECDBF809186098823B1F088
:105AB0000E947F038BE094E10E94441BEC960FB69A
:105AC000F894DEBF0FBECDBFDF91CF911F910F9134
:105AD000FF90EF90DF90CF90BF90089580917F0965
