:100000000C9420030C94270A0C94FC090C94D1093D
:100010000C94A6090C947B090C9450090C942509A6
:100020000C94FA080C9451030C9451030C94510352
:100030000C9451030C9451030C9451030C945103F0
:100040000C9451030C94600A0C9451030C945103CA
:100050000C9451030C9451030C9451030C94B0086C
:100060000C9451030C94C4070C949A070C945103FC
:100070000C9451030C9451030C9451030C945103B0
:100080000C9451030C9451030C9451030C945103A0
:100090000C9464070C943A070C9451030C9451038C
:1000A0000C9451030C9451030C9451030C94510380
:1000B0000C9451030C9451030C9451030C94510370
:1000C0000C9451030C9451030C9451030C94510360
:1000D0000C9451030C9451030C9451030C94510350
:1000E0000C9451030C94E6050C94D42B0C948F03C0
:1000F0000C94DC290C944B250C9473250C945826F5
:100100000C94402C0C948F300C944E380C943C2D55
:100110000C9428290C9469380C94EC040C94E20596
:100120000C9460040C948E230C9474050C943F384A
:100130000C9450280C945D380C94D02C0C946C3892
:100140000C94E2380C944C1D0C9463460C94591793
:100150000C94A2230C94C31B0C9440040C942822EE
:100160000C9443050C9448380C94F3030C942C2203
:100170000C94A23C0C9494290C94E8050C94A621B0
:100180000C948A380C947E380C94D8040C94302744
:100190000C946F380C9430380C94DE1F0C94DC05F2
:1001A0000C94D2120C948D2F0C948D310C94882CBD
:1001B0000C945A380C94B7380C94B81B0C94DE0489
:1001C0000C948F2E0C9453460C9493380C94102658
:1001D0000C948A200C9450230C94B1030C94E604E4
:1001E0000C9472380C9445380C94E4270C94AB04AE
:1001F0000C94442B0C94A2380C94182D0C94DE050E
:100200000C9419370C940C270C94B9040C940828FE
:100210000C94682B0C94F0040C94B4380C94603853
:100220000C94602D0C94A8380C946A170C949E1AA8
:100230000C94642C0C9420220C94842D0C949938EA
:100240000C9464050C9408320C940A310C945738C1
:100250000C9489310C949C270C94A41C0C94831D41
:100260000C94C6180C94A90A0C94122F0C94E00557
:100270000C9484230C9436380C947B380C94C93835
:100280000C9475380C9439380C9408200C94F71899
:100290000C94B42A0C942B190C946D240C942422E5
:1002A0000C94FF3B0C9493230C940E310C94A924D2
:1002B0000C9416230C9442380C94DF380C941C2CAC
:1002C0000C94C3380C9466380C9478380C943A1318
:1002D0000C94101B0C94A5380C94CA040C94A02602
:1002E0000C94142E0C9479220C9410300C9432201F
:1002F0000C94B01F0C94B02B0C9484380C94BD3823
:100300000C9450150C9454270C94DC120C94063366
:100310000C944B380C94A3030C9453030C949F3807
:100320000C947A1C0C94D8050C94CC2D0C94A51329
:100330000C94202B0C94361B0C940C300C94B1387C
:100340000C94D4040C9421380C94F42C0C947A233F
:100350000C940E2F0C94BC280C94242A0C94002A84
:100360000C94E5380C9470290C9433380C94982133
:100370000C94C0270C940C320C94DC1B0C94892335
:100380000C9401070C9473180C94C0380C94F82B3F
:100390000C94AB380C948D380C940A1D0C94A82D39
:1003A0000C949C210C94912F0C94B4200C9430222A
:1003B0000C94C6040C94F02D0C94932E0C944F25A1
:1003C0000C94902A0C94AE380C944C290C9451380F
:1003D0000C9478270C948C2B0C94FC2A0C94D1351B
:1003E0000C9481380C94B8290C9434260C94371F43
:1003F0000C946C1F0C94C6380C9404290C94BA38D5
:100400000C94D82A0C94E9050C94E8380C947428C0
:100410000C94EB040C948B320C94B1040C94C00437
:100420000C949C380C94E2040C947F230C94903828
:100430000C9434060C94EB380C9463380C94AD2473
:100440000C9498230C94D0040C94E8260C94EC257E
:100450000C94C4260C945C200C947D150C94E4053B
:100460000C9487320C94B5040C94BD250C94B41FE5
:100470000C9444050C94482A0C9498280C948B30C6
:100480000C946C2A0C940A330C9488180C947C26D7
:100490000C94F0380C948C390C94E0280C94800364
:1004A0000C94AC2C0C943C380C94BD040C949638F1
:1004B0000C9499250C94A7230C9442050C942C2899
:1004C0000C9454380C949D230C9487380C94752507
:1004D0004E414E494E495459494E46CDCCCC3D0A29
:1004E000D7233C17B7D13877CC2B329595E6241F0C
:1004F000B14F0A000020410000C84200401C4620C5
:10050000BCBE4CCA1B0E5AAEC59D747C3C3E5E2BD5
:100510003D3F2F5B5D3B2C2A225C00000022002522
:100520000028002B002E00310034000201000005DD
:100530000108010B01000020002300260029002CE7
:10054000002F003200000100000301060109010034
:10055000000A0B02090C0D0E08070304010000003D
:10056000000000000000000000000000000000008B
:100570000000000000000000000000121110000048
:10058000000000000000000000000000000000006B
:10059000000000000000002100240027002A002D98
:1005A000003000330001010000040107010A0101CD
:1005B0000210202008081020401020408002010274
:1005C000010804020101020408102040808040203C
:1005D0001008040201800402018040201008040277
:1005E00001080402010102040810204080010204F5
:1005F00008102040800505050507050808080802C1
:100600000202020A0A0808040404040101010101AB
:100610000101010303030303030303040707070C9A
:100620000C0C0C0C0C0C0C02020202060606060650
:100630000606060B0B0B0B0B0B0B0B00634653460E
:1006400011241FBECFEFD1E2DEBFCDBF00E00CBF53
:1006500025E1AEE1BAE001C01D92A33CB207E1F78B
:100660001AE0A0E0B2E0E2E0F2EC00E00BBF02C072
:1006700007900D92AE31B107D9F713E0CFE1D3E087
:1006800000E006C021970109802FFE010E94995EBB
:10069000CE31D10780E00807A9F70E94C9510C9418
:1006A000EF600C940000AF92BF92CF92DF92EF9276
:1006B000FF920F931F93CF93DF936C017B018B010C
:1006C000040F151FEB015E01AE18BF08C017D1075C
:1006D00059F06991D601ED91FC910190F081E02DE6
:1006E000C6011995892B79F7C501DF91CF911F912B
:1006F0000F91FF90EF90DF90CF90BF90AF90089553
:10070000FC01538D448D252F30E0842F90E0821B17
:10071000930B541710F0CF96089501970895FC019C
:10072000918D828D981761F0A28DAE0FBF2FB11DF4
:100730005D968C91928D9F5F9F73928F90E008954C
:100740008FEF9FEF0895FC01918D828D981731F006
:10075000828DE80FF11D858D90E008958FEF9FEF5A
:100760000895FC01918D228D892F90E0805C9F4F30
:10077000821B91098F73992708958AE59CE00E9456
:10078000B10321E0892B09F420E0822F089587EF3F
:100790009CE00E94B10321E0892B09F420E0822F24
:1007A0000895FC01A48DA80FB92FB11DA35ABF4F06
:1007B0002C91848D90E001968F739927848FA68960
:1007C000B7892C93A089B1898C91837080648C93B4
:1007D000938D848D981306C00288F389E02D808163
:1007E0008F7D80830895EF92FF920F931F93CF9395
:1007F000DF93EC0181E0888F9B8D8C8D98131AC05C
:10080000E889F989808185FF15C09FB7F894EE8942
:10081000FF896083E889F98980818370806480839F
:100820009FBF81E090E0DF91CF911F910F91FF90EA
:10083000EF900895F62E0B8D10E00F5F1F4F0F7392
:100840001127E02E8C8D8E110CC00FB607FCFACF4D
:10085000E889F989808185FFF5CFCE010E94D10317
:10086000F1CFEB8DEC0FFD2FF11DE35AFF4FF0821E
:100870009FB7F8940B8FEA89FB8980818062CFCF84
:10088000CF93DF93EC01888D8823B9F0AA89BB89C7
:10089000E889F9898C9185FD03C0808186FD0DC0B2
:1008A0000FB607FCF7CF8C9185FFF2CF808185FFD3
:1008B000EDCFCE010E94D103E9CFDF91CF91089512
:1008C00080E090E0892B29F00E94C70381110E94EB
:1008D000000080E090E0892B29F00E94BD03811187
:1008E0000E94000080E090E0892B49F080E090E0D9
:1008F000892B29F00E94000081110E94000080E0F5
:1009000090E0892B49F080E090E0892B29F00E944B
:10091000000081110C94000008958150823108F08C
:100920005AC0E82FF0E08827E756FB4F8F4F0C9412
:10093000995EB904BD04AB04B104B504EB04C00472
:10094000C604CA04D004D404D804DE04E204EB04D0
:10095000E604EC04F004809180008F77809380009F
:100960000895809180008F7DF9CF80918000877FEE
:10097000F5CF84B58F7784BD089584B58F7DFBCF87
:100980008091B0008F778093B00008958091B0007F
:100990008F7DF9CF809190008F778093900008959C
:1009A000809190008F7DF9CF80919000877FF5CF67
:1009B0008091A0008F778093A00008958091A0007F
:1009C0008F7DF9CF8091A000877FF5CF80912001A6
:1009D0008F77809320010895809120018F7DF9CF3A
:1009E00080912001877FF5CFCF93DF93282F30E0D0
:1009F000F901E15BFA4F8491F901E155FA4FD49185
:100A0000F901EB50FA4FC491CC23A1F081110E945F
:100A10008D04EC2FF0E0EE0FFF1FEB5CFA4FA59179
:100A2000B491EC91ED2381E090E009F480E0DF9156
:100A3000CF91089580E090E0FACF3FB7F89480918D
:100A40004A0A90914B0AA0914C0AB0914D0A26B5E2
:100A5000A89B05C02F3F19F00196A11DB11D3FBFF6
:100A6000BA2FA92F982F8827BC01CD01620F711DC5
:100A7000811D911D42E0660F771F881F991F4A95BF
:100A8000D1F7089508950895DC015996ED91FC91F0
:100A90003097B9F083899489A589B68942855385B1
:100AA00064857585841B950BA60BB70B811520E813
:100AB0009207A105B10538F08FEF9FE7A0E0B0E005
:100AC000089590E080E00895DC0159968D919C9105
:100AD000009739F0DC01ED91FC910480F581E02D67
:100AE000199490E080E00895CF93DF931F92CDB7E3
:100AF000DEB76983DC01ED91FC910280F381E02D8A
:100B000041E050E0BE016F5F7F4F19950F90DF917C
:100B1000CF9108950F931F93CF93DF93C7E0D0E059
:100B20000FE010E020E030E04091640368E572E0FF
:100B300080E090E00E9489420FE010E020E030E089
:100B4000409164036CED75E080E090E00E94894282
:100B50000FE010E020E030E04091640360E273E0D9
:100B600080E090E00E9489420FE010E020E030E059
:100B70004091640360EB74E080E090E00E94894261
:100B8000219771F6DF91CF911F910F9108950F93E7
:100B90001F9308EC10E020E030E04091640360E235
:100BA00073E080E090E00E9489421F910F910895C8
:100BB00081E08093390A08950C94C7050C94C70509
:100BC0000C94C7050C94C7050C94C7050C94C70575
:100BD00008950895CF93DF93FB0122813381DC01D7
:100BE00013963C932E9312974481558166817781A9
:100BF00014964D935D936D937C9317974085518523
:100C00006285738518964D935D936D937C931B97C6
:100C10001C96EF012C969C01275E3F4F49914D9306
:100C2000A217B307D9F7218D328DFC01328F218FA6
:100C3000DF91CF910895FF920F931F93CF93DF938E
:100C4000EC01F62E08811981C8010E942D5DF8166D
:100C500021F06F2DC8010E94355DCE01DF91CF914B
:100C60001F910F91FF9008950F931F93CF93DF93E0
:100C70001F921F92CDB7DEB710E000E060E0C80120
:100C80000E94355D0F5F1F4F011580E11807B1F716
:100C90008FEF93E09A83898362E5CE0101960E94EB
:100CA0001B060E94C7050F900F90DF91CF911F91F7
:100CB0000F910895EF92FF920F931F93CF93DF93BD
:100CC000CDB7DEB7A3970FB6F894DEBF0FBECDBF8A
:100CD00080916203909163039A8389838091640376
:100CE000909165039C838B838091220290912302D3
:100CF000A0912402B09125028D839E83AF83B88793
:100D000080911E0290911F02A0912002B0912102B9
:100D100089879A87AB87BC878091320A8D876091DB
:100D2000010270910202072E000C880B990B0E94A1
:100D30000D5C6E877F87888B998B80912E0A9091AE
:100D40002F0AA091300AB091310A8A8B9B8BAC8B11
:100D5000BD8B8091670390916803A0916903B09166
:100D60006A038E8B9F8BA88FB98F8091340A9091E4
:100D7000350A9B8F8A8F80916003909161039D8FCC
:100D80008C8F80912C0A90912D0A9F8F8E8F80914D
:100D9000660388A38091330A89A3CE0101967C0162
:100DA00001E010E01BA30AA3F70161917F01CE01CE
:100DB00082960E941B060F5F1F4F0232110591F7AA
:100DC00087E1E82E82E0F82E08EC10E01BA30AA3CE
:100DD000F70161917F01CE0182960E941B060F5F91
:100DE0001F4F0F3C110591F7A3960FB6F894DEBF85
:100DF0000FBECDBFDF91CF911F910F91FF90EF906C
:100E0000089510922D0A10922C0A0E945A060C94F2
:100E1000C705FC011182108213821282158214828E
:100E20000C943446FC0111821082138212821582C6
:100E30001482FB0101900020E9F73197AF01461BB6
:100E4000570B0C94DD45FB0101900020E9F7319729
:100E5000AF01461B570BDC01ED91FC910280F38141
:100E6000E02D19946115710511F00C94230790E0A1
:100E700080E008951F920F920FB60F9211240BB6C7
:100E80000F922F933F934F935F936F937F938F9323
:100E90009F93AF93BF93EF93FF938AE59CE00E94EB
:100EA000D103FF91EF91BF91AF919F918F917F916E
:100EB0006F915F914F913F912F910F900BBE0F90CB
:100EC0000FBE0F901F9018951F920F920FB60F92A2
:100ED00011240BB60F922F938F939F93EF93FF9351
:100EE000E0916A0CF0916B0C8081E091700CF091B4
:100EF000710C82FD1DC090818091730C8F5F8F7388
:100F00002091740C821741F0E091730CF0E0E65AE6
:100F1000F34F958F8093730CFF91EF919F918F9179
:100F20002F910F900BBE0F900FBE0F901F90189532
:100F30008081F2CF1F920F920FB60F9211240BB641
:100F40000F922F933F934F935F936F937F938F9362
:100F50009F93AF93BF93EF93FF9387EF9CE00E9423
:100F6000D103FF91EF91BF91AF919F918F917F91AD
:100F70006F915F914F913F912F910F900BBE0F900A
:100F80000FBE0F901F9018951F920F920FB60F92E1
:100F900011240BB60F922F938F939F93EF93FF9390
:100FA000E091070DF091080D8081E0910D0DF09119
:100FB0000E0D82FD1DC090818091100D8F5F8F738B
:100FC0002091110D821741F0E091100DF0E0E950F1
:100FD000F34F958F8093100DFF91EF919F918F911B
:100FE0002F910F900BBE0F900FBE0F901F90189572
:100FF0008081F2CF1F93CF93DF93282F30E0F90148
:10100000E15BFA4F8491F901E155FA4FD491F9016E
:10101000EB50FA4FC491CC23A9F0162F81110E94F6
:101020008D04EC2FF0E0EE0FFF1FE55EFA4FA59167
:10103000B4918FB7F894EC91111108C0D095DE23CC
:10104000DC938FBFDF91CF911F910895DE2BF8CFF6
:10105000CF93DF9390E0FC01E155FA4F24918B5040
:101060009A4FFC0184918823D1F090E0880F991F5A
:10107000FC01EB56FA4FA591B491FC01E55EFA4FE5
:10108000C591D491623071F49FB7F8943C91822F4E
:10109000809583238C93E8812E2B28839FBFDF913B
:1010A000CF9108958FB7F894EC912E2B2C938FBF8E
:1010B000F6CF8F929F92AF92BF92CF92DF92EF9234
:1010C000FF926B017C010E941D054B015C01C11464
:1010D000D104E104F104B9F00E941D0568197909F1
:1010E0008A099B09683E73408105910580F321E0E0
:1010F000C21AD108E108F10888EE880E83E0981E34
:10110000A11CB11CE4CFFF90EF90DF90CF90BF9077
:10111000AF909F908F9008950F931F9308EC10E06D
:1011200020E030E04091640360E971E080E090E00D
:101130000E94894262E370E080E090E00E945908DA
:101140001F910F910C94C7052FB7F8946091460A30
:101150007091470A8091480A9091490A2FBF0895DB
:101160001F920F920FB60F9211242F933F938F93DC
:101170009F93AF93BF938091460A9091470AA091A5
:10118000480AB091490A3091450A23E0230F2D37D0
:1011900058F50196A11DB11D2093450A8093460A7A
:1011A0009093470AA093480AB093490A80914A0A4B
:1011B00090914B0AA0914C0AB0914D0A0196A11D45
:1011C000B11D80934A0A90934B0AA0934C0AB093A6
:1011D0004D0ABF91AF919F918F913F912F910F90A9
:1011E0000FBE0F901F90189526E8230F0296A11DA1
:1011F000B11DD2CF1F920F920FB60F9211240BB6D2
:101200000F922F933F934F935F936F937F938F939F
:101210009F93AF93BF93EF93FF93E0911502F091EB
:1012200016021995FF91EF91BF91AF919F918F9108
:101230007F916F915F914F913F912F910F900BBED6
:101240000F900FBE0F901F9018951F920F920FB620
:101250000F9211240BB60F922F933F934F935F93EE
:101260006F937F938F939F93AF93BF93EF93FF936E
:10127000E0911302F09114021995FF91EF91BF9143
:10128000AF919F918F917F916F915F914F913F911E
:101290002F910F900BBE0F900FBE0F901F901895BF
:1012A0001F920F920FB60F9211240BB60F922F932D
:1012B0003F934F935F936F937F938F939F93AF93DE
:1012C000BF93EF93FF93E0910902F0910A02199501
:1012D000FF91EF91BF91AF919F918F917F916F910E
:1012E0005F914F913F912F910F900BBE0F900FBECA
:1012F0000F901F9018951F920F920FB60F92112406
:101300000BB60F922F933F934F935F936F937F93FF
:101310008F939F93AF93BF93EF93FF93E091070257
:10132000F09108021995FF91EF91BF91AF919F91B4
:101330008F917F916F915F914F913F912F910F907E
:101340000BBE0F900FBE0F901F9018951F920F921B
:101350000FB60F9211240BB60F922F933F934F931A
:101360005F936F937F938F939F93AF93BF93EF930D
:10137000FF93E0911102F09112021995FF91EF9104
:10138000BF91AF919F918F917F916F915F914F919D
:101390003F912F910F900BBE0F900FBE0F901F909B
:1013A00018951F920F920FB60F9211240BB60F9241
:1013B0002F933F934F935F936F937F938F939F935D
:1013C000AF93BF93EF93FF93E0910F02F091100260
:1013D0001995FF91EF91BF91AF919F918F917F915F
:1013E0006F915F914F913F912F910F900BBE0F9096
:1013F0000FBE0F901F9018951F920F920FB60F926D
:1014000011240BB60F922F933F934F935F936F93DB
:101410007F938F939F93AF93BF93EF93FF93E0914D
:101420000D02F0910E021995FF91EF91BF91AF91CE
:101430009F918F917F916F915F914F913F912F91EC
:101440000F900BBE0F900FBE0F901F9018951F921C
:101450000F920FB60F9211240BB60F922F933F935A
:101460004F935F936F937F938F939F93AF93BF93AC
:10147000EF93FF93E0910B02F0910C021995FF910D
:10148000EF91BF91AF919F918F917F916F915F91FC
:101490004F913F912F910F900BBE0F900FBE0F9069
:1014A0001F901895EFE6F0E080818D7F808382E0C9
:1014B0008093810081E0809380002D982E9808957C
:1014C0001F920F920FB60F9211240BB60F922F930B
:1014D0003F934F935F936F937F938F939F93AF93BC
:1014E000BF93EF93FF930E94A4080E94520AFF91BA
:1014F000EF91BF91AF919F918F917F916F915F918C
:101500004F913F912F910F900BBE0F900FBE0F90F8
:101510001F9018950E94520A8091580A811116C096
:1015200060E086E00E94FA076091600370916103B9
:10153000072E000C880B990B0E94590860E085E08B
:101540000E94FA0760E08DE00E94FA0710923D0ABF
:1015500008950E948A0A1092370A1092360A0C9453
:10156000C70582E00E94F404892B19F40E945943B4
:10157000F8CF84E00E94F404892BC1F30C948A0A0A
:101580008F929F92AF92BF92CF92DF92EF92FF9293
:10159000CF930E945943F090320A20E030E040E4BB
:1015A00050E4FF2009F464C06091250A7091260A76
:1015B0008091270A9091280A0E945E5D2091520A2C
:1015C0003091530A4091540A5091550A0E946C5C24
:1015D0000E94435E0E9459088091340A9091350A16
:1015E000009709F04EC083E00E94F404C1E0892B0B
:1015F00009F0C0E00E948A0AFF2009F447C0C090A9
:10160000520AD090530AE090540AF090550AA7016C
:101610009601C701B6010E945E5D4B015C0120E0AE
:1016200030E040E85FE36091250A7091260A8091DE
:10163000270A9091280A0E945E5DA70196010E94E8
:101640006C5C9B01AC01C501B4010E945D5D0E9410
:10165000435E0E945908CC2311F1CF91FF90EF9087
:10166000DF90CF90BF90AF909F908F900C94590BCC
:101670006091520A7091530A8091540A9091550AD0
:10168000A5CF019709F0B5CF84E0AECF6091520AA3
:101690007091530A8091540A9091550AD8CFCF91F6
:1016A000FF90EF90DF90CF90BF90AF909F908F9082
:1016B00008954F925F926F927F928F929F92AF9216
:1016C000BF92CF92DF92EF92FF920E945943F09027
:1016D000320AFF2009F45CC020E030E040E85FE31C
:1016E0006091250A7091260A8091270A9091280A14
:1016F0000E945E5D4B015C012091520A3091530AB9
:101700004091540A5091550A0E946C5C0E94435EBD
:101710000E9459080E948A0AFF2009F442C0C09022
:10172000520AD090530AE090540AF090550AA7014B
:101730009601C701B6010E945E5D2B013C01A50127
:101740009401C701B6010E946C5C9B01AC01C3010E
:10175000B2010E945D5D0E94435E0E945908809123
:10176000340A9091350A009729F584E00E94F40428
:10177000892B21F5FF90EF90DF90CF90BF90AF9035
:101780009F908F907F906F905F904F900C94C00AC5
:101790006091520A7091530A8091540A9091550AAF
:1017A000B5CF6091520A7091530A8091540A90917A
:1017B000550AD1CF019711F483E0D8CFFF90EF9075
:1017C000DF90CF90BF90AF909F908F907F906F9061
:1017D0005F904F9008958FB7F89480913F0A8FBF24
:1017E000089561E0FC0184810E94FA0780913E0A1D
:1017F000811110923E0A08958EBD00000DB407FEBF
:10180000FDCF8EB508958FEF0C94FC0B8CBD9DBD64
:101810000895CF93DF93EC0180913E0A811109C0B6
:1018200081E080933E0A8091940D9091950D0E94E5
:10183000060C60E08C81DF91CF910C94FA078F92B7
:101840009F92AF92BF92FF920F931F93CF93DF931C
:10185000EC01F62E49015A018E81882389F08F818F
:1018600098859C012F5F3F4F38872F8382309240AD
:1018700018F40E94030CF3CFCE010E94F10B1E82DC
:10188000CE010E94090C8CE291E00E940E408F2D47
:1018900080640E94FC0B08E110E0D501C401002E19
:1018A00004C0B695A795979587950A94D2F70E949C
:1018B000FC0B08501109083F8FEF180771F785E9F5
:1018C000FF2021F028E087E8F2128FEF0E94FC0B46
:1018D00010E00E94030C8A8787FF04C01F3F11F0AD
:1018E0001F5FF7CFDF91CF911F910F91FF90BF90B6
:1018F000AF909F908F900895AF92BF92CF92DF925A
:10190000EF92FF920F931F93CF93DF93EC01690146
:10191000C801820F931F8130924050F58E81882339
:1019200079F088819981AA81BB8184179507A607E0
:10193000B70731F48F819885C816D90608F042C0E0
:10194000488359836A837B838B85833039F089E0B0
:10195000440F551F661F771F8A95D1F79A01AB0177
:1019600061E1CE010E941F0C882389F083E08D8302
:10197000CE010E94F10B80E0DF91CF911F910F917A
:10198000FF90EF90DF90CF90BF90AF9008950E94AE
:10199000A4085B010E94030C8A878F3F69F40E94B0
:1019A000A4086A197B096D327140A0F38FE08D8322
:1019B000CE010E94F10BDCCF8E3F89F418861F8286
:1019C00081E08E838F8198858C159D0550F40E944F
:1019D000030C8F819885019698878F83F3CF8DE0D4
:1019E000E6CF6701E00EF11E0E94030CF601819321
:1019F0006F01EE15FF05C1F78F819885080F191F3C
:101A000018870F838985882319F001151240A0F0EB
:101A10008E81882389F08F8198859C012F5F3F4FAD
:101A200038872F838230924018F40E94030CF3CF42
:101A3000CE010E94F10B1E8281E09ECFCF92DF92F9
:101A4000EF92FF920F93CF93DF93EC01690182E154
:101A5000411551056105710599F08B85833039F089
:101A600089E0440F551F661F771F8A95D1F79A01A9
:101A7000AB0168E1CE010E941F0C882319F084E0BD
:101A80008D832DC08EEF0E94FC0B76018EEFD81A4D
:101A9000F70181917F010E94FC0BEC14FD04C1F75A
:101AA0008FEF0E94FC0B8FEF0E94FC0B0E94030C37
:101AB0008A878F71853071F4011116C0CE010E94A2
:101AC000F10B81E0DF91CF910F91FF90EF90DF90CC
:101AD000CF90089581E18D83CE010E94F10BCE015C
:101AE0000E94F10B80E0EECF88E592E00E940E406C
:101AF000811102C085E1C4CF20E030E0A9016DE092
:101B0000CE010E941F0C882311F084E1B9CF0E94FE
:101B1000030C8111FACFD2CF0F934091410A50911B
:101B2000420A6091430A7091440A411551056105CA
:101B3000710599F0082F2AE53AE08091560A9091B4
:101B4000570A0E941E0D882349F01092410A1092F4
:101B5000420A1092430A1092440A81E00F910895BC
:101B60000F93CF93C82F8091400A811105C0C1E027
:101B70008C2FCF910F910895409103025091040250
:101B800060910502709106020C2F2AE53AE08091DF
:101B9000560A9091570A0E941E0D811102C0C0E0A2
:101BA000E7CFCC2321F381E00E948C0D8823B9F389
:101BB0001092400ADDCF8F929F92AF92BF92EF9228
:101BC000FF920F931F93CF934B015C01C42F809121
:101BD000030290910402A0910502B09106028815BB
:101BE0009905AA05BB0551F181E00E94B00D811154
:101BF0000BC080E0CF911F910F91FF90EF90BF90AD
:101C0000AF909F908F9008958AE5E82E8AE0F82E95
:101C100000E012E030E020E0B501A4018091560A16
:101C20009091570A0E947C0C882319F3809203023A
:101C300090920402A0920502B09206024091400ADE
:101C40004C2B4093400A81E0D5CF4F925F926F9228
:101C50007F928F929F92AF92BF92CF92DF92EF923C
:101C6000FF920F931F93CF93DF93EC014230510506
:101C70006105710590F480E0DF91CF911F910F9184
:101C8000FF90EF90DF90CF90BF90AF909F908F909C
:101C90007F906F905F904F90089589859A85AB856E
:101CA000BC850196A11DB11D84179507A607B7072E
:101CB00010F3CB88DC88ED88FE888F89803109F0AD
:101CC00042C0BB27A72F962F852F480159012A0113
:101CD0003B01C80ED91EEA1EFB1E809103029091A3
:101CE0000402A0910502B0910602C816D906EA06C0
:101CF000FB0699F58F898031C1F5B301A201552703
:101D000066277727440F551F465A554FFA0191828F
:101D100080828091400A81608093400A8A89823063
:101D200080F08D819E81AF81B8858C0D9D1DAE1D8B
:101D3000BF1D8093410A9093420AA093430AB09337
:101D4000440A81E099CFDB01CA01E7E0B695A79587
:101D500097958795EA95D1F7B8CF40E0C701B601CE
:101D60000E94DB0D8111C6CF86CFB301A2014F7750
:101D7000552766277727440F551F440F551F465A8E
:101D8000554FFA0180829182A282B382C2CF8F9294
:101D90009F92AF92BF92CF92DF92EF92FF920F93FA
:101DA0001F93CF93DF93FC0181859285A385B48532
:101DB0000196A11DB11D84179507A607B70770F4FA
:101DC00080E0DF91CF911F910F91FF90EF90DF9016
:101DD000CF90BF90AF909F908F9008958388948804
:101DE000A588B6888789803189F5BB27A72F962FCC
:101DF000852FE9016A017B018F01BC01CD01680DCE
:101E0000791D8A1D9B1D8090030290900402A09072
:101E10000502B090060286169706A806B90601F5D7
:101E2000F8018789803111F5DD24EE24FF24F601C5
:101E3000EE0FFF1FE65AF54F80819181B0E0A0E0E0
:101E400088839983AA83BB8381E0BBCFDB01CA016E
:101E5000C7E0B695A79597958795CA95D1F7C9CF4D
:101E600040E00E94DB0D8111DBCFAACFE894C7F8D8
:101E7000DD24EE24FF24F601EE0FFF1FEE0FFF1FFF
:101E8000E65AF54F80819181A281B381BF70D8CF8E
:101E90004F925F926F927F92AF92BF92CF92DF92FA
:101EA000EF92FF920F931F93CF93DF9300D01F9277
:101EB000CDB7DEB78C0149835A836B837C8359018C
:101EC000C12CD12C7601412C82E0582E612C712C32
:101ED00049815A816B817C819E012F5F3F4FC801F0
:101EE0000E94C70E882339F1F8018585A30192016C
:101EF00004C0220F331F441F551F8A95D2F7DA0101
:101F0000C901C80ED91EEA1EFB1E49815A816B8188
:101F10007C818789803111F188EF9FEFAFEFBFE0BF
:101F2000481759076A077B0798F2F501C082D182EA
:101F3000E282F38281E00F900F900F900F90DF917B
:101F4000CF911F910F91FF90EF90DF90CF90BF90B6
:101F5000AF907F906F905F904F90089588EF9FEFC4
:101F6000A0E0B0E0DDCFCF92DF92EF92FF921F931F
:101F7000CF93DF93EC0180E2689FF0011124E65AD1
:101F8000F54F9385917161F0842F827449F080E060
:101F9000DF91CF911F91FF90EF90DF90CF90089548
:101FA000142F6A8B8091030290910402A091050284
:101FB000B09106028E879F87A88BB98BC488D5887D
:101FC000F12CE12C7601DD24CC24CF8AD88EE98E49
:101FD000FA8E828D938DB0E0A0E0AC01BD014C295A
:101FE0005D296E297F294F8B588F698F7A8F838562
:101FF0008871B1F4848D958DA68DB78D8B8B9C8B5C
:10200000AD8BBE8B81E08D831F701C831E821F826F
:10201000188619861A861B861C861D8681E0B8CF15
:10202000803109F0B4CF9E012D5E3F4F8B8D9C8D8A
:102030000E94480F882309F4AACF84E0E4CF8F924E
:102040009F92AF92BF92CF92DF92EF92FF920F9347
:102050001F93CF93DF93EC018D8181110EC080E03F
:10206000DF91CF911F910F91FF90EF90DF90CF9074
:10207000BF90AF909F908F9008950B891C892D89F8
:102080003E89041715072607370748F34A015B0105
:10209000823031F48A869B86AC86BD8681E0E0CFB3
:1020A00081149104A104B10449F41E821F82188690
:1020B00019861A861B861C861D86F0CF0A851B850D
:1020C0002C853D85EB8DFC8D858590E00996B901C9
:1020D000A8014150510961097109082E04C0769583
:1020E0006795579547950A94D2F775016401E1E029
:1020F000CE1AD108E108F10804C0F694E794D79409
:10210000C7948A95D2F7C416D506E606F70620F0DE
:10211000012B022B032B11F58F89988DA98DBA8D78
:102120008E839F83A887B9878E010A5F1F4FC114D2
:10213000D104E104F10409F4ADCF4E815F816885DB
:10214000798598018B8D9C8D0E94C70E91E0C91AEC
:10215000D108E108F1088111EACF81CFC41AD50A6C
:10216000E60AF70AE1CF3F924F925F926F927F9219
:102170008F929F92AF92BF92CF92DF92EF92FF9297
:102180000F931F93CF93DF93CDB7DEB72C970FB686
:10219000F894DEBF0FBECDBF5C01DC015B968D9075
:1021A0009C905C9716964D905D906D907C901997E1
:1021B000411451046104710409F468C0BFEF4B1A63
:1021C0005B0A6B0A7B0A312CF40181859285A38519
:1021D000B4859C01AD012F5F3F4F4F4F5F4F298763
:1021E0003A874B875C87730162011D821E821F82C2
:1021F0001886F40181859285A385B4852D813E8161
:102200004F815885281739074A075B0708F056C0E1
:1022100089859A85AB85BC858C159D05AE05BF0566
:1022200050F482E0C82ED12CE12CF12C92E0492E02
:10223000512C612C712C9E012F5F3F4FB701A601DD
:10224000C4010E94C70E8823C9F189819A81AB819C
:10225000BC81892B8A2B8B2B09F1260137019FEF3B
:10226000491A590A690A790A2D813E814F81588598
:102270002F5F3F4F4F4F5F4F2D833E834F835887D4
:102280003FEFC31AD30AE30AF30AB3CFF401408045
:102290005180628073803324339496CFC414D50464
:1022A000E604F70409F70FEF1FEF2FEF3FE0B70148
:1022B000A601C4010E94250E811119C080E02C9650
:1022C0000FB6F894DEBF0FBECDBFDF91CF911F9147
:1022D0000F91FF90EF90DF90CF90BF90AF909F90C5
:1022E0008F907F906F905F904F903F900895D501B1
:1022F00016964D915D916D917C91199741155105FF
:102300006105710539F097018601C4010E94250E0F
:102310008823A1F2D5011696CD92DD92ED92FC9222
:102320001997332051F0D701C6010196A11DB11DA7
:10233000F40180839183A283B383F5018789908D13
:10234000A18DB28D892B8A2B8B2B39F48481C78A7E
:10235000D08EE18EF28E80688483F5018481806264
:10236000848381E0ACCF2F923F924F925F926F9225
:102370007F928F929F92AF92BF92CF92DF92EF9215
:10238000FF920F931F93CF93DF9300D0CDB7DEB7AB
:10239000FC018581811118C08FEF9FEF0F900F9086
:1023A0000F90DF91CF911F910F91FF90EF90DF90F1
:1023B000CF90BF90AF909F908F907F906F905F90E5
:1023C0004F903F902F900895848180FFE5CF4389FF
:1023D00054896589768982859385A485B585312C54
:1023E000212C481759076A077B0719F022242394E8
:1023F000312C6F012101CE0101963C01DF011696BF
:10240000BB83AA834114510409F4C5C0F601428577
:102410005385648575854A01F1E09F22D6015B965C
:102420008D919C915C978A019B01E9E036952795F7
:1024300017950795EA95D1F71596EC91E230E9F5F5
:10244000FC01628D738D848D958D600F711F821FCD
:10245000931FA12C22E0B22EA818B9084A145B04DD
:1024600008F45201F601248126FD04C0A114F2E013
:10247000BF0671F40091030210910402209105023D
:1024800030910602061717072807390709F05EC0C2
:1024900040E00E94DB0D882309F47ECFC401865AF8
:1024A000954FD3019C012A0D3B1DFC012E173F07C0
:1024B00009F46CC041914D93F9CFDC011496BC90A6
:1024C000BA94B0228114910479F4B1100DC0452B57
:1024D000462B472B69F5F6018789908DA18DB28D2A
:1024E00086839783A087B187D6015B96ED91FC9197
:1024F0005C9716966D917D918D919C911997625084
:10250000710981099109258504C0660F771F881F0D
:10251000991F2A95D2F70685178520893189600F82
:10252000711F821F931F6B0D711D811D911D91CF16
:10253000D60116964D915D916D917C9119972A81E6
:102540003B810E94C70E8111CFCF26CF7301850139
:102550009401AB01BC018091560A9091570A0E94E8
:102560007C0C882309F418CF6A0C7B1CF601828549
:102570009385A485B5858A0D9B1DA11DB11D8287FC
:102580009387A487B5874A185B083CCF281B390B73
:10259000620E731EEBCF2A94232809F0FDCE8981A9
:1025A00090E0FCCEFC01818D928D009711F00C948F
:1025B000B3118FEF9FEF08950F931F93CF93DF9386
:1025C000EC01898D9A8D10E000E0009799F00E944F
:1025D000B3118C010F3F100769F0898D9A8DFC01B2
:1025E000428553856485758541505109610971099A
:1025F0000E941F10C801DF91CF911F910F91089584
:102600001F93CF93DF93FC012581222371F1162FB5
:10261000EC01848187FF1EC0CF010E942940FC018C
:10262000892B19F18D81823040F48B899C89AD8989
:10263000BE89848F958FA68FB78F8F89988D938F42
:10264000828F8F89988DA98DBA8DB58BA48B8C8143
:102650008F778C83111103C08C818F7E8C83812FA7
:10266000DF91CF911F910C94B00D80E0DF91CF915D
:102670001F910895FF920F931F93CF93DF93EC0167
:102680008D81813041F090E080E0DF91CF911F910A
:102690000F91FF9008958C8181FFF5CF82FD1BC0C3
:1026A0000091560A1091570AC8010E94090C0E9415
:1026B000030CF82EC8010E94F10B8FEFF812E3CF44
:1026C0008C8185FF1BC060E0CE010E9400138C81CD
:1026D0008F7D8C83D8CF4B895C896D897E898A8573
:1026E0009B85AC85BD8584179507A607B707C1F202
:1026F000CE010E941F108111D3CFC5CF4091410A56
:102700005091420A6091430A7091440A452B462B2E
:10271000472B21F080E00E948C0DB5CF80618C8327
:102720002A853B85317080E092E0821B930BADCF10
:10273000CF93DF93EC0161E00E940013882311F036
:102740001D8281E0DF91CF910895FC01818D928DF2
:10275000009719F061E00C94001308953F924F9296
:102760005F926F927F928F929F92AF92BF92CF9221
:10277000DF92EF92FF920F931F93CF93DF9300D0DE
:1027800000D000D01F921F92CDB7DEB77C01DC01D4
:1027900015968C91811115C0FE013196CE010C96D3
:1027A0006F0130E23193E817F907E1F7DA0130E021
:1027B00087E09D91B92E992329F19E3239F48A3010
:1027C00011F480E0DAC038E08AE0F3CFEBE0F5E026
:1027D0004491442321F031969413FACFF2CF83171A
:1027E00080F34FED490F4E3560F74FE9490F4A31FD
:1027F00018F440EEB42EB90EF601E30FF11DB082CD
:102800003F5FD7CF89818032E1F2322E8B01FB010D
:10281000838D948DD7015C969C938E935B971682E3
:102820001782108611861286138614861586F80183
:1028300082859385A485B585438954896589768980
:1028400084179507A607B70708F04DC025E0B69591
:10285000A795979587952A95D1F7F82FFF70AF2EFA
:10286000D80115968C91823008F4ABCFC8010E9434
:10287000B31197FDA6CFF80182859385A485B58510
:102880004F96A11DB11D82879387A487B587F0E27B
:10289000AF9EB0011124665A754F6115710509F498
:1028A00090CFDB018C91882341F0853E09F058C020
:1028B000BB2029F0BB24B394BACFB1100EC0F701EE
:1028C000A28A8091030290910402A0910502B09126
:1028D000060286879787A08BB18BDB018C918111D3
:1028E000E9CFBB24B394832D8271823109F069CF83
:1028F000BB2009F45AC0C7010E942940009709F47F
:1029000060CF20E2FC0111922A95E9F72BE0F60155
:10291000DC0101900D922A95E1F721E238E2DC0119
:1029200051963C932E93509740E058E01F965C934D
:102930004E931E9753963C932E93529759963C93E1
:102940002E93589757965C934E93569781E00E942A
:10295000B00D882309F435CF432DF70162890AC0F1
:102960004BE050E0C6010E94AF60892B09F05FCFB9
:10297000432D6A2DC7010E94B30F2B960FB6F89412
:10298000DEBF0FBECDBFDF91CF911F910F91FF90A2
:10299000EF90DF90CF90BF90AF909F908F907F90FF
:1029A0006F905F904F903F900895F801858182303D
:1029B00009F407CFC8010E94B310882309F401CF9E
:1029C000D8015B96ED91FC915C9716968D909D9049
:1029D000AD90BC901997B2E08B1A9108A108B1088C
:1029E000858504C0880C991CAA1CBB1C8A95D2F74B
:1029F00086859785A089B189880E991EAA1EBB1E5F
:102A0000848124013501480E511C611C711C841401
:102A10009504A604B70409F1E1E04E1A51086108D3
:102A2000710881E00E94B00D882309F4CACEEAE55E
:102A3000FAE011928AE59CE08E179F07D1F7409249
:102A40000302509204026092050270920602809185
:102A5000400A81608093400ADACFD8015B96ED91FD
:102A6000FC91258580E092E0A0E0B0E004C0880FF2
:102A7000991FAA1FBB1F2A95D2F7F80143895489D1
:102A800065897689840F951FA61FB71F838B948B4A
:102A9000A58BB68BD70152961C928AE59AE031CF6E
:102AA0001F93CF93DF93CDB7DEB76D970FB6F89432
:102AB000DEBF0FBECDBFAB011C821B8226E933E017
:102AC0003A8329831E8221E0BC01CE0101960E9437
:102AD000AE1311E081110CC010E0812F6D960FB67E
:102AE000F894DEBF0FBECDBFDF91CF911F91089547
:102AF000CE0101960E949813F0CFCF93DF93CDB70C
:102B0000DEB76D970FB6F894DEBF0FBECDBF44237E
:102B100099F1AB01BC011C821B8286E993E09A8388
:102B200089831E8222E0CE0101960E94AE1381119C
:102B30000EC090E081E0911101C080E06D960FB66B
:102B4000F894DEBF0FBECDBFDF91CF910895CE01C7
:102B500001960E944240882361F3CE0101960E94B3
:102B60002940009731F325EEFC0120831E8281E08D
:102B70000E94B00D982FDECF81E0E0CF2F923F92E0
:102B80004F925F926F927F928F929F92AF92BF927D
:102B9000CF92DF92EF92FF920F931F93CF93DF9329
:102BA00000D01F921F92CDB7DEB77C015B01342E9F
:102BB0005D83DC0115968C911597813009F0CEC0AC
:102BC00014962C9021FECAC022FCB4C0C32CDD8018
:102BD00022947FE027222094B22DB1702B2ED701B2
:102BE0001A964D915D916D917C911D97C114D10400
:102BF00009F428C15B968D919C915C97FC017480CF
:102C00007A948A019B0169E0369527951795079577
:102C10006A95D1F770228A011170711020C00115D8
:102C20001105E9F416964D915D916D917C9119977E
:102C3000411551056105710509F099C057968D91AF
:102C40009D910D90BC91A02D0097A105B10509F0B3
:102C5000B0C0C7010E94B310882309F47FC080E090
:102C600092E0801B910B46018C159D0508F44C01E8
:102C7000D7015B964D915C915C9716968D919D91D5
:102C80000D90BC91A02D0297A109B109FA012585EB
:102C900004C0880F991FAA1FBB1F2A95D2F746852B
:102CA000578560897189840F951FA61FB71F9C01E6
:102CB000AD01270D311D411D511D29013A0181141E
:102CC00032E0930609F07BC08091030290910402E8
:102CD000A0910502B091060284159505A605B705D9
:102CE00059F48FEF9FEFDC0180930302909304026D
:102CF000A0930502B0930602022D9501B301A20133
:102D00008091560A9091570A0E941E0D882331F136
:102D10009EEFB91AC818D908F70182859385A48552
:102D2000B585880D991DA11DB11D82879387A48744
:102D3000B58755CFF701438954896589768982859E
:102D40009385A485B585481759076A077B0709F459
:102D50003DCFC7010E941F10811138CF81E090E064
:102D6000D70113969C938E93129780E007C09E0123
:102D70002F5F3F4F0E94C70E811102C090E079C0C3
:102D800089819A81AB81BC81F701238D348DF90152
:102D9000278948EF5FEF60E070E0203121F048EFD5
:102DA0005FEF6FEF7FE084179507A607B70708F07E
:102DB00050CFF70186839783A087B18750CF011545
:102DC000110599F5D7011A964D915D916D917C9100
:102DD0001D9753968D919D910D90BC91A02D4817F4
:102DE00059076A077B0708F181E00E94B00D88232C
:102DF00009F4B4CF4092030250920402609205029B
:102E0000709206028091400A81608093400AC80156
:102E1000865A954FD5019C01280D391DFC012E17AE
:102E20003F0759F04D914193FACF41E0C301B20100
:102E30000E94DB0D8111EBCF91CF281B390BA20E25
:102E4000B31E68CFF70183899489A589B689841751
:102E50009507A607B70738F48481438B548B658B9D
:102E6000768B80688483F701848183FD1AC0832D6B
:102E70009D810F900F900F900F900F90DF91CF9149
:102E80001F910F91FF90EF90DF90CF90BF90AF9088
:102E90009F908F907F906F905F904F903F902F907A
:102EA000089561E0C7010E940013882309F456CFFA
:102EB000DECFCF93DF931F92CDB7DEB7698341E0BA
:102EC00050E0BE016F5F7F4F0E94BE150F90DF91F3
:102ED000CF910895CF93DF93EC01E98DFA8D309770
:102EE00049F481E090E09B838A8390E080E0DF9169
:102EF000CF91089513821282898D9A8D0E94BE15FA
:102F0000E98DFA8D22813381232B59F7F0CFFC0113
:102F1000DB0112968D919C9113979383828386E9AE
:102F200093E09183808314968C91149784831596F3
:102F30008C911597858316964D915D916D917C913D
:102F4000199746835783608771871A964D915D91D3
:102F50006D917C911D9742875387648775871E9674
:102F60004D915D916D917C91519746875787608B0C
:102F7000718B52968C915297828B53964D915D91A5
:102F80006D917C915697438B548B658B768B5796BE
:102F90004D915D916D917C915A97478B508F618FC8
:102FA000728F5B968D919C91948F838F0895EF9291
:102FB000FF920F931F93CF93DF93EC017B018A0164
:102FC0001B821A8288EE93E0A0E0B0E08C839D83A0
:102FD000AE83BF8382EA93E0998388838DE190E09A
:102FE0000E94A15E9A8F898F009779F02DE1F701F9
:102FF000DC0101900D922A95E1F74CE050E0B80118
:10300000CE010C960E94E060188EDF91CF911F9147
:103010000F91FF90EF900895CF93DF93EC0160EB59
:1030200073E087EF9CE00E943207BE010D2E000C7A
:10303000880B990B4AE00E94134360E274E087EF2B
:103040009CE00E943207688170E090E080E04AE0F6
:103050000E94134362EB73E087EF9CE00E9432070B
:10306000698170E090E080E04AE00E94134362EBE7
:1030700073E087EF9CE00E9432076A817B816115D3
:10308000710551F087EF9CE00E9432078CE19AE0D5
:10309000DF91CF910C94513F64EB73E0F3CFCF936A
:1030A000DF93EC018AE59CE00E94B103892B29F0B3
:1030B0008AE59CE00E948F03F5CFBE018AE59CE083
:1030C0000E9432076FEF8AE59CE00E94F3036FEFE6
:1030D0008AE59CE00E94F3036FEF8AE59CE0DF91B4
:1030E000CF910C94F30383B78E7F83BFEC98E7E016
:1030F000F2E082E495E091838083ED98938382836C
:103100008BEB93E00E944F188AE59CE00C944004FE
:1031100083B78E7F83BFEC98E7E0F2E082E495E02E
:1031200091838083ED989383828383EC93E00E9464
:103130004F188BEB93E00E944F188AE59CE00C94AB
:1031400040048F929F92AF92BF92CF92DF92EF9204
:10315000FF924B015C010E94A4086B017C010E945C
:10316000A4086C197D098E099F09681579058A05DF
:103170009B0518F40E949143F2CFFF90EF90DF90EF
:10318000CF90BF90AF909F908F9008958AEC93E07E
:103190000E944F188091330A811128C064E670E0C4
:1031A00080E090E00E94A1188AE59CE00E94400423
:1031B00083B7816083BF23E738E13093080220930F
:1031C000070280916A008C7F80936A00EC9A3093AA
:1031D0000A022093090280916A00837F80936A002B
:1031E000ED9A83B7817F846083BF8895089564E6F4
:1031F00070E080E090E00E94A11882ED93E00E94D0
:103200004F1889ED93E00E944F188AEC93E00E94DA
:103210004F188AE59CE00E94400483B7816083BF19
:10322000A7E0B2E028E838E111963C932E93EAE655
:10323000F0E080818C7F8083EC9A13963C932E93F0
:1032400012978081837F8083ED9A83B7817F84602A
:1032500083BF8895089582E093E10C94F718EF926C
:10326000FF920F931F93CF93DF93CDB7DEB7A19754
:103270000FB6F894DEBF0FBECDBF8FEF93E00E9474
:103280002D5D843559F00E945A068FEF93E09A83A2
:10329000898364E5CE0101960E941B068E010F5FB3
:1032A0001F4FEE24E394F12CC7010E942D5DF8011D
:1032B00081938F01FFEFEF1AFF0A82E2E816F10413
:1032C00099F789819A8190936303809362038B813C
:1032D0009C8190936503809364038D819E81AF816F
:1032E000B8858093220290932302A0932402B09386
:1032F000250289859A85AB85BC8580931E029093B3
:103300001F02A0932002B09321028D858093320A80
:103310006E857F85888999890E943C5E7093020240
:10332000609301028A899B89AC89BD8980932E0AAA
:1033300090932F0AA093300AB093310A8E899F8907
:10334000A88DB98D8093670390936803A093690358
:10335000B0936A038A8D9B8D9093350A8093340ACB
:103360008C8D9D8D90936103809360038E8D9F8DD6
:1033700090932D0A80932C0A88A18093660389A1DB
:103380008093330A87E1E82E82E0F82E08EC10E003
:10339000C8010E942D5DF70181937F010F5F1F4FD0
:1033A0000F3C1105A9F7A1960FB6F894DEBF0FBE2A
:1033B000CDBFDF91CF911F910F91FF90EF900895B6
:1033C000EF92FF920F931F93CF93DF9300D000D023
:1033D000CDB7DEB77C018B0164E274E0CE010196CB
:1033E0000E941207F70162817381CE0101960E944B
:1033F000564560EE73E0CE0101960E945645B80135
:10340000CE0101960E94564565EE73E0CE0101960D
:103410000E94564589819A810E944F180E94B13FAF
:10342000182FCE0101960E944B46812F26960FB68B
:10343000F894DEBF0FBECDBFDF91CF911F910F91EA
:10344000FF90EF900895CF93DF93CDB7DEB7C456CA
:10345000D1090FB6F894DEBF0FBECDBF44E650E0F1
:10346000BE016F5F7F4F0E94EB3FBE016F5F7F4FDA
:1034700082E093E10E94E019BE016F5F7F4F8EED05
:1034800092E10E94E019CC59DF4F0FB6F894DEBFED
:103490000FBECDBFDF91CF910895CF93DF93CDB70E
:1034A000DEB76E970FB6F894DEBF0FBECDBF20918A
:1034B0000002211104C020912B0A2223A9F04EE121
:1034C00050E0BE016F5F7F4F0E94EB3FBE016F5F18
:1034D0007F4F82ED92E10E94E019BE016F5F7F4F46
:1034E00086EC92E10E94E0196E960FB6F894DEBF6A
:1034F0000FBECDBFDF91CF910895CF93DF93CDB7AE
:10350000DEB76E970FB6F894DEBF0FBECDBF4EE1AB
:1035100050E0BE016F5F7F4F0E94EB3FBE016F5FC7
:103520007F4F8EE891E10E94E0196E960FB6F894F5
:10353000DEBF0FBECDBFDF91CF9108950E948A0AF2
:1035400080916603811113C081E0809366038091AE
:10355000660367EE73E0882311F069EE73E082EF93
:1035600093E10E94E0190E945A060C94C70510923C
:103570006603EDCF8F929F92AF92BF92EF92FF9230
:103580000F931F93CF93DF93CDB7DEB760970FB63E
:10359000F894DEBF0FBECDBF7C014A018E010F5FE4
:1035A0001F4F8AE0F80111928A95E9F764E274E00E
:1035B000CE010B960E9412074AE0B801C4010E9496
:1035C0005D5AF70162817381CE010B960E945645C8
:1035D0006EEE73E0CE010B960E945645B801CE0107
:1035E0000B960E9456458B859C850E944F180E9421
:1035F000B13F182FCE010B960E944B46812F60964B
:103600000FB6F894DEBF0FBECDBFDF91CF911F91F3
:103610000F91FF90EF90BF90AF909F908F90089583
:1036200020E030E040E85FE36091220270912302E5
:1036300080912402909125020E945D5D0E94435E6C
:10364000AB01BC018AE794E10E94BA1A60912202A0
:103650007091230280912402909125020E94435E82
:10366000AB01BC018AE794E10C94BA1A4091620361
:1036700050916303052E000C660B770B8EE492E1EC
:103680000E94BA1A4091640350916503052E000C04
:10369000660B770B82EA92E10E94BA1A40916403AA
:1036A00050916503052E000C660B770B82E492E1C6
:1036B0000E94BA1A60916703709168038091690350
:1036C00090916A030E94435EAB01BC0186E992E1DE
:1036D0000E94BA1A60916703709168038091690330
:1036E00090916A030E94435EAB01BC0186E392E1C4
:1036F0000E94BA1A4091600350916103052E000C9C
:10370000660B770B8AE892E10E94BA1A4091600337
:1037100050916103052E000C660B770B8EE192E150
:103720000E94BA1A4091340A5091350A052E000CB5
:10373000660B770B8AEB92E10E94BA1A8091340AE9
:103740009091350A8130910549F08230910569F0F8
:1037500064EF73E0892B21F00C94C7056BEF73E0E5
:103760008AE592E10E94E019F7CF64E074E0F8CFB7
:103770004091330A50E070E060E082E295E10E94FF
:10378000BA1A0C94C7058091330A81110FC081E0E9
:103790008093330A41E050E060E070E082E295E11E
:1037A0000E94BA1A0E945A060C94C7051092330A56
:1037B00040E050E0BA01F2CF82E295E10C94C31BE5
:1037C000EF92FF920F931F93CF93DF93CDB7DEB7A6
:1037D0002E970FB6F894DEBF0FBECDBF7C018B01D4
:1037E00068E074E0CE0109960E941207F701628139
:1037F0007381CE0109960E9456456DE074E0CE01BA
:1038000009960E94564589859A850E944F18CE01D7
:10381000019628E0FC0111922A95E9F744E650E070
:1038200060E070E040935E0C50935F0C6093600C1E
:103830007093610C68E070E00E94643F089709F0A3
:1038400053C08981813709F04FC08E818F3F09F0C5
:103850004BC08F818F3F09F047C088858F3F09F0AB
:1038600043C02D818C8190E0B0E0A0E0DC0199277D
:103870008827B22B2A81822B4B8150E0542F44277A
:10388000052E000C660B770B842B952BA62BB72BE4
:10389000F80180839183A283B38362E174E087EFB0
:1038A0009CE00E943207F8016081718182819381DE
:1038B0004AE00E94134362E274E087EF9CE00E94BA
:1038C000230711E0CE0109960E944B46812F2E96C8
:1038D0000FB6F894DEBF0FBECDBFDF91CF911F9121
:1038E0000F91FF90EF90089585E294E00E94513F80
:1038F00010E0E8CFCF93DF9300D01F92CDB7DEB7B3
:1039000019821A821B821C82BE016F5F7F4F8AE878
:1039100092E10E94E01B49815A816B817C818EE19A
:1039200092E10E94BA1A89819A81909361038093EF
:1039300060030E945A060E94C7050F900F900F90D7
:103940000F90DF91CF910895CF92DF92EF92FF9287
:10395000CF93DF9300D01F92CDB7DEB719821A82C2
:103960001B821C82BE016F5F7F4F86E992E10E943D
:10397000E01B49815A816B817C8186E392E10E9440
:10398000BA1A69817A818B819C810E940B5C609359
:103990006703709368038093690390936A030E949E
:1039A0005A0620E030E048EC52E4609167037091E1
:1039B00068038091690390916A030E94CA5D6B015C
:1039C0007C012091220230912302409124025091E7
:1039D000250260E070E086E994E40E94CA5D9B01E4
:1039E000AC01C701B6010E946C5C6093520A7093EF
:1039F000530A8093540A9093550A0E94C7050F906A
:103A00000F900F900F90DF91CF91FF90EF90DF908C
:103A1000CF9008950F931F93CF93DF9300D01F9201
:103A2000CDB7DEB719821A821B821C82BE016F5F7E
:103A30007F4F82EA92E10E94E01B49815A816B81AB
:103A40007C8182E492E10E94BA1A9981492F8A818D
:103A500090936403809365036091620370916303A4
:103A6000072E000C880B990B00E010E098010E94D3
:103A7000894264EF71E080E090E00E9459080E9462
:103A8000520A0E945A060F900F900F900F90DF91EC
:103A9000CF911F910F9108950F931F93CF93DF93B1
:103AA00000D01F92CDB7DEB719821A821B821C820A
:103AB000BE016F5F7F4F8EEA92E10E94E01B698139
:103AC0007A817093630360936203072E000C880B66
:103AD000990B00E010E09801409164030E94894234
:103AE00064EF71E080E090E00E9459080E94520A61
:103AF0000E945A060F900F900F900F90DF91CF9178
:103B00001F910F910895CF93DF9300D01F92CDB7EF
:103B1000DEB7BE016F5F7F4F82E792E10E94E01B3C
:103B200089819A81AB81BC8181309105A105B10564
:103B300059F4109200020E94C7050F900F900F9049
:103B40000F90DF91CF910895892B8A2B8B2B99F7BA
:103B500081E080930002EFCF8F929F92AF92BF924D
:103B6000EF92FF920F931F93CF93DF93CDB7DEB702
:103B700060970FB6F894DEBF0FBECDBF7C014A013F
:103B80008E010F5F1F4F8AE0F80111928A95E9F7C5
:103B900064E274E0CE010B960E9412074AE0B8017D
:103BA000C4010E945D5AF70162817381CE010B96B8
:103BB0000E94564567E374E0CE010B960E9456457D
:103BC000B801CE010B960E9456458B859C850E94BC
:103BD0004F1864E274E0CE010B960E94FE456DE33F
:103BE00074E0CE010B960E945645F7016281738105
:103BF000CE010B960E9456458B859C850E944F18DE
:103C00000E94B13F182FCE010B960E944B46812F88
:103C100060960FB6F894DEBF0FBECDBFDF91CF9197
:103C20001F910F91FF90EF90BF90AF909F908F905A
:103C300008958F929F92AF92BF92EF92FF920F934F
:103C40001F93CF93DF93CDB7DEB760970FB6F8948D
:103C5000DEBF0FBECDBF7C014A018E010F5F1F4F3B
:103C60008AE0F80111928A95E9F764E274E0CE01E6
:103C70000B960E9412074AE0B801C4010E945D5AE7
:103C8000F70162817381CE010B960E94564562E472
:103C900074E0CE010B960E945645B801CE010B96FA
:103CA0000E9456458B859C850E944F1864E274E003
:103CB000CE010B960E94FE456DE374E0CE010B969B
:103CC0000E945645F70162817381CE010B960E94D6
:103CD00056458B859C850E944F180E94B13F182F36
:103CE000CE010B960E944B46812F60960FB6F8943A
:103CF000DEBF0FBECDBFDF91CF911F910F91FF901F
:103D0000EF90BF90AF909F908F9008954FEF5FEF2F
:103D100060E070E08AE493E10E94191E4FEF5FEFCC
:103D200060E070E08AE493E10E94AC1D4FEF5FEF2A
:103D300060E070E08EE093E10E94191E4FEF5FEFAC
:103D400060E070E08EE093E10E94AC1D10923C0AAE
:103D5000089540E058EF60E070E08AE493E10E944B
:103D6000191E40E058EF60E070E08AE493E10E94A1
:103D7000AC1D40E058EF60E070E08EE093E10E94FF
:103D8000191E40E058EF60E070E08EE093E10E9481
:103D9000AC1D81E080933C0A08954FEF5FEF60E037
:103DA00070E086E593E10E94191E4FEF5FEF60E03F
:103DB00070E086E593E10E94AC1D4FEF5FEF60E09D
:103DC00070E08AE193E10E94191E4FEF5FEF60E01F
:103DD00070E08AE193E10E94AC1D10923B0A0895C5
:103DE0004FEF5FEF60E070E08AE793E10E94191EF9
:103DF0004FEF5FEF60E070E08AE793E10E94AC1D57
:103E00004FEF5FEF60E070E08EE393E10E94191ED8
:103E10004FEF5FEF60E070E08EE393E10E94AC1D36
:103E200010923A0A08954FEF5FEF60E070E08AE782
:103E300093E10E94191E40E058EF60E070E08AE7CD
:103E400093E10E94AC1D4FEF5FEF60E070E08EE306
:103E500093E10E94191E40E058EF60E070E08EE3AD
:103E600093E10E94AC1D81E080933A0A089581E0BD
:103E700080933D0A0E9459430E94131F1092370AF3
:103E80001092360A64E274E085EF9DE00C94FE45E2
:103E900040E058EF60E070E08AE793E10E94191E6D
:103EA00040E058EF60E070E08AE793E10E94AC1DCB
:103EB00040E058EF60E070E08EE393E10E94191E4D
:103EC00040E058EF60E070E08EE393E10E94AC1DAB
:103ED00081E080933A0A089580913B0A81113BC0AA
:103EE00080913A0A81110E948A0580912A0A8111E3
:103EF00004C080913C0A882391F164E274E08FEE63
:103F00009DE00E94414581112AC00E948C0840E03A
:103F100058EF60E070E086E593E10E94191E40E0F2
:103F200058EF60E070E086E593E10E94AC1D40E050
:103F300058EF60E070E08AE193E10E94191E40E0D2
:103F400058EF60E070E08AE193E10E94AC1D81E0EF
:103F500080933B0A08950E94CD1E0C94C7050895D6
:103F60008AE695E10C946C1F4FEF57E860E070E033
:103F70008AE095E10E94191E4FEF57E860E070E07B
:103F800082EF94E10E94191E4FEF57E860E070E065
:103F900086EE94E10E94191E4FEF57E860E070E052
:103FA0008AED94E10E94191E40EF5FEF60E070E03F
:103FB0008EEC94E10E94191E0C94C7054FEF57E850
:103FC00060E070E08AE095E10E94191E4FEF57E82B
:103FD00060E070E082EF94E10E94191E4FEF57E815
:103FE00060E070E086EE94E10E94191E40EF5FEF02
:103FF00060E070E08AED94E10E94191E4FEF57E8EF
:1040000060E070E08EEC94E10E94191E0C94C705EC
:104010004FEF57E860E070E08AE095E10E94191EDA
:104020004FEF57E860E070E082EF94E10E94191EC4
:1040300040EF5FEF60E070E086EE94E10E94191EB1
:104040004FEF57E860E070E08AED94E10E94191E9E
:104050004FEF57E860E070E08EEC94E10E94191E8B
:104060000C94C7054FEF57E860E070E08AE095E1F7
:104070000E94191E40EF5FEF60E070E082EF94E174
:104080000E94191E4FEF57E860E070E086EE94E161
:104090000E94191E4FEF57E860E070E08AED94E14E
:1040A0000E94191E4FEF57E860E070E08EEC94E13B
:1040B0000E94191E0C94C70540EF5FEF60E070E0AE
:1040C0008AE095E10E94191E4FEF57E860E070E02A
:1040D00082EF94E10E94191E4FEF57E860E070E014
:1040E00086EE94E10E94191E4FEF57E860E070E001
:1040F0008AED94E10E94191E4FEF57E860E070E0EE
:104100008EEC94E10E94191E0E94C70586EA95E193
:104110000C94C61840EF5FEF60E070E08AE095E134
:104120000E94191E4FEF57E860E070E082EF94E1C3
:104130000E94191E4FEF57E860E070E086EE94E1B0
:104140000E94191E4FEF57E860E070E08AED94E19D
:104150000E94191E4FEF57E860E070E08EEC94E18A
:104160000E94191E0C94C705CF93DF9300D000D096
:10417000CDB7DEB78091590A811102C00E94C705F0
:104180000E948A0A64E274E085EF9DE00E94FE4589
:104190001092370A1092360A10922E0A10922F0AA5
:1041A0001092300A1092310A80912A0A882311F164
:1041B0004FEF5FEF60E070E08EE693E10E94191E22
:1041C0004FEF5FEF60E070E08EE693E10E94AC1D80
:1041D0004FEF5FEF60E070E082E393E10E94191E11
:1041E0004FEF5FEF60E070E082E393E10E94AC1D6F
:1041F00010922A0A8091380A882311F14FEF5FEF5D
:1042000060E070E082E693E10E94191E4FEF5FEFDD
:1042100060E070E082E693E10E94AC1D4FEF5FEF3B
:1042200060E070E086E293E10E94191E4FEF5FEFBD
:1042300060E070E086E293E10E94AC1D1092380AC3
:1042400080913B0A81110E94CD1E80913C0A811110
:104250000E94861E0E94481F68E474E0CE01019609
:104260000E941207CE0101960E94231ACE010196E8
:104270000E944B4661EB79E0CE0101960E94120745
:10428000CE0101960E947D1ACE0101960E944B46F6
:10429000809100028093290A81E08093000261EB03
:1042A00079E0CE0101960E941207CE0101960E948C
:1042B0004D1ACE0101960E944B468091290A8093A7
:1042C000000264E274E08FEE9DE00E94FE45609182
:1042D0002E0A70912F0A8091300A9091310A0E9423
:1042E000435EAB01BC0186E893E10E94BA1A60917B
:1042F0002E0A70912F0A8091300A9091310A0E9403
:10430000435EAB01BC0186E19EE00E94BA1A0E94A6
:104310005A060E942F191092580A1092390A2696AE
:104320000FB6F894DEBF0FBECDBFDF91CF910895D9
:104330008EE295E10C94B42067E172E08AEE92E19E
:104340000E94E0198EE295E10C94B4201092370A95
:104350001092360A67E172E086EF92E10E94E0195E
:104360006091220270912302809124029091250293
:104370000E94435EAB01BC018AE794E10E94BA1A35
:104380006091220270912302809124029091250273
:104390000E94435EAB01BC018AEA93E10E94BA1A13
:1043A0008091320A882339F040E050E0BA018EE96A
:1043B00093E10E94AC1D4091010250910202052E32
:1043C000000C660B770B8EE993E10E94BA1A60919C
:1043D0001E0270911F0280912002909121020E9482
:1043E000435EAB01BC0182E993E10E94BA1A60917D
:1043F0002E0A70912F0A8091300A9091310A0E9402
:10440000435EAB01BC0186E893E10E94BA1A409179
:10441000330A50E070E060E082E295E10E94BA1A4F
:104420008091660367EE73E0882311F069EE73E014
:1044300082EF93E10E94E0198EE295E10C94B420A2
:104440008AED93E10C94A6218AED93E10C94A621C8
:104450008AED93E10C94A6218AED93E10C94A621B8
:10446000CF93DF9300D01F92CDB7DEB719821A82A7
:104470001B821C82BE016F5F7F4F8AEB92E10E941C
:10448000E01B89819A81AB81BC8181309105A105B6
:10449000B105E9F088F00297A105B10509F10E9484
:1044A000C7058EE295E10E94B4200F900F900F9007
:1044B0000F90DF91CF9108951092350A1092340A2F
:1044C00064EF73E08AE592E10E94E019E8CF81E0B1
:1044D00090E09093350A8093340A6BEF73E0F2CF4B
:1044E00082E090E09093350A8093340A64E074E0AF
:1044F000E9CF8F929F92AF92BF92CF92DF92EF92CD
:10450000FF928091360A9091370A0197029708F03E
:1045100045C08091F50D9091F60DC12CD12C7601FE
:10452000009721F00E94125A6B017C01C092220276
:10453000D0922302E0922402F0922502C0921E0241
:10454000D0921F02E0922002F092210220E030E09F
:1045500048EC52E4609167037091680380916903AD
:1045600090916A030E94CA5D4B015C01A70196010C
:1045700060E070E086E994E40E94CA5D9B01AC01B2
:10458000C501B4010E946C5C6093520A7093530A97
:104590008093540A9093550A0E945A068091360AD5
:1045A0009091370A892B31F480913D0A811102C024
:1045B0000E948A0560912202709123028091240258
:1045C000909125020E94435EAB01BC018AE794E111
:1045D0000E94BA1A609122027091230280912402F3
:1045E000909125020E94435EAB01BC018AEA93E1EF
:1045F0000E94BA1A60911E0270911F0280912002DF
:10460000909121020E94435EAB01BC0182E993E1DB
:104610000E94BA1A8EE295E1FF90EF90DF90CF9062
:10462000BF90AF909F908F900C94B42080913D0AE2
:1046300081115CC08091360A9091370A019709F088
:104640003BC081E08093320A0E94214470930202B1
:1046500060930102AB01770F660B770B8EE993E154
:104660000E94BA1A40E050E0BA018EE993E10E943C
:10467000AC1DE0910102F0910202EA30F105E0F494
:104680008827EA5BFC4D8F4F0C94995E50237A2368
:104690007F23842389238E23932398239D23A2237E
:1046A0008DEC9CECACECBEEB8093250A9093260A33
:1046B000A093270AB093280A8091360A9091370A6E
:1046C000892B51F41092320A40EE5FEF60E070E007
:1046D0008EE993E10E94AC1D8091360A9091370AD1
:1046E000029714F00E948A050E945A068EE295E114
:1046F0000C94B4208AE999E9A9E9BEEBD5CF8DECF9
:104700009CECACE4BEEBD0CF8DEC9CECACECBDEB08
:10471000CBCF8DEC9CECACE4BDEBC6CF8DEC9CEC30
:10472000ACE4BDE3C1CF8DEC9CECACECBDE3BCCF05
:104730008DEC9CECACE4BEE3B7CF8AE999E9A9E93A
:10474000BEE3B2CF8DEC9CECACECBEE3ADCF4F92B0
:104750005F926F927F928F929F92AF92BF92CF9211
:10476000DF92EF92FF92CF93DF9300D01F92CDB7ED
:10477000DEB7C0902202D0902302E0902402F09095
:10478000250280913D0A81111AC00E9421440E9495
:104790000D5C60931E0270931F0280932002909321
:1047A00021028091360A9091370A892B41F4C092F8
:1047B0001E02D0921F02E0922002F092210240904D
:1047C0001E0250901F02609020027090210220E093
:1047D00030E048EC52E46091670370916803809187
:1047E000690390916A030E94CA5D4B015C0120E05D
:1047F00030E046E953E4C701B6010E946C5C69836E
:104800007A838B839C8320E030E04AE353E4C30146
:10481000B2010E946C5C9B01AC0169817A818B8141
:104820009C810E945D5D9B01AC01C501B4010E94A9
:104830006C5C4B015C0120E030E04EEB52E4C701C0
:10484000B6010E946C5CA30192010E946C5C9B010A
:10485000AC01C501B4010E94CA5D20E030E04AE726
:1048600054E40E946C5C60934E0A70934F0A8093EC
:10487000500A9093510A20E030E0A9010E94725E34
:1048800087FD28C00E945A0660911E0270911F0287
:1048900080912002909121020E94435EAB01BC01F5
:1048A00082E993E10E94BA1A8EE295E10F900F908F
:1048B0000F900F90DF91CF91FF90EF90DF90CF900E
:1048C000BF90AF909F908F907F906F905F904F9030
:1048D0000C94B4200E948A05E7CF80913D0A88237A
:1048E00021F08EE295E10C94B42080913A0A88235D
:1048F00049F10E94F01E40E058EF60E070E08EE663
:1049000093E10E94191E40E058EF60E070E08EE6EF
:1049100093E10E94AC1D40E058EF60E070E082E35C
:1049200093E10E94191E40E058EF60E070E082E3DE
:1049300093E10E94AC1D81E080932A0A8093580A7B
:104940000C945A061092580A8EE295E10E94B42007
:10495000F7CF8EE895E10C946D24CF93DF9300D0D0
:1049600000D0CDB7DEB780913B0A882359F164E2CD
:1049700074E08FEE9DE00E94FE4564E274E0CE019B
:1049800001960E941207CE0101960E947D1ACE0167
:1049900001960E944B4664E274E0CE0101960E94AB
:1049A0001207CE0101960E944D1ACE0101960E9477
:1049B0004B4626960FB6F894DEBF0FBECDBFDF91F3
:1049C000CF91089580913D0A811160C00E94C70572
:1049D0008091360A9091370A8130910509F446C0DA
:1049E0008230910509F442C0892B09F04CC0109225
:1049F0002E0A10922F0A1092300A1092310A64E2A5
:104A000074E085EF9DE00E94FE451092370A1092F7
:104A1000360A60912E0A70912F0A8091300A909187
:104A2000310A0E94435EAB01BC0186E893E10E941B
:104A3000BA1A60912E0A70912F0A8091300A9091D3
:104A4000310A0E94435EAB01BC0186E19EE00E94F8
:104A5000BA1A0E945A0668E474E0CE0101960E94D8
:104A60001207CE0101960E94231A9FCF0E94214473
:104A70000E940D5C60932E0A70932F0A8093300A77
:104A80009093310ABCCF0E948A05E5CF8EE295E172
:104A90000E94B4208ECF82E895E10C94AD24CF9390
:104AA000DF9300D000D0CDB7DEB76FEE7DE0CE0152
:104AB00001960E9409076CE474E0CE0101960E9401
:104AC000B445BC018FEE9DE00E943446CE010196B4
:104AD0000E944B4626960FB6F894DEBF0FBECDBFA0
:104AE000DF91CF9108950C944F25CF93DF9300D0A1
:104AF00000D0CDB7DEB76FEE7DE0CE0101960E940B
:104B000009076FE474E0CE0101960E94B445BC0130
:104B10008FEE9DE00E943446CE0101960E944B46E6
:104B200026960FB6F894DEBF0FBECDBFDF91CF91B2
:104B30000895CF93DF9300D000D0CDB7DEB76FEEEE
:104B40007DE0CE0101960E94090763E574E0CE0185
:104B500001960E94B445BC018FEE9DE00E94344650
:104B6000CE0101960E944B4626960FB6F894DEBF02
:104B70000FBECDBFDF91CF910895CF93DF9300D0CB
:104B800000D0CDB7DEB78091380A6FEE7DE0882384
:104B9000E1F0CE0101960E94090767E574E0CE01BD
:104BA00001960E94B445BC018FEE9DE00E94344600
:104BB000CE0101960E944B4626960FB6F894DEBFB2
:104BC0000FBECDBFDF91CF910895CE0101960E9417
:104BD000090767E172E0E3CFCF93DF9300D000D005
:104BE000CDB7DEB76FEE7DE0CE0101960E940907DA
:104BF00069E574E0CE0101960E94B445BC018FEED8
:104C00009DE00E943446CE0101960E944B462696B6
:104C10000FB6F894DEBF0FBECDBFDF91CF910895E0
:104C2000CF93DF9300D000D0CDB7DEB76FEE7DE03D
:104C3000CE0101960E9409076CE574E0CE01019651
:104C40000E94B445BC018FEE9DE00E943446CE0127
:104C500001960E944B4626960FB6F894DEBF0FBE13
:104C6000CDBFDF91CF910895CF93DF9300D000D0D7
:104C7000CDB7DEB76FEE7DE0CE0101960E94090749
:104C80006FE574E0CE0101960E94B445BC018FEE41
:104C90009DE00E943446CE0101960E944B46269626
:104CA0000FB6F894DEBF0FBECDBFDF91CF91089550
:104CB000CF93DF9300D000D0CDB7DEB76FEE7DE0AD
:104CC000CE0101960E94090761E674E0CE010196CB
:104CD0000E94B445BC018FEE9DE00E943446CE0197
:104CE00001960E944B4626960FB6F894DEBF0FBE83
:104CF000CDBFDF91CF910895CF93DF9300D000D047
:104D0000CDB7DEB76FEE7DE0CE0101960E940907B8
:104D100063E674E0CE0101960E94B445BC018FEEBB
:104D20009DE00E943446CE0101960E944B46269695
:104D30000FB6F894DEBF0FBECDBFDF91CF910895BF
:104D4000CF93DF9300D000D0CDB7DEB76FEE7DE01C
:104D5000CE0101960E94090764E974E0CE01019634
:104D60000E94B445BC018FEE9DE00E943446CE0106
:104D700001960E944B4626960FB6F894DEBF0FBEF2
:104D8000CDBFDF91CF910895CF93DF9300D000D0B6
:104D9000CDB7DEB76FEE7DE0CE0101960E94090728
:104DA00065E674E0CE0101960E94B445BC018FEE29
:104DB0009DE00E943446CE0101960E944B46269605
:104DC0000FB6F894DEBF0FBECDBFDF91CF9108952F
:104DD000CF93DF9300D000D0CDB7DEB76FEE7DE08C
:104DE000CE0101960E94090768E674E0CE010196A3
:104DF0000E94B445BC018FEE9DE00E943446CE0176
:104E000001960E944B4626960FB6F894DEBF0FBE61
:104E1000CDBFDF91CF910895CF93DF9300D000D025
:104E2000CDB7DEB76FEE7DE0CE0101960E94090797
:104E30006DE674E0CE0101960E94B445BC018FEE90
:104E40009DE00E943446CE0101960E944B46269674
:104E50000FB6F894DEBF0FBECDBFDF91CF9108959E
:104E6000CF93DF9300D000D0CDB7DEB76FEE7DE0FB
:104E7000CE0101960E94090762E774E0CE01019617
:104E80000E94B445BC018FEE9DE00E943446CE01E5
:104E900001960E944B4626960FB6F894DEBF0FBED1
:104EA000CDBFDF91CF910895CF93DF9300D000D095
:104EB000CDB7DEB76FEE7DE0CE0101960E94090707
:104EC00067E774E0CE0101960E94B445BC018FEE05
:104ED0009DE00E943446CE0101960E944B462696E4
:104EE0000FB6F894DEBF0FBECDBFDF91CF9108950E
:104EF000CF93DF9300D000D0CDB7DEB76FEE7DE06B
:104F0000CE0101960E9409076AE774E0CE0101967E
:104F10000E94B445BC018FEE9DE00E943446CE0154
:104F200001960E944B4626960FB6F894DEBF0FBE40
:104F3000CDBFDF91CF910895CF93DF9300D000D004
:104F4000CDB7DEB76FEE7DE0CE0101960E94090776
:104F50006EE774E0CE0101960E94B445BC018FEE6D
:104F60009DE00E943446CE0101960E944B46269653
:104F70000FB6F894DEBF0FBECDBFDF91CF9108957D
:104F8000CF93DF9300D000D0CDB7DEB76FEE7DE0DA
:104F9000CE0101960E94090762E874E0CE010196F5
:104FA0000E94B445BC018FEE9DE00E943446CE01C4
:104FB00001960E944B4626960FB6F894DEBF0FBEB0
:104FC000CDBFDF91CF910895CF93DF9300D000D074
:104FD000CDB7DEB76FEE7DE0CE0101960E940907E6
:104FE00067E874E0CE0101960E94B445BC018FEEE3
:104FF0009DE00E943446CE0101960E944B462696C3
:105000000FB6F894DEBF0FBECDBFDF91CF910895EC
:10501000CF93DF9300D000D0CDB7DEB76FEE7DE049
:10502000CE0101960E94090762EF73E0CE0101965E
:105030000E94B445BC018FEE9DE00E943446CE0133
:1050400001960E944B4626960FB6F894DEBF0FBE1F
:10505000CDBFDF91CF910895CF93DF9300D000D0E3
:10506000CDB7DEB76FEE7DE0CE0101960E94090755
:1050700061EB79E0CE0101960E94B445BC018FEE50
:105080009DE00E943446CE0101960E944B46269632
:105090000FB6F894DEBF0FBECDBFDF91CF9108955C
:1050A000CF93DF9300D000D0CDB7DEB76FEE7DE0B9
:1050B000CE0101960E94090762E974E0CE010196D3
:1050C0000E94B445BC018FEE9DE00E943446CE01A3
:1050D00001960E944B4626960FB6F894DEBF0FBE8F
:1050E000CDBFDF91CF910895CF93DF9300D000D053
:1050F000CDB7DEB76FEE7DE0CE0101960E940907C5
:1051000067E779E0CE0101960E94B445BC018FEEBD
:105110009DE00E943446CE0101960E944B462696A1
:105120000FB6F894DEBF0FBECDBFDF91CF910895CB
:10513000CF93DF9300D000D0CDB7DEB76FEE7DE028
:10514000CE0101960E9409076DEE78E0CE0101962E
:105150000E94B445BC018FEE9DE00E943446CE0112
:1051600001960E944B4626960FB6F894DEBF0FBEFE
:10517000CDBFDF91CF910895CF93DF9300D000D0C2
:10518000CDB7DEB76FEE7DE0CE0101960E94090734
:1051900069EE78E0CE0101960E94B445BC018FEE25
:1051A0009DE00E943446CE0101960E944B46269611
:1051B0000FB6F894DEBF0FBECDBFDF91CF9108953B
:1051C000CF93DF9300D000D0CDB7DEB76FEE7DE098
:1051D000CE0101960E94090765EE78E0CE010196A6
:1051E0000E94B445BC018FEE9DE00E943446CE0182
:1051F00001960E944B4626960FB6F894DEBF0FBE6E
:10520000CDBFDF91CF910895CF93DF9300D000D031
:10521000CDB7DEB76FEE7DE0CE0101960E940907A3
:1052200061EE78E0CE0101960E94B445BC018FEE9C
:105230009DE00E943446CE0101960E944B46269680
:105240000FB6F894DEBF0FBECDBFDF91CF910895AA
:10525000CF93DF9300D000D0CDB7DEB76FEE7DE007
:10526000CE0101960E9409076DED78E0CE0101960E
:105270000E94B445BC018FEE9DE00E943446CE01F1
:1052800001960E944B4626960FB6F894DEBF0FBEDD
:10529000CDBFDF91CF910895CF93DF9300D000D0A1
:1052A000CDB7DEB76FEE7DE0CE0101960E94090713
:1052B00069ED78E0CE0101960E94B445BC018FEE05
:1052C0009DE00E943446CE0101960E944B462696F0
:1052D0000FB6F894DEBF0FBECDBFDF91CF9108951A
:1052E000CF93DF9300D000D0CDB7DEB76FEE7DE077
:1052F000CE0101960E94090765ED78E0CE01019686
:105300000E94B445BC018FEE9DE00E943446CE0160
:1053100001960E944B4626960FB6F894DEBF0FBE4C
:10532000CDBFDF91CF910895CF93DF9300D000D010
:10533000CDB7DEB76FEE7DE0CE0101960E94090782
:1053400066EA75E0CE0101960E94B445BC018FEE7D
:105350009DE00E943446CE0101960E944B4626965F
:105360000FB6F894DEBF0FBECDBFDF91CF91089589
:10537000CF93DF9300D000D0CDB7DEB76FEE7DE0E6
:10538000CE0101960E9409076EEE75E0CE010196EE
:105390000E94B445BC018FEE9DE00E943446CE01D0
:1053A00001960E944B4626960FB6F894DEBF0FBEBC
:1053B000CDBFDF91CF910895CF93DF9300D000D080
:1053C000CDB7DEB76FEE7DE0CE0101960E940907F2
:1053D00068E679E0CE0101960E94B445BC018FEEEB
:1053E0009DE00E943446CE0101960E944B462696CF
:1053F0000FB6F894DEBF0FBECDBFDF91CF910895F9
:10540000CF93DF9300D000D0CDB7DEB76FEE7DE055
:10541000CE0101960E94090766E974E0CE0101966B
:105420000E94B445BC018FEE9DE00E943446CE013F
:1054300001960E944B4626960FB6F894DEBF0FBE2B
:10544000CDBFDF91CF910895CF93DF9300D000D0EF
:10545000CDB7DEB76FEE7DE0CE0101960E94090761
:1054600068E974E0CE0101960E94B445BC018FEE5C
:105470009DE00E943446CE0101960E944B4626963E
:105480000FB6F894DEBF0FBECDBFDF91CF91089568
:10549000CF93DF9300D000D0CDB7DEB76FEE7DE0C5
:1054A000CE0101960E9409076AE974E0CE010196D7
:1054B0000E94B445BC018FEE9DE00E943446CE01AF
:1054C00001960E944B4626960FB6F894DEBF0FBE9B
:1054D000CDBFDF91CF910895CF93DF9300D000D05F
:1054E000CDB7DEB76FEE7DE0CE0101960E940907D1
:1054F00060E075E0CE0101960E94B445BC018FEEDC
:105500009DE00E943446CE0101960E944B462696AD
:105510000FB6F894DEBF0FBECDBFDF91CF910895D7
:10552000CF93DF9300D000D0CDB7DEB76FEE7DE034
:10553000CE0101960E9409076AEA77E0CE01019642
:105540000E94B445BC018FEE9DE00E943446CE011E
:1055500001960E944B4626960FB6F894DEBF0FBE0A
:10556000CDBFDF91CF910895CF93DF9300D000D0CE
:10557000CDB7DEB76FEE7DE0CE0101960E94090740
:1055800065E776E0CE0101960E94B445BC018FEE3E
:105590009DE00E943446CE0101960E944B4626961D
:1055A0000FB6F894DEBF0FBECDBFDF91CF91089547
:1055B000CF93DF9300D000D0CDB7DEB76FEE7DE0A4
:1055C000CE0101960E9409076FE078E0CE010196B6
:1055D0000E94B445BC018FEE9DE00E943446CE018E
:1055E00001960E944B4626960FB6F894DEBF0FBE7A
:1055F000CDBFDF91CF910895CF93DF9300D000D03E
:10560000CDB7DEB76FEE7DE0CE0101960E940907AF
:105610006CE974E0CE0101960E94B445BC018FEEA6
:105620009DE00E943446CE0101960E944B4626968C
:105630000FB6F894DEBF0FBECDBFDF91CF910895B6
:10564000CF93DF9300D000D0CDB7DEB76FEE7DE013
:10565000CE0101960E94090769E179E0CE01019629
:105660000E94B445BC018FEE9DE00E943446CE01FD
:1056700001960E944B4626960FB6F894DEBF0FBEE9
:10568000CDBFDF91CF910895CF93DF9300D000D0AD
:10569000CDB7DEB76FEE7DE0CE0101960E9409071F
:1056A00065E874E0CE0101960E94B445BC018FEE1E
:1056B0009DE00E943446CE0101960E944B462696FC
:1056C0000FB6F894DEBF0FBECDBFDF91CF91089526
:1056D000CF93DF9300D000D0CDB7DEB76FEE7DE083
:1056E000CE0101960E94090760E174E0CE010196A7
:1056F0000E94B445BC018FEE9DE00E943446CE016D
:1057000001960E944B4626960FB6F894DEBF0FBE58
:10571000CDBFDF91CF910895CF93DF9300D000D01C
:10572000CDB7DEB76FEE7DE0CE0101960E9409078E
:1057300062EE74E0CE0101960E94B445BC018FEE8A
:105740009DE00E943446CE0101960E944B4626966B
:105750000FB6F894DEBF0FBECDBFDF91CF91089595
:10576000CF93DF9300D000D0CDB7DEB76FEE7DE0F2
:10577000CE0101960E9409076EE974E0CE01019600
:105780000E94B445BC018FEE9DE00E943446CE01DC
:1057900001960E944B4626960FB6F894DEBF0FBEC8
:1057A000CDBFDF91CF910895CF93DF9300D000D08C
:1057B000CDB7DEB76FEE7DE0CE0101960E940907FE
:1057C0006AE977E0CE0101960E94B445BC018FEEF4
:1057D0009DE00E943446CE0101960E944B462696DB
:1057E0000FB6F894DEBF0FBECDBFDF91CF91089505
:1057F000CF93DF9300D000D0CDB7DEB76FEE7DE062
:10580000CE0101960E94090761E574E0CE01019680
:105810000E94B445BC018FEE9DE00E943446CE014B
:1058200001960E944B4626960FB6F894DEBF0FBE37
:10583000CDBFDF91CF910895CF93DF9300D000D0FB
:10584000CDB7DEB76FEE7DE0CE0101960E9409076D
:1058500061EF77E0CE0101960E94B445BC018FEE66
:105860009DE00E943446CE0101960E944B4626964A
:105870000FB6F894DEBF0FBECDBFDF91CF91089574
:10588000CF93DF9300D000D0CDB7DEB76FEE7DE0D1
:10589000CE0101960E94090762E074E0CE010196F4
:1058A0000E94B445BC018FEE9DE00E943446CE01BB
:1058B00001960E944B4626960FB6F894DEBF0FBEA7
:1058C000CDBFDF91CF910895CF93DF9300D000D06B
:1058D000CDB7DEB76FEE7DE0CE0101960E940907DD
:1058E00068EB77E0CE0101960E94B445BC018FEED3
:1058F0009DE00E943446CE0101960E944B462696BA
:105900000FB6F894DEBF0FBECDBFDF91CF910895E3
:10591000CF93DF9300D000D0CDB7DEB76FEE7DE040
:10592000CE0101960E94090760EA74E0CE0101965B
:105930000E94B445BC018FEE9DE00E943446CE012A
:1059400001960E944B4626960FB6F894DEBF0FBE16
:10595000CDBFDF91CF910895CF93DF9300D000D0DA
:10596000CDB7DEB76FEE7DE0CE0101960E9409074C
:1059700062EA74E0CE0101960E94B445BC018FEE4C
:105980009DE00E943446CE0101960E944B46269629
:105990000FB6F894DEBF0FBECDBFDF91CF91089553
:1059A000CF93DF9300D000D0CDB7DEB76FEE7DE0B0
:1059B000CE0101960E94090765EC75E0CE010196C3
:1059C0000E94B445BC018FEE9DE00E943446CE019A
:1059D00001960E944B4626960FB6F894DEBF0FBE86
:1059E000CDBFDF91CF910895CF93DF9300D000D04A
:1059F000CDB7DEB76FEE7DE0CE0101960E940907BC
:105A000062EB73E0CE0101960E94B445BC018FEEBB
:105A10009DE00E943446CE0101960E944B46269698
:105A20000FB6F894DEBF0FBECDBFDF91CF910895C2
:105A3000CF93DF9300D000D0CDB7DEB76FEE7DE01F
:105A4000CE0101960E94090764EA74E0CE01019636
:105A50000E94B445BC018FEE9DE00E943446CE0109
:105A600001960E944B4626960FB6F894DEBF0FBEF5
:105A7000CDBFDF91CF910895CF93DF9300D000D0B9
:105A8000CDB7DEB76FEE7DE0CE0101960E9409072B
:105A900067EB74E0CE0101960E94B445BC018FEE25
:105AA0009DE00E943446CE0101960E944B46269608
:105AB0000FB6F894DEBF0FBECDBFDF91CF91089532
:105AC000CF93DF9300D000D0CDB7DEB76FEE7DE08F
:105AD000CE0101960E94090765E676E0CE010196A7
