:100000000C9460030C94F30A0C94C80A0C949D0A97
:100010000C94720A0C94470A0C941C0A0C94F10973
:100020000C94C6090C9491030C9491030C949103C5
:100030000C9491030C9491030C9491030C949103F0
:100040000C9491030C942C0B0C9491030C9491033D
:100050000C9491030C9491030C9491030C947C09DF
:100060000C9491030C9490080C9466080C949103E2
:100070000C9491030C9491030C9491030C949103B0
:100080000C9491030C9491030C9491030C949103A0
:100090000C9430080C9406080C9491030C94910372
:1000A0000C9491030C9491030C9491030C94910380
:1000B0000C9491030C9491030C9491030C94910370
:1000C0000C9491030C9491030C9491030C94910360
:1000D0000C9491030C9491030C9491030C94910350
:1000E0000C9491030C94DD310C94FD320C94921518
:1000F0000C9466200C9430050C94D9410C94422841
:100100000C9401320C9438370C94C9140C94782454
:100110000C9471310C94E3030C9454420C947825A4
:100120000C9406050C947D2E0C9446190C94232AED
:100130000C94052A0C9430420C94BF140C94422C5D
:100140000C9427150C947A510C9430060C944D3174
:100150000C9491320C9473420C94DD200C944E421A
:100160000C943D170C94E41A0C94D22B0C94C141BE
:100170000C9405310C940A2A0C943F420C94C93B10
:100180000C94342B0C947C420C94FA410C947042E5
:100190000C94561E0C940C420C944E1E0C941B4254
:1001A0000C9457420C947B1D0C9436420C942A06F6
:1001B0000C944E280C945A280C9409300C94392D28
:1001C0000C9410230C9460260C944E200C949D2FBC
:1001D0000C94E92E0C9493030C94A51F0C942742C5
:1001E0000C94B4050C94181B0C9451300C94F62408
:1001F0000C9442360C9499300C947E200C947F42DF
:100200000C941E420C94601A0C94EE410C94C94656
:100210000C94E5410C94CD3B0C94F82A0C94C22824
:100220000C942C060C9428060C94D1340C94753044
:100230000C9421330C9451420C945C260C94A2240F
:100240000C94312F0C942E060C94F9040C94751A0E
:100250000C94F1450C9479420C94B5320C944628D8
:100260000C94B8270C9439420C94F0470C948305F5
:100270000C94FD040C9433420C94852C0C94F12CBA
:100280000C94551D0C94CF030C94F5040C94184257
:100290000C948D330C9418060C9421420C94453325
:1002A0000C9476420C94C0030C9442420C942E3869
:1002B0000C9495310C9421460C94A12E0C941005AD
:1002C0000C94152D0C9414050C94322A0C94244291
:1002D0000C94B9310C9400050C94E71F0C9456282B
:1002E0000C945A1E0C941C060C946F290C948004D8
:1002F0000C9481460C941D340C94D0410C948405CC
:100300000C94D5330C9422050C94DB220C94AE2073
:100310000C94E31C0C945A420C94BD360C942D2A78
:100320000C9418050C9480060C94CC240C94C427CF
:100330000C941E200C9465340C94B2410C94D6415C
:100340000C944B420C9400420C942B050C94792F86
:100350000C94FD410C9445420C94812D0C9409465B
:100360000C94521E0C94151F0C94552F0C94B337FB
:100370000C940A050C94192A0C942D420C942D30DF
:100380000C9406420C9406210C94F1040C94DB2985
:100390000C943C420C9499460C9412420C94C73530
:1003A0000C94C7410C9432060C9415420C94C44131
:1003B0000C945D2D0C94771E0C944C350C943F1FBF
:1003C0000C9403420C94C92D0C948A510C94E13086
:1003D0000C9469460C94592E0C9482050C94ED2DC6
:1003E0000C94A1290C9439460C94F4410C941E2AC7
:1003F0000C94AD340C94F7410C942A420C94F141C6
:100400000C941E060C94EB410C9424390C94260693
:100410000C94F1030C9433040C940D2F0C944E2582
:100420000C9435060C94C0270C9436200C94B146DD
:100430000C945E1E0C94112E0C94E8410C94CD414A
:100440000C946A170C94343F0C94A0040C94D34180
:100450000C94142A0C94A9380C94A52D0C9469338F
:100460000C9458230C94750B0C9451460C94403CFE
:100470000C94C52E0C94FA2B0C94D62B0C942206BB
:100480000C94A92C0C9420250C941E050C94493234
:100490000C9489340C9496200C94431E0C949F3930
:1004A0000C94D53B0C94A4050C94C12F0C940F2AEA
:1004B0000C94352E0C94B1330C946D320C9434069C
:1004C0000C94E52F0C940F420C94CD2C0C942C051D
:1004D0000C9425320C94BC270C9457190C94484268
:1004E0000C9424060C94B31A0C94D93B0C941E2C37
:1004F0000C9429310C94CA410C94F9330C942605C0
:100500000C94D9450C94D9320C94D13B0C94EB0447
:100510000C9441340C9409420C94DC410C948442B8
:100520000C94282A0C94C8270C94E2410C944A2875
:100530000C9454230C9452280C9450430C94DF4197
:100540000C9420060C94A6400C94BD300C944D479E
:100550004E414E494E495459494E46CDCCCC3D0AA8
:10056000D7233C17B7D13877CC2B329595E6241F8B
:10057000B14F0A000020410000C84200401C462044
:10058000BCBE4CCA1B0E5AAEC59D747C3C3E5E2B55
:100590003D3F2F5B5D3B2C2A225C000000220025A2
:1005A0000028002B002E003100340002010000055D
:1005B0000108010B01000020002300260029002C67
:1005C000002F0032000001000003010601090100B4
:1005D000000A0B02090C0D0E0807030401000000BD
:1005E000000000000000000000000000000000000B
:1005F00000000000000000000000001211100000C8
:1006000000000000000000000000000000000000EA
:10061000000000000000002100240027002A002D17
:10062000003000330001010000040107010A01014C
:1006300002102020080810204010204080020102F3
:1006400001080402010102040810204080804020BB
:1006500010080402018004020180402010080402F6
:100660000108040201010204081020408001020474
:100670000810204080050505050705080808080240
:100680000202020A0A08080404040401010101012B
:100690000101010303030303030303040707070C1A
:1006A0000C0C0C0C0C0C0C020202020606060606D0
:1006B0000606060B0B0B0B0B0B0B0B008A517A512A
:1006C00011241FBECFEFD1E2DEBFCDBF00E00CBFD3
:1006D00029E1A2E0BCE001C01D92AA38B207E1F70F
:1006E0001CE0A0E0B2E0E0E2F1EE00E00BBF02C0EF
:1006F00007900D92A230B107D9F713E0CFE5D3E010
:1007000000E006C021970109802FFE010E94286E9B
:10071000CE35D10780E00807A9F70E94765F0C94D8
:100720007E700C940000AF92BF92CF92DF92EF9256
:10073000FF920F931F93CF93DF936C017B018B018B
:10074000040F151FEB015E01AE18BF08C017D107DB
:1007500059F06991D601ED91FC910190F081E02D65
:10076000C6011995892B79F7C501DF91CF911F91AA
:100770000F91FF90EF90DF90CF90BF90AF900895D2
:10078000FC01538D448D252F30E0842F90E0821B97
:10079000930B541710F0CF96089501970895FC011C
:1007A000918D828D981761F0A28DAE0FBF2FB11D74
:1007B0005D968C91928D9F5F9F73928F90E00895CC
:1007C0008FEF9FEF0895FC01918D828D981731F086
:1007D000828DE80FF11D858D90E008958FEF9FEFDA
:1007E0000895FC01918D228D892F90E0805C9F4FB0
:1007F000821B91098F739927089589E59EE00E94D5
:10080000F10321E0892B09F420E0822F089586EF7F
:100810009EE00E94F10321E0892B09F420E0822F61
:100820000895FC01A48DA80FB92FB11DA35ABF4F85
:100830002C91848D90E001968F739927848FA689DF
:10084000B7892C93A089B1898C91837080648C9333
:10085000938D848D981306C00288F389E02D8081E2
:100860008F7D80830895EF92FF920F931F93CF9314
:10087000DF93EC0181E0888F9B8D8C8D98131AC0DB
:10088000E889F989808185FF15C09FB7F894EE89C2
:10089000FF896083E889F98980818370806480831F
:1008A0009FBF81E090E0DF91CF911F910F91FF906A
:1008B000EF900895F62E0B8D10E00F5F1F4F0F7312
:1008C0001127E02E8C8D8E110CC00FB607FCFACFCD
:1008D000E889F989808185FFF5CFCE010E94110456
:1008E000F1CFEB8DEC0FFD2FF11DE35AFF4FF0829E
:1008F0009FB7F8940B8FEA89FB8980818062CFCF04
:10090000CF93DF93EC01888D8823B9F0AA89BB8946
:10091000E889F9898C9185FD03C0808186FD0DC031
:100920000FB607FCF7CF8C9185FFF2CF808185FF52
:10093000EDCFCE010E941104E9CFDF91CF91089550
:1009400080E090E0892B29F00E94070481110E9429
:10095000000080E090E0892B29F00E94FD038111C6
:100960000E94000080E090E0892B49F080E090E058
:10097000892B29F00E94000081110E94000080E074
:1009800090E0892B49F080E090E0892B29F00E94CB
:10099000000081110C94000008958150823108F00C
:1009A0005AC0E82FF0E08827E752FB4F8F4F0C9496
:1009B000286EF904FD04EB04F104F5042B05000591
:1009C00006050A051005140518051E0522052B0548
:1009D00026052C053005809180008F77809380005C
:1009E0000895809180008F7DF9CF80918000877F6E
:1009F000F5CF84B58F7784BD089584B58F7DFBCF07
:100A00008091B0008F778093B00008958091B000FE
:100A10008F7DF9CF809190008F778093900008951B
:100A2000809190008F7DF9CF80919000877FF5CFE6
:100A30008091A0008F778093A00008958091A000FE
:100A40008F7DF9CF8091A000877FF5CF8091200125
:100A50008F77809320010895809120018F7DF9CFB9
:100A600080912001877FF5CFCF93DF93282F30E04F
:100A7000F901E153FA4F8491F901E15DF94FD49105
:100A8000F901EB58F94FC491CC23A1F081110E94D8
:100A9000CD04EC2FF0E0EE0FFF1FEB54FA4FA591C1
:100AA000B491EC91ED2381E090E009F480E0DF91D6
:100AB000CF91089580E090E0FACF3FB7F89480910D
:100AC000350C9091360CA091370CB091380C26B5AE
:100AD000A89B05C02F3F19F00196A11DB11D3FBF76
:100AE000BA2FA92F982F8827BC01CD01620F711D45
:100AF000811D911D42E0660F771F881F991F4A953F
:100B0000D1F7089508950895DC015996ED91FC916F
:100B10003097B9F083899489A589B6894285538530
:100B200064857585841B950BA60BB70B811520E892
:100B30009207A105B10538F08FEF9FE7A0E0B0E084
:100B4000089590E080E00895DC0159968D919C9184
:100B5000009739F0DC01ED91FC910480F581E02DE6
:100B6000199490E080E00895CF93DF931F92CDB762
:100B7000DEB76983DC01ED91FC910280F381E02D09
:100B800041E050E0BE016F5F7F4F19950F90DF91FC
:100B9000CF9108950F931F93CF93DF93C7E0D0E0D9
:100BA0000FE010E020E030E04091C20368E572E021
:100BB00080E090E00E94B04D0FE010E020E030E0D7
:100BC0004091C2036CED75E080E090E00E94B04D72
:100BD0000FE010E020E030E04091C20360E273E0FB
:100BE00080E090E00E94B04D0FE010E020E030E0A7
:100BF0004091C20360EB74E080E090E00E94B04D51
:100C0000219771F6DF91CF911F910F9108950F9366
:100C10001F9308EC10E020E030E04091C20360E256
:100C200073E080E090E00E94B04D1F910F91089515
:100C300081E080931E0C08950C9407060C9407061F
:100C40000C9407060C9407060C9407060C940706F0
:100C50000C9407060C9407060C9407060C940706E0
:100C60000C9407060C94070608950895CF93DF931C
:100C7000FB0122813381DC0113963C932E93129762
:100C8000448155816681778114964D935D936D9370
:100C90007C931797408551856285738518964D938F
:100CA0005D936D937C931B971C96EF012C969C0192
:100CB000275E3F4F49914D93A217B307D9F7218D76
:100CC000328DFC01328F218FDF91CF910895FF92F9
:100CD0000F931F93CF93DF93EC01F62E08811981B8
:100CE000C8010E94BC6CF81621F06F2DC8010E944B
:100CF000C46CCE01DF91CF911F910F91FF900895A9
:100D00000F931F93CF93DF931F921F92CDB7DEB740
:100D100010E000E060E0C8010E94C46C0F5F1F4F4C
:100D2000011580E11807B1F78FEF93E09A8389836B
:100D300062E5CE0101960E9467060E9407060F90A9
:100D40000F90DF91CF911F910F910895EF92FF9235
:100D50000F931F93CF93DF93CDB7DEB7E7970FB60F
:100D6000F894DEBF0FBECDBF0091060210910702BE
:100D70000330110509F4FEC00CF0D9C00130110593
:100D800009F4E6C00230110509F4EBC08091C003FC
:100D90009091C1039A8389838091C2039091C30388
:100DA0009C838B838091360290913702A091380208
:100DB000B09139028D839E83AF83B88780913202D0
:100DC00090913302A0913402B091350289879A87BD
:100DD000AB87BC878091150C8D8760910402709160
:100DE0000502072E000C880B990B0E949C6B6E87E6
:100DF0007F87888B998B8091110C9091120CA09118
:100E0000130CB091140C8A8B9B8BAC8BBD8B809197
:100E1000C5039091C603A091C703B091C8038E8B00
:100E20009F8BA88FB98F8091180C9091190C9B8F74
:100E30008A8F8091BE039091BF039D8F8C8F80918C
:100E4000240C8E8F809113029091140298A38F8F9F
:100E500080911102909112029AA389A380910F02AE
:100E6000909110029CA38BA380910D0290910E0291
:100E70009EA38DA380910B0290910C0298A78FA343
:100E80008091090290910A029AA789A71CA70BA733
:100E900080911A0C90911B0C9EA78DA78091210C1C
:100EA0009091220C98AB8FA78091230C89AB8091F5
:100EB000C4038AAB80911C0C8BAB8091160C909173
:100EC000170C9DAB8CABCE0101967C0101E010E0CC
:100ED0001FAB0EABF70161917F01CE01C6960E9458
:100EE00067060F5F1F4F0633110591F78BE2E82E5F
:100EF00082E0F82E08EC10E01FAB0EABF701619119
:100F00007F01CE01C6960E9467060F5F1F4F0F3C00
:100F1000110591F7E7960FB6F894DEBF0FBECDBF6F
:100F2000DF91CF911F910F91FF90EF9008950530C1
:100F3000110591F144F10630110509F027CF809198
:100F400015029091160290930A02809309021ECF17
:100F500080911502909116029093140280931302CF
:100F600015CF8091150290911602909312028093F2
:100F700011020CCF809115029091160290931002ED
:100F800080930F0203CF80911502909116029093E7
:100F90000E0280930D02FACE8091150290911602F6
:100FA00090930C0280930B02F1CEFC01118210820F
:100FB00013821282158214820C945B51FC011182FF
:100FC00010821382128215821482FB01019000208C
:100FD000E9F73197AF01461B570B0C940451FB0105
:100FE00001900020E9F73197AF01461B570BDC0158
:100FF000ED91FC910280F381E02D1994611571054A
:1010000011F00C94EF0790E080E008951F920F928A
:101010000FB60F9211240BB60F922F933F934F935D
:101020005F936F937F938F939F93AF93BF93EF9350
:10103000FF9389E59EE00E941104FF91EF91BF911B
:10104000AF919F918F917F916F915F914F913F9160
:101050002F910F900BBE0F900FBE0F901F90189501
:101060001F920F920FB60F9211240BB60F922F936F
:101070008F939F93EF93FF93E091690EF0916A0E27
:101080008081E0916F0EF091700E82FD1DC0908105
:101090008091720E8F5F8F732091730E821741F0D3
:1010A000E091720EF0E0E75AF14F958F8093720E47
:1010B000FF91EF919F918F912F910F900BBE0F9009
:1010C0000FBE0F901F9018958081F2CF1F920F9244
:1010D0000FB60F9211240BB60F922F933F934F939D
:1010E0005F936F937F938F939F93AF93BF93EF9390
:1010F000FF9386EF9EE00E941104FF91EF91BF9154
:10110000AF919F918F917F916F915F914F913F919F
:101110002F910F900BBE0F900FBE0F901F90189540
:101120001F920F920FB60F9211240BB60F922F93AE
:101130008F939F93EF93FF93E091060FF091070F2A
:101140008081E0910C0FF0910D0F82FD1DC0908108
:1011500080910F0F8F5F8F732091100F821741F0D6
:10116000E0910F0FF0E0EA50F14F958F80930F0F51
:10117000FF91EF919F918F912F910F900BBE0F9048
:101180000FBE0F901F9018958081F2CF1F93CF93C1
:10119000DF93282F30E0F901E153FA4F8491F901F0
:1011A000E15DF94FD491F901EB58F94FC491CC238B
:1011B000A9F0162F81110E94CD04EC2FF0E0EE0F64
:1011C000FF1FE556FA4FA591B4918FB7F894EC91B3
:1011D000111108C0D095DE23DC938FBFDF91CF9132
:1011E0001F910895DE2BF8CFCF93DF9390E0FC01A1
:1011F000E15DF94F24918B58994FFC01849188232C
:10120000D1F090E0880F991FFC01EB5EF94FA5919A
:10121000B491FC01E556FA4FC591D491623071F456
:101220009FB7F8943C91822F809583238C93E8811B
:101230002E2B28839FBFDF91CF9108958FB7F8940D
:10124000EC912E2B2C938FBFF6CF8F929F92AF9263
:10125000BF92CF92DF92EF92FF926B017C010E94CE
:101260005D054B015C01C114D104E104F104B9F046
:101270000E945D05681979098A099B09683E7340D7
:101280008105910580F321E0C21AD108E108F10837
:1012900088EE880E83E0981EA11CB11CE4CFFF905D
:1012A000EF90DF90CF90BF90AF909F908F90089578
:1012B0000F931F9308EC10E020E030E04091C20350
:1012C00060E971E080E090E00E94B04D62E370E080
:1012D00080E090E00E9425091F910F910C94070671
:1012E0002FB7F8946091310C7091320C8091330CCF
:1012F0009091340C2FBF08951F920F920FB60F924A
:1013000011242F933F938F939F93AF93BF9380911B
:10131000310C9091320CA091330CB091340C30917F
:10132000300C23E0230F2D3758F50196A11DB11D78
:101330002093300C8093310C9093320CA093330C9B
:10134000B093340C8091350C9091360CA091370CF1
:10135000B091380C0196A11DB11D8093350C90936E
:10136000360CA093370CB093380CBF91AF919F917E
:101370008F913F912F910F900FBE0F901F90189556
:1013800026E8230F0296A11DB11DD2CF1F920F9206
:101390000FB60F9211240BB60F922F933F934F93DA
:1013A0005F936F937F938F939F93AF93BF93EF93CD
:1013B000FF93E0912902F0912A021995FF91EF9194
:1013C000BF91AF919F918F917F916F915F914F915D
:1013D0003F912F910F900BBE0F900FBE0F901F905B
:1013E00018951F920F920FB60F9211240BB60F9201
:1013F0002F933F934F935F936F937F938F939F931D
:10140000AF93BF93EF93FF93E0912702F0912802EF
:101410001995FF91EF91BF91AF919F918F917F911E
:101420006F915F914F913F912F910F900BBE0F9055
:101430000FBE0F901F9018951F920F920FB60F922C
:1014400011240BB60F922F933F934F935F936F939B
:101450007F938F939F93AF93BF93EF93FF93E0910D
:101460001D02F0911E021995FF91EF91BF91AF916E
:101470009F918F917F916F915F914F913F912F91AC
:101480000F900BBE0F900FBE0F901F9018951F92DC
:101490000F920FB60F9211240BB60F922F933F931A
:1014A0004F935F936F937F938F939F93AF93BF936C
:1014B000EF93FF93E0911B02F0911C021995FF91AD
:1014C000EF91BF91AF919F918F917F916F915F91BC
:1014D0004F913F912F910F900BBE0F900FBE0F9029
:1014E0001F9018951F920F920FB60F9211240BB6F2
:1014F0000F922F933F934F935F936F937F938F93AD
:101500009F93AF93BF93EF93FF93E0912502F091E8
:1015100026021995FF91EF91BF91AF919F918F9105
:101520007F916F915F914F913F912F910F900BBEE3
:101530000F900FBE0F901F9018951F920F920FB62D
:101540000F9211240BB60F922F933F934F935F93FB
:101550006F937F938F939F93AF93BF93EF93FF937B
:10156000E0912302F09124021995FF91EF91BF9130
:10157000AF919F918F917F916F915F914F913F912B
:101580002F910F900BBE0F900FBE0F901F901895CC
:101590001F920F920FB60F9211240BB60F922F933A
:1015A0003F934F935F936F937F938F939F93AF93EB
:1015B000BF93EF93FF93E0912102F09122021995DE
:1015C000FF91EF91BF91AF919F918F917F916F911B
:1015D0005F914F913F912F910F900BBE0F900FBED7
:1015E0000F901F9018951F920F920FB60F92112413
:1015F0000BB60F922F933F934F935F936F937F930D
:101600008F939F93AF93BF93EF93FF93E0911F024C
:10161000F09120021995FF91EF91BF91AF919F91A9
:101620008F917F916F915F914F913F912F910F908B
:101630000BBE0F900FBE0F901F901895EFE6F0E0D5
:1016400080818D7F808382E08093810081E0809320
:1016500080002D982E9808951F920F920FB60F922A
:1016600011240BB60F922F933F934F935F936F9379
:101670007F938F939F93AF93BF93EF93FF930E94BA
:1016800070090E941E0BFF91EF91BF91AF919F9146
:101690008F917F916F915F914F913F912F910F901B
:1016A0000BBE0F900FBE0F901F9018950E941E0B3F
:1016B0008091570C811116C060E085E00E94C60839
:1016C0006091BE037091BF03072E000C880B990B2D
:1016D0000E94250960E086E00E94C60860E08DE077
:1016E0000E94C6081092280C08950E94560B109272
:1016F000200C10921F0C0C94070682E00E94340507
:10170000892B19F40E94804EF8CF84E00E943405A2
:10171000892B29F483E00E943405892B99F70C94D6
:10172000560B8F929F92AF92BF92CF92DF92EF9221
:10173000FF920E94804EF090150C20E030E040E4D3
:1017400050E4FF2009F450C060910A0C70910B0C1A
:1017500080910C0C90910D0C0E94ED6C20913D0C31
:1017600030913E0C40913F0C5091400C0E94FB6B1D
:101770000E94D26D0E9425090E94560BFF20E9F1BC
:10178000C0903D0CD0903E0CE0903F0CF090400C8F
:10179000A7019601C701B6010E94ED6C4B015C01E7
:1017A00020E030E040E85FE360910A0C70910B0CA0
:1017B00080910C0C90910D0C0E94ED6CA70196018C
:1017C0000E94FB6B9B01AC01C501B4010E94EC6C53
:1017D0000E94D26DFF90EF90DF90CF90BF90AF90BE
:1017E0009F908F900C94250960913D0C70913E0C58
:1017F00080913F0C9091400CB9CF60913D0C70915D
:101800003E0C80913F0C9091400CE2CF4F925F9242
:101810006F927F928F929F92AF92BF92CF92DF9200
:10182000EF92FF92CF93DF93D1E00E94804EF09031
:10183000150C20E030E040E450E4FF2009F4D9C06A
:1018400060910A0C70910B0C80910C0C90910D0C16
:101850000E94ED6C20913D0C30913E0C40913F0C6C
:101860005091400C0E94FB6B0E94D26D0E94250992
:101870008091180C9091190C009709F0C3C083E077
:101880000E943405C1E0892B09F0C0E00E94560B8C
:10189000FF2009F4BCC0C0903D0CD0903E0CE090FD
:1018A0003F0CF090400CA7019601C701B6010E94C1
:1018B000ED6C2B013C0120E030E040E85FE36091FB
:1018C0000A0C70910B0C80910C0C90910D0C0E94E5
:1018D000ED6CA70196010E94FB6B9B01AC01C3015B
:1018E000B2010E94EC6C0E94D26D0E942509CC23AB
:1018F00021F0D093070C0E94350D8091160C909129
:10190000170C892B09F4A2C08091070C882309F4D5
:101910009DC01092070C0E94804EC091150CCC23E4
:1019200009F47EC020E030E040E85FE360910A0CFB
:1019300070910B0C80910C0C90910D0C0E94ED6C31
:101940004B015C0120913D0C30913E0C40913F0CCD
:101950005091400C0E94FB6B0E94D26D0E942509A1
:101960000E94560BCC2309F464C0C0903D0CD0906B
:101970003E0CE0903F0CF090400CA7019601C7018F
:10198000B6010E94ED6C2B013C01A5019401C70139
:10199000B6010E94FB6B9B01AC01C301B2010E9426
:1019A000EC6C0E94D26D0E9425098091180C9091D8
:1019B000190C009709F046C084E00E943405892B79
:1019C00009F044C08091160C9091170C892B09F4F2
:1019D0002CCFDF91CF91FF90EF90DF90CF90BF9011
:1019E000AF909F908F907F906F905F904F900C94EE
:1019F000910B60913D0C70913E0C80913F0C909149
:101A0000400C30CF019709F040CF84E039CF60918E
:101A10003D0C70913E0C80913F0C9091400C63CF37
:101A200060913D0C70913E0C80913F0C9091400C68
:101A300093CF60913D0C70913E0C80913F0C909142
:101A4000400CAFCF019711F483E0B7CFDF91CF9176
:101A5000FF90EF90DF90CF90BF90AF909F908F90CE
:101A60007F906F905F904F9008954F925F926F922A
:101A70007F928F929F92AF92BF92CF92DF92EF921E
:101A8000FF920E94804EF090150CFF2009F46DC06B
:101A900020E030E040E85FE360910A0C70910B0CAD
:101AA00080910C0C90910D0C0E94ED6C4B015C012F
:101AB00020913D0C30913E0C40913F0C5091400CD8
:101AC0000E94FB6B0E94D26D0E9425090E94560B5A
:101AD000FF2009F453C0C0903D0CD0903E0CE09024
:101AE0003F0CF090400CA7019601C701B6010E947F
:101AF000ED6C2B013C01A5019401C701B6010E94C8
:101B0000FB6B9B01AC01C301B2010E94EC6C0E9413
:101B1000D26D0E9425098091180C9091190C0097A4
:101B2000B1F584E00E943405892B29F481E080938B
:101B3000070C0E94060C8091160C9091170C892BB3
:101B400051F18091070C882331F11092070CFF901E
:101B5000EF90DF90CF90BF90AF909F908F907F904D
:101B60006F905F904F900C94910B60913D0C709131
:101B70003E0C80913F0C9091400CA4CF60913D0CA5
:101B800070913E0C80913F0C9091400CC0CF01971A
:101B900091F683E0C7CFFF90EF90DF90CF90BF909A
:101BA000AF909F908F907F906F905F904F9008952F
:101BB0008FB7F89480912A0C8FBF089561E0FC01E3
:101BC00084810E94C6088091290C81111092290CF1
:101BD00008958EBD00000DB407FEFDCF8EB50895AB
:101BE0008FEF0C94E90D8CBD9DBD0895CF93DF93CD
:101BF000EC018091290C811109C081E08093290CAE
:101C00008091930F9091940F0E94F30D60E08C816E
:101C1000DF91CF910C94C6088F929F92AF92BF92A2
:101C2000FF920F931F93CF93DF93EC01F62E4901A0
:101C30005A018E81882389F08F8198859C012F5FBE
:101C40003F4F38872F838230924018F40E94F00D66
:101C5000F3CFCE010E94DE0D1E82CE010E94F60D52
:101C60008CE291E00E94354B8F2D80640E94E90D3B
:101C700008E110E0D501C401002E04C0B695A79577
:101C8000979587950A94D2F70E94E90D085011099B
:101C9000083F8FEF180771F785E9FF2021F028E052
:101CA00087E8F2128FEF0E94E90D10E00E94F00D1C
:101CB0008A8787FF04C01F3F11F01F5FF7CFDF91B6
:101CC000CF911F910F91FF90BF90AF909F908F90F9
:101CD0000895AF92BF92CF92DF92EF92FF920F934F
:101CE0001F93CF93DF93EC016901C801820F931F0B
:101CF0008130924050F58E81882379F088819981D6
:101D0000AA81BB8184179507A607B70731F48F8195
:101D10009885C816D90608F042C0488359836A835B
:101D20007B838B85833039F089E0440F551F661F14
:101D3000771F8A95D1F79A01AB0161E1CE010E942C
:101D40000C0E882389F083E08D83CE010E94DE0D86
:101D500080E0DF91CF911F910F91FF90EF90DF9086
:101D6000CF90BF90AF9008950E9470095B010E94D0
:101D7000F00D8A878F3F69F40E9470096A197B0908
:101D80006D327140A0F38FE08D83CE010E94DE0D95
:101D9000DCCF8E3F89F418861F8281E08E838F818D
:101DA00098858C159D0550F40E94F00D8F819885C3
:101DB000019698878F83F3CF8DE0E6CF6701E00E21
:101DC000F11E0E94F00DF60181936F01EE15FF05E3
:101DD000C1F78F819885080F191F18870F83898590
:101DE000882319F001151240A0F08E81882389F014
:101DF0008F8198859C012F5F3F4F38872F838230DA
:101E0000924018F40E94F00DF3CFCE010E94DE0D37
:101E10001E8281E09ECFCF92DF92EF92FF920F93CE
:101E2000CF93DF93EC01690182E141155105610512
:101E3000710599F08B85833039F089E0440F551F87
:101E4000661F771F8A95D1F79A01AB0168E1CE0131
:101E50000E940C0E882319F084E08D832DC08EEF34
:101E60000E94E90D76018EEFD81AF70181917F016A
:101E70000E94E90DEC14FD04C1F78FEF0E94E90DFB
:101E80008FEF0E94E90D0E94F00D8A878F718530D7
:101E900071F4011116C0CE010E94DE0D81E0DF91C8
:101EA000CF910F91FF90EF90DF90CF90089581E157
:101EB0008D83CE010E94DE0DCE010E94DE0D80E0FA
:101EC000EECF88E592E00E94354B811102C085E19A
:101ED000C4CF20E030E0A9016DE0CE010E940C0EDD
:101EE000882311F084E1B9CF0E94F00D8111FACF5F
:101EF000D2CF0F9340912C0C50912D0C60912E0C51
:101F000070912F0C411551056105710599F0082F4D
:101F100029E53CE08091550C9091560C0E940B0FE6
:101F2000882349F010922C0C10922D0C10922E0C3C
:101F300010922F0C81E00F9108950F93CF93C82F2B
:101F400080912B0C811105C0C1E08C2FCF910F9196
:101F500008954091170250911802609119027091F2
:101F60001A020C2F29E53CE08091550C9091560CFB
:101F70000E940B0F811102C0C0E0E7CFCC2321F3F8
:101F800081E00E94790F8823B9F310922B0CDDCFEA
:101F90008F929F92AF92BF92EF92FF920F931F93F7
:101FA000CF934B015C01C42F8091170290911802CE
:101FB000A0911902B0911A0288159905AA05BB05CE
:101FC00051F181E00E949D0F81110BC080E0CF9103
:101FD0001F910F91FF90EF90BF90AF909F908F90C7
:101FE000089589E5E82E8CE0F82E00E012E030E05C
:101FF00020E0B501A4018091550C9091560C0E94EF
:10200000690E882319F38092170290921802A09209
:102010001902B0921A0240912B0C4C2B40932B0CBE
:1020200081E0D5CF4F925F926F927F928F929F9275
:10203000AF92BF92CF92DF92EF92FF920F931F93D6
:10204000CF93DF93EC01423051056105710590F4A7
:1020500080E0DF91CF911F910F91FF90EF90DF9083
:10206000CF90BF90AF909F908F907F906F905F9038
:102070004F90089589859A85AB85BC850196A11DF1
:10208000B11D84179507A607B70710F3CB88DC8826
:10209000ED88FE888F89803109F042C0BB27A72FC9
:1020A000962F852F480159012A013B01C80ED91EE0
:1020B000EA1EFB1E8091170290911802A09119024E
:1020C000B0911A02C816D906EA06FB0699F58F895F
:1020D0008031C1F5B301A201552766277727440F48
:1020E000551F475A534FFA019182808280912B0CE1
:1020F000816080932B0C8A89823080F08D819E8153
:10210000AF81B8858C0D9D1DAE1DBF1D80932C0C1D
:1021100090932D0CA0932E0CB0932F0C81E099CFAF
:10212000DB01CA01E7E0B695A79597958795EA95F3
:10213000D1F7B8CF40E0C701B6010E94C80F8111A6
:10214000C6CF86CFB301A2014F77552766277727E1
:10215000440F551F440F551F475A534FFA018082B1
:102160009182A282B382C2CF8F929F92AF92BF928E
:10217000CF92DF92EF92FF920F931F93CF93DF9353
:10218000FC0181859285A385B4850196A11DB11DB1
:1021900084179507A607B70770F480E0DF91CF9109
:1021A0001F910F91FF90EF90DF90CF90BF90AF9075
:1021B0009F908F90089583889488A588B688878992
:1021C000803189F5BB27A72F962F852FE9016A015A
:1021D0007B018F01BC01CD01680D791D8A1D9B1DFE
:1021E0008090170290901802A0901902B0901A02E5
:1021F00086169706A806B90601F5F8018789803189
:1022000011F5DD24EE24FF24F601EE0FFF1FE75A3F
:10221000F34F80819181B0E0A0E088839983AA8305
:10222000BB8381E0BBCFDB01CA01C7E0B695A795B0
:1022300097958795CA95D1F7C9CF40E00E94C80FFE
:102240008111DBCFAACFE894C7F8DD24EE24FF2468
:10225000F601EE0FFF1FEE0FFF1FE75AF34F8081CD
:102260009181A281B381BF70D8CF4F925F926F925C
:102270007F92AF92BF92CF92DF92EF92FF920F9335
:102280001F93CF93DF9300D01F92CDB7DEB78C01A1
:1022900049835A836B837C835901C12CD12C7601ED
:1022A000412C82E0582E612C712C49815A816B811E
:1022B0007C819E012F5F3F4FC8010E94B41088238C
:1022C00039F1F8018585A301920104C0220F331F63
:1022D000441F551F8A95D2F7DA01C901C80ED91ECD
:1022E000EA1EFB1E49815A816B817C81878980317E
:1022F00011F188EF9FEFAFEFBFE0481759076A076A
:102300007B0798F2F501C082D182E282F38281E0FC
:102310000F900F900F900F90DF91CF911F910F9121
:10232000FF90EF90DF90CF90BF90AF907F906F9035
:102330005F904F90089588EF9FEFA0E0B0E0DDCF71
:10234000CF92DF92EF92FF921F93CF93DF93EC0136
:1023500080E2689FF0011124E75AF34F9385917151
:1023600061F0842F827449F080E0DF91CF911F915A
:10237000FF90EF90DF90CF900895142F6A8B80919B
:10238000170290911802A0911902B0911A028E873B
:102390009F87A88BB98BC488D588F12CE12C760156
:1023A000DD24CC24CF8AD88EE98EFA8E828D938D4F
:1023B000B0E0A0E0AC01BD014C295D296E297F2968
:1023C0004F8B588F698F7A8F83858871B1F4848D94
:1023D000958DA68DB78D8B8B9C8BAD8BBE8B81E045
:1023E0008D831F701C831E821F82188619861A8691
:1023F0001B861C861D8681E0B8CF803109F0B4CFE2
:102400009E012D5E3F4F8B8D9C8D0E943511882340
:1024100009F4AACF84E0E4CF8F929F92AF92BF924B
:10242000CF92DF92EF92FF920F931F93CF93DF93A0
:10243000EC018D8181110EC080E0DF91CF911F9161
:102440000F91FF90EF90DF90CF90BF90AF909F9053
:102450008F9008950B891C892D893E8904171507D3
:102460002607370748F34A015B01823031F48A8638
:102470009B86AC86BD8681E0E0CF81149104A104E7
:10248000B10449F41E821F82188619861A861B869B
:102490001C861D86F0CF0A851B852C853D85EB8D1E
:1024A000FC8D858590E00996B901A801415051093C
:1024B00061097109082E04C076956795579547956F
:1024C0000A94D2F775016401E1E0CE1AD108E1085F
:1024D000F10804C0F694E794D794C7948A95D2F78C
:1024E000C416D506E606F70620F0012B022B032BB7
:1024F00011F58F89988DA98DBA8D8E839F83A887BA
:10250000B9878E010A5F1F4FC114D104E104F104A1
:1025100009F4ADCF4E815F816885798598018B8DF7
:102520009C8D0E94B41091E0C91AD108E108F1080D
:102530008111EACF81CFC41AD50AE60AF70AE1CFA2
:102540003F924F925F926F927F928F929F92AF9243
:10255000BF92CF92DF92EF92FF920F931F93CF9390
:10256000DF93CDB7DEB72C970FB6F894DEBF0FBE62
:10257000CDBF5C01DC015B968D909C905C971696BC
:102580004D905D906D907C901997411451046104B9
:10259000710409F468C0BFEF4B1A5B0A6B0A7B0A2F
:1025A000312CF40181859285A385B4859C01AD0110
:1025B0002F5F3F4F4F4F5F4F29873A874B875C878D
:1025C000730162011D821E821F821886F4018185BB
:1025D0009285A385B4852D813E814F81588528172A
:1025E00039074A075B0708F056C089859A85AB858D
:1025F000BC858C159D05AE05BF0550F482E0C82E44
:10260000D12CE12CF12C92E0492E512C612C712C13
:102610009E012F5F3F4FB701A601C4010E94B41075
:102620008823C9F189819A81AB81BC81892B8A2B4E
:102630008B2B09F1260137019FEF491A590A690AC4
:10264000790A2D813E814F8158852F5F3F4F4F4F33
:102650005F4F2D833E834F8358873FEFC31AD30AC2
:10266000E30AF30AB3CFF4014080518062807380A3
:102670003324339496CFC414D504E604F70409F741
:102680000FEF1FEF2FEF3FE0B701A601C4010E943B
:102690001210811119C080E02C960FB6F894DEBF9D
:1026A0000FBECDBFDF91CF911F910F91FF90EF90A3
:1026B000DF90CF90BF90AF909F908F907F906F9062
:1026C0005F904F903F900895D50116964D915D9182
:1026D0006D917C911997411551056105710539F08E
:1026E00097018601C4010E9412108823A1F2D5012E
:1026F0001696CD92DD92ED92FC921997332051F00F
:10270000D701C6010196A11DB11DF40180839183FB
:10271000A283B383F5018789908DA18DB28D892B1A
:102720008A2B8B2B39F48481C78AD08EE18EF28E6E
:1027300080688483F50184818062848381E0ACCFEA
:102740002F923F924F925F926F927F928F929F92C1
:10275000AF92BF92CF92DF92EF92FF920F931F93AF
:10276000CF93DF9300D0CDB7DEB7FC018581811117
:1027700018C08FEF9FEF0F900F900F90DF91CF91C8
:102780001F910F91FF90EF90DF90CF90BF90AF908F
:102790009F908F907F906F905F904F903F902F9081
:1027A0000895848180FFE5CF4389548965897689BE
:1027B00082859385A485B585312C212C481759072E
:1027C0006A077B0719F022242394312C6F01210121
:1027D000CE0101963C01DF011696BB83AA8341140A
:1027E000510409F4C5C0F601428553856485758599
:1027F0004A01F1E09F22D6015B968D919C915C97F6
:102800008A019B01E9E03695279517950795EA958A
:10281000D1F71596EC91E230E9F5FC01628D738DEC
:10282000848D958D600F711F821F931FA12C22E054
:10283000B22EA818B9084A145B0408F45201F60134
:10284000248126FD04C0A114F2E0BF0671F40091BA
:102850001702109118022091190230911A020617DE
:1028600017072807390709F05EC040E00E94C80F2B
:10287000882309F47ECFC401875A934FD3019C016A
:102880002A0D3B1DFC012E173F0709F46CC0419136
:102890004D93F9CFDC011496BC90BA94B022811408
:1028A000910479F4B1100DC0452B462B472B69F5E7
:1028B000F6018789908DA18DB28D86839783A0873D
:1028C000B187D6015B96ED91FC915C9716966D9160
:1028D0007D918D919C91199762507109810991099F
:1028E000258504C0660F771F881F991F2A95D2F788
:1028F0000685178520893189600F711F821F931FFC
:102900006B0D711D811D911D91CFD60116964D91B4
:102910005D916D917C9119972A813B810E94B41041
:102920008111CFCF26CF730185019401AB01BC018A
:102930008091550C9091560C0E94690E882309F4E1
:1029400018CF6A0C7B1CF60182859385A485B5851A
:102950008A0D9B1DA11DB11D82879387A487B58712
:102960004A185B083CCF281B390B620E731EEBCF55
:102970002A94232809F0FDCE898190E0FCCEFC0149
:10298000818D928D009711F00C94A0138FEF9FEF23
:1029900008950F931F93CF93DF93EC01898D9A8D48
:1029A00010E000E0009799F00E94A0138C010F3F07
:1029B000100769F0898D9A8DFC01428553856485E5
:1029C000758541505109610971090E940C12C801B5
:1029D000DF91CF911F910F9108951F93CF93DF93B4
:1029E000FC012581222371F1162FEC01848187FFE0
:1029F0001EC0CF010E94504BFC01892B19F18D8123
:102A0000823040F48B899C89AD89BE89848F958FF3
:102A1000A68FB78F8F89988D938F828F8F89988D8E
:102A2000A98DBA8DB58BA48B8C818F778C83111176
:102A300003C08C818F7E8C83812FDF91CF911F917A
:102A40000C949D0F80E0DF91CF911F910895FF922C
:102A50000F931F93CF93DF93EC018D81813041F071
:102A600090E080E0DF91CF911F910F91FF9008954A
:102A70008C8181FFF5CF82FD1BC00091550C109118
:102A8000560CC8010E94F60D0E94F00DF82EC801E8
:102A90000E94DE0D8FEFF812E3CF8C8185FF1BC003
:102AA00060E0CE010E94ED148C818F7D8C83D8CFA5
:102AB0004B895C896D897E898A859B85AC85BD85BE
:102AC00084179507A607B707C1F2CE010E940C1222
:102AD0008111D3CFC5CF40912C0C50912D0C60911A
:102AE0002E0C70912F0C452B462B472B21F080E0AC
:102AF0000E94790FB5CF80618C832A853B85317028
:102B000080E092E0821B930BADCFCF93DF93EC017B
:102B100061E00E94ED14882311F01D8281E0DF91B5
:102B2000CF910895FC01818D928D009719F061E09D
:102B30000C94ED1408953F924F925F926F927F92A2
:102B40008F929F92AF92BF92CF92DF92EF92FF92BD
:102B50000F931F93CF93DF9300D000D000D01F922C
:102B60001F92CDB7DEB77C01DC0115968C918111E7
:102B700015C0FE013196CE010C966F0130E2319303
:102B8000E817F907E1F7DA0130E087E09D91B92E07
:102B9000992329F19E3239F48A3011F480E0DAC0A9
:102BA00038E08AE0F3CFEBE8F5E04491442321F0EC
:102BB00031969413FACFF2CF831780F34FED490F7C
:102BC0004E3560F74FE9490F4A3118F440EEB42E04
:102BD000B90EF601E30FF11DB0823F5FD7CF8981B7
:102BE0008032E1F2322E8B01FB01838D948DD7016F
:102BF0005C969C938E935B97168217821086118643
:102C00001286138614861586F80182859385A4851D
:102C1000B585438954896589768984179507A60700
:102C2000B70708F04DC025E0B695A795979587950D
:102C30002A95D1F7F82FFF70AF2ED80115968C91F9
:102C4000823008F4ABCFC8010E94A01397FDA6CF35
:102C5000F80182859385A485B5854F96A11DB11D88
:102C600082879387A487B587F0E2AF9EB0011124D5
:102C7000675A734F6115710509F490CFDB018C9190
:102C8000882341F0853E09F058C0BB2029F0BB24C1
:102C9000B394BACFB1100EC0F701A28A8091170287
:102CA00090911802A0911902B0911A028687978715
:102CB000A08BB18BDB018C918111E9CFBB24B39444
:102CC000832D8271823109F069CFBB2009F45AC08B
:102CD000C7010E94504B009709F460CF20E2FC012D
:102CE00011922A95E9F72BE0F601DC0101900D9293
:102CF0002A95E1F721E238E2DC0151963C932E93CC
:102D0000509740E058E01F965C934E931E97539661
:102D10003C932E93529759963C932E9358975796DF
:102D20005C934E93569781E00E949D0F882309F48F
:102D300035CF432DF70162890AC04BE050E0C60150
:102D40000E943E70892B09F05FCF432D6A2DC70189
:102D50000E94A0112B960FB6F894DEBF0FBECDBF18
:102D6000DF91CF911F910F91FF90EF90DF90CF9067
:102D7000BF90AF909F908F907F906F905F904F909B
:102D80003F900895F8018581823009F407CFC8018A
:102D90000E94A012882309F401CFD8015B96ED911F
:102DA000FC915C9716968D909D90AD90BC90199774
:102DB000B2E08B1A9108A108B108858504C0880C7F
:102DC000991CAA1CBB1C8A95D2F786859785A08979
:102DD000B189880E991EAA1EBB1E8481240135016B
:102DE000480E511C611C711C84149504A604B70480
:102DF00009F1E1E04E1A51086108710881E00E9472
:102E00009D0F882309F4CACEE9E5FCE0119289E51B
:102E10009EE08E179F07D1F740921702509218023A
:102E20006092190270921A0280912B0C816080933B
:102E30002B0CDACFD8015B96ED91FC91258580E0D3
:102E400092E0A0E0B0E004C0880F991FAA1FBB1F4A
:102E50002A95D2F7F8014389548965897689840FC8
:102E6000951FA61FB71F838B948BA58BB68BD7019D
:102E700052961C9289E59CE031CF1F93CF93DF934C
:102E8000CDB7DEB76D970FB6F894DEBF0FBECDBFDE
:102E9000AB011C821B8224EF33E03A8329831E821C
:102EA00021E0BC01CE0101960E949B1511E0811129
:102EB0000CC010E0812F6D960FB6F894DEBF0FBEE8
:102EC000CDBFDF91CF911F910895CE0101960E9451
:102ED0008515F0CFCF93DF93CDB7DEB76D970FB6E3
:102EE000F894DEBF0FBECDBF442399F1AB01BC0106
:102EF0001C821B8284EF93E09A8389831E8222E0E6
:102F0000CE0101960E949B1581110EC090E081E0D8
:102F1000911101C080E06D960FB6F894DEBF0FBE30
:102F2000CDBFDF91CF910895CE0101960E94694BEC
:102F3000882361F3CE0101960E94504B009731F334
:102F400025EEFC0120831E8281E00E949D0F982FB8
:102F5000DECF81E0E0CF2F923F924F925F926F924F
:102F60007F928F929F92AF92BF92CF92DF92EF9219
:102F7000FF920F931F93CF93DF9300D01F921F9266
:102F8000CDB7DEB77C015B01342E5D83DC01159685
:102F90008C911597813009F0CEC014962C9021FEAB
:102FA000CAC022FCB4C0C32CDD8022947FE027225B
:102FB0002094B22DB1702B2ED7011A964D915D91B0
:102FC0006D917C911D97C114D10409F428C15B96C1
:102FD0008D919C915C97FC0174807A948A019B018D
:102FE00069E036952795179507956A95D1F7702270
:102FF0008A011170711020C001151105E9F41696AF
:103000004D915D916D917C91199741155105610527
:10301000710509F099C057968D919D910D90BC91C5
:10302000A02D0097A105B10509F0B0C0C7010E940D
:10303000A012882309F47FC080E092E0801B910BEE
:1030400046018C159D0508F44C01D7015B964D9106
:103050005C915C9716968D919D910D90BC91A02DE1
:103060000297A109B109FA01258504C0880F991FAB
:10307000AA1FBB1F2A95D2F746855785608971899B
:10308000840F951FA61FB71F9C01AD01270D311D91
:10309000411D511D29013A01811432E0930609F0C6
:1030A0007BC08091170290911802A0911902B091F3
:1030B0001A0284159505A605B70559F48FEF9FEF01
:1030C000DC018093170290931802A0931902B09329
:1030D0001A02022D9501B301A2018091550C909125
:1030E000560C0E940B0F882331F19EEFB91AC818B5
:1030F000D908F70182859385A485B585880D991D2A
:10310000A11DB11D82879387A487B58755CFF7018D
:10311000438954896589768982859385A485B58597
:10312000481759076A077B0709F43DCFC7010E947A
:103130000C12811138CF81E090E0D70113969C9357
:103140008E93129780E007C09E012F5F3F4F0E9431
:10315000B410811102C090E079C089819A81AB815D
:10316000BC81F701238D348DF901278948EF5FEF8A
:1031700060E070E0203121F048EF5FEF6FEF7FE01B
:1031800084179507A607B70708F050CFF701868385
:103190009783A087B18750CF0115110599F5D70105
:1031A0001A964D915D916D917C911D9753968D91DD
:1031B0009D910D90BC91A02D481759076A077B0778
:1031C00008F181E00E949D0F882309F4B4CF40925A
:1031D0001702509218026092190270921A0280919E
:1031E0002B0C816080932B0CC801875A934FD5011B
:1031F0009C01280D391DFC012E173F0759F04D91F8
:103200004193FACF41E0C301B2010E94C80F81117E
:10321000EBCF91CF281B390BA20EB31E68CFF7015D
:1032200083899489A589B68984179507A607B70766
:1032300038F48481438B548B658B768B80688483D0
:10324000F701848183FD1AC0832D9D810F900F901B
:103250000F900F900F90DF91CF911F910F91FF90E2
:10326000EF90DF90CF90BF90AF909F908F907F9026
:103270006F905F904F903F902F90089561E0C7014D
:103280000E94ED14882309F456CFDECFCF93DF934D
:103290001F92CDB7DEB7698341E050E0BE016F5F9A
:1032A0007F4F0E94AB170F90DF91CF910895CF937E
:1032B000DF93EC01E98DFA8D309749F481E090E0DD
:1032C0009B838A8390E080E0DF91CF910895138201
:1032D0001282898D9A8D0E94AB17E98DFA8D228119
:1032E0003381232B59F7F0CFFC01DB0112968D912E
:1032F0009C9113979383828384EF93E091838083DF
:1033000014968C911497848315968C9115978583C8
:1033100016964D915D916D917C91199746835783D7
:10332000608771871A964D915D916D917C911D9783
:1033300042875387648775871E964D915D916D9185
:103340007C91519746875787608B718B52968C91F1
:103350005297828B53964D915D916D917C915697CA
:10336000438B548B658B768B57964D915D916D9108
:103370007C915A97478B508F618F728F5B968D919E
:103380009C91948F838F0895EF92FF920F931F93D8
:10339000CF93DF93EC017B018A011B821A8288EEB6
:1033A00093E0A0E0B0E08C839D83AE83BF8380E098
:1033B00094E0998388838DE190E00E94306E9A8F2B
:1033C000898F009779F02DE1F701DC0101900D92D2
:1033D0002A95E1F74CE050E0B801CE010C960E942E
:1033E0006F70188EDF91CF911F910F91FF90EF902A
:1033F0000895CF93DF93EC016EE074E086EF9EE0DA
:103400000E94FE07BE010D2E000C880B990B4AE0AE
:103410000E943A4E6AE674E086EF9EE00E94FE0744
:10342000688170E090E080E04AE00E943A4E60E1FE
:1034300074E086EF9EE00E94FE07698170E090E0F4
:1034400080E04AE00E943A4E60E174E086EF9EE040
:103450000E94FE076A817B816115710551F086EF3C
:103460009EE00E94FE0780ED96E0DF91CF910C94E4
:10347000784A62E174E0F3CFCF93DF93EC0189E502
:103480009EE00E94F103892B29F089E59EE00E94CD
:10349000CF03F5CFBE0189E59EE00E94FE076FEFE6
:1034A00089E59EE00E9433046FEF89E59EE00E946B
:1034B00033046FEF89E59EE0DF91CF910C943304E4
:1034C00083B78E7F83BFEC98EBE1F2E082E895E072
:1034D00091838083ED989383828389E194E00E94B5
:1034E0003C1A89E59EE00C94800483B78E7F83BFED
:1034F000EC98EBE1F2E082E895E091838083ED982F
:103500009383828381E294E00E943C1A89E194E0F3
:103510000E943C1A89E59EE00C9480048F929F9251
:10352000AF92BF92CF92DF92EF92FF924B015C017C
:103530000E9470096B017C010E9470096C197D0961
:103540008E099F09681579058A059B0518F40E9464
:10355000B84EF2CFFF90EF90DF90CF90BF90AF903A
:103560009F908F90089588E294E00E943C1A809189
:103570001C0C811128C064E670E080E090E00E949D
:103580008E1A89E59EE00E94800483B7816083BF24
:1035900020E63AE130931C0220931B0280916A00DE
:1035A0008C7F80936A00EC9A30931E0220931D0258
:1035B00080916A00837F80936A00ED9A83B7817F50
:1035C000846083BF8895089564E670E080E090E0B1
:1035D0000E948E1A80E394E00E943C1A87E394E0F4
:1035E0000E943C1A88E294E00E943C1A89E59EE021
:1035F0000E94800483B7816083BFABE1B2E025E71E
:103600003AE111963C932E93EAE6F0E080818C7FBC
:103610008083EC9A13963C932E9312978081837F3C
:103620008083ED9A83B7817F846083BF88950895F6
:1036300081EE96E10C94E41A2F923F924F925F92A2
:103640006F927F928F929F92AF92BF92CF92DF92B2
:10365000EF92FF920F931F93CF93DF93CDB7DEB717
:10366000E7970FB6F894DEBF0FBECDBF8FEF93E0A4
:103670000E94BC6C843559F00E94A6068FEF93E03F
:103680009A83898364E5CE0101960E9467068E01C4
:103690000F5F1F4FEE24E394F12CC7010E94BC6C16
:1036A000F80181938F01FFEFEF1AFF0A86E3E81616
:1036B000F10499F789819A819093C1038093C003A3
:1036C0008B819C819093C3038093C2038D819E81E3
:1036D000AF81B8858093360290933702A093380269
:1036E000B093390289859A85AB85BC858093320277
:1036F00090933302A0933402B09335028D8580936A
:10370000150C6E857F85888999890E94CB6D709391
:103710000502609304028A899B89AC89BD898093E4
:10372000110C9093120CA093130CB093140C8E896F
:103730009F89A88DB98D8093C5039093C603A093EC
:10374000C703B093C8038A8D9B8D9093190C809307
:10375000180C8C8D9D8D9093BF038093BE038E8D2E
:103760008093240CAF8CB8A0B0921402A0921302E4
:10377000C9A0DAA0D0921202C09211026BA07CA064
:103780007092100260920F024DA05EA050920E0245
:1037900040920D022FA038A430920C0220920B020E
:1037A00089A49AA490920A02809209020BA51CA5F2
:1037B00010930702009306028DA59EA590931B0C03
:1037C00080931A0C8FA598A99093220C8093210CBA
:1037D00089A98093230C8AA98093C4038BA9809321
:1037E0001C0C8CA99DA99093170C8093160CEBE2EE
:1037F000F2E0FFABEEAB88ECE82EF12CC7010E94A3
:10380000BC6CEEA9FFA98193FFABEEABFFEFEF1A03
:10381000FF0A8FECE816F10489F703301105B1F1C6
:10382000FCF40130110541F10230110551F1E79628
:103830000FB6F894DEBF0FBECDBFDF91CF911F91C1
:103840000F91FF90EF90DF90CF90BF90AF909F903F
:103850008F907F906F905F904F903F902F90089542
:1038600005301105E9F0BCF00630110501F7909222
:10387000160280921502DBCFB0921602A0921502BA
:10388000D6CFD0921602C0921502D1CF70921602F6
:1038900060921502CCCF5092160240921502C7CF0B
:1038A0003092160220921502C2CFEF92FF920F9330
:1038B0001F93CF93DF9300D000D0CDB7DEB77C014C
:1038C0008B016EE674E0CE0101960E94DE07F701DF
:1038D00062817381CE0101960E947D506EE374E097
:1038E000CE0101960E947D50B801CE0101960E9442
:1038F0007D5063E474E0CE0101960E947D50898181
:103900009A810E943C1A0E94D84A182FCE01019633
:103910000E947251812F26960FB6F894DEBF0FBE1B
:10392000CDBFDF91CF911F910F91FF90EF90089540
:10393000CF93DF93CDB7DEB7C456D1090FB6F89455
:10394000DEBF0FBECDBF44E650E0BE016F5F7F4FCC
:103950000E94124BBE016F5F7F4F81EE96E10E9485
:10396000551CBE016F5F7F4F8DEB96E10E94551C89
:10397000CC59DF4F0FB6F894DEBF0FBECDBFDF913D
:10398000CF910895CF93DF93CDB7DEB76E970FB683
:10399000F894DEBF0FBECDBF4EE150E0BE016F5FB9
:1039A0007F4F0E94124BBE016F5F7F4F85EA93E10C
:1039B0000E94551C6E960FB6F894DEBF0FBECDBFA9
:1039C000DF91CF9108950E94560B8091C40381111D
:1039D00013C081E08093C4038091C40365E474E064
:1039E000882311F067E474E089EB97E10E94551C8D
:1039F0000E94A6060C9407061092C403EDCF8F9286
:103A00009F92AF92BF92EF92FF920F931F93CF932B
:103A1000DF93CDB7DEB760970FB6F894DEBF0FBE69
:103A2000CDBF7C014A018E010F5F1F4F8AE0F80174
:103A300011928A95E9F76EE674E0CE010B960E942A
:103A4000DE074AE0B801C4010E94EC69F701628117
:103A50007381CE010B960E947D506CE474E0CE0120
:103A60000B960E947D50B801CE010B960E947D50AE
:103A70008B859C850E943C1A0E94D84A182FCE0143
:103A80000B960E947251812F60960FB6F894DEBF9C
:103A90000FBECDBFDF91CF911F910F91FF90EF909F
:103AA000BF90AF909F908F90089520E030E040E865
:103AB0005FE36091360270913702809138029091F5
:103AC00039020E94EC6C0E94D26DAB01BC0181E412
:103AD00098E10E94FF1C609136027091370280913C
:103AE0003802909139020E94D26DAB01BC0181E491
:103AF00098E10C94FF1C21E030E0309316022093F3
:103B0000150280910602909107028330910509F415
:103B10006BC00CF053C08130910509F45BC0029773
:103B200009F45DC04091130250911402052E000C5F
:103B3000660B770B8DEC95E10E94FF1C4091110202
:103B400050911202052E000C660B770B81EC95E16B
:103B50000E94FF1C40910F0250911002052E000C94
:103B6000660B770B85EB95E10E94FF1C40910D02DF
:103B700050910E02052E000C660B770B89EA95E139
:103B80000E94FF1C40910B0250910C02052E000C6C
:103B9000660B770B8DE995E10E94FF1C40910902AD
:103BA00050910A02052E000C660B770B81E995E116
:103BB0000E94FF1C0E94A6060C9407068530910502
:103BC000E9F0BCF0069709F0ADCF30930A022093DC
:103BD0000902A8CF9093140280931302A3CF3093CD
:103BE0001202209311029ECF3093100220930F02F5
:103BF00099CF30930E0220930D0294CF30930C0294
:103C000020930B028FCFCF93DF93CDB7DEB76E97A4
:103C10000FB6F894DEBF0FBECDBF20910802211170
:103C200004C02091100C222329F14EE150E0BE0186
:103C30006F5F7F4F0E94124BBE016F5F7F4F81EB22
:103C400096E10E94551CBE016F5F7F4F85EA96E1A9
:103C50000E94551C609136027091370280913802A3
:103C6000909139020E94D26DAB01BC0181E290E1DA
:103C70000E94FF1C6E960FB6F894DEBF0FBECDBF3C
:103C8000DF91CF91089540911C0C50E070E060E00E
:103C900089EE98E10E94FF1C0C94070681E494E1F0
:103CA0000C94431E81E494E10C94431E81E494E15E
:103CB0000C94431E81E494E10C94431E80911C0CEF
:103CC00081110FC081E080931C0C41E050E060E066
:103CD00070E089EE98E10E94FF1C0E94A6060C94F9
:103CE000070610921C0C40E050E0BA01F2CF89EEBA
:103CF00098E10C945E1EEF92FF920F931F93CF9367
:103D0000DF93CDB7DEB72E970FB6F894DEBF0FBEA8
:103D1000CDBF7C018B0162E574E0CE0109960E9463
:103D2000DE07F70162817381CE0109960E947D5002
:103D300067E574E0CE0109960E947D5089859A85D9
:103D40000E943C1ACE01019628E0FC0111922A95AE
:103D5000E9F744E650E060E070E040935D0E509378
:103D60005E0E60935F0E7093600E68E070E00E94DC
:103D70008B4A089709F053C08981813709F04FC0F9
:103D80008E818F3F09F04BC08F818F3F09F047C074
:103D900088858F3F09F043C02D818C8190E0B0E091
:103DA000A0E0DC0199278827B22B2A81822B4B8146
:103DB00050E0542F4427052E000C660B770B842B04
:103DC000952BA62BB72BF80180839183A283B38315
:103DD0006CE574E086EF9EE00E94FE07F8016081CA
:103DE0007181828193814AE00E943A4E6CE674E0D0
:103DF00086EF9EE00E94EF0711E0CE0109960E9437
:103E00007251812F2E960FB6F894DEBF0FBECDBF34
:103E1000DF91CF911F910F91FF90EF9008958FE662
:103E200094E00E94784A10E0E8CFCF93DF9300D06F
:103E30001F92CDB7DEB719821A821B821C82BE0187
:103E40006F5F7F4F89E696E10E947B1E49815A8110
:103E50006B817C8189ED95E10E94FF1C89819A81AB
:103E60009093BF038093BE030E94A6060E9407069C
:103E70000F900F900F900F90DF91CF910895CF92F8
:103E8000DF92EF92FF92CF93DF9300D01F92CDB7D6
:103E9000DEB719821A821B821C82BE016F5F7F4FC0
:103EA00085E796E10E947B1E49815A816B817C8166
:103EB00081EF95E10E94FF1C69817A818B819C8151
:103EC0000E949A6B6093C5037093C6038093C703E7
:103ED0009093C8030E94A60620E030E048EC52E42C
:103EE0006091C5037091C6038091C7039091C80388
:103EF0000E94596D6B017C0120913602309137028E
:103F0000409138025091390260E070E086E994E413
:103F10000E94596D9B01AC01C701B6010E94FB6B69
:103F200060933D0C70933E0C80933F0C9093400C3B
:103F30000E9407060F900F900F900F90DF91CF9186
:103F4000FF90EF90DF90CF9008950F931F93CF9342
:103F5000DF9300D01F92CDB7DEB719821A821B8281
:103F60001C82BE016F5F7F4F81E896E10E947B1E3D
:103F700049815A816B817C818DEF95E10E94FF1C04
:103F80009981492F8A819093C2038093C3036091E2
:103F9000C0037091C103072E000C880B990B00E041
:103FA00010E098010E94B04D64EF71E080E090E075
:103FB0000E9425090E941E0B0E94A6060F900F90DA
:103FC0000F900F90DF91CF911F910F9108950F9354
:103FD0001F93CF93DF9300D01F92CDB7DEB7198226
:103FE0001A821B821C82BE016F5F7F4F8DE896E1B3
:103FF0000E947B1E69817A817093C1036093C00324
:10400000072E000C880B990B00E010E098014091FE
:10401000C2030E94B04D64EF71E080E090E00E9426
:1040200025090E941E0B0E94A6060F900F900F906C
:104030000F90DF91CF911F910F91089586E090E04E
:10404000909307028093060260E072E081E995E1B7
:104050000E947B1E809100029091010290931602B3
:10406000809315020E94A6060C94070685E090E056
:10407000909307028093060260E072E08DE995E17B
:104080000E947B1E80910002909101029093160283
:10409000809315020E94A6060C94070684E090E027
:1040A000909307028093060260E072E089EA95E14E
:1040B0000E947B1E80910002909101029093160253
:1040C000809315020E94A6060C94070683E090E0F8
:1040D000909307028093060260E072E085EB95E121
:1040E0000E947B1E80910002909101029093160223
:1040F000809315020E94A6060C94070682E090E0C9
:10410000909307028093060260E072E081EC95E1F3
:104110000E947B1E809100029091010290931602F2
:10412000809315020E94A6060C94070681E090E099
:10413000909307028093060260E072E08DEC95E1B7
:104140000E947B1E809100029091010290931602C2
:10415000809315020E94A6060C940706CF93DF9366
:1041600000D01F92CDB7DEB7BE016F5F7F4F85E4F1
:1041700096E10E947B1E89819A81AB81BC81009768
:10418000A105B10579F41092170C1092160C0E943B
:1041900007060E94A6060F900F900F900F90DF91D8
:1041A000CF9108950197A105B10589F781E090E0CD
:1041B0009093170C8093160CEACFCF93DF9300D027
:1041C0001F92CDB7DEB7BE016F5F7F4F81E596E1ED
:1041D0000E947B1E89819A81AB81BC8181309105CF
:1041E000A105B10559F4109208020E9407060F902C
:1041F0000F900F900F90DF91CF910895892B8A2B0C
:104200008B2B99F781E080930802EFCFCF93DF9358
:1042100000D01F92CDB7DEB7BE016F5F7F4F81E246
:1042200096E10E947B1E89819A81AB81BC8181309D
:104230009105A105B10589F481E090E09093220CED
:104240008093210C0E9407060E94A6060F900F90F3
:104250000F900F90DF91CF910895892B8A2B8B2B94
:1042600089F71092220C1092210CECCF8F929F9222
:10427000AF92BF92EF92FF920F931F93CF93DF9372
:10428000CDB7DEB760970FB6F894DEBF0FBECDBFD7
:104290007C014A018E010F5F1F4F8AE0F8011192E5
:1042A0008A95E9F76EE674E0CE010B960E94DE0770
:1042B0004AE0B801C4010E94EC69F7016281738190
:1042C000CE010B960E947D5061E874E0CE010B9602
:1042D0000E947D50B801CE010B960E947D508B85C7
:1042E0009C850E943C1A6EE674E0CE010B960E94FB
:1042F000255167E874E0CE010B960E947D50F701CE
:1043000062817381CE010B960E947D508B859C85C6
:104310000E943C1A0E94D84A182FCE010B960E9488
:104320007251812F60960FB6F894DEBF0FBECDBFDD
:10433000DF91CF911F910F91FF90EF90BF90AF90C1
:104340009F908F9008958091230C9091240C992335
:1043500069F04FEF5FEF60E070E0811103C040E073
:1043600050E0BA0185E190E10C9436218823B9F33D
:1043700040E058EF60E070E0F5CF8F929F92AF92EF
:10438000BF92EF92FF920F931F93CF93DF93CDB71E
:10439000DEB760970FB6F894DEBF0FBECDBF7C01CD
:1043A0004A018E010F5F1F4F8AE0F80111928A9532
:1043B000E9F76EE674E0CE010B960E94DE074AE054
:1043C000B801C4010E94EC69F70162817381CE01DA
:1043D0000B960E947D506CE874E0CE010B960E9413
:1043E0007D50B801CE010B960E947D508B859C8537
:1043F0000E943C1A6EE674E0CE010B960E94255195
:1044000067E874E0CE010B960E947D50F70162814F
:104410007381CE010B960E947D508B859C850E94F6
:104420003C1A0E94D84A182FCE010B960E94725156
:10443000812F60960FB6F894DEBF0FBECDBFDF911F
:10444000CF911F910F91FF90EF90BF90AF909F90F1
:104450008F9008954FEF5FEF60E070E089E297E1A1
:104460000E94BD214FEF5FEF60E070E089E297E1CD
:104470000E9436214FEF5FEF60E070E08DEE96E135
:104480000E94BD214FEF5FEF60E070E08DEE96E19E
:104490000E9436211092270C089540E058EF60E00A
:1044A00070E089E297E10E94BD2140E058EF60E0B2
:1044B00070E089E297E10E94362140E058EF60E029
:1044C00070E08DEE96E10E94BD2140E058EF60E083
:1044D00070E08DEE96E10E94362181E08093270CFA
:1044E00008954FEF5FEF60E070E085E397E10E9491
:1044F000BD214FEF5FEF60E070E085E397E10E9440
:1045000036214FEF5FEF60E070E089EF96E10E94A7
:10451000BD214FEF5FEF60E070E089EF96E10E9410
:1045200036211092260C08954FEF5FEF60E070E0A7
:1045300089E597E10E94BD214FEF5FEF60E070E0F9
:1045400089E597E10E9436214FEF5FEF60E070E070
:104550008DE197E10E94BD214FEF5FEF60E070E0D9
:104560008DE197E10E9436211092250C08954FEFBE
:104570005FEF60E070E089E597E10E94BD2140E0D7
:1045800058EF60E070E089E597E10E9436214FEF37
:104590005FEF60E070E08DE197E10E94BD2140E0B7
:1045A00058EF60E070E08DE197E10E94362181E0F4
:1045B0008093250C089581E08093280C0E94804E02
:1045C0000E94B7221092200C10921F0C6EE674E02D
:1045D00084EF9FE00C94255140E058EF60E070E0DC
:1045E00089E597E10E94BD2140E058EF60E070E06E
:1045F00089E597E10E94362140E058EF60E070E0E5
:104600008DE197E10E94BD2140E058EF60E070E04D
:104610008DE197E10E94362181E08093250C089579
:104620008091260C81113BC08091250C81110E9444
:10463000CA0580910F0C811104C08091270C88233A
:1046400091F16EE674E08EEE9FE00E946850811159
:104650002AC00E94580940E058EF60E070E085E30E
:1046600097E10E94BD2140E058EF60E070E085E3F3
:1046700097E10E94362140E058EF60E070E089EF5A
:1046800096E10E94BD2140E058EF60E070E089EFC4
:1046900096E10E94362181E08093260C08950E94C5
:1046A00071220C940706089581E399E10C9410237C
:1046B0000E941C1B8091240C8111A2C061E47CE04B
:1046C00089EC96E10E94551C81E08093240C0E94A5
:1046D000A3218091240C882309F49BC08091210C94
:1046E0009091220C892B31F462E974E081EB93E123
:1046F0000E94551C8091210C9091220C019731F45D
:104700006AE974E081EB93E10E94551C40E05CEFA4
:1047100060E070E081EB93E10E94BD2140E05CEF3E
:1047200060E070E085ED90E10E94BD2140E05CEF2B
:1047300060E070E085EA90E10E94BD2140E05CEF1E
:1047400060E070E089E990E10E94BD2140E05CEF0B
:1047500060E070E08DE890E10E94BD2140E05CEFF8
:1047600060E070E081E890E10E94BD2140E05CEFF4
:1047700060E070E085E790E10E94BD2140E05CEFE1
:1047800060E070E089E690E10E94BD2140E05CEFCE
:1047900060E070E08DE590E10E94BD2140E05CEFBB
:1047A00060E070E081E590E10E94BD2140E05CEFB7
:1047B00060E070E085E490E10E94BD2140E05CEFA4
:1047C00060E070E089E390E10E94BD2140E05CEF91
:1047D00060E070E085E190E10E94BD2140E05CEF87
:1047E00060E070E08DE798E10E94BD2167E977E025
:1047F0008DE798E10E94551C0E94A6060C940706BE
:104800006BE272E089EC96E10E94551C1092240C38
:104810005ECF60EA74E081EB93E10E94551C48EEA4
:1048200057E060E070E081EB93E10E94BD2140EE33
:1048300057E060E070E085ED90E10E94BD2140E02E
:1048400050E0BA0185EA90E10E94BD2140E050E0CD
:10485000BA0189E990E10E94BD2140E050E0BA012F
:104860008DE890E10E94BD2140E050E0BA0181E86E
:1048700090E10E94BD2140E050E0BA0185E790E15F
:104880000E94BD2140E050E0BA0189E690E10E941B
:10489000BD2140E050E0BA018DE590E10E94BD21CC
:1048A00040E050E0BA0181E590E10E94BD2140E086
:1048B00050E0BA0185E490E10E94BD2140E050E063
:1048C000BA0189E390E10E94BD214FEF57E860E013
:1048D00070E085E190E10E94BD214FEF57E860E074
:1048E00070E08DE798E10E94BD2167EA74E080CF17
:1048F0004FEF57E860E070E081ED98E10E94BD2144
:104900004FEF57E860E070E089EB98E10E94BD212D
:104910004FEF57E860E070E08DEA98E10E94BD211A
:104920004FEF57E860E070E081EA98E10E94BD2116
:1049300040EF5FEF60E070E085E998E10E94BD2103
:104940000C9407064FEF57E860E070E081ED98E1C6
:104950000E94BD214FEF57E860E070E089EB98E1DD
:104960000E94BD214FEF57E860E070E08DEA98E1CA
:104970000E94BD2140EF5FEF60E070E081EA98E1C6
:104980000E94BD214FEF57E860E070E085E998E1B3
:104990000E94BD210C9407064FEF57E860E070E0DD
:1049A00081ED98E10E94BD214FEF57E860E070E093
:1049B00089EB98E10E94BD2140EF5FEF60E070E07D
:1049C0008DEA98E10E94BD214FEF57E860E070E06A
:1049D00081EA98E10E94BD214FEF57E860E070E066
:1049E00085E998E10E94BD210C9407064FEF57E836
:1049F00060E070E081ED98E10E94BD2140EF5FEF43
:104A000060E070E089EB98E10E94BD214FEF57E82C
:104A100060E070E08DEA98E10E94BD214FEF57E819
:104A200060E070E081EA98E10E94BD214FEF57E815
:104A300060E070E085E998E10E94BD210C940706D2
:104A400040EF5FEF60E070E081ED98E10E94BD21F2
:104A50004FEF57E860E070E089EB98E10E94BD21DC
:104A60004FEF57E860E070E08DEA98E10E94BD21C9
:104A70004FEF57E860E070E081EA98E10E94BD21C5
:104A80004FEF57E860E070E085E998E10E94BD21B2
:104A90000E9407068DE699E10C94B31A40EF5FEF90
:104AA00060E070E081ED98E10E94BD214FEF57E892
:104AB00060E070E089EB98E10E94BD214FEF57E87C
:104AC00060E070E08DEA98E10E94BD214FEF57E869
:104AD00060E070E081EA98E10E94BD214FEF57E865
:104AE00060E070E085E998E10E94BD210C94070622
:104AF000CF93DF9300D000D0CDB7DEB78091580CB4
:104B0000811102C00E9407060E94560B6EE674E0F7
:104B100084EF9FE00E9425511092200C10921F0CF0
:104B20001092110C1092120C1092130C1092140C83
:104B300080910F0C882311F14FEF5FEF60E070E080
:104B40008DE497E10E94BD214FEF5FEF60E070E0E0
:104B50008DE497E10E9436214FEF5FEF60E070E057
:104B600081E197E10E94BD214FEF5FEF60E070E0CF
:104B700081E197E10E94362110920F0C80911D0C6B
:104B8000882311F14FEF5FEF60E070E081E497E17F
:104B90000E94BD214FEF5FEF60E070E081E497E19C
:104BA0000E9436214FEF5FEF60E070E085E097E113
:104BB0000E94BD214FEF5FEF60E070E085E097E17C
:104BC0000E94362110921D0C8091260C81110E94AA
:104BD00071228091270C81110E942A220E94EC22CE
:104BE0006BEA74E0CE0101960E94DE07CE010196C9
:104BF0000E94981CCE0101960E94725165E97BE0EB
:104C0000CE0101960E94DE07CE0101960E94C21CD1
:104C1000CE0101960E9472518091080280930E0C81
:104C200081E08093080265E97BE0CE0101960E9455
:104C3000DE07CE0101960E94031ECE0101960E945E
:104C4000725180910E0C809308026EE674E08EEE35
:104C50009FE00E9425516091110C7091120C80917F
:104C6000130C9091140C0E94D26DAB01BC0185E62F
:104C700097E10E94FF1C6091110C7091120C8091C1
:104C8000130C9091140C0E94D26DAB01BC018DE20B
:104C900090E10E94FF1C0E94A6060E941C1B10921D
:104CA000570C10921E0C26960FB6F894DEBF0FBE5E
:104CB000CDBFDF91CF91089585EF98E10C947825D1
:104CC000CF93DF93CDB7DEB72C970FB6F894DEBF46
:104CD0000FBECDBF6EE674E0CE0107960E94DE07E0
:104CE0000E941C1B6091150270911602CE01019664
:104CF0000E942F51BE016F5F7F4FCE0107960E9429
:104D00008C50CE0101960E94725146E050E0BE01E7
:104D10006F5F7F4FCE0107960E94124BBE016F5FFF
:104D20007F4F85E190E10E94551C0E94A321809154
:104D3000240C882309F4A7C08091210C9091220CA7
:104D4000892B31F462E974E081EB93E10E94551CF8
:104D50008091210C9091220C019731F46AE974E062
:104D600081EB93E10E94551C40E05CEF60E070E055
:104D700081EB93E10E94BD2140E05CEF60E070E0D8
:104D800085ED90E10E94BD2140E05CEF60E070E0C5
:104D900085EA90E10E94BD2140E05CEF60E070E0B8
:104DA00089E990E10E94BD2140E05CEF60E070E0A5
:104DB0008DE890E10E94BD2140E05CEF60E070E092
:104DC00081E890E10E94BD2140E05CEF60E070E08E
:104DD00085E790E10E94BD2140E05CEF60E070E07B
:104DE00089E690E10E94BD2140E05CEF60E070E068
:104DF0008DE590E10E94BD2140E05CEF60E070E055
:104E000081E590E10E94BD2140E05CEF60E070E050
:104E100085E490E10E94BD2140E05CEF60E070E03D
:104E200089E390E10E94BD2140E05CEF60E070E02A
:104E300085E190E10E94BD2140E05CEF60E070E020
:104E40008DE798E10E94BD2167E977E08DE798E161
:104E50000E94551C61E47CE089EC96E10E94551C9F
:104E600085EF98E10E9478250E940706CE010796FB
:104E70000E9472512C960FB6F894DEBF0FBECDBFC4
:104E8000DF91CF91089560EA74E081EB93E10E9495
:104E9000551C48EE57E060E070E081EB93E10E9422
:104EA000BD2140EE57E060E070E085ED90E10E94AA
:104EB000BD2140E050E0BA0185EA90E10E94BD21A9
:104EC00040E050E0BA0189E990E10E94BD2140E054
:104ED00050E0BA018DE890E10E94BD2140E050E031
:104EE000BA0181E890E10E94BD2140E050E0BA01A2
:104EF00085E790E10E94BD2140E050E0BA0189E6DB
:104F000090E10E94BD2140E050E0BA018DE590E1C2
:104F10000E94BD2140E050E0BA0181E590E10E948D
:104F2000BD2140E050E0BA0185E490E10E94BD213E
:104F300040E050E0BA0189E390E10E94BD214FEFCB
:104F400057E860E070E085E190E10E94BD214FEFFD
:104F500057E860E070E08DE798E10E94BD2167EAC4
:104F600074E08DE798E10E94551C6BE272E074CF0B
:104F700085EC94E10C94602685EC94E10C94602619
:104F800085EC94E10C94602685EC94E10C94602609
:104F90001092200C10921F0C6BE272E085ED96E1EE
:104FA0000E94551C60913602709137028091380240
:104FB000909139020E94D26DAB01BC0181E498E16D
:104FC0000E94FF1C60913602709137028091380276
:104FD000909139020E94D26DAB01BC0189E897E142
:104FE0000E94FF1C8091150C882339F040E050E0AE
:104FF000BA018DE797E10E94362140910402509159
:105000000502052E000C660B770B8DE797E10E94D9
:10501000FF1C6091320270913302809134029091B2
:1050200035020E94D26DAB01BC0181E797E10E947D
:10503000FF1C6091110C7091120C8091130C9091D7
:10504000140C0E94D26DAB01BC0185E697E10E9471
:10505000FF1C40911C0C50E070E060E089EE98E18C
:105060000E94FF1C8091C40365E474E0882311F062
:1050700067E474E089EB97E10E94551C85EF98E1A5
:105080000C94782581EA97E10C94C82781EA97E18E
:105090000C94C82781EA97E10C94C82781EA97E12C
:1050A0000C94C82781EA97E10C94C82781EA97E11C
:1050B0000C94C827CF93DF9300D01F92CDB7DEB7F3
:1050C00019821A821B821C82BE016F5F7F4F89E9A1
:1050D00096E10E947B1E89819A81AB81BC818230DE
:1050E0009105A105B105E1F1A8F40097A105B1056D
:1050F00019F10197A105B10551F10E94070685EF4D
:1051000098E10E9478250F900F900F900F90DF91FB
:10511000CF91089583309105A105B10551F1049710
:10512000A105B10551F784E090E09093190C8093AC
:10513000180C6AEC74E006C01092190C1092180C4E
:105140006FEA74E085E196E10E94551CD6CF81E0BC
:1051500090E09093190C8093180C66EB74E0F2CFFA
:1051600082E090E09093190C8093180C6FEB74E040
:10517000E9CF83E090E09093190C8093180C63ECD6
:1051800074E0E0CF8F929F92AF92BF92CF92DF9266
:10519000EF92FF9280911F0C9091200C0197029743
:1051A00008F045C08091F40F9091F50FC12CD12CDF
:1051B0007601009721F00E94A1696B017C01C092E9
:1051C0003602D0923702E0923802F0923902C09251
:1051D0003202D0923302E0923402F092350220E0A3
:1051E00030E048EC52E46091C5037091C6038091B1
:1051F000C7039091C8030E94596D4B015C01A70140
:10520000960160E070E086E994E40E94596D9B018C
:10521000AC01C501B4010E94FB6B60933D0C70931F
:105220003E0C80933F0C9093400C0E94A606809108
:105230001F0C9091200C892B31F48091280C811146
:1052400002C00E94CA0560913602709137028091B7
:105250003802909139020E94D26DAB01BC0181E409
:1052600098E10E94FF1C6091360270913702809194
:105270003802909139020E94D26DAB01BC0189E8DD
:1052800097E10E94FF1C609132027091330280917D
:105290003402909135020E94D26DAB01BC0181E7CE
:1052A00097E10E94FF1C6091360270913702809155
:1052B0003802909139020E94D26DAB01BC0181E2AB
:1052C00090E10E94FF1C85EF98E1FF90EF90DF9046
:1052D000CF90BF90AF909F908F900C947825CF93F4
:1052E000DF9300D000D0CDB7DEB78091240C8111C0
:1052F0000DC08DE099E10E94C22826960FB6F89461
:10530000DEBF0FBECDBFDF91CF91089581E090E069
:105310009093200C80931F0C67E977E084EF9FE067
:105320000E94255164EF7FE0CE0101960E94D507CF
:10533000CE0101960E94981CCE0101960E947251E6
:10534000DCCF8091280C81115CC080911F0C909162
:10535000200C019709F03BC081E08093150C0E945E
:10536000484F7093050260930402AB01770F660B00
:10537000770B8DE797E10E94FF1C40E050E0BA01F7
:105380008DE797E10E943621E0910402F091050239
:10539000EA30F105E0F48827EF52F64D8F4F0C9478
:1053A000286EDB29052A0A2A0F2A142A192A1E2AFE
:1053B000232A282A2D2A8DEC9CECACECBEEB8093A2
:1053C0000A0C90930B0CA0930C0CB0930D0C8091D5
:1053D0001F0C9091200C892B51F41092150C40EE6B
:1053E0005FEF60E070E08DE797E10E9436218091E9
:1053F0001F0C9091200C029714F00E94CA050E9485
:10540000A60685EF98E10C9478258AE999E9A9E93F
:10541000BEEBD5CF8DEC9CECACE4BEEBD0CF8DECED
:105420009CECACECBDEBCBCF8DEC9CECACE4BDEBE1
:10543000C6CF8DEC9CECACE4BDE3C1CF8DEC9CEC15
:10544000ACECBDE3BCCF8DEC9CECACE4BEE3B7CFE1
:105450008AE999E9A9E9BEE3B2CF8DEC9CECACEC0A
:10546000BEE3ADCF4F925F926F927F928F929F92E9
:10547000AF92BF92CF92DF92EF92FF92CF93DF93E2
:1054800000D01F92CDB7DEB7C0903602D090370261
:10549000E0903802F09039028091280C81111AC0F6
:1054A0000E94484F0E949C6B6093320270933302BB
:1054B000809334029093350280911F0C9091200CC0
:1054C000892B41F4C0923202D0923302E09234022E
:1054D000F0923502409032025090330260903402D4
:1054E0007090350220E030E048EC52E46091C50352
:1054F0007091C6038091C7039091C8030E94596DB3
:105500004B015C0120E030E046E953E4C701B601FD
:105510000E94FB6B69837A838B839C8320E030E05D
:105520004AE353E4C301B2010E94FB6B9B01AC014F
:1055300069817A818B819C810E94EC6C9B01AC011A
:10554000C501B4010E94FB6B4B015C0120E030E01F
:105550004EEB52E4C701B6010E94FB6BA30192011E
:105560000E94FB6B9B01AC01C501B4010E94596D07
:1055700020E030E04AE754E40E94FB6B6093390C72
:1055800070933A0C80933B0C90933C0C20E030E0FD
:10559000A9010E94016E87FD28C00E94A6066091A5
:1055A00032027091330280913402909135020E9450
:1055B000D26DAB01BC0181E797E10E94FF1C85EF32
:1055C00098E10F900F900F900F90DF91CF91FF9087
:1055D000EF90DF90CF90BF90AF909F908F907F9093
:1055E0006F905F904F900C9478250E94CA05E7CF8A
:1055F0008091280C882321F085EF98E10C94782580
:105600008091250C882349F10E94942240E058EFB4
:1056100060E070E08DE497E10E94BD2140E058EF2A
:1056200060E070E08DE497E10E94362140E058EFA1
:1056300060E070E081E197E10E94BD2140E058EF19
:1056400060E070E081E197E10E94362181E0809383
:105650000F0C8093570C0C94A6061092570C85EFF4
:1056600098E10E947825F7CFCF93DF9300D000D048
:10567000CDB7DEB78091260C882359F16EE674E031
:105680008EEE9FE00E9425516EE674E0CE010196F9
:105690000E94DE07CE0101960E94C21CCE01019637
:1056A0000E9472516EE674E0CE0101960E94DE0700
:1056B000CE0101960E94031ECE0101960E947251F6
:1056C00026960FB6F894DEBF0FBECDBFDF91CF9107
:1056D00008958091280C811160C00E940706809176
:1056E0001F0C9091200C8130910509F446C0823046
:1056F000910509F442C0892B09F04CC01092110C9D
:105700001092120C1092130C1092140C6EE674E0AE
:1057100084EF9FE00E9425511092200C10921F0CE4
:105720006091110C7091120C8091130C9091140CDB
:105730000E94D26DAB01BC0185E697E10E94FF1C7F
:105740006091110C7091120C8091130C9091140CBB
:105750000E94D26DAB01BC018DE290E10E94FF1C62
:105760000E94A6066BEA74E0CE0101960E94DE0755
:10577000CE0101960E94981C9FCF0E94484F0E9424
:105780009C6B6093110C7093120C8093130C90938C
:10579000140CBCCF0E94CA05E5CF85EF98E10E94AA
:1057A00078258ECF89E499E10C94342BCF93DF9345
:1057B00000D000D0CDB7DEB76EEE7FE0CE0101960F
:1057C0000E94D50763ED74E0CE0101960E94DB5084
:1057D000BC018EEE9FE00E945B51CE0101960E94BB
:1057E000725126960FB6F894DEBF0FBECDBFDF9183
:1057F000CF910895CF93DF9300D000D0CDB7DEB71F
:105800006EEE7FE0CE0101960E94D50766ED74E052
:10581000CE0101960E94DB50BC018EEE9FE00E94FB
:105820005B51CE0101960E94725126960FB6F894F4
:10583000DEBF0FBECDBFDF91CF910895CF93DF9331
:1058400000D000D0CDB7DEB76EEE7FE0CE0101967E
:105850000E94D5076AED74E0CE0101960E94DB50EC
:10586000BC018EEE9FE00E945B51CE0101960E942A
:10587000725126960FB6F894DEBF0FBECDBFDF91F2
:10588000CF910895CF93DF9300D000D0CDB7DEB78E
:1058900080911D0C9091240C6EEE7FE0911125C03B
:1058A0008823E1F0CE0101960E94D5076EED74E0E9
:1058B000CE0101960E94DB50BC018EEE9FE00E945B
:1058C0005B51CE0101960E94725126960FB6F89454
:1058D000DEBF0FBECDBFDF91CF910895CE010196FF
:1058E0000E94D5076BE272E0E3CF882339F0CE0146
:1058F00001960E94D50760EE74E0DACFCE010196E2
:105900000E94D50761E47CE0D3CFCF93DF9300D032
:1059100000D0CDB7DEB76EEE7FE0CE0101960E94DB
:10592000D5076EE074E0CE0101960E94DB50BC0109
:105930008EEE9FE00E945B51CE0101960E94725153
:1059400026960FB6F894DEBF0FBECDBFDF91CF9184
:105950000895CF93DF9300D000D0CDB7DEB76EEEC1
:105960007FE0CE0101960E94D50760ED76E0CE0182
:1059700001960E94DB50BC018EEE9FE00E945B51BD
:10598000CE0101960E94725126960FB6F894DEBFA2
:105990000FBECDBFDF91CF910895CF93DF9300D09D
:1059A00000D0CDB7DEB76EEE7FE0CE0101960E944B
:1059B000D50762EE74E0CE0101960E94DB50BC0177
:1059C0008EEE9FE00E945B51CE0101960E947251C3
:1059D00026960FB6F894DEBF0FBECDBFDF91CF91F4
:1059E0000895CF93DF9300D000D0CDB7DEB76EEE31
:1059F0007FE0CE0101960E94D50764EE74E0CE01EF
:105A000001960E94DB50BC018EEE9FE00E945B512C
:105A1000CE0101960E94725126960FB6F894DEBF11
:105A20000FBECDBFDF91CF910895CF93DF9300D00C
:105A300000D0CDB7DEB76EEE7FE0CE0101960E94BA
:105A4000D50766EE74E0CE0101960E94DB50BC01E2
:105A50008EEE9FE00E945B51CE0101960E94725132
:105A600026960FB6F894DEBF0FBECDBFDF91CF9163
:105A70000895CF93DF9300D000D0CDB7DEB76EEEA0
:105A80007FE0CE0101960E94D5076BE175E0CE0163
:105A900001960E94DB50BC018EEE9FE00E945B519C
:105AA000CE0101960E94725126960FB6F894DEBF81
:105AB0000FBECDBFDF91CF910895CF93DF9300D07C
:105AC00000D0CDB7DEB76EEE7FE0CE0101960E942A
:105AD000D50768EE74E0CE0101960E94DB50BC0150
