:1000000029C100000C940C08DCC70000AFC7000039
:1000100082C7000055C7000028C70000FBC60000CB
:10002000CEC6000048C1000046C1000044C1000027
:1000300042C1000040C100003EC100003CC10000C0
:100040003AC100000C94450836C1000034C10000DC
:1000500032C1000030C100002EC1000066C60000A1
:100060002AC100007BC5000050C5000024C100006B
:1000700022C1000020C100001EC100001CC1000000
:100080001AC1000018C1000016C1000014C1000010
:1000900006C50000DBC400000EC100000CC100005A
:1000A0000AC1000008C1000006C1000004C1000030
:1000B00002C1000000C10000FEC00000FCC0000042
:1000C000FAC00000F8C00000F6C00000F4C0000054
:1000D000F2C00000F0C00000EEC00000ECC0000064
:1000E000EAC000004E414E494E495459494E46CD52
:1000F000CCCC3D0AD7233C17B7D13877CC2B3295DF
:1001000095E6241FB14F0A000020410000C84200BC
:10011000401C4620BCBE4CCA1B0E5AAEC59D747C0A
:100120003C3E5E2B3D3F2F5B5D3B2C2A225C00005A
:10013000002200250028002B002E00310034000290
:10014000010000050108010B01000020002300262A
:100150000029002C002F00320000010000030106DE
:1001600001090100000A0B02090C0D0E0807030427
:10017000010000000000000000000000000000007E
:10018000000000000000000000000000000000125D
:10019000111000000000000000000000000000003E
:1001A00000000000000000000000002100240027E3
:1001B000002A002D00300033000101000004010777
:1001C000010A0101021020200808102040102040E0
:1001D000800201020108040201010204081020400B
:1001E0008080402010080402018004020180402029
:1001F0001008040201080402010102040810204052
:100200008001020408102040800505050507050847
:10021000080808020202020A0A0808040404040189
:1002200001010101010101030303030303030304AB
:100230000707070C0C0C0C0C0C0C0C02020202063B
:10024000060606060606060B0B0B0B0B0B0B0B002C
:100250006D40614011241FBECFEFD1E2DEBFCDBFA4
:1002600000E00CBF25E1A2EBB9E001C01D92A03275
:10027000B207E1F719E0A0E0B2E0E2E8F4EB00E059
:100280000BBF02C007900D92A23BB107D9F711E056
:10029000C9E2D1E000E006C021970109802FFE01EC
:1002A0000E94DF57C832D10780E00807A9F70E94F3
:1002B000914B0C94305AA4CEAF92BF92CF92DF9262
:1002C000EF92FF920F931F93CF93DF936C017B010B
:1002D0008B01040F151FEB015E01AE18BF08C0179C
:1002E000D10759F06991D601ED91FC910190F0810F
:1002F000E02DC6011995892B79F7C501DF91CF91C2
:100300001F910F91FF90EF90DF90CF90BF90AF9033
:100310000895FC01538D448D252F30E0842F90E00B
:10032000821B930B541710F0CF96089501970895F0
:10033000FC01918D828D981761F0A28DAE0FBF2FB9
:10034000B11D5D968C91928D9F5F9F73928F90E00F
:1003500008958FEF9FEF0895FC01918D828D98177E
:1003600031F0828DE80FF11D858D90E008958FEFBB
:100370009FEF0895FC01918D228D892F90E0805C84
:100380009F4F821B91098F739927089587EE9BE0F9
:10039000F1DF21E0892B09F420E0822F089584E821
:1003A0009CE0E8DF21E0892B09F420E0822F08950A
:1003B000FC01A48DA80FB92FB11DA35ABF4F2C91DA
:1003C000848D90E001968F739927848FA689B789D1
:1003D0002C93A089B1898C91837080648C93938DC8
:1003E000848D981306C00288F389E02D80818F7D6B
:1003F00080830895EF92FF920F931F93CF93DF9323
:10040000EC0181E0888F9B8D8C8D98131AC0E88950
:10041000F989808185FF15C09FB7F894EE89FF891F
:100420006083E889F98980818370806480839FBFBD
:1004300081E090E0DF91CF911F910F91FF90EF90BD
:100440000895F62E0B8D10E00F5F1F4F0F731127CD
:10045000E02E8C8D8E110BC00FB607FCFACFE88909
:10046000F989808185FFF5CFCE01A2DFF2CFEB8D38
:10047000EC0FFD2FF11DE35AFF4FF0829FB7F89468
:100480000B8FEA89FB8980818062D0CFCF93DF9385
:10049000EC01888D8823B1F0AA89BB89E889F989A4
:1004A0008C9185FD03C0808186FD0CC00FB607FCD2
:1004B000F7CF8C9185FFF2CF808185FFEDCFCE0104
:1004C00077DFEACFDF91CF91089580E090E0892B2C
:1004D00021F065DF81110E94000080E090E0892B0F
:1004E00021F054DF81110E94000080E090E0892B10
:1004F00049F080E090E0892B29F00E9400008111F2
:100500000E94000080E090E0892B49F080E090E0BC
:10051000892B29F00E94000081110C94000008959D
:100520008150823108F05AC0E82FF0E08827E45665
:10053000FD4F8F4F0C94DF57BC02C002AE02B402D5
:10054000B802EE02C302C902CD02D302D702DB0217
:10055000E102E502EE02E902EF02F302809180007F
:100560008F77809380000895809180008F7DF9CFF0
:1005700080918000877FF5CF84B58F7784BD089503
:1005800084B58F7DFBCF8091B0008F778093B000D2
:1005900008958091B0008F7DF9CF809190008F7782
:1005A000809390000895809190008F7DF9CF809185
:1005B0009000877FF5CF8091A0008F778093A00077
:1005C00008958091A0008F7DF9CF8091A000877F52
:1005D000F5CF809120018F7780932001089580913D
:1005E00020018F7DF9CF80912001877FF5CFCF93B8
:1005F000DF93282F30E0F901ED59FE4F8491F90186
:10060000ED53FE4FD491F901E75FFD4FC491CC2328
:1006100099F0811185DFEC2FF0E0EE0FFF1FE75B13
:10062000FE4FA591B491EC91ED2381E090E009F4A7
:1006300080E0DF91CF91089580E090E0FACF3FB75E
:10064000F8948091D7099091D809A091D909B091D7
:10065000DA0926B5A89B05C02F3F19F00196A11D08
:10066000B11D3FBFBA2FA92F982F8827BC01CD01FC
:10067000620F711D811D911D42E0660F771F881F5B
:10068000991F4A95D1F7089508950895DC01599668
:10069000ED91FC913097B9F083899489A589B68949
:1006A0004285538564857585841B950BA60BB70B16
:1006B000811520E89207A105B10538F08FEF9FE77B
:1006C000A0E0B0E0089590E080E00895CF93DF933C
:1006D0001F92CDB7DEB76983DC01ED91FC910280FA
:1006E000F381E02D41E050E0BE016F5F7F4F19952F
:1006F0000F90DF91CF91089590E080E008950F93DF
:100700001F93CF93DF93C7E0D0E00FE010E020E02D
:1007100030E040915B0368E572E080E090E00E9489
:10072000603C0FE010E020E030E040915B036CEDB6
:1007300075E080E090E00E94603C0FE010E020E077
:1007400030E040915B0360E273E080E090E00E9463
:10075000603C0FE010E020E030E040915B0360EB94
:1007600074E080E090E00E94603C219771F6DF9198
:10077000CF911F910F9108950F931F9308EC10E0F4
:1007800020E030E040915B0360E273E080E090E0C5
:100790000E94603C1F910F91089581E08093C609EB
:1007A0000895EACFE9CFE8CFE7CFE6CFE5CFE4CFB2
:1007B0000895089508950895089508950895089551
:1007C000CF93DF93FB0122813381DC0113963C93AD
:1007D0002E931297448155816681778114964D93AB
:1007E0005D936D937C9317974085518562857385E2
:1007F00018964D935D936D937C931B971C96EF0118
:100800002C969C01275E3F4F49914D93A217B30749
:10081000D9F7218D328DFC01328F218FDF91CF915D
:100820000895FF920F931F93CF93DF93EC01F62E61
:1008300008811981C8010E948C56F81621F06F2D8D
:10084000C8010E949456CE01DF91CF911F910F9164
:10085000FF9008950F931F93CF93DF931F921F92E2
:10086000CDB7DEB710E000E060E0C8010E9494560A
:100870000F5F1F4F011580E11807B1F78FEF93E06D
:100880009A83898362E5CE010196CBDF75DF0F90F5
:100890000F90DF91CF911F910F910895EF92FF92EA
:1008A0000F931F93CF93DF93CDB7DEB7A2970FB609
:1008B000F894DEBF0FBECDBF8091590390915A03CB
:1008C0009A83898380915B0390915C039C838B83E3
:1008D0008091210290912202A0912302B0912402E2
:1008E0008D839E83AF83B88780911D0290911E02F5
:1008F000A0911F02B091200289879A87AB87BC879D
:100900008091C0098D876091000270910102072ECD
:10091000000C880B990B0E9476556E877F87888B19
:10092000998B8091BC099091BD09A091BE09B091AD
:10093000BF098A8B9B8BAC8BBD8B80915E039091A2
:100940005F03A0916003B09161038E8B9F8BA88F92
:10095000B98F8091C1099091C2099B8F8A8F809134
:100960005703909158039D8F8C8F8091BA09909175
:10097000BB099F8F8E8F80915D0388A3CE01019666
:100980007C0101E010E01AA309A3F70161917F0146
:10099000CE01819646DF0F5F1F4F0132110599F797
:1009A00086E1E82E82E0F82E08EC10E01AA309A3F5
:1009B000F70161917F01CE01819633DF0F5F1F4FF9
:1009C0000F3C110599F7A2960FB6F894DEBF0FBE43
:1009D000CDBFDF91CF911F910F91FF90EF900895C0
:1009E0001092BB091092BA0959DFC6CEFC011182E0
:1009F000108213821282158214820C944440FC01EE
:100A0000118210821382128215821482FB010190DE
:100A10000020E9F73197AF01461B570B0C94F13FCB
:100A2000FB0101900020E9F73197AF01461B570BFE
:100A3000DC01ED91FC910280F381E02D19946115A8
:100A4000710509F0EDCF90E080E008951F920F92BC
:100A50000FB60F9211240BB60F922F933F934F9323
:100A60005F936F937F938F939F93AF93BF93EF9316
:100A7000FF9387EE9BE09CDCFF91EF91BF91AF91DC
:100A80009F918F917F916F915F914F913F912F91A6
:100A90000F900BBE0F900FBE0F901F9018951F92D6
:100AA0000F920FB60F9211240BB60F922F938F93C4
:100AB0009F93EF93FF93E091F70BF091F80B8081F8
:100AC000E091FD0BF091FE0B82FD1DC090818091A5
:100AD000000C8F5F8F732091010C821741F0E09121
:100AE000000CF0E0E951F44F958F8093000CFF91DA
:100AF000EF919F918F912F910F900BBE0F900FBE92
:100B00000F901F9018958081F2CF1F920F920FB611
:100B10000F9211240BB60F922F933F934F935F9335
:100B20006F937F938F939F93AF93BF93EF93FF93B5
:100B300084E89CE03DDCFF91EF91BF91AF919F91E4
:100B40008F917F916F915F914F913F912F910F9076
:100B50000BBE0F900FBE0F901F9018951F920F9213
:100B60000FB60F9211240BB60F922F938F939F9372
:100B7000EF93FF93E091940CF091950C8081E091BC
:100B80009A0CF0919B0C82FD1DC0908180919D0C70
:100B90008F5F8F7320919E0C821741F0E0919D0C26
:100BA000F0E0EC57F34F958F80939D0CFF91EF9100
:100BB0009F918F912F910F900BBE0F900FBE0F90B2
:100BC0001F9018958081F2CF1F93CF93DF93282F2A
:100BD00030E0F901ED59FE4F8491F901ED53FE4FDC
:100BE000D491F901E75FFD4FC491CC23A1F0162FFA
:100BF000811196DCEC2FF0E0EE0FFF1FE15DFE4F60
:100C0000A591B4918FB7F894EC91111108C0D095CB
:100C1000DE23DC938FBFDF91CF911F910895DE2BF0
:100C2000F8CFCF93DF9390E0FC01ED53FE4F24917A
:100C3000875F9D4FFC0184918823D1F090E0880F5D
:100C4000991FFC01E755FE4FA591B491FC01E15DB0
:100C5000FE4FC591D491623071F49FB7F8943C91E6
:100C6000822F809583238C93E8812E2B28839FBF2E
:100C7000DF91CF9108958FB7F894EC912E2B2C93A0
:100C80008FBFF6CF8F929F92AF92BF92CF92DF929B
:100C9000EF92FF926B017C01D2DC4B015C01C1142D
:100CA000D104E104F104B1F0CADC681979098A09B8
:100CB0009B09683E73408105910588F321E0C21AC3
:100CC000D108E108F10888EE880E83E0981EA11C87
:100CD000B11CE5CFFF90EF90DF90CF90BF90AF9029
:100CE0009F908F9008950F931F9308EC10E020E0E1
:100CF00030E040915B0360E971E080E090E00E94A9
:100D0000603C62E370E080E090E0BCDF1F910F91F7
:100D100033CD2FB7F8946091D3097091D4098091A5
:100D2000D5099091D6092FBF08951F920F920FB643
:100D30000F9211242F933F938F939F93AF93BF9361
:100D40008091D3099091D409A091D509B091D60989
:100D50003091D20923E0230F2D3758F50196A11DBC
:100D6000B11D2093D2098093D3099093D409A09305
:100D7000D509B093D6098091D7099091D809A0914F
:100D8000D909B091DA090196A11DB11D8093D70947
:100D90009093D809A093D909B093DA09BF91AF9184
:100DA0009F918F913F912F910F900FBE0F901F90A9
:100DB000189526E8230F0296A11DB11DD2CF1F92D0
:100DC0000F920FB60F9211240BB60F922F933F93F1
:100DD0004F935F936F937F938F939F93AF93BF9343
:100DE000EF93FF93E0911402F09115021995FF9192
:100DF000EF91BF91AF919F918F917F916F915F9193
:100E00004F913F912F910F900BBE0F900FBE0F90FF
:100E10001F9018951F920F920FB60F9211240BB6C8
:100E20000F922F933F934F935F936F937F938F9383
:100E30009F93AF93BF93EF93FF93E0911202F091D2
:100E400013021995FF91EF91BF91AF919F918F91EF
:100E50007F916F915F914F913F912F910F900BBEBA
:100E60000F900FBE0F901F9018951F920F920FB604
:100E70000F9211240BB60F922F933F934F935F93D2
:100E80006F937F938F939F93AF93BF93EF93FF9352
:100E9000E0910802F09109021995FF91EF91BF913D
:100EA000AF919F918F917F916F915F914F913F9102
:100EB0002F910F900BBE0F900FBE0F901F901895A3
:100EC0001F920F920FB60F9211240BB60F922F9311
:100ED0003F934F935F936F937F938F939F93AF93C2
:100EE000BF93EF93FF93E0910602F09107021995EB
:100EF000FF91EF91BF91AF919F918F917F916F91F2
:100F00005F914F913F912F910F900BBE0F900FBEAD
:100F10000F901F9018951F920F920FB60F921124E9
:100F20000BB60F922F933F934F935F936F937F93E3
:100F30008F939F93AF93BF93EF93FF93E091100232
:100F4000F09111021995FF91EF91BF91AF919F918F
:100F50008F917F916F915F914F913F912F910F9062
:100F60000BBE0F900FBE0F901F9018951F920F92FF
:100F70000FB60F9211240BB60F922F933F934F93FE
:100F80005F936F937F938F939F93AF93BF93EF93F1
:100F9000FF93E0910E02F0910F021995FF91EF91EE
:100FA000BF91AF919F918F917F916F915F914F9181
:100FB0003F912F910F900BBE0F900FBE0F901F907F
:100FC00018951F920F920FB60F9211240BB60F9225
:100FD0002F933F934F935F936F937F938F939F9341
:100FE000AF93BF93EF93FF93E0910C02F0910D024A
:100FF0001995FF91EF91BF91AF919F918F917F9143
:101000006F915F914F913F912F910F900BBE0F9079
:101010000FBE0F901F9018951F920F920FB60F9250
:1010200011240BB60F922F933F934F935F936F93BF
:101030007F938F939F93AF93BF93EF93FF93E09131
:101040000A02F0910B021995FF91EF91BF91AF91B8
:101050009F918F917F916F915F914F913F912F91D0
:101060000F900BBE0F900FBE0F901F901895EFE6DC
:10107000F0E080818D7F808382E08093810081E039
:10108000809380002D982E9808951F920F920FB68E
:101090000F9211240BB60F922F933F934F935F93B0
:1010A0006F937F938F939F93AF93BF93EF93FF9330
:1010B00030DEDDDFFF91EF91BF91AF919F918F9176
:1010C0007F916F915F914F913F912F910F900BBE48
:1010D0000F900FBE0F901F901895C9DF8091E50902
:1010E000811112C060E086E06FDD6091570370915E
:1010F0005803072E000C880B990BC4DD60E085E0D7
:1011000063DD60E08DE060DD1092CA090895E5DFDF
:101110001092C4091092C3092FCB82E068DA892BA0
:1011200019F40E94303DF9CF84E061DA892BC9F3CC
:10113000D4CF8F929F92AF92BF92CF92DF92EF92D5
:10114000FF92CF930E94303DF090C00920E030E044
:1011500040E450E4FF2009F45FC06091B50970914C
:10116000B6098091B7099091B8090E94BC562091A8
:10117000DF093091E0094091E1095091E2090E94B4
:10118000D5550E948D577EDD8091C1099091C2098D
:10119000009709F04AC083E02ADAC1E0892B09F000
:1011A000C0E09BDFFF2009F445C0C090DF09D0906C
:1011B000E009E090E109F090E209A7019601C7017A
:1011C000B6010E94BC564B015C0120E030E040E8D3
:1011D0005FE36091B5097091B6098091B70990916C
:1011E000B8090E94BC56A70196010E94D5559B01E3
:1011F000AC01C501B4010E94BB560E948D5742DD6F
:10120000CC2309F1CF91FF90EF90DF90CF90BF906A
:10121000AF909F908F9021C06091DF097091E0099D
:101220008091E1099091E209AACF019709F0B8CF26
:1012300084E0B2CF6091DF097091E0098091E1090B
:101240009091E209DACFCF91FF90EF90DF90CF90AD
:10125000BF90AF909F908F9008954F925F926F9242
:101260007F928F929F92AF92BF92CF92DF92EF9236
:10127000FF920E94303DF090C009FF2009F457C052
:1012800020E030E040E85FE36091B5097091B60975
:101290008091B7099091B8090E94BC564B015C013E
:1012A0002091DF093091E0094091E1095091E20974
:1012B0000E94D5550E948D57E5DC0FDFFF2009F411
:1012C0003FC0C090DF09D090E009E090E109F090C4
:1012D000E209A7019601C701B6010E94BC562B0185
:1012E0003C01A5019401C701B6010E94D5559B019F
:1012F000AC01C301B2010E94BB560E948D57C2DCF3
:101300008091C1099091C209009719F584E06FD9C5
:10131000892B19F5FF90EF90DF90CF90BF90AF90A1
:101320009F908F907F906F905F904F9002CF6091D1
:10133000DF097091E0098091E1099091E209BACF4B
:101340006091DF097091E0098091E1099091E209D3
:10135000D4CF019711F483E0DACFFF90EF90DF90C4
:10136000CF90BF90AF909F908F907F906F905F9045
:101370004F9008958FB7F8948091CC098FBF08954E
:1013800061E0FC01848120DC8091CB098111109205
:10139000CB0908958EBD00000DB407FEFDCF8EB5BC
:1013A00008958FEFF7CF8CBD9DBD0895CF93DF9348
:1013B000EC018091CB09811108C081E08093CB09B9
:1013C0008091210D9091220DEEDF60E08C81DF9104
:1013D000CF91FACB8F929F92AF92BF92FF920F93D1
:1013E0001F93CF93DF93EC01F62E49015A018E81B2
:1013F000882379F08F8198859C012F5F3F4F388734
:101400002F838230924010F4CCDFF4CFCE01B8DFCE
:101410001E82CE01CBDF8CE291E00E94E7398F2D56
:101420008064B8DF08E110E0D501C401002E04C0DB
:10143000B695A795979587950A94D2F7ABDF085094
:101440001109083F8FEF180779F785E9FF2021F090
:1014500028E087E8F2128FEF9DDF10E0A2DF8A8795
:1014600087FF04C01F3F11F01F5FF8CFDF91CF91BE
:101470001F910F91FF90BF90AF909F908F90089514
:10148000AF92BF92CF92DF92EF92FF920F931F9392
:10149000CF93DF93EC016901C801820F931F813064
:1014A000924048F58E81882379F088819981AA81BC
:1014B000BB8184179507A607B70731F48F819885FC
:1014C000C816D90608F03CC0488359836A837B83D9
:1014D0008B85833039F089E0440F551F661F771FD5
:1014E0008A95D1F79A01AB0161E1CE0173DF8823C0
:1014F00081F083E08D83CE0143DF80E0DF91CF91E7
:101500001F910F91FF90EF90DF90CF90BF90AF9021
:101510000895FFDB5B0145DF8A878F3F59F4F9DBD4
:101520006A197B096D327140B0F38FE08D83CE0173
:1015300027DFE1CF8E3F81F418861F8281E08E8302
:101540008F8198858C159D0548F42BDF8F819885B8
:10155000019698878F83F4CF8DE0E8CF6701E00E86
:10156000F11E1FDFF60181936F01EE15FF05C9F72C
:101570008F819885080F191F18870F838985882305
:1015800019F00115124090F08E81882379F08F8137
:1015900098859C012F5F3F4F38872F838230924080
:1015A00010F4FFDEF4CFCE01EBDE1E8281E0A6CF89
:1015B000EF92FF920F931F93CF93DF93EC0179018A
:1015C00082E1411551056105710591F08B858330EC
:1015D00039F089E0440F551F661F771F8A95D1F7B0
:1015E0009A01AB0168E1CE01F5DE882319F084E0B1
:1015F0008D8329C08EEFCEDE87018EEFF81AF801B9
:1016000081918F01C7DE0E151F05C9F78FEFC2DE6E
:101610008FEFC0DEC6DE8A878F71853081F488E562
:1016200092E00E94E739882391F020E030E0A901A0
:101630006DE0CE01CFDE882361F084E1D9CF81E176
:101640008D83CE019DDECE019BDE80E008C085E16A
:10165000CFCFA7DE8111F1CFCE0192DE81E0DF9105
:10166000CF911F910F91FF90EF9008958091CD0938
:10167000882399F140910202509103026091040283
:101680007091050227EE39E08091E3099091E40919
:101690008FDF811102C080E008954091CE09509102
:1016A000CF096091D0097091D109411551056105AB
:1016B000710589F027EE39E08091E3099091E40902
:1016C00077DF882341F31092CE091092CF09109250
:1016D000D0091092D1091092CD0981E008958F921E
:1016E0009F92AF92BF92EF92FF920F931F93CF936F
:1016F0004B015C01C42F8091020290910302A091E2
:101700000402B091050288159905AA05BB0539F1B7
:10171000ADDF81110BC080E0CF911F910F91FF9041
:10172000EF90BF90AF909F908F90089587EEE82E36
:1017300089E0F82E00E012E030E020E0B501A401DD
:101740008091E3099091E4099BDE882321F3809244
:10175000020290920302A0920402B092050240910C
:10176000CD094C2B4093CD0981E0D6CF4F925F92AB
:101770006F927F928F929F92AF92BF92CF92DF92A1
:10178000EF92FF920F931F93CF93DF93EC014230C0
:1017900051056105710590F480E0DF91CF911F91B3
:1017A0000F91FF90EF90DF90CF90BF90AF909F9000
:1017B0008F907F906F905F904F90089589859A8564
:1017C000AB85BC850196A11DB11D84179507A607A1
:1017D000B70710F3CB88DC88ED88FE888F898031CD
:1017E00009F042C0BB27A72F962F852F480159012A
:1017F0002A013B01C80ED91EEA1EFB1E809102027F
:1018000090910302A0910402B0910502C816D90676
:10181000EA06FB0699F58F898031B9F5B301A2017B
:10182000552766277727440F551F4951564FFA0110
:10183000918280828091CD0981608093CD098A89CF
:10184000823080F08D819E81AF81B8858C0D9D1D89
:10185000AE1DBF1D8093CE099093CF09A093D009F0
:10186000B093D10981E099CFDB01CA01E7E0B695D9
:10187000A79597958795EA95D1F7B8CF40E0C7012E
:10188000B6012DDF8111C7CF87CFB301A2014F77FA
:10189000552766277727440F551F440F551F495179
:1018A000564FFA0180829182A282B382C3CF8F9277
:1018B0009F92AF92BF92CF92DF92EF92FF920F93DF
:1018C0001F93CF93DF93FC0181859285A385B48517
:1018D0000196A11DB11D84179507A607B70770F4DF
:1018E00080E0DF91CF911F910F91FF90EF90DF90FB
:1018F000CF90BF90AF909F908F90089583889488E9
:10190000A588B6888789803189F5BB27A72F962FB0
:10191000852FE9016A017B018F01BC01CD01680DB2
:10192000791D8A1D9B1D8090020290900302A09059
:101930000402B090050286169706A806B90601F5BE
:10194000F8018789803109F5DD24EE24FF24F601B2
:10195000EE0FFF1FE951F64F80819181B0E0A0E0CA
:1019600088839983AA83BB8381E0BBCFDB01CA0153
:10197000C7E0B695A79597958795CA95D1F7C9CF32
:1019800040E0ADDE8111DCCFABCFE894C7F8DD24B9
:10199000EE24FF24F601EE0FFF1FEE0FFF1FE951AB
:1019A000F64F80819181A281B381BF70D9CF4F92D0
:1019B0005F926F927F92AF92BF92CF92DF92EF923F
:1019C000FF920F931F93CF93DF9300D01F92CDB759
:1019D000DEB78C0149835A836B837C835901C12C08
:1019E000D12C7601412C82E0582E612C712C49813A
:1019F0005A816B817C819E012F5F3F4FC80157DF69
:101A0000882339F1F8018585A301920104C0220FD2
:101A1000331F441F551F8A95D2F7DA01C901C80E3A
:101A2000D91EEA1EFB1E49815A816B817C81878900
:101A3000803111F188EF9FEFAFEFBFE048175907F2
:101A40006A077B07A0F2F501C082D182E282F382AD
:101A500081E00F900F900F900F90DF91CF911F9129
:101A60000F91FF90EF90DF90CF90BF90AF907F905D
:101A70006F905F904F90089588EF9FEFA0E0B0E0E7
:101A8000DDCFCF92DF92EF92FF921F93CF93DF9340
:101A9000EC0180E2689FF0011124E951F64F938533
:101AA000917161F0842F827449F080E0DF91CF91D1
:101AB0001F91FF90EF90DF90CF900895142F6A8BC5
:101AC0008091020290910302A0910402B09105025C
:101AD0008E879F87A88BB98BC488D588F12CE12C81
:101AE0007601DD24CC24CF8AD88EE98EFA8E828DC1
:101AF000938DB0E0A0E0AC01BD014C295D296E29B9
:101B00007F294F8B588F698F7A8F83858871B1F4C5
:101B1000848D958DA68DB78D8B8B9C8BAD8BBE8B5D
:101B200081E08D831F701C831E821F821886198698
:101B30001A861B861C861D8681E0B8CF803109F08D
:101B4000B4CF9E012D5E3F4F8B8D9C8D30DF88235F
:101B500009F4ABCF84E0E5CF8F929F92AF92BF9212
:101B6000CF92DF92EF92FF920F931F93CF93DF9369
:101B7000EC018D8181110EC080E0DF91CF911F912A
:101B80000F91FF90EF90DF90CF90BF90AF909F901C
:101B90008F9008950B891C892D893E89041715079C
:101BA0002607370748F34A015B01823031F48A8601
:101BB0009B86AC86BD8681E0E0CF81149104A104B0
:101BC000B10449F41E821F82188619861A861B8664
:101BD0001C861D86F0CF0A851B852C853D85EB8DE7
:101BE000FC8D858590E00996B901A8014150510905
:101BF00061097109082E04C0769567955795479538
:101C00000A94D2F775016401E1E0CE1AD108E10827
:101C1000F10804C0F694E794D794C7948A95D2F754
:101C2000C416D506E606F70620F0012B022B032B7F
:101C300009F58F89988DA98DBA8D8E839F83A8878A
:101C4000B9878E010A5F1F4FC114D104E104F1046A
:101C500009F4ADCF4E815F816885798598018B8DC0
:101C60009C8D25DE91E0C91AD108E108F1088111A7
:101C7000EBCF82CFC41AD50AE60AF70AE2CF3F9229
:101C80004F925F926F927F928F929F92AF92BF928C
:101C9000CF92DF92EF92FF920F931F93CF93DF9338
:101CA000CDB7DEB72C970FB6F894DEBF0FBECDBF11
:101CB0005C01DC015B968D909C905C9716964D9034
:101CC0005D906D907C9019974114510461047104EA
:101CD00009F467C0BFEF4B1A5B0A6B0A7B0A312C11
:101CE000F40181859285A385B4859C01AD012F5FA8
:101CF0003F4F4F4F5F4F29873A874B875C87730170
:101D000062011D821E821F821886F40181859285E0
:101D1000A385B4852D813E814F81588528173907C9
:101D20004A075B0708F054C089859A85AB85BC8556
:101D30008C159D05AE05BF0550F482E0C82ED12C50
:101D4000E12CF12C92E0492E512C612C712C9E013A
:101D50002F5F3F4FB701A601C401A9DD8823C1F160
:101D600089819A81AB81BC81892B8A2B8B2B09F1CC
:101D7000260137019FEF491A590A690A790A2D810C
:101D80003E814F8158852F5F3F4F4F4F5F4F2D83CF
:101D90003E834F8358873FEFC31AD30AE30AF30AFF
:101DA000B4CFF40140805180628073803324339437
:101DB00097CFC414D504E604F70409F70FEF1FEF1B
:101DC0002FEF3FE0B701A601C401D0DC811119C09B
:101DD00080E02C960FB6F894DEBF0FBECDBFDF912A
:101DE000CF911F910F91FF90EF90DF90CF90BF9018
:101DF000AF909F908F907F906F905F904F903F90AB
:101E00000895F50146815781608571854115510519
:101E10006105710531F097018601C401A7DC8823B3
:101E2000B9F2D5011696CD92DD92ED92FC921997FA
:101E3000332051F0D701C6010196A11DB11DF40157
:101E400080839183A283B383F5018789908DA18DCF
:101E5000B28D892B8A2B8B2B39F4C78AD08EE18ED9
:101E6000F28E84818068848381E0B3CF2F923F9289
:101E70004F925F926F927F928F929F92AF92BF929A
:101E8000CF92DF92EF92FF920F931F93CF93DF9346
:101E900000D0CDB7DEB7FC018581811118C08FEF6E
:101EA0009FEF0F900F900F90DF91CF911F910F91A7
:101EB000FF90EF90DF90CF90BF90AF909F908F906A
:101EC0007F906F905F904F903F902F900895848106
:101ED00080FFE5CF4389548965897689828593851A
:101EE000A485B585312C212C481759076A077B0733
:101EF00019F022242394312C6F012101CE01019687
:101F00003C01DF011696BB83AA834114510409F4F6
:101F1000C2C0F60142855385648575854A01F1E0AA
:101F20009F22D6015B968D919C915C978A019B01C3
:101F3000E9E03695279517950795EA95D1F7159617
:101F4000EC91E230E1F5FC01628D738D848D958D0D
:101F5000600F711F821F931FA12C22E0B22EA818C0
:101F6000B9084A145B0408F45201F601248126FDE5
:101F700004C0A114F2E0BF0671F4009102021091B6
:101F80000302209104023091050206171707280763
:101F9000390709F05CC040E0A2DB882309F47FCF59
:101FA000C4018951964FD3019C012A0D3B1DFC01B0
:101FB0002E173F0709F46AC041914D93F9CFDC0118
:101FC0001496BC90BA94B0228114910479F4B110A3
:101FD0000DC0452B462B472B69F5F6018789908D5F
:101FE000A18DB28D86839783A087B187D6015B963A
:101FF000ED91FC915C9716966D917D918D919C91E0
:1020000019976250710981099109258504C0660FED
:10201000771F881F991F2A95D2F706851785208973
:102020003189600F711F821F931F6B0D711D811D00
:10203000911D92CFD60116964D915D916D917C9137
:1020400019972A813B8133DC8111D0CF28CF7301CE
:1020500085019401AB01BC018091E3099091E409F1
:102060000FDA882309F41BCF6A0C7B1CF6018285EA
:102070009385A485B5858A0D9B1DA11DB11D828701
:102080009387A487B5874A185B083FCF281B390B75
:10209000620E731EEBCF2A94232809F000CF8981AA
:1020A00090E0FFCEFC01818D928D009709F0DECE8D
:1020B0008FEF9FEF08950F931F93CF93DF93EC0162
:1020C000898D9A8D10E000E0009789F0CFDE8C01B9
:1020D0000F3F100761F0898D9A8DFC014285538571
:1020E00064857585415051096109710935DDC80163
:1020F000DF91CF911F910F910895CF93DF93EC0162
:102100008D81882321F18C8187FF1EC0CE010E9422
:10211000023AFC01892BD9F08D81823040F48B8901
:102120009C89AD89BE89848F958FA68FB78F8F8943
:10213000988D938F828F8F89988DA98DBA8DB58B4D
:10214000A48B8C818F778C83DF91CF918FCA80E0B5
:10215000DF91CF910895CF93DF93EC01CEDF8823F9
:1021600011F01D8281E0DF91CF910895FC01818DF6
:10217000928D009709F0C1CF08953F924F925F92E0
:102180006F927F928F929F92AF92BF92CF92DF9287
:10219000EF92FF920F931F93CF93DF9300D000D065
:1021A00000D01F921F92CDB7DEB77C01DC011596DF
:1021B0008C91811115C0FE013196CE010C966F01F4
:1021C00030E23193E817F907E1F7DA0130E087E010
:1021D0009D91B92E992329F19E3239F48A3011F458
:1021E00080E0D6C038E08AE0F3CFEFE1F1E044913F
:1021F000442321F031969413FACFF2CF831780F362
:102200004FED490F4E3560F74FE9490F4A3118F449
:1022100040EEB42EB90EF601E30FF11DB0823F5F20
:10222000D7CF89818032E1F2322E8B01FB01838D81
:10223000948DD7015C969C938E935B971682178240
:10224000108611861286138614861586F8018285FB
:102250009385A485B58543895489658976898417D2
:102260009507A607B70708F04CC025E0B695A795D7
:10227000979587952A95D1F7F82FFF70AF2ED80143
:1022800015968C91823008F4ABCFC801EFDD97FD35
:10229000A7CFF80182859385A485B5854F96A11DAA
:1022A000B11D82879387A487B587F0E2AF9EB00106
:1022B00011246951764F6115710509F491CFDB0145
:1022C0008C91882341F0853E09F056C0BB2029F04F
:1022D000BB24B394BBCFB1100EC0F701A28A80918A
:1022E000020290910302A0910402B0910502868738
:1022F0009787A08BB18BDB018C918111E9CFBB2437
:10230000B394832D8271823109F06ACFBB2009F426
:1023100057C0C7010E94023A009709F461CF20E23A
:10232000FC0111922A95E9F72BE0F601DC010190FE
:102330000D922A95E1F721E238E2DC0151963C93B7
:102340002E93509740E058E01F965C934E931E9753
:1023500053963C932E93529759963C932E935897AD
:1023600057965C934E93569781D9882309F438CFBA
:10237000432DF70162890AC04BE050E0C6010E947C
:10238000F059892B09F062CF432D6A2DC70179DB03
:102390002B960FB6F894DEBF0FBECDBFDF91CF9165
:1023A0001F910F91FF90EF90DF90CF90BF90AF9073
:1023B0009F908F907F906F905F904F903F90089587
:1023C000F8018581823009F40BCFC80158DC8823DD
:1023D00009F406CFD8015B96ED91FC915C971696B7
:1023E0008D909D90AD90BC901997B2E08B1A91089A
:1023F000A108B108858504C0880C991CAA1CBB1CC7
:102400008A95D2F786859785A089B189880E991E0D
:10241000AA1EBB1E848124013501480E511C611C7B
:10242000711C84149504A604B704F9F0E1E04E1A77
:102430005108610871081AD9882309F4D1CEE7EE52
:10244000F9E0119287EE9BE08E179F07D1F740923B
:10245000020250920302609204027092050280917F
:10246000CD0981608093CD09DCCFD8015B96ED91D9
:10247000FC91258580E092E0A0E0B0E004C0880FE8
:10248000991FAA1FBB1F2A95D2F7F80143895489C7
:1024900065897689840F951FA61FB71F838B948B40
:1024A000A58BB68BD70152961C9287EE99E037CF59
:1024B0001F93CF93DF93CDB7DEB76D970FB6F89428
:1024C000DEBF0FBECDBFAB011C821B822DE833E007
:1024D0003A8329831E8221E0BC01CE0101964DDEA4
:1024E00011E081110CC010E0812F6D960FB6F894A9
:1024F000DEBF0FBECDBFDF91CF911F910895CE01FA
:10250000019629DEF1CFCF93DF93CDB7DEB76D977C
:102510000FB6F894DEBF0FBECDBF442381F1AB01EF
:10252000BC011C821B828DE893E09A8389831E8202
:1025300022E0CE01019621DE81110EC090E081E003
:10254000911101C080E06D960FB6F894DEBF0FBE0A
:10255000CDBFDF91CF910895CE0101960E941B3A25
:10256000882361F3CE0101960E94023A009731F36D
:1025700025EEFC0120831E8279D8982FE0CF81E0E0
:10258000E2CF2F923F924F925F926F927F928F9203
:102590009F92AF92BF92CF92DF92EF92FF920F93F2
:1025A0001F93CF93DF9300D01F92CDB7DEB78C017E
:1025B0005B011A01DC0115968C911597813009F0A9
:1025C000C6C014968C9181FFC2C082FDADC061016E
:1025D000D8011A964D915D916D917C911D97C11412
:1025E000D10409F426C15B968D919C915C97FC0106
:1025F00074802FEF270D2A013B0139E07694679410
:10260000579447943A95D1F7722E74207A01F1E0ED
:10261000FF2271101FC0E114F104E1F416964D91F0
:102620005D916D917C911997411551056105710579
:1026300009F096C057968D919D910D90BC91A02D5B
:102640000097A105B10509F0ACC0C80118DB8823CB
:1026500009F47DC080E092E08E199F0946018C1537
:102660009D0508F44C01D8015B964D915C915C97F7
:1026700016968D919D910D90BC91A02D0297A10968
:10268000B109FA01258504C0880F991FAA1FBB1F35
:102690002A95D2F74685578560897189840F951FE1
:1026A000A61FB71F9C01AD01270D311D411D511DF6
:1026B00029013A01811432E0930609F078C0809133
:1026C000020290910302A0910402B09105028415C8
:1026D0009505A605B70559F48FEF9FEFDC018093B0
:1026E000020290930302A0930402B09305029501A5
:1026F000B301A2018091E3099091E4090E94D80AF4
:10270000882329F19EEFB91AC818D908F8018285E3
:102710009385A485B585880D991DA11DB11D82875E
:102720009387A487B58754CFF80143895489658975
:10273000768982859385A485B585481759076A07E8
:102740007B0709F444CFC80107DA811140CF81E04B
:1027500090E0D80113969C938E93129780E006C068
:102760009E012F5F3F4FA3D8811102C090E077C038
:1027700089819A81AB81BC81F801238D348DF90167
:10278000278948EF5FEF60E070E0203121F048EFEB
:102790005FEF6FEF7FE084179507A607B70708F094
:1027A00054CFF80186839783A087B18753CFE11474
:1027B000F10491F5D8011A964D915D916D917C913E
:1027C0001D9753968D919D910D90BC91A02D48170A
:1027D00059076A077B0700F10E94360B882309F42A
:1027E000B6CF4092020250920302609204027092AD
:1027F00005028091CD0981608093CD09970129510F
:10280000364FD501C901880D991DF9018E179F0713
:1028100059F04D914193FACF41E0C301B2010E94BA
:102820006F0B8111EBCF93CF821B930BA80EB91EB8
:102830006BCFF80183899489A589B6898417950798
:10284000A607B70738F48481438B548B658B768B4E
:1028500080688483F801848183FD18C0C1010F90D2
:102860000F900F900F90DF91CF911F910F91FF90DC
:10287000EF90DF90CF90BF90AF909F908F907F9020
:102880006F905F904F903F902F900895C80135DC76
:10289000882309F45CCFE2CFCF93DF931F92CDB7AB
:1028A000DEB7698341E050E0BE016F5F7F4F69DEB4
:1028B0000F90DF91CF910895CF93DF93EC01E98DD5
:1028C000FA8D309749F481E090E09B838A8390E011
:1028D00080E0DF91CF91089513821282898D9A8DC5
:1028E00050DEE98DFA8D22813381232B61F7F1CF00
:1028F000FC01DB0112968D919C9113979383828347
:102900008DE893E09183808314968C91149784834F
:1029100015968C911597858316964D915D916D91C5
:102920007C91199746835783608771871A964D91DA
:102930005D916D917C911D97428753876487758760
:102940001E964D915D916D917C9151974687578769
:10295000608B718B52968C915297828B53964D91CE
:102960005D916D917C915697438B548B658B768BE3
:1029700057964D915D916D917C915A97478B508FF1
:10298000618F728F5B968D919C91948F838F089548
:10299000EF92FF920F931F93CF93DF93EC017B0194
:1029A0008A011B821A8288EE93E0A0E0B0E08C835B
:1029B0009D83AE83BF8389E993E0998388838DE10A
:1029C00090E00E94E7579A8F898F009779F02DE168
:1029D000F701DC0101900D922A95E1F74CE050E0FF
:1029E000B801CE010C960E94215A188EDF91CF912A
:1029F0001F910F91FF90EF900895CF93DF93EC011B
:102A000087EE9BE00E94BA01892B29F087EE9BE0BC
:102A10000E949801F5CFBE0187EE9BE00E941F0542
:102A20006FEF87EE9BE00E94FA016FEF87EE9BE06D
:102A30000E94FA016FEF87EE9BE0DF91CF910C943B
:102A4000FA0183B78E7F83BFEC98E6E0F2E084E47E
:102A500093E091838083ED989383828387EA93E068
:102A6000CCDF8EEA93E0C9DF87EE9BE00C94460250
:102A70008F929F92AF92BF92CF92DF92EF92FF928E
:102A80004B015C010E9489066B017C010E94890652
:102A90006C197D098E099F09681579058A059B05C2
:102AA00018F40E94673DF2CFFF90EF90DF90CF9037
:102AB000BF90AF909F908F90089564E670E080E0A3
:102AC00090E0D6DF86EB93E098DF8DEB93E095DF27
:102AD00087EE9BE00E94460283B7816083BFA6E039
:102AE000B2E021E235E111963C932E93EAE6F0E064
:102AF00080818C7F8083EC9A13963C932E9312975F
:102B00008081837F8083ED9A83B7817F846083BFD8
:102B10006DEB73E087EE9BE00E941F05889508959A
:102B200083E892E1CACFEF92FF920F931F93CF9366
:102B3000DF93CDB7DEB7A0970FB6F894DEBF0FBE18
:102B4000CDBF8FEF93E00E948C56843559F00E94E0
:102B50004E048FEF93E09A83898364E5CE0101965A
:102B60000E9411048E010F5F1F4FEE24E394F12C9D
:102B7000C7010E948C56F80181938F01FFEFEF1A75
:102B8000FF0A81E2E816F10499F789819A8190930E
:102B90005A03809359038B819C8190935C038093AB
:102BA0005B038D819E81AF81B885809321029093D4
:102BB0002202A0932302B093240289859A85AB85D3
:102BC000BC8580931D0290931E02A0931F02B093B8
:102BD00020028D858093C0096E857F8588899989BB
:102BE0000E94885770930102609300028A899B8932
:102BF000AC89BD898093BC099093BD09A093BE099F
:102C0000B093BF098E899F89A88DB98D80935E038B
:102C100090935F03A0936003B09361038A8D9B8DB3
:102C20009093C2098093C1098C8D9D8D9093580318
:102C3000809357038E8D9F8D9093BB098093BA0923
:102C400088A180935D0386E1E82E82E0F82E08ECEF
:102C500010E0C8010E948C56F70181937F010F5F3D
:102C60001F4F0F3C1105A9F7A0960FB6F894DEBFD1
:102C70000FBECDBFDF91CF911F910F91FF90EF90CD
:102C80000895EF92FF920F931F93CF93DF9300D09D
:102C900000D0CDB7DEB77C018B0169E074E0CE01D6
:102CA00001960E94FF04F70162817381CE010196B3
:102CB0000E946F3F65EC73E0CE0101960E946F3F6A
:102CC000B801CE0101960E946F3F6AEC73E0CE011D
:102CD00001960E946F3F89819A818FDE0E94B039F0
:102CE000182FCE0101960E945940812F26960FB6CB
:102CF000F894DEBF0FBECDBFDF91CF911F910F9132
:102D0000FF90EF900895CF93DF93CDB7DEB7C45611
:102D1000D1090FB6F894DEBF0FBECDBF44E650E038
:102D2000BE016F5F7F4F0E941A3EBE016F5F7F4FF3
:102D300083E892E1A6DFBE016F5F7F4F8FE592E1EE
:102D4000A0DFCC59DF4F0FB6F894DEBF0FBECDBF6A
:102D5000DF91CF910895CF93DF93CDB7DEB76E9714
:102D60000FB6F894DEBF0FBECDBF4EE150E0BE01FE
:102D70006F5F7F4F0E941A3EBE016F5F7F4F83E5FA
:102D800092E17FDFBE016F5F7F4F87E492E179DFE1
:102D90006E960FB6F894DEBF0FBECDBFDF91CF9118
:102DA0000895CF93DF93CDB7DEB76E970FB6F89443
:102DB000DEBF0FBECDBF4EE150E0BE016F5F7F4F63
:102DC0000E941A3EBE016F5F7F4F8BE191E159DF98
:102DD0006E960FB6F894DEBF0FBECDBFDF91CF91D8
:102DE00008950E946D0880915D03811112C081E0F9
:102DF00080935D0380915D036CEC73E0882311F098
:102E00006EEC73E083E793E13CDF0E944E040C9488
:102E1000BC0310925D03EECF8F929F92AF92BF9250
:102E2000EF92FF920F931F93CF93DF93CDB7DEB74F
:102E300060970FB6F894DEBF0FBECDBF7C014A018C
:102E40008E010F5F1F4F8AE0F80111928A95E9F712
:102E500069E074E0CE010B960E94FF044AE0B801DD
:102E6000C4010E94D253F70162817381CE010B9697
:102E70000E946F3F63ED73E0CE010B960E946F3F9F
:102E8000B801CE010B960E946F3F8B859C85B5DD06
:102E90000E94B039182FCE010B960E945940812F05
:102EA00060960FB6F894DEBF0FBECDBFDF91CF9115
:102EB0001F910F91FF90EF90BF90AF909F908F90D8
:102EC000089520E030E040E85FE3609121027091D6
:102ED000220280912302909124020E94BB560E94FC
:102EE0008D57AB01BC018BEF93E196DF609121021E
:102EF0007091220280912302909124020E948D57AA
:102F0000AB01BC018BEF93E187CF40915903509106
:102F10005A03052E000C660B770B8BED91E17CDFDD
:102F200040915B0350915C03052E000C660B770B00
:102F300083E292E171DF40915B0350915C03052EC7
:102F4000000C660B770B8FEC91E166DF60915E03FE
:102F500070915F0380916003909161030E948D578F
:102F6000AB01BC0187E192E157DF60915E03709194
:102F70005F0380916003909161030E948D57AB01C4
:102F8000BC0183EC91E148DF409157035091580315
:102F9000052E000C660B770B8BE092E13DDF409134
:102FA000570350915803052E000C660B770B8BEAE4
:102FB00091E132DF4091C1095091C209052E000C08
:102FC000660B770B8BE392E127DF8091C10990912B
:102FD000C2098130910549F08230910561F069EDB7
:102FE00073E0892B21F00C94BC0360EE73E087EE54
:102FF00091E147DEF8CF69EE73E0F9CFEF92FF92EF
:103000000F931F93CF93DF93CDB7DEB72E970FB6F5
:10301000F894DEBF0FBECDBF7C018B016DEE73E077
:10302000CE0109960E94FF04F70162817381CE01EF
:1030300009960E946F3F62EF73E0CE0109960E94ED
:103040006F3F89859A85D9DCCE01019628E0FC0185
:1030500011922A95E9F744E650E060E070E0409371
:10306000EB0B5093EC0B6093ED0B7093EE0B68E061
:1030700070E00E946339089709F053C08981813755
:1030800009F04FC08E818F3F09F04BC08F818F3F79
:1030900009F047C088858F3F09F043C02D818C819E
:1030A00090E0B0E0A0E0DC0199278827B22B2A81CC
:1030B000822B4B8150E0542F4427052E000C660BC9
:1030C000770B842B952BA62BB72BF801808391834C
:1030D000A283B38367EF73E084E89CE00E941F053E
:1030E000F80160817181828193814AE00E94EA3C0B
:1030F00067E074E084E89CE00E94100511E0CE01D6
:1031000009960E945940812F2E960FB6F894DEBF83
:103110000FBECDBFDF91CF911F910F91FF90EF9028
:1031200008958AE094E00E94503910E0E8CFCF93F0
:10313000DF9300D01F92CDB7DEB719821A821B82AF
:103140001C82BE016F5F7F4F8BE092E157DF4981A8
:103150005A816B817C818BEA91E15EDE89819A8163
:1031600090935803809357030E944E040E94BC031F
:103170000F900F900F900F90DF91CF910895CF9304
:10318000DF9300D01F92CDB7DEB719821A821B825F
:103190001C82BE016F5F7F4F87E192E12FDF498183
:1031A0005A816B817C8183EC91E136DE69817A8181
:1031B0008B819C810E94745560935E0370935F03C2
:1031C00080936003909361030E944E040E94BC03AD
:1031D0000F900F900F900F90DF91CF9108950F9364
:1031E0001F93CF93DF9300D01F92CDB7DEB7198224
:1031F0001A821B821C82BE016F5F7F4F83E292E1C5
:10320000FDDE49815A816B817C818FEC91E104DE86
:103210009981492F8A8190935B0380935C0360912D
:10322000590370915A03072E000C880B990B00E08C
:1032300010E098010E94603C64EF71E080E090E053
:103240000E9442060E9437080E944E040F900F9081
:103250000F900F90DF91CF911F910F9108950F93D1
:103260001F93CF93DF9300D01F92CDB7DEB71982A3
:103270001A821B821C82BE016F5F7F4F8FE292E138
:10328000BDDE69817A8170935A0360935903072EDA
:10329000000C880B990B00E010E0980140915B0353
:1032A0000E94603C64EF71E080E090E00E94420682
:1032B0000E9437080E944E040F900F900F900F90BD
:1032C000DF91CF911F910F9108958F929F92AF92AE
:1032D000BF92EF92FF920F931F93CF93DF93CDB7DF
:1032E000DEB760970FB6F894DEBF0FBECDBF7C018E
:1032F0004A018E010F5F1F4F8AE0F80111928A95F3
:10330000E9F769E074E0CE010B960E94FF044AE001
:10331000B801C4010E94D253F70162817381CE01CA
:103320000B960E946F3F6CE174E0CE010B960E94F9
:103330006F3FB801CE010B960E946F3F8B859C8535
:103340005CDB69E074E0CE010B960E94104062E203
:1033500074E0CE010B960E946F3FF701628173818A
:10336000CE010B960E946F3F8B859C8546DB0E94A9
:10337000B039182FCE010B960E945940812F6096CC
:103380000FB6F894DEBF0FBECDBFDF91CF911F9176
:103390000F91FF90EF90BF90AF909F908F90089506
:1033A0008F929F92AF92BF92EF92FF920F931F93D3
:1033B000CF93DF93CDB7DEB760970FB6F894DEBF3B
:1033C0000FBECDBF7C014A018E010F5F1F4F8AE007
:1033D000F80111928A95E9F769E074E0CE010B9645
:1033E0000E94FF044AE0B801C4010E94D253F701D1
:1033F00062817381CE010B960E946F3F67E274E099
:10340000CE010B960E946F3FB801CE010B960E9431
:103410006F3F8B859C85F1DA69E074E0CE010B96F5
:103420000E94104062E274E0CE010B960E946F3F52
:10343000F70162817381CE010B960E946F3F8B85ED
:103440009C85DBDA0E94B039182FCE010B960E94C2
:103450005940812F60960FB6F894DEBF0FBECDBFE6
:10346000DF91CF911F910F91FF90EF90BF90AF90A0
:103470009F908F9008954FEF5FEF60E070E08BECCE
:1034800092E18EDF4FEF5FEF60E070E08BEC92E156
:103490001CDF4FEF5FEF60E070E08FE892E180DFCC
:1034A0004FEF5FEF60E070E08FE892E10EDF109287
:1034B000C909089540E058EF60E070E08BEC92E1BC
:1034C0006FDF40E058EF60E070E08BEC92E1FDDEF2
:1034D00040E058EF60E070E08FE892E161DF40E0AB
:1034E00058EF60E070E08FE892E1EFDE81E08093DA
:1034F000C90908954FEF5FEF60E070E087ED92E15A
:103500004FDF4FEF5FEF60E070E087ED92E1DDDECF
:103510004FEF5FEF60E070E08BE992E141DF4FEF4A
:103520005FEF60E070E08BE992E1CFDE1092C809B6
:1035300008954FEF5FEF60E070E08BEF92E130DFD6
:103540004FEF5FEF60E070E08BEF92E1BEDE4FEF98
:103550005FEF60E070E08FEB92E122DF4FEF5FEF13
:1035600060E070E08FEB92E1B0DE1092C709089541
:103570004FEF5FEF60E070E08BEF92E111DF40E032
:1035800058EF60E070E08BEF92E19FDE4FEF5FEF6E
:1035900060E070E08FEB92E103DF40E058EF60E025
:1035A00070E08FEB92E191DE81E08093C70908958E
:1035B00081E08093CA090E94303DDADF1092C4098D
:1035C0001092C30969E074E082E89DE00C94104019
:1035D00040E058EF60E070E08BEF92E1E1DE40E028
:1035E00058EF60E070E08BEF92E16FDE40E058EF63
:1035F00060E070E08FEB92E1D3DE40E058EF60E0F6
:1036000070E08FEB92E161DE81E08093C70908955D
:103610008091C809811137C08091C70981110E942A
:103620007F038091B909811104C08091C909882361
:1036300069F169E074E08CE79DE00E945A3F8111D6
:1036400025C00E94730640E058EF60E070E087ED0F
:1036500092E1A6DE40E058EF60E070E087ED92E195
:1036600034DE40E058EF60E070E08BE992E198DEF4
:1036700040E058EF60E070E08BE992E126DE81E007
:103680008093C809089536DF0C94BC03089583ED38
:1036900094E1BECFCF93DF9300D000D0CDB7DEB79B
:1036A0008091E609811102C00E94BC030E946D084E
:1036B00069E074E082E89DE00E9410401092C40925
:1036C0001092C3091092BC091092BD091092BE0954
:1036D0001092BF098091B9098823F1F04FEF5FEF95
:1036E00060E070E08FEE92E15BDE4FEF5FEF60E055
:1036F00070E08FEE92E1E9DD4FEF5FEF60E070E0A8
:1037000083EB92E14DDE4FEF5FEF60E070E083EB23
:1037100092E1DBDD1092B9098091C5098823F1F0AF
:103720004FEF5FEF60E070E083EE92E139DE4FEF44
:103730005FEF60E070E083EE92E1C7DD4FEF5FEF97
:1037400060E070E087EA92E12BDE4FEF5FEF60E030
:1037500070E087EA92E1B9DD1092C5098091C8094D
:103760008111C8DE8091C909811185DE31DF6DE2EA
:1037700074E0CE0101960E94FF04CE010196C3DAE7
:10378000CE0101960E94594060EC74E0CE01019692
:103790000E94FF04CE01019604DBCE0101960E9437
:1037A000594060EC74E0CE0101960E94FF04CE0106
:1037B0000196D1DACE0101960E94594069E074E089
:1037C0008CE79DE00E9410406091BC097091BD099A
:1037D0008091BE099091BF090E948D57AB01BC0139
:1037E00087E093E119DB6091BC097091BD0980917C
:1037F000BE099091BF090E948D57AB01BC0183EABD
:103800009DE00ADB0E944E048ED91092E5091092C9
:10381000C60926960FB6F894DEBF0FBECDBFDF9166
:10382000CF91089587E994E135CF66E172E08BE6A8
:1038300092E127DA87E994E12DCF1092C409109222
:10384000C30966E172E087E792E11BDA6091210229
:103850007091220280912302909124020E948D5740
:10386000AB01BC018BEF93E1D7DA6091210270913B
:10387000220280912302909124020E948D57AB0175
:10388000BC018BE293E1C8DA8091C009882331F052
:1038900040E050E0BA018FE193E117DD4091000272
:1038A00050910102052E000C660B770B8FE193E11E
:1038B000B3DA60911D0270911E0280911F029091F7
:1038C00020020E948D57AB01BC0183E193E1A4DA91
:1038D0006091BC097091BD098091BE099091BF09AA
:1038E0000E948D57AB01BC0187E093E195DA80918E
:1038F0005D036CEC73E0882311F06EEC73E083E7FA
:1039000093E1BFD987E994E1C5CE8BE593E195CFEB
:103910008BE593E192CF8BE593E18FCF8BE593E13C
:103920008CCFCF93DF9300D01F92CDB7DEB7198233
:103930001A821B821C82BE016F5F7F4F8BE392E174
:103940005DDB89819A81AB81BC8181309105A105C4
:10395000B105D9F080F00297A105B105F9F00E94F8
:10396000BC0387E994E196DE0F900F900F900F90C3
:10397000DF91CF9108951092C2091092C10969EDAB
:1039800073E087EE91E17DD9EACF81E090E09093FA
:10399000C2098093C10960EE73E0F3CF82E090E04A
:1039A0009093C2098093C10969EE73E0EACF8F92C8
:1039B0009F92AF92BF92CF92DF92EF92FF9280914F
:1039C000C3099091C4090197029708F045C08091FE
:1039D000820D9091830DC12CD12C7601009721F09E
:1039E0000E948A536B017C01C0922102D092220274
:1039F000E0922302F0922402C0921D02D0921E0295
:103A0000E0921F02F092200220E030E048EC52E405
:103A100060915E0370915F038091600390916103F8
:103A20000E9420574B015C01A701960160E070E005
:103A300086E994E40E9420579B01AC01C501B401C2
:103A40000E94D5556093DF097093E0098093E109E6
:103A50009093E2090E944E048091C3099091C40999
:103A6000892B31F48091CA09811102C00E947F0321
:103A70006091210270912202809123029091240290
:103A80000E948D57AB01BC018BEF93E1C5D96091CA
:103A900021027091220280912302909124020E94BF
:103AA0008D57AB01BC018BE293E1B6D960911D0249
:103AB00070911E0280911F02909120020E948D57EA
:103AC000AB01BC0183E193E1A7D987E994E1FF90C1
:103AD000EF90DF90CF90BF90AF909F908F90DACD16
:103AE0008091CA09811159C08091C3099091C4097C
:103AF000019709F039C081E08093C0090E943D3EE2
:103B00007093010260930002AB01770F660B770B95
:103B10008FE193E181D940E050E0BA018FE193E178
:103B2000D4DBE0910002F0910102EA30F105E0F40B
:103B30008827E256F24E8F4F0C94DF57A81DD01DF8
:103B4000D51DDA1DDF1DE41DE91DEE1DF31DF81D59
:103B50008DEC9CECACECBEEB8093B5099093B60970
:103B6000A093B709B093B8098091C3099091C40993
:103B7000892B49F41092C00940EE5FEF60E070E0DD
:103B80008FE193E1A2DB8091C3099091C409029770
:103B900014F00E947F030E944E0487E994E17ACDDD
:103BA0008AE999E9A9E9BEEBD7CF8DEC9CECACE4AE
:103BB000BEEBD2CF8DEC9CECACECBDEBCDCF8DEC65
:103BC0009CECACE4BDEBC8CF8DEC9CECACE4BDE36D
:103BD000C3CF8DEC9CECACECBDE3BECF8DEC9CEC8C
:103BE000ACE4BEE3B9CF8AE999E9A9E9BEE3B4CF71
:103BF0008DEC9CECACECBEE3AFCF4F925F926F923A
:103C00007F928F929F92AF92BF92CF92DF92EF926C
:103C1000FF92CF93DF9300D01F92CDB7DEB7C09055
:103C20002102D0902202E0902302F09024028091A1
:103C3000CA0981111AC00E943D3E0E9476556093C8
:103C40001D0270931E0280931F02909320028091A8
:103C5000C3099091C409892B41F4C0921D02D092EE
:103C60001E02E0921F02F092200240901D0250902E
:103C70001E0260901F027090200220E030E048ECAD
:103C800052E460915E0370915F03809160039091B4
:103C900061030E9420574B015C0120E030E046E9BF
:103CA00053E4C701B6010E94D55569837A838B839B
:103CB0009C8320E030E04AE353E4C301B2010E9458
:103CC000D5559B01AC0169817A818B819C810E94D1
:103CD000BB569B01AC01C501B4010E94D5554B01F7
:103CE0005C0120E030E04EEB52E4C701B6010E94D7
:103CF000D555A30192010E94D5559B01AC01C50188
:103D0000B4010E94205720E030E04AE754E40E94CA
:103D1000D5556093DB097093DC098093DD0990939E
:103D2000DE0920E030E0A9010E94B95787FD26C0D6
:103D30000E944E0460911D0270911E0280911F022C
:103D4000909120020E948D57AB01BC0183E193E169
:103D500063D887E994E10F900F900F900F90DF9157
:103D6000CF91FF90EF90DF90CF90BF90AF909F905A
:103D70008F907F906F905F904F908CCC0E947F03CC
:103D8000E8CF8091CA09882319F087E994E182CCB1
:103D90008091C709882321F1CCDB40E058EF60E037
:103DA00070E08FEE92E1FCDA40E058EF60E070E006
:103DB0008FEE92E18ADA40E058EF60E070E083EB4A
:103DC00092E1EEDA40E058EF60E070E083EB92E1E0
:103DD0007CDA81E08093B9098093E5090C944E0464
:103DE0001092E50987E994E155DCF8CF87EF94E17B
:103DF000C8CFCF93DF9300D000D0CDB7DEB780918E
:103E0000C809882359F169E074E08CE79DE00E94BD
:103E1000104069E074E0CE0101960E94FF04CE01DB
:103E200001960E94D116CE0101960E94594069E088
:103E300074E0CE0101960E94FF04CE0101960E941B
:103E4000AB16CE0101960E94594026960FB6F89403
:103E5000DEBF0FBECDBFDF91CF9108958091CA091B
:103E6000811160C00E94BC038091C3099091C40974
:103E70008130910509F446C08230910509F442C0B1
:103E8000892B09F04CC01092BC091092BD09109208
:103E9000BE091092BF0969E074E082E89DE00E94CB
:103EA00010401092C4091092C3096091BC0970912E
:103EB000BD098091BE099091BF090E948D57AB0149
:103EC000BC0187E093E10E940C176091BC097091DE
:103ED000BD098091BE099091BF090E948D57AB0129
:103EE000BC0183EA9DE00E940C170E944E046DE223
:103EF00074E0CE0101960E94FF04CE0101960E945B
:103F000083169FCF0E943D3E0E9476556093BC0968
:103F10007093BD098093BE099093BF09BCCF0E94E6
:103F20007F03E5CF87E994E1B5DB8FCF8BEE94E19A
:103F300060CFCF93DF9300D000D0CDB7DEB76CE772
:103F40007DE0CE0101960E94F60461E374E0CE01AB
:103F500001960E94CC3FBC018CE79DE00E9444404A
:103F6000CE0101960E94594026960FB6F894DEBF06
:103F70000FBECDBFDF91CF910895DBCFCF93DF93FD
:103F800000D000D0CDB7DEB76CE77DE0CE01019662
:103F90000E94F60464E374E0CE0101960E94CC3FD7
:103FA000BC018CE79DE00E944440CE0101960E9436
:103FB000594026960FB6F894DEBF0FBECDBFDF91F5
:103FC000CF910895CF93DF9300D000D0CDB7DEB767
:103FD0006CE77DE0CE0101960E94F60468E374E090
:103FE000CE0101960E94CC3FBC018CE79DE00E946F
:103FF0004440CE0101960E94594026960FB6F8948F
:10400000DEBF0FBECDBFDF91CF910895CF93DF9379
:1040100000D000D0CDB7DEB78091C5096CE77DE058
:104020008823E1F0CE0101960E94F6046CE374E06F
:10403000CE0101960E94CC3FBC018CE79DE00E941E
:104040004440CE0101960E94594026960FB6F8943E
:10405000DEBF0FBECDBFDF91CF910895CE01019697
:104060000E94F60466E172E0E3CFCF93DF9300D0C5
:1040700000D0CDB7DEB76CE77DE0CE0101960E949F
:10408000F6046EE374E0CE0101960E94CC3FBC01C1
:104090008CE79DE00E944440CE0101960E94594069
:1040A00026960FB6F894DEBF0FBECDBFDF91CF913D
:1040B0000895CF93DF9300D000D0CDB7DEB76CE783
:1040C0007DE0CE0101960E94F60461E474E0CE0129
:1040D00001960E94CC3FBC018CE79DE00E944440C9
:1040E000CE0101960E94594026960FB6F894DEBF85
:1040F0000FBECDBFDF91CF910895CF93DF9300D056
:1041000000D0CDB7DEB76CE77DE0CE0101960E940E
:10411000F60464E474E0CE0101960E94CC3FBC0139
:104120008CE79DE00E944440CE0101960E945940D8
:1041300026960FB6F894DEBF0FBECDBFDF91CF91AC
:104140000895CF93DF9300D000D0CDB7DEB76CE7F2
:104150007DE0CE0101960E94F60466E474E0CE0193
:1041600001960E94CC3FBC018CE79DE00E94444038
:10417000CE0101960E94594026960FB6F894DEBFF4
:104180000FBECDBFDF91CF910895CF93DF9300D0C5
:1041900000D0CDB7DEB76CE77DE0CE0101960E947E
:1041A000F60468E474E0CE0101960E94CC3FBC01A5
:1041B0008CE79DE00E944440CE0101960E94594048
:1041C00026960FB6F894DEBF0FBECDBFDF91CF911C
:1041D0000895CF93DF9300D000D0CDB7DEB76CE762
:1041E0007DE0CE0101960E94F60469E774E0CE01FD
:1041F00001960E94CC3FBC018CE79DE00E944440A8
:10420000CE0101960E94594026960FB6F894DEBF63
:104210000FBECDBFDF91CF910895CF93DF9300D034
:1042200000D0CDB7DEB76CE77DE0CE0101960E94ED
:10423000F6046AE474E0CE0101960E94CC3FBC0112
:104240008CE79DE00E944440CE0101960E945940B7
:1042500026960FB6F894DEBF0FBECDBFDF91CF918B
:104260000895CF93DF9300D000D0CDB7DEB76CE7D1
:104270007DE0CE0101960E94F6046DE474E0CE016B
:1042800001960E94CC3FBC018CE79DE00E94444017
:10429000CE0101960E94594026960FB6F894DEBFD3
:1042A0000FBECDBFDF91CF910895CF93DF9300D0A4
:1042B00000D0CDB7DEB76CE77DE0CE0101960E945D
:1042C000F60462E574E0CE0101960E94CC3FBC0189
:1042D0008CE79DE00E944440CE0101960E94594027
:1042E00026960FB6F894DEBF0FBECDBFDF91CF91FB
:1042F0000895CF93DF9300D000D0CDB7DEB76CE741
:104300007DE0CE0101960E94F60467E574E0CE01DF
:1043100001960E94CC3FBC018CE79DE00E94444086
:10432000CE0101960E94594026960FB6F894DEBF42
:104330000FBECDBFDF91CF910895CF93DF9300D013
:1043400000D0CDB7DEB76CE77DE0CE0101960E94CC
:10435000F6046CE574E0CE0101960E94CC3FBC01EE
:104360008CE79DE00E944440CE0101960E94594096
:1043700026960FB6F894DEBF0FBECDBFDF91CF916A
:104380000895CF93DF9300D000D0CDB7DEB76CE7B0
:104390007DE0CE0101960E94F6046FE574E0CE0147
:1043A00001960E94CC3FBC018CE79DE00E944440F6
:1043B000CE0101960E94594026960FB6F894DEBFB2
:1043C0000FBECDBFDF91CF910895CF93DF9300D083
:1043D00000D0CDB7DEB76CE77DE0CE0101960E943C
:1043E000F60463E674E0CE0101960E94CC3FBC0166
:1043F0008CE79DE00E944440CE0101960E94594006
:1044000026960FB6F894DEBF0FBECDBFDF91CF91D9
:104410000895CF93DF9300D000D0CDB7DEB76CE71F
:104420007DE0CE0101960E94F60467E674E0CE01BD
:1044300001960E94CC3FBC018CE79DE00E94444065
:10444000CE0101960E94594026960FB6F894DEBF21
:104450000FBECDBFDF91CF910895CF93DF9300D0F2
:1044600000D0CDB7DEB76CE77DE0CE0101960E94AB
:10447000F6046CE674E0CE0101960E94CC3FBC01CC
:104480008CE79DE00E944440CE0101960E94594075
:1044900026960FB6F894DEBF0FBECDBFDF91CF9149
:1044A0000895CF93DF9300D000D0CDB7DEB76CE78F
:1044B0007DE0CE0101960E94F60467ED73E0CE0127
:1044C00001960E94CC3FBC018CE79DE00E944440D5
:1044D000CE0101960E94594026960FB6F894DEBF91
:1044E0000FBECDBFDF91CF910895CF93DF9300D062
:1044F00000D0CDB7DEB76CE77DE0CE0101960E941B
:10450000F60460EC74E0CE0101960E94CC3FBC0141
:104510008CE79DE00E944440CE0101960E945940E4
:1045200026960FB6F894DEBF0FBECDBFDF91CF91B8
:104530000895CF93DF9300D000D0CDB7DEB76CE7FE
:104540007DE0CE0101960E94F60467E774E0CE019B
:1045500001960E94CC3FBC018CE79DE00E94444044
:10456000CE0101960E94594026960FB6F894DEBF00
:104570000FBECDBFDF91CF910895CF93DF9300D0D1
:1045800000D0CDB7DEB76CE77DE0CE0101960E948A
:10459000F6046BE279E0CE0101960E94CC3FBC01AB
:1045A0008CE79DE00E944440CE0101960E94594054
:1045B00026960FB6F894DEBF0FBECDBFDF91CF9128
:1045C0000895CF93DF9300D000D0CDB7DEB76CE76E
:1045D0007DE0CE0101960E94F60462EB78E0CE0108
:1045E00001960E94CC3FBC018CE79DE00E944440B4
:1045F000CE0101960E94594026960FB6F894DEBF70
:104600000FBECDBFDF91CF910895CF93DF9300D040
:1046100000D0CDB7DEB76CE77DE0CE0101960E94F9
:10462000F6046EEA78E0CE0101960E94CC3FBC0110
:104630008CE79DE00E944440CE0101960E945940C3
:1046400026960FB6F894DEBF0FBECDBFDF91CF9197
:104650000895CF93DF9300D000D0CDB7DEB76CE7DD
:104660007DE0CE0101960E94F6046AEA78E0CE0170
:1046700001960E94CC3FBC018CE79DE00E94444023
:10468000CE0101960E94594026960FB6F894DEBFDF
:104690000FBECDBFDF91CF910895CF93DF9300D0B0
:1046A00000D0CDB7DEB76CE77DE0CE0101960E9469
:1046B000F60466EA78E0CE0101960E94CC3FBC0188
:1046C0008CE79DE00E944440CE0101960E94594033
:1046D00026960FB6F894DEBF0FBECDBFDF91CF9107
:1046E0000895CF93DF9300D000D0CDB7DEB76CE74D
:1046F0007DE0CE0101960E94F60462EA78E0CE01E8
:1047000001960E94CC3FBC018CE79DE00E94444092
:10471000CE0101960E94594026960FB6F894DEBF4E
:104720000FBECDBFDF91CF910895CF93DF9300D01F
:1047300000D0CDB7DEB76CE77DE0CE0101960E94D8
:10474000F6046EE978E0CE0101960E94CC3FBC01F0
:104750008CE79DE00E944440CE0101960E945940A2
:1047600026960FB6F894DEBF0FBECDBFDF91CF9176
:104770000895CF93DF9300D000D0CDB7DEB76CE7BC
:104780007DE0CE0101960E94F6046AE978E0CE0150
:1047900001960E94CC3FBC018CE79DE00E94444002
:1047A000CE0101960E94594026960FB6F894DEBFBE
:1047B0000FBECDBFDF91CF910895CF93DF9300D08F
:1047C00000D0CDB7DEB76CE77DE0CE0101960E9448
:1047D000F60469E975E0CE0101960E94CC3FBC0168
:1047E0008CE79DE00E944440CE0101960E94594012
:1047F00026960FB6F894DEBF0FBECDBFDF91CF91E6
:104800000895CF93DF9300D000D0CDB7DEB76CE72B
:104810007DE0CE0101960E94F60463EF74E0CE01C4
:1048200001960E94CC3FBC018CE79DE00E94444071
:10483000CE0101960E94594026960FB6F894DEBF2D
:104840000FBECDBFDF91CF910895CF93DF9300D0FE
:1048500000D0CDB7DEB76CE77DE0CE0101960E94B7
:10486000F6046AE374E0CE0101960E94CC3FBC01DD
:104870008CE79DE00E944440CE0101960E94594081
:1048800026960FB6F894DEBF0FBECDBFDF91CF9155
:104890000895CF93DF9300D000D0CDB7DEB76CE79B
:1048A0007DE0CE0101960E94F6046BE774E0CE0134
:1048B00001960E94CC3FBC018CE79DE00E944440E1
:1048C000CE0101960E94594026960FB6F894DEBF9D
:1048D0000FBECDBFDF91CF910895CF93DF9300D06E
:1048E00000D0CDB7DEB76CE77DE0CE0101960E9427
:1048F000F6046DE774E0CE0101960E94CC3FBC0146
:104900008CE79DE00E944440CE0101960E945940F0
:1049100026960FB6F894DEBF0FBECDBFDF91CF91C4
:104920000895CF93DF9300D000D0CDB7DEB76CE70A
:104930007DE0CE0101960E94F6046FE774E0CE019F
:1049400001960E94CC3FBC018CE79DE00E94444050
:10495000CE0101960E94594026960FB6F894DEBF0C
:104960000FBECDBFDF91CF910895CF93DF9300D0DD
:1049700000D0CDB7DEB76CE77DE0CE0101960E9496
:10498000F60467EE74E0CE0101960E94CC3FBC01B4
:104990008CE79DE00E944440CE0101960E94594060
:1049A00026960FB6F894DEBF0FBECDBFDF91CF9134
:1049B0000895CF93DF9300D000D0CDB7DEB76CE77A
:1049C0007DE0CE0101960E94F6046FE677E0CE010D
:1049D00001960E94CC3FBC018CE79DE00E944440C0
:1049E000CE0101960E94594026960FB6F894DEBF7C
:1049F0000FBECDBFDF91CF910895CF93DF9300D04D
:104A000000D0CDB7DEB76CE77DE0CE0101960E9405
:104A1000F60461E476E0CE0101960E94CC3FBC0131
:104A20008CE79DE00E944440CE0101960E945940CF
:104A300026960FB6F894DEBF0FBECDBFDF91CF91A3
:104A40000895CF93DF9300D000D0CDB7DEB76CE7E9
:104A50007DE0CE0101960E94F60464ED77E0CE0180
:104A600001960E94CC3FBC018CE79DE00E9444402F
:104A7000CE0101960E94594026960FB6F894DEBFEB
:104A80000FBECDBFDF91CF910895CF93DF9300D0BC
:104A900000D0CDB7DEB76CE77DE0CE0101960E9475
:104AA000F60461E874E0CE0101960E94CC3FBC019F
:104AB0008CE79DE00E944440CE0101960E9459403F
:104AC00026960FB6F894DEBF0FBECDBFDF91CF9113
:104AD0000895CF93DF9300D000D0CDB7DEB76CE759
:104AE0007DE0CE0101960E94F6046EED78E0CE01E5
:104AF00001960E94CC3FBC018CE79DE00E9444409F
:104B0000CE0101960E94594026960FB6F894DEBF5A
:104B10000FBECDBFDF91CF910895CF93DF9300D02B
:104B200000D0CDB7DEB76CE77DE0CE0101960E94E4
:104B3000F6046AE674E0CE0101960E94CC3FBC0107
:104B40008CE79DE00E944440CE0101960E945940AE
:104B500026960FB6F894DEBF0FBECDBFDF91CF9182
:104B60000895CF93DF9300D000D0CDB7DEB76CE7C8
:104B70007DE0CE0101960E94F60465EF73E0CE0160
:104B800001960E94CC3FBC018CE79DE00E9444400E
:104B9000CE0101960E94594026960FB6F894DEBFCA
:104BA0000FBECDBFDF91CF910895CF93DF9300D09B
:104BB00000D0CDB7DEB76CE77DE0CE0101960E9454
:104BC000F60469EC74E0CE0101960E94CC3FBC0172
:104BD0008CE79DE00E944440CE0101960E9459401E
:104BE00026960FB6F894DEBF0FBECDBFDF91CF91F2
:104BF0000895CF93DF9300D000D0CDB7DEB76CE738
:104C00007DE0CE0101960E94F60463E874E0CE01D7
:104C100001960E94CC3FBC018CE79DE00E9444407D
:104C2000CE0101960E94594026960FB6F894DEBF39
:104C30000FBECDBFDF91CF910895CF93DF9300D00A
:104C400000D0CDB7DEB76CE77DE0CE0101960E94C3
:104C5000F6046FE577E0CE0101960E94CC3FBC01DF
:104C60008CE79DE00E944440CE0101960E9459408D
:104C700026960FB6F894DEBF0FBECDBFDF91CF9161
:104C80000895CF93DF9300D000D0CDB7DEB76CE7A7
:104C90007DE0CE0101960E94F60466E374E0CE0149
:104CA00001960E94CC3FBC018CE79DE00E944440ED
:104CB000CE0101960E94594026960FB6F894DEBFA9
:104CC0000FBECDBFDF91CF910895CF93DF9300D07A
:104CD00000D0CDB7DEB76CE77DE0CE0101960E9433
:104CE000F60466EB77E0CE0101960E94CC3FBC0152
:104CF0008CE79DE00E944440CE0101960E945940FD
:104D000026960FB6F894DEBF0FBECDBFDF91CF91D0
:104D10000895CF93DF9300D000D0CDB7DEB76CE716
:104D20007DE0CE0101960E94F60467EE73E0CE01AD
:104D300001960E94CC3FBC018CE79DE00E9444405C
:104D4000CE0101960E94594026960FB6F894DEBF18
:104D50000FBECDBFDF91CF910895CF93DF9300D0E9
:104D600000D0CDB7DEB76CE77DE0CE0101960E94A2
:104D7000F6046DE777E0CE0101960E94CC3FBC01BE
:104D80008CE79DE00E944440CE0101960E9459406C
:104D900026960FB6F894DEBF0FBECDBFDF91CF9140
:104DA0000895CF93DF9300D000D0CDB7DEB76CE786
:104DB0007DE0CE0101960E94F60465E874E0CE0124
:104DC00001960E94CC3FBC018CE79DE00E944440CC
:104DD000CE0101960E94594026960FB6F894DEBF88
:104DE0000FBECDBFDF91CF910895CF93DF9300D059
:104DF00000D0CDB7DEB76CE77DE0CE0101960E9412
:104E0000F60467E874E0CE0101960E94CC3FBC0135
:104E10008CE79DE00E944440CE0101960E945940DB
:104E200026960FB6F894DEBF0FBECDBFDF91CF91AF
:104E30000895CF93DF9300D000D0CDB7DEB76CE7F5
:104E40007DE0CE0101960E94F60468EB75E0CE018C
:104E500001960E94CC3FBC018CE79DE00E9444403B
:104E6000CE0101960E94594026960FB6F894DEBFF7
:104E70000FBECDBFDF91CF910895CF93DF9300D0C8
:104E800000D0CDB7DEB76CE77DE0CE0101960E9481
:104E9000F60469E874E0CE0101960E94CC3FBC01A3
:104EA0008CE79DE00E944440CE0101960E9459404B
:104EB00026960FB6F894DEBF0FBECDBFDF91CF911F
:104EC0000895CF93DF9300D000D0CDB7DEB76CE765
:104ED0007DE0CE0101960E94F6046BE874E0CE01FD
:104EE00001960E94CC3FBC018CE79DE00E944440AB
:104EF000CE0101960E94594026960FB6F894DEBF67
:104F00000FBECDBFDF91CF910895CF93DF9300D037
:104F100000D0CDB7DEB76CE77DE0CE0101960E94F0
:104F2000F6046EE974E0CE0101960E94CC3FBC010C
:104F30008CE79DE00E944440CE0101960E945940BA
:104F400026960FB6F894DEBF0FBECDBFDF91CF918E
:104F50000895CF93DF9300D000D0CDB7DEB76CE7D4
:104F60007DE0CE0101960E94F60461E376E0CE0179
:104F700001960E94CC3FBC018CE79DE00E9444401A
:104F8000CE0101960E94594026960FB6F894DEBFD6
:104F90000FBECDBFDF91CF910895CF93DF9300D0A7
:104FA00000D0CDB7DEB76CE77DE0CE0101960E9460
:104FB000F6046DE874E0CE0101960E94CC3FBC017E
:104FC0008CE79DE00E944440CE0101960E9459402A
:104FD00026960FB6F894DEBF0FBECDBFDF91CF91FE
:104FE0000895CF93DF9300D000D0CDB7DEB76CE744
:104FF0007DE0CE0101960E94F6046DE576E0CE01DB
:1050000001960E94CC3FBC018CE79DE00E94444089
:10501000CE0101960E94594026960FB6F894DEBF45
:105020000FBECDBFDF91CF910895CF93DF9300D016
:1050300000D0CDB7DEB76CE77DE0CE0101960E94CF
:10504000F60462E374E0CE0101960E94CC3FBC01FD
:105050008CE79DE00E944440CE0101960E94594099
:1050600026960FB6F894DEBF0FBECDBFDF91CF916D
:105070000895CF93DF9300D000D0CDB7DEB76CE7B3
:105080007DE0CE0101960E94F6046FE874E0CE0147
:1050900001960E94CC3FBC018CE79DE00E944440F9
:1050A000CE0101960E94594026960FB6F894DEBFB5
:1050B0000FBECDBFDF91CF910895CF93DF9300D086
:1050C00000D0CDB7DEB78091C3099091C409029793
:1050D00024F01092C4091092C3098091CA09882350
:1050E00051F084E090E09093C4098093C3090E943A
:1050F000E81A0E94BC030E94B81A8091C3099091DB
:10510000C409019701F562E87DE0CE0101960E9495
:10511000F60462EB78E0CE0101960E94CC3FBC0120
:1051200082E89DE00E944440CE0101960E945940D1
:105130008091C3099091C40901969093C40980930A
:10514000C3090E9473068091C3099091C409892BF9
:1051500089F462EB78E082E89DE00E941040809143
:10516000C3099091C40901969093C4098093C3091F
:105170000E94BC0362E87DE0CE0101960E94F60425
:10518000CE0101960E948316CE0101960E945940DD
:105190008091CA0981110E94E81A0E946D08269622
:1051A0000FB6F894DEBF0FBECDBFDF91CF9108954B
:1051B0008FE793E182CFCF93DF9300D000D0CDB7BC
:1051C000DEB78091C3099091C409029724F0109230
:1051D000C4091092C3098091CA09882351F084E060
:1051E00090E09093C4098093C3090E94E81A0E943A
:1051F000BC030E94B81A8091C3099091C409019719
:1052000001F562E87DE0CE0101960E94F6046EEAA7
:1052100078E0CE0101960E94CC3FBC0182E89DE07F
:105220000E944440CE0101960E9459408091C309DA
:105230009091C40901969093C4098093C3090E9478
:1052400073068091C3099091C409892B89F46EEA91
:1052500078E082E89DE00E9410408091C30990911F
:10526000C40901969093C4098093C3090E94BC03AA
:1052700062E87DE0CE0101960E94F604CE0101961F
:105280000E948316CE0101960E9459408091CA095E
:1052900081110E94E81A0E946D0826960FB6F894B4
:1052A000DEBF0FBECDBFDF91CF9108958BE893E1B4
:1052B00082CFCF93DF9300D000D0CDB7DEB78091FF
:1052C000C3099091C409029724F01092C409109266
:1052D000C3098091CA09882351F084E090E090933B
:1052E000C4098093C3090E94E81A0E94BC030E946B
:1052F000B81A8091C3099091C409019701F562E839
:105300007DE0CE0101960E94F6046AEA78E0CE01C3
:1053100001960E94CC3FBC0182E89DE00E9444407F
:10532000CE0101960E9459408091C3099091C40911
:1053300001969093C4098093C3090E9473068091DB
:10534000C3099091C409892B89F46AEA78E082E85C
:105350009DE00E9410408091C3099091C40901967C
:105360009093C4098093C3090E94BC0362E87DE066
:10537000CE0101960E94F604CE0101960E9483168A
:10538000CE0101960E9459408091CA0981110E9464
:10539000E81A0E946D0826960FB6F894DEBF0FBE7D
:1053A000CDBFDF91CF91089587E993E182CFCF936D
:1053B000DF9300D000D0CDB7DEB78091C3099091C4
:1053C000C409029724F01092C4091092C309809175
:1053D000CA09882351F084E090E09093C409809337
:1053E000C3090E94E81A0E94BC030E94B81A809167
:1053F000C3099091C409019701F562E87DE0CE01EF
:1054000001960E94F60466EA78E0CE0101960E94B9
:10541000CC3FBC0182E89DE00E944440CE01019651
:105420000E9459408091C3099091C40901969093BC
:10543000C4098093C3090E9473068091C3099091A7
:10544000C409892B89F466EA78E082E89DE00E942D
:1054500010408091C3099091C40901969093C409AA
:105460008093C3090E94BC0362E87DE0CE010196EF
:105470000E94F604CE0101960E948316CE01019689
:105480000E9459408091CA0981110E94E81A0E9425
:105490006D0826960FB6F894DEBF0FBECDBFDF9124
:1054A000CF91089583EA93E182CFCF93DF9300D029
:1054B00000D0CDB7DEB78091C3099091C40902979F
:1054C00024F01092C4091092C3098091CA0988235C
:1054D00051F084E090E09093C4098093C3090E9446
:1054E000E81A0E94BC030E94B81A8091C3099091E7
:1054F000C409019701F562E87DE0CE0101960E94A2
:10550000F60462EA78E0CE0101960E94CC3FBC012D
:1055100082E89DE00E944440CE0101960E945940DD
:105520008091C3099091C40901969093C409809316
:10553000C3090E9473068091C3099091C409892B05
:1055400089F462EA78E082E89DE00E941040809150
:10555000C3099091C40901969093C4098093C3092B
:105560000E94BC0362E87DE0CE0101960E94F60431
:10557000CE0101960E948316CE0101960E945940E9
:105580008091CA0981110E94E81A0E946D0826962E
:105590000FB6F894DEBF0FBECDBFDF91CF91089557
:1055A0008FEA93E182CFCF93DF9300D000D0CDB7C5
:1055B000DEB78091C3099091C409029724F010923C
:1055C000C4091092C3098091CA09882351F084E06C
:1055D00090E09093C4098093C3090E94E81A0E9446
:1055E000BC030E94B81A8091C3099091C409019725
:1055F00001F562E87DE0CE0101960E94F6046EE9B5
:1056000078E0CE0101960E94CC3FBC0182E89DE08B
:105610000E944440CE0101960E9459408091C309E6
:105620009091C40901969093C4098093C3090E9484
:1056300073068091C3099091C409892B89F46EE99E
:1056400078E082E89DE00E9410408091C30990912B
:10565000C40901969093C4098093C3090E94BC03B6
:1056600062E87DE0CE0101960E94F604CE0101962B
:105670000E948316CE0101960E9459408091CA096A
:1056800081110E94E81A0E946D0826960FB6F894C0
:10569000DEBF0FBECDBFDF91CF9108958BEB93E1BD
:1056A00082CFCF93DF9300D000D0CDB7DEB780910B
:1056B000C3099091C409029724F01092C409109272
:1056C000C3098091CA09882351F084E090E0909347
:1056D000C4098093C3090E94E81A0E94BC030E9477
:1056E000B81A8091C3099091C409019701F562E845
:1056F0007DE0CE0101960E94F6046AE978E0CE01D1
:1057000001960E94CC3FBC0182E89DE00E9444408B
:10571000CE0101960E9459408091C3099091C4091D
:1057200001969093C4098093C3090E9473068091E7
:10573000C3099091C409892B89F46AE978E082E869
:105740009DE00E9410408091C3099091C409019688
:105750009093C4098093C3090E94BC0362E87DE072
:10576000CE0101960E94F604CE0101960E94831696
:10577000CE0101960E9459408091CA0981110E9470
:10578000E81A0E946D0826960FB6F894DEBF0FBE89
:10579000CDBFDF91CF91089587EC93E182CFCF9376
:1057A000DF9300D000D0CDB7DEB78091C3099091D0
:1057B000C409029724F01092C4091092C309809181
:1057C000CA09882351F084E090E09093C409809343
:1057D000C3090E94E81A0E94BC030E94B81A809173
:1057E000C3099091C409019701F562E87DE0CE01FB
:1057F00001960E94F60469E975E0CE0101960E94C7
:10580000CC3FBC0182E89DE00E944440CE0101965D
:105810000E9459408091C3099091C40901969093C8
:10582000C4098093C3090E9473068091C3099091B3
:10583000C409892B89F469E975E082E89DE00E943A
:1058400010408091C3099091C40901969093C409B6
:105850008093C3090E94BC0362E87DE0CE010196FB
:105860000E94F604CE0101960E948316CE01019695
:105870000E9459408091CA0981110E94E81A0E9431
:105880006D0826960FB6F894DEBF0FBECDBFDF9130
:10589000CF91089583ED93E182CFCF93DF9300D032
:1058A00000D0CDB7DEB78091C3099091C4090297AB
:1058B00024F01092C4091092C3098091CA09882368
:1058C00051F084E090E09093C4098093C3090E9452
:1058D000E81A0E94BC030E94B81A8091C3099091F3
:1058E000C409019701F562E87DE0CE0101960E94AE
:1058F000F60463EF74E0CE0101960E94CC3FBC0138
:1059000082E89DE00E944440CE0101960E945940E9
:105910008091C3099091C40901969093C409809322
:10592000C3090E9473068091C3099091C409892B11
:1059300089F463EF74E082E89DE00E94104080915A
:10594000C3099091C40901969093C4098093C30937
:105950000E94BC0362E87DE0CE0101960E94F6043D
:10596000CE0101960E948316CE0101960E945940F5
:105970008091CA0981110E94E81A0E946D0826963A
:105980000FB6F894DEBF0FBECDBFDF91CF91089563
:105990008FED93E182CFCF93DF9300D000D0CDB7CE
:1059A000DEB78091C3099091C409029724F0109248
:1059B000C4091092C3098091CA09882351F084E078
:1059C00090E09093C4098093C3090E94E81A0E9452
:1059D000BC030E94B81A8091C3099091C409019731
:1059E00001F562E87DE0CE0101960E94F6046BE2CB
:1059F00079E0CE0101960E94CC3FBC0182E89DE097
:105A00000E944440CE0101960E9459408091C309F2
:105A10009091C40901969093C4098093C3090E9490
:105A200073068091C3099091C409892B89F46BE2B4
:105A300079E082E89DE00E9410408091C309909136
:105A4000C40901969093C4098093C3090E94BC03C2
:105A500062E87DE0CE0101960E94F604CE01019637
:105A60000E948316CE0101960E9459408091CA0976
:105A700081110E94E81A0E946D0826960FB6F894CC
:105A8000DEBF0FBECDBFDF91CF9108958BEE93E1C6
:105A900082CFBF92CF92DF92EF92FF920F931F932C
:105AA000CF93DF93CDB7DEB7EC970FB6F894DEBF98
:105AB0000FBECDBF8091CA098823B1F00E947F0339
:105AC00087E994E10E944A1BEC960FB6F894DEBF7A
:105AD0000FBECDBFDF91CF911F910F91FF90EF903F
