:100000000C941E030C94250A0C94FA090C94CF0945
:100010000C94A4090C9479090C944E090C942309AE
:100020000C94F8080C944F030C944F030C944F035A
:100030000C944F030C944F030C944F030C944F03F8
:100040000C944F030C945E0A0C944F030C944F03D2
:100050000C944F030C944F030C944F030C94AE0874
:100060000C944F030C94C2070C9498070C944F0304
:100070000C944F030C944F030C944F030C944F03B8
:100080000C944F030C944F030C944F030C944F03A8
:100090000C9462070C9438070C944F030C944F0394
:1000A0000C944F030C944F030C944F030C944F0388
:1000B0000C944F030C944F030C944F030C944F0378
:1000C0000C944F030C944F030C944F030C944F0368
:1000D0000C944F030C944F030C944F030C944F0358
:1000E0000C944F030C9469230C94A1030C94FE2CE4
:1000F0000C9419380C948E2D0C9462050C94E629FE
:100100000C943E260C94A3130C9481200C94E621AD
:100110000C94722B0C9462260C94383C0C94493845
:100120000C9446230C94EA360C943A380C94522AD8
:100130000C944B310C9413380C946B240C941228AF
:100140000C946F240C944F310C94462D0C94022C7B
:100150000C94D0300C940A2A0C9435250C949A2ACD
:100160000C9482380C94CE040C945A210C944D3289
:100170000C94B62C0C94AF030C941A260C946E2C91
:100180000C94DC040C942C1B0C94EA210C94F221AA
:100190000C9416270C9436280C949A1C0C94553801
:1001A0000C94C4180C94BC380C940E290C94222D79
:1001B0000C94D0120C9458380C94532F0C94262C79
:1001C0000C94552E0C94DC050C94512E0C947B153C
:1001D0000C9428380C945E270C940A380C94720501
:1001E0000C94FF1F0C947F380C94AE1B0C94F103FD
:1001F0000C9494380C946A2D0C94CA310C94922C63
:100200000C9429190C943A270C945A280C94DA2C43
:100210000C940D250C94AF040C9486180C94CA27EA
:100220000C9450230C9451300C942B380C94CE31F8
:100230000C94D6050C9457170C94AA260C94B3046E
:100240000C948B380C94A6270C9493350C94E705EA
:100250000C94061B0C9451030C94CE260C94EE21A6
:100260000C94C53B0C9404380C94B6380C94E005FF
:100270000C94C1380C9470380C944A2C0C94163899
:100280000C9422380C947C380C94C8040C944005CF
:100290000C94421D0C945F230C94F6250C94FF06DD
:1002A0000C94AE250C9485380C94D21B0C94103809
:1002B0000C94BE040C945B250C944C380C9491382F
:1002C0000C94D62D0C94D6040C94D42E0C949E2908
:1002D0000C9437380C9461380C94EA040C94D204D2
:1002E0000C94D22F0C944F380C94CC300C94C40442
:1002F0000C942E380C9443380C9479380C94B33801
:100300000C9411250C942A2B0C946D380C94E22A31
:100310000C944E150C94E9450C94BB040C94642386
:100320000C94E6050C94E2210C94F9450C94CC3223
:100330000C94DA050C947F250C9429200C9442052A
:100340000C9434380C9437250C9471180C94D225E5
:100350000C94F2260C94EE040C94701C0C947A29E4
:100360000C94BA2B0C941C380C94EA280C94B70407
:100370000C94DE2B0C947E030C94AB1F0C943B224C
:100380000C9464380C94C6280C948D030C942F2480
:100390000C940D380C94EE270C94F5180C94E4058D
:1003A0000C9432060C9467380C9456290C94762AD7
:1003B0000C94E4040C9476380C944E2B0C94391F56
:1003C0000C94041F0C9486260C944B230C946A38CE
:1003D0000C945E210C94BE2A0C94C8320C9497386D
:1003E0000C94B0380C94E9040C945D390C94C22937
:1003F0000C9412230C94D51F0C94E0040C94001D53
:100400000C94A70A0C9457200C949A380C94A228A8
:100410000C945B380C943D380C94F2370C945238A1
:100420000C94DE050C945A230C945E040C94D02E8C
:100430000C94962B0C9488380C9431380C94A904A5
:100440000C94811F0C94B22D0C944D300C947D1F94
:100450000C9441230C9438130C9455230C9432299A
:100460000C94941A0C948E380C94E2050C94493236
:100470000C947E280C9468210C944F2F0C943C23F0
:100480000C941F380C9441050C943E040C94403895
:100490000C94B91B0C9482270C9446380C945E384B
:1004A0000C94DA120C94CE2F0C9473380C946817B9
:1004B0000C9407380C9401380C9425380C94B938F6
:1004C0000C942E2A0C94062B0C94D8224E414E49A3
:1004D0004E495459494E46CDCCCC3D0AD7233C1702
:1004E000B7D13877CC2B329595E6241FB14F0A004F
:1004F0000020410000C84200401C4620BCBE4CCA3F
:100500001B0E5AAEC59D747C3C3E5E2B3D3F2F5B5F
:100510005D3B2C2A225C0000002200250028002BD5
:10052000002E003100340002010000050108010B1B
:1005300001000020002300260029002C002F00329B
:10054000000001000003010601090100000A0B027E
:10055000090C0D0E08070304010000000000000054
:10056000000000000000000000000000000000008B
:100570000000000000000012111000000000000048
:10058000000000000000000000000000000000006B
:100590000000002100240027002A002D0030003335
:1005A0000001010000040107010A010102102020DE
:1005B00008081020401020408002010201080402B7
:1005C000010102040810204080804020100804022D
:1005D0000180040201804020100804020108040286
:1005E000010102040810204080010204081020408C
:1005F0008005050505070508080808020202020A29
:100600000A080804040404010101010101010103B5
:1006100003030303030303040707070C0C0C0C0C70
:100620000C0C0C0202020206060606060606060B63
:100630000B0B0B0B0B0B0B00F945E94511241FBEEF
:10064000CFEFD1E2DEBFCDBF00E00CBF25E1A4EFCC
:10065000B9E001C01D92A738B207E1F719E0A0E0A8
:10066000B2E0ECECF0EC00E00BBF02C007900D92A2
:10067000A43FB107D9F713E0CDE1D3E000E006C015
:1006800021970109802FFE010E94FE5DCC31D10728
:1006900080E00807A9F70E944F510C9454600C9415
:1006A0000000AF92BF92CF92DF92EF92FF920F9332
:1006B0001F93CF93DF936C017B018B01040F151FF8
:1006C000EB015E01AE18BF08C017D10759F0699160
:1006D000D601ED91FC910190F081E02DC6011995B4
:1006E000892B79F7C501DF91CF911F910F91FF9071
:1006F000EF90DF90CF90BF90AF900895FC01538DA5
:10070000448D252F30E0842F90E0821B930B5417EB
:1007100010F0CF96089501970895FC01918D828D78
:10072000981761F0A28DAE0FBF2FB11D5D968C9111
:10073000928D9F5F9F73928F90E008958FEF9FEF50
:100740000895FC01918D828D981731F0828DE80F0C
:10075000F11D858D90E008958FEF9FEF0895FC01C6
:10076000918D228D892F90E0805C9F4F821B910993
:100770008F73992708958AE29CE00E94AF0321E0DD
:10078000892B09F420E0822F089587EC9CE00E94D9
:10079000AF0321E0892B09F420E0822F0895FC01AA
:1007A000A48DA80FB92FB11DA35ABF4F2C91848DD2
:1007B00090E001968F739927848FA689B7892C932F
:1007C000A089B1898C91837080648C93938D848D82
:1007D000981306C00288F389E02D80818F7D808385
:1007E0000895EF92FF920F931F93CF93DF93EC0145
:1007F00081E0888F9B8D8C8D98131AC0E889F989C8
:10080000808185FF15C09FB7F894EE89FF896083CA
:10081000E889F98980818370806480839FBF81E04B
:1008200090E0DF91CF911F910F91FF90EF9008958D
:10083000F62E0B8D10E00F5F1F4F0F731127E02E68
:100840008C8D8E110CC00FB607FCFACFE889F989A0
:10085000808185FFF5CFCE010E94CF03F1CFEB8DD4
:10086000EC0FFD2FF11DE35AFF4FF0829FB7F89474
:100870000B8FEA89FB8980818062CFCFCF93DF9392
:10088000EC01888D8823B9F0AA89BB89E889F989A8
:100890008C9185FD03C0808186FD0DC00FB607FCDD
:1008A000F7CF8C9185FFF2CF808185FFEDCFCE0110
:1008B0000E94CF03E9CFDF91CF91089580E090E0CF
:1008C000892B29F00E94C50381110E94000080E05D
:1008D00090E0892B29F00E94BB0381110E94000047
:1008E00080E090E0892B49F080E090E0892B29F0AE
:1008F0000E94000081110E94000080E090E0892B9E
:1009000049F080E090E0892B29F00E9400008111DD
:100910000C94000008958150823108F05AC0E82FED
:10092000F0E08827E956FB4F8F4F0C94FE5DB7042B
:10093000BB04A904AF04B304E904BE04C404C8049E
:10094000CE04D204D604DC04E004E904E404EA049E
:10095000EE04809180008F778093800008958091CD
:1009600080008F7DF9CF80918000877FF5CF84B59F
:100970008F7784BD089584B58F7DFBCF8091B000C3
:100980008F778093B00008958091B0008F7DF9CF6C
:10099000809190008F7780939000089580919000CF
:1009A0008F7DF9CF80919000877FF5CF8091A00057
:1009B0008F778093A00008958091A0008F7DF9CF5C
:1009C0008091A000877FF5CF809120018F77809361
:1009D00020010895809120018F7DF9CF8091200121
:1009E000877FF5CFCF93DF93282F30E0F901E55BC8
:1009F000FA4F8491F901E555FA4FD491F901EF507E
:100A0000FA4FC491CC23A1F081110E948B04EC2FEA
:100A1000F0E0EE0FFF1FEF5CFA4FA591B491EC915F
:100A2000ED2381E090E009F480E0DF91CF9108951B
:100A300080E090E0FACF3FB7F89480911A0A909145
:100A40001B0AA0911C0AB0911D0A26B5A89B05C0DF
:100A50002F3F19F00196A11DB11D3FBFBA2FA92F3D
:100A6000982F8827BC01CD01620F711D811D911D3A
:100A700042E0660F771F881F991F4A95D1F70895A6
:100A800008950895DC015996ED91FC913097B9F0E5
:100A900083899489A589B68942855385648575853E
:100AA000841B950BA60BB70B811520E89207A105B7
:100AB000B10538F08FEF9FE7A0E0B0E0089590E037
:100AC00080E00895DC0159968D919C91009739F052
:100AD000DC01ED91FC910480F581E02D199490E00A
:100AE00080E00895CF93DF931F92CDB7DEB769837F
:100AF000DC01ED91FC910280F381E02D41E050E0BA
:100B0000BE016F5F7F4F19950F90DF91CF910895D0
:100B10000F931F93CF93DF93C7E0D0E00FE010E077
:100B200020E030E04091610368E572E080E090E011
:100B30000E94FC410FE010E020E030E040916103B2
:100B40006CED75E080E090E00E94FC410FE010E069
:100B500020E030E04091610360E273E080E090E0EB
:100B60000E94FC410FE010E020E030E04091610382
:100B700060EB74E080E090E00E94FC41219771F608
:100B8000DF91CF911F910F9108950F931F9308EC60
:100B900010E020E030E04091610360E273E080E02B
:100BA00090E00E94FC411F910F91089581E0809395
:100BB000090A08950C94C5050C94C5050C94C50547
:100BC0000C94C5050C94C5050C94C50508950895AD
:100BD000CF93DF93FB0122813381DC0113963C9399
:100BE0002E931297448155816681778114964D9397
:100BF0005D936D937C9317974085518562857385CE
:100C000018964D935D936D937C931B971C96EF0103
:100C10002C969C01275E3F4F49914D93A217B30735
:100C2000D9F7218D328DFC01328F218FDF91CF9149
:100C30000895FF920F931F93CF93DF93EC01F62E4D
:100C400008811981C8010E94925CF81621F06F2D6D
:100C5000C8010E949A5CCE01DF91CF911F910F9144
:100C6000FF9008950F931F93CF93DF931F921F92CE
:100C7000CDB7DEB710E000E060E0C8010E949A5CEA
:100C80000F5F1F4F011580E11807B1F78FEF93E059
:100C90009A83898362E5CE0101960E9419060E941B
:100CA000C5050F900F90DF91CF911F910F9108957F
:100CB000EF92FF920F931F93CF93DF93CDB7DEB7E1
:100CC000A3970FB6F894DEBF0FBECDBF80915F0330
:100CD000909160039A83898380916103909162036C
:100CE0009C838B838091210290912202A091230208
:100CF000B09124028D839E83AF83B88780911D02BB
:100D000090911E02A0911F02B091200289879A87BC
:100D1000AB87BC878091020A8D8760910002709139
:100D20000102072E000C880B990B0E94725B6E87E4
:100D30007F87888B998B8091FE099091FF09A09104
:100D4000000AB091010A8A8B9B8BAC8BBD8B809182
:100D5000640390916503A0916603B09167038E8B45
:100D60009F8BA88FB98F8091040A9091050A9B8F61
:100D70008A8F80915D0390915E039D8F8C8F80910F
:100D8000FC099091FD099F8F8E8F8091630388A34A
:100D90008091030A89A3CE0101967C0101E010E055
:100DA0001BA30AA3F70161917F01CE0182960E94E5
:100DB00019060F5F1F4F0232110591F786E1E82EE9
:100DC00082E0F82E08EC10E01BA30AA3F701619162
:100DD0007F01CE0182960E9419060F5F1F4F0F3CC4
:100DE000110591F7A3960FB6F894DEBF0FBECDBFE5
:100DF000DF91CF911F910F91FF90EF900895109286
:100E0000FD091092FC090E9458060C94C505FC01CE
:100E10001182108213821282158214820C94CA45A8
:100E2000FC01118210821382128215821482FB014E
:100E300001900020E9F73197AF01461B570B0C9446
:100E40007345FB0101900020E9F73197AF01461B84
:100E5000570BDC01ED91FC910280F381E02D199498
:100E60006115710511F00C94210790E080E0089560
:100E70001F920F920FB60F9211240BB60F922F9361
:100E80003F934F935F936F937F938F939F93AF9312
:100E9000BF93EF93FF938AE29CE00E94CF03FF9100
:100EA000EF91BF91AF919F918F917F916F915F91E2
:100EB0004F913F912F910F900BBE0F900FBE0F904F
:100EC0001F9018951F920F920FB60F9211240BB618
:100ED0000F922F938F939F93EF93FF93E0913A0C90
:100EE000F0913B0C8081E091400CF091410C82FD2F
:100EF0001DC090818091430C8F5F8F732091440CB3
:100F0000821741F0E091430CF0E0E65DF34F958FDE
:100F10008093430CFF91EF919F918F912F910F90B0
:100F20000BBE0F900FBE0F901F9018958081F2CFCF
:100F30001F920F920FB60F9211240BB60F922F93A0
:100F40003F934F935F936F937F938F939F93AF9351
:100F5000BF93EF93FF9387EC9CE00E94CF03FF9138
:100F6000EF91BF91AF919F918F917F916F915F9121
:100F70004F913F912F910F900BBE0F900FBE0F908E
:100F80001F9018951F920F920FB60F9211240BB657
:100F90000F922F938F939F93EF93FF93E091D70C32
:100FA000F091D80C8081E091DD0CF091DE0C82FD97
:100FB0001DC090818091E00C8F5F8F732091E10CB8
:100FC000821741F0E091E00CF0E0E953F34F958F88
:100FD0008093E00CFF91EF919F918F912F910F9053
:100FE0000BBE0F900FBE0F901F9018958081F2CF0F
:100FF0001F93CF93DF93282F30E0F901E55BFA4F81
:101000008491F901E555FA4FD491F901EF50FA4F67
:10101000C491CC23A9F0162F81110E948B04EC2FD0
:10102000F0E0EE0FFF1FE95EFA4FA591B4918FB784
:10103000F894EC91111108C0D095DE23DC938FBF9A
:10104000DF91CF911F910895DE2BF8CFCF93DF93DF
:1010500090E0FC01E555FA4F24918F509A4FFC0126
:1010600084918823D1F090E0880F991FFC01EF56FE
:10107000FA4FA591B491FC01E95EFA4FC591D49164
:10108000623071F49FB7F8943C91822F809583234E
:101090008C93E8812E2B28839FBFDF91CF910895F9
:1010A0008FB7F894EC912E2B2C938FBFF6CF8F92A5
:1010B0009F92AF92BF92CF92DF92EF92FF926B011D
:1010C0007C010E941B054B015C01C114D104E104A9
:1010D000F104B9F00E941B05681979098A099B0976
:1010E000683E73408105910580F321E0C21AD10862
:1010F000E108F10888EE880E83E0981EA11CB11C5F
:10110000E4CFFF90EF90DF90CF90BF90AF909F9093
:101110008F9008950F931F9308EC10E020E030E0CB
:101120004091610360E971E080E090E00E94FC4141
:1011300062E370E080E090E00E9457081F910F91F9
:101140000C94C5052FB7F8946091160A7091170A90
:101150008091180A9091190A2FBF08951F920F923B
:101160000FB60F9211242F933F938F939F93AF93BA
:10117000BF938091160A9091170AA091180AB09116
:10118000190A3091150A23E0230F2D3758F50196DF
:10119000A11DB11D2093150A8093160A9093170A7A
:1011A000A093180AB093190A80911A0A90911B0A09
:1011B000A0911C0AB0911D0A0196A11DB11D80933A
:1011C0001A0A90931B0AA0931C0AB0931D0ABF91A0
:1011D000AF919F918F913F912F910F900FBE0F90E4
:1011E0001F90189526E8230F0296A11DB11DD2CF9E
:1011F0001F920F920FB60F9211240BB60F922F93DE
:101200003F934F935F936F937F938F939F93AF938E
:10121000BF93EF93FF93E0911402F091150219959B
:10122000FF91EF91BF91AF919F918F917F916F91BE
:101230005F914F913F912F910F900BBE0F900FBE7A
:101240000F901F9018951F920F920FB60F921124B6
:101250000BB60F922F933F934F935F936F937F93B0
:101260008F939F93AF93BF93EF93FF93E0911202FD
:10127000F09113021995FF91EF91BF91AF919F915A
:101280008F917F916F915F914F913F912F910F902F
:101290000BBE0F900FBE0F901F9018951F920F92CC
:1012A0000FB60F9211240BB60F922F933F934F93CB
:1012B0005F936F937F938F939F93AF93BF93EF93BE
:1012C000FF93E0910802F09109021995FF91EF91C7
:1012D000BF91AF919F918F917F916F915F914F914E
:1012E0003F912F910F900BBE0F900FBE0F901F904C
:1012F00018951F920F920FB60F9211240BB60F92F2
:101300002F933F934F935F936F937F938F939F930D
:10131000AF93BF93EF93FF93E0910602F091070222
:101320001995FF91EF91BF91AF919F918F917F910F
:101330006F915F914F913F912F910F900BBE0F9046
:101340000FBE0F901F9018951F920F920FB60F921D
:1013500011240BB60F922F933F934F935F936F938C
:101360007F938F939F93AF93BF93EF93FF93E091FE
:101370001002F09111021995FF91EF91BF91AF9179
:101380009F918F917F916F915F914F913F912F919D
:101390000F900BBE0F900FBE0F901F9018951F92CD
:1013A0000F920FB60F9211240BB60F922F933F930B
:1013B0004F935F936F937F938F939F93AF93BF935D
:1013C000EF93FF93E0910E02F0910F021995FF91B8
:1013D000EF91BF91AF919F918F917F916F915F91AD
:1013E0004F913F912F910F900BBE0F900FBE0F901A
:1013F0001F9018951F920F920FB60F9211240BB6E3
:101400000F922F933F934F935F936F937F938F939D
:101410009F93AF93BF93EF93FF93E0910C02F091F2
:101420000D021995FF91EF91BF91AF919F918F910F
:101430007F916F915F914F913F912F910F900BBED4
:101440000F900FBE0F901F9018951F920F920FB61E
:101450000F9211240BB60F922F933F934F935F93EC
:101460006F937F938F939F93AF93BF93EF93FF936C
:10147000E0910A02F0910B021995FF91EF91BF9153
:10148000AF919F918F917F916F915F914F913F911C
:101490002F910F900BBE0F900FBE0F901F901895BD
:1014A000EFE6F0E080818D7F808382E08093810091
:1014B00081E0809380002D982E9808951F920F92BE
:1014C0000FB60F9211240BB60F922F933F934F93A9
:1014D0005F936F937F938F939F93AF93BF93EF939C
:1014E000FF930E94A2080E94500AFF91EF91BF91C2
:1014F000AF919F918F917F916F915F914F913F91AC
:101500002F910F900BBE0F900FBE0F901F9018954C
:101510000E94500A8091280A811116C060E086E07E
:101520000E94F80760915D0370915E03072E000C26
:10153000880B990B0E94570860E085E00E94F8072D
:1015400060E08DE00E94F80710920D0A08950E9455
:10155000880A1092070A1092060A0C94C50582E0C8
:101560000E94F204892B19F40E94CC42F8CF84E047
:101570000E94F204892BC1F30C94880A8F929F92E7
:10158000AF92BF92CF92DF92EF92FF92CF930E94E1
:10159000CC42F090020A20E030E040E450E4FF202A
:1015A00009F464C06091F7097091F8098091F90914
:1015B0009091FA090E94C35C2091220A3091230A7B
:1015C0004091240A5091250A0E94D15B0E94A85D97
:1015D0000E9457088091040A9091050A009709F02B
:1015E0004EC083E00E94F204C1E0892B09F0C0E004
:1015F0000E94880AFF2009F447C0C090220AD090B8
:10160000230AE090240AF090250AA7019601C70159
:10161000B6010E94C35C4B015C0120E030E040E871
:101620005FE36091F7097091F8098091F909909151
:10163000FA090E94C35CA70196010E94D15B9B013D
:10164000AC01C501B4010E94C25C0E94A85D0E9469
:101650005708CC2311F1CF91FF90EF90DF90CF90FE
:10166000BF90AF909F908F900C94570B6091220A7F
:101670007091230A8091240A9091250AA5CF0197A1
:1016800009F0B5CF84E0AECF6091220A7091230AB1
:101690008091240A9091250AD8CFCF91FF90EF90A6
:1016A000DF90CF90BF90AF909F908F9008954F9212
:1016B0005F926F927F928F929F92AF92BF92CF92E2
:1016C000DF92EF92FF920E94CC42F090020AFF203C
:1016D00009F45CC020E030E040E85FE36091F70986
:1016E0007091F8098091F9099091FA090E94C35C00
:1016F0004B015C012091220A3091230A4091240A77
:101700005091250A0E94D15B0E94A85D0E94570853
:101710000E94880AFF2009F442C0C090220AD0909B
:10172000230AE090240AF090250AA7019601C70138
:10173000B6010E94C35C2B013C01A5019401C701C5
:10174000B6010E94D15B9B01AC01C301B2010E94B2
:10175000C25C0E94A85D0E9457088091040A909183
:10176000050A009729F584E00E94F204892B21F5EF
:10177000FF90EF90DF90CF90BF90AF909F908F90B1
:101780007F906F905F904F900C94BE0A6091220AF8
:101790007091230A8091240A9091250AB5CF609117
:1017A000220A7091230A8091240A9091250AD1CFB0
:1017B000019711F483E0D8CFFF90EF90DF90CF90A6
:1017C000BF90AF909F908F907F906F905F904F9061
:1017D00008958FB7F89480910F0A8FBF089561E044
:1017E000FC0184810E94F80780910E0A81111092F9
:1017F0000E0A08958EBD00000DB407FEFDCF8EB514
:1018000008958FEF0C94FA0B8CBD9DBD0895CF9376
:10181000DF93EC0180910E0A811109C081E0809371
:101820000E0A8091640D9091650D0E94040C60E099
:101830008C81DF91CF910C94F8078F929F92AF9299
:10184000BF92FF920F931F93CF93DF93EC01F62E7D
:1018500049015A018E81882389F08F8198859C01E6
:101860002F5F3F4F38872F838230924018F40E94B9
:10187000010CF3CFCE010E94EF0B1E82CE010E941D
:10188000070C8CE291E00E94813F8F2D80640E94C2
:10189000FA0B08E110E0D501C401002E04C0B69592
:1018A000A795979587950A94D2F70E94FA0B08504E
:1018B0001109083F8FEF180771F785E9FF2021F024
:1018C00028E087E8F2128FEF0E94FA0B10E00E94E6
:1018D000010C8A8787FF04C01F3F11F01F5FF7CFFD
:1018E000DF91CF911F910F91FF90BF90AF909F908C
:1018F0008F900895AF92BF92CF92DF92EF92FF92B6
:101900000F931F93CF93DF93EC016901C801820FFE
:10191000931F8130924050F58E81882379F0888121
:101920009981AA81BB8184179507A607B70731F46F
:101930008F819885C816D90608F042C0488359831C
:101940006A837B838B85833039F089E0440F551F90
:10195000661F771F8A95D1F79A01AB0161E1CE012D
:101960000E941D0C882389F083E08D83CE010E94A4
:10197000EF0B80E0DF91CF911F910F91FF90EF90DF
:10198000DF90CF90BF90AF9008950E94A2085B01B6
:101990000E94010C8A878F3F69F40E94A2086A198D
:1019A0007B096D327140A0F38FE08D83CE010E94E0
:1019B000EF0BDCCF8E3F89F418861F8281E08E8387
:1019C0008F8198858C159D0550F40E94010C8F81A4
:1019D0009885019698878F83F3CF8DE0E6CF6701D6
:1019E000E00EF11E0E94010CF60181936F01EE15CD
:1019F000FF05C1F78F819885080F191F18870F837E
:101A00008985882319F001151240A0F08E81882362
:101A100089F08F8198859C012F5F3F4F38872F83F6
:101A20008230924018F40E94010CF3CFCE010E9444
:101A3000EF0B1E8281E09ECFCF92DF92EF92FF925A
:101A40000F93CF93DF93EC01690182E141155105BA
:101A50006105710599F08B85833039F089E0440F79
:101A6000551F661F771F8A95D1F79A01AB0168E170
:101A7000CE010E941D0C882319F084E08D832DC0B7
:101A80008EEF0E94FA0B76018EEFD81AF701819142
:101A90007F010E94FA0BEC14FD04C1F78FEF0E9446
:101AA000FA0B8FEF0E94FA0B0E94010C8A878F714C
:101AB000853071F4011116C0CE010E94EF0B81E058
:101AC000DF91CF910F91FF90EF90DF90CF9008952D
:101AD00081E18D83CE010E94EF0BCE010E94EF0BBE
:101AE00080E0EECF88E592E00E94813F811102C044
:101AF00085E1C4CF20E030E0A9016DE0CE010E9475
:101B00001D0C882311F084E1B9CF0E94010C8111D2
:101B1000FACFD2CF0F934091110A5091120A6091DF
:101B2000130A7091140A411551056105710599F068
:101B3000082F2AE23AE08091260A9091270A0E9413
:101B40001C0D882349F01092110A1092120A10926B
:101B5000130A1092140A81E00F9108950F93CF9306
:101B6000C82F8091100A811105C0C1E08C2FCF9140
:101B70000F91089540910202509103026091040276
:101B8000709105020C2F2AE23AE08091260A90918A
:101B9000270A0E941C0D811102C0C0E0E7CFCC23B0
:101BA00021F381E00E948A0D8823B9F31092100A74
:101BB000DDCF8F929F92AF92BF92EF92FF920F93E1
:101BC0001F93CF934B015C01C42F8091020290912F
:101BD0000302A0910402B091050288159905AA0597
:101BE000BB0551F181E00E94AE0D81110BC080E078
:101BF000CF911F910F91FF90EF90BF90AF909F906A
:101C00008F9008958AE2E82E8AE0F82E00E012E034
:101C100030E020E0B501A4018091260A9091270AC6
:101C20000E947A0C882319F3809202029092030298
:101C3000A0920402B09205024091100A4C2B4093EE
:101C4000100A81E0D5CF4F925F926F927F928F9270
:101C50009F92AF92BF92CF92DF92EF92FF920F933B
:101C60001F93CF93DF93EC0142305105610571055D
:101C700090F480E0DF91CF911F910F91FF90EF9052
:101C8000DF90CF90BF90AF909F908F907F906F909C
:101C90005F904F90089589859A85AB85BC850196A4
:101CA000A11DB11D84179507A607B70710F3CB88B0
:101CB000DC88ED88FE888F89803109F042C0BB271F
:101CC000A72F962F852F480159012A013B01C80EE5
:101CD000D91EEA1EFB1E8091020290910302A09180
:101CE0000402B0910502C816D906EA06FB0699F56A
:101CF0008F898031C1F5B301A20155276627772767
:101D0000440F551F465D554FFA01918280828091A4
:101D1000100A81608093100A8A89823080F08D8158
:101D20009E81AF81B8858C0D9D1DAE1DBF1D80931A
:101D3000110A9093120AA093130AB093140A81E037
:101D400099CFDB01CA01E7E0B695A79597958795EE
:101D5000EA95D1F7B8CF40E0C701B6010E94D90D8E
:101D60008111C6CF86CFB301A2014F7755276627D1
:101D70007727440F551F440F551F465D554FFA01F5
:101D800080829182A282B382C2CF8F929F92AF92C1
:101D9000BF92CF92DF92EF92FF920F931F93CF9358
:101DA000DF93FC0181859285A385B4850196A11DF1
:101DB000B11D84179507A607B70770F480E0DF917F
:101DC000CF911F910F91FF90EF90DF90CF90BF9038
:101DD000AF909F908F90089583889488A588B68847
:101DE0008789803189F5BB27A72F962F852FE90199
:101DF0006A017B018F01BC01CD01680D791D8A1D2F
:101E00009B1D8090020290900302A0900402B0906B
:101E1000050286169706A806B90601F5F801878916
:101E2000803111F5DD24EE24FF24F601EE0FFF1FB3
:101E3000E65DF54F80819181B0E0A0E088839983D1
:101E4000AA83BB8381E0BBCFDB01CA01C7E0B695A3
:101E5000A79597958795CA95D1F7C9CF40E00E947D
:101E6000D90D8111DBCFAACFE894C7F8DD24EE2489
:101E7000FF24F601EE0FFF1FEE0FFF1FE65DF54F8B
:101E800080819181A281B381BF70D8CF4F925F9240
:101E90006F927F92AF92BF92CF92DF92EF92FF92BA
:101EA0000F931F93CF93DF9300D01F92CDB7DEB770
:101EB0008C0149835A836B837C835901C12CD12CBB
:101EC0007601412C82E0582E612C712C49815A8177
:101ED0006B817C819E012F5F3F4FC8010E94C50E20
:101EE000882339F1F8018585A301920104C0220FEE
:101EF000331F441F551F8A95D2F7DA01C901C80E56
:101F0000D91EEA1EFB1E49815A816B817C8187891B
:101F1000803111F188EF9FEFAFEFBFE0481759070D
:101F20006A077B0798F2F501C082D182E282F382D0
:101F300081E00F900F900F900F90DF91CF911F9144
:101F40000F91FF90EF90DF90CF90BF90AF907F9078
:101F50006F905F904F90089588EF9FEFA0E0B0E002
:101F6000DDCFCF92DF92EF92FF921F93CF93DF935B
:101F7000EC0180E2689FF0011124E65DF54F938546
:101F8000917161F0842F827449F080E0DF91CF91EC
:101F90001F91FF90EF90DF90CF900895142F6A8BE0
:101FA0008091020290910302A0910402B091050277
:101FB0008E879F87A88BB98BC488D588F12CE12C9C
:101FC0007601DD24CC24CF8AD88EE98EFA8E828DDC
:101FD000938DB0E0A0E0AC01BD014C295D296E29D4
:101FE0007F294F8B588F698F7A8F83858871B1F4E1
:101FF000848D958DA68DB78D8B8B9C8BAD8BBE8B79
:1020000081E08D831F701C831E821F8218861986B3
:102010001A861B861C861D8681E0B8CF803109F0A8
:10202000B4CF9E012D5E3F4F8B8D9C8D0E94460F3D
:10203000882309F4AACF84E0E4CF8F929F92AF92D5
:10204000BF92CF92DF92EF92FF920F931F93CF93A5
:10205000DF93EC018D8181110EC080E0DF91CF9183
:102060001F910F91FF90EF90DF90CF90BF90AF90B6
:102070009F908F9008950B891C892D893E890417A4
:1020800015072607370748F34A015B01823031F410
:102090008A869B86AC86BD8681E0E0CF8114910460
:1020A000A104B10449F41E821F82188619861A867B
:1020B0001B861C861D86F0CF0A851B852C853D85D9
:1020C000EB8DFC8D858590E00996B901A801415002
:1020D000510961097109082E04C0769567955795D5
:1020E00047950A94D2F775016401E1E0CE1AD10850
:1020F000E108F10804C0F694E794D794C7948A9550
:10210000D2F7C416D506E606F70620F0012B022BFF
:10211000032B11F58F89988DA98DBA8D8E839F839E
:10212000A887B9878E010A5F1F4FC114D104E1044B
:10213000F10409F4ADCF4E815F81688579859801FE
:102140008B8D9C8D0E94C50E91E0C91AD108E108C3
:10215000F1088111EACF81CFC41AD50AE60AF70A3D
:10216000E1CF3F924F925F926F927F928F929F92B8
:10217000AF92BF92CF92DF92EF92FF920F931F9395
:10218000CF93DF93CDB7DEB72C970FB6F894DEBFB1
:102190000FBECDBF5C01DC015B968D909C905C977F
:1021A00016964D905D906D907C9019974114510456
:1021B0006104710409F468C0BFEF4B1A5B0A6B0A33
:1021C0007B0A312CF40181859285A385B4859C011D
:1021D000AD012F5F3F4F4F4F5F4F29873A874B87A6
:1021E0005C87730162011D821E821F821886F401C2
:1021F00081859285A385B4852D813E814F81588547
:10220000281739074A075B0708F056C089859A8561
:10221000AB85BC858C159D05AE05BF0550F482E0ED
:10222000C82ED12CE12CF12C92E0492E512C612C9E
:10223000712C9E012F5F3F4FB701A601C4010E9480
:10224000C50E8823C9F189819A81AB81BC81892B14
:102250008A2B8B2B09F1260137019FEF491A590A66
:10226000690A790A2D813E814F8158852F5F3F4F42
:102270004F4F5F4F2D833E834F8358873FEFC31AE5
:10228000D30AE30AF30AB3CFF4014080518062809D
:1022900073803324339496CFC414D504E604F70432
:1022A00009F70FEF1FEF2FEF3FE0B701A601C401C1
:1022B0000E94230E811119C080E02C960FB6F8946D
:1022C000DEBF0FBECDBFDF91CF911F910F91FF9069
:1022D000EF90DF90CF90BF90AF909F908F907F90C6
:1022E0006F905F904F903F900895D50116964D9155
:1022F0005D916D917C9119974115510561057105AD
:1023000039F097018601C4010E94230E8823A1F2AF
:10231000D5011696CD92DD92ED92FC92199733205D
:1023200051F0D701C6010196A11DB11DF4018083B2
:102330009183A283B383F5018789908DA18DB28D9E
:10234000892B8A2B8B2B39F48481C78AD08EE18E1E
:10235000F28E80688483F50184818062848381E0C9
:10236000ACCF2F923F924F925F926F927F928F925B
:102370009F92AF92BF92CF92DF92EF92FF920F9314
:102380001F93CF93DF9300D0CDB7DEB7FC018581DB
:10239000811118C08FEF9FEF0F900F900F90DF917A
:1023A000CF911F910F91FF90EF90DF90CF90BF9052
:1023B000AF909F908F907F906F905F904F903F90E5
:1023C0002F900895848180FFE5CF438954896589E2
:1023D000768982859385A485B585312C212C481773
:1023E00059076A077B0719F022242394312C6F01C7
:1023F0002101CE0101963C01DF011696BB83AA8321
:102400004114510409F4C5C0F60142855385648521
:1024100075854A01F1E09F22D6015B968D919C91D2
:102420005C978A019B01E9E03695279517950795FA
:10243000EA95D1F71596EC91E230E9F5FC01628D51
:10244000738D848D958D600F711F821F931FA12C3A
:1024500022E0B22EA818B9084A145B0408F452010D
:10246000F601248126FD04C0A114F2E0BF0671F438
:1024700000910202109103022091040230910502A2
:10248000061717072807390709F05EC040E00E94C9
:10249000D90D882309F47ECFC401865D954FD30101
:1024A0009C012A0D3B1DFC012E173F0709F46CC04F
:1024B00041914D93F9CFDC011496BC90BA94B022AF
:1024C0008114910479F4B1100DC0452B462B472B94
:1024D00069F5F6018789908DA18DB28D86839783EA
:1024E000A087B187D6015B96ED91FC915C9716961B
:1024F0006D917D918D919C9119976250710981091F
:102500009109258504C0660F771F881F991F2A959A
:10251000D2F70685178520893189600F711F821FC8
:10252000931F6B0D711D811D911D91CFD6011696C4
:102530004D915D916D917C9119972A813B810E940B
:10254000C50E8111CFCF26CF730185019401AB0158
:10255000BC018091260A9091270A0E947A0C882358
:1025600009F418CF6A0C7B1CF60182859385A4853B
:10257000B5858A0D9B1DA11DB11D82879387A487F8
:10258000B5874A185B083CCF281B390B620E731EB7
:10259000EBCF2A94232809F0FDCE898190E0FCCE70
:1025A000FC01818D928D009711F00C94B1118FEF89
:1025B0009FEF08950F931F93CF93DF93EC01898DC5
:1025C0009A8D10E000E0009799F00E94B1118C0103
:1025D0000F3F100769F0898D9A8DFC014285538564
:1025E0006485758541505109610971090E941D106A
:1025F000C801DF91CF911F910F9108951F93CF9341
:10260000DF93FC012581222371F1162FEC018481D7
:1026100087FF1EC0CF010E949C3FFC01892B19F14E
:102620008D81823040F48B899C89AD89BE89848FED
:10263000958FA68FB78F8F89988D938F828F8F8973
:10264000988DA98DBA8DB58BA48B8C818F778C8357
:10265000111103C08C818F7E8C83812FDF91CF91EC
:102660001F910C94AE0D80E0DF91CF911F910895E2
:10267000FF920F931F93CF93DF93EC018D818130F5
:1026800041F090E080E0DF91CF911F910F91FF909A
:1026900008958C8181FFF5CF82FD1BC00091260A31
:1026A0001091270AC8010E94070C0E94010CF82E05
:1026B000C8010E94EF0B8FEFF812E3CF8C8185FFEA
:1026C0001BC060E0CE010E94FE128C818F7D8C8346
:1026D000D8CF4B895C896D897E898A859B85AC853D
:1026E000BD8584179507A607B707C1F2CE010E94E2
:1026F0001D108111D3CFC5CF4091110A5091120AFC
:102700006091130A7091140A452B462B472B21F038
:1027100080E00E948A0DB5CF80618C832A853B853D
:10272000317080E092E0821B930BADCFCF93DF93AB
:10273000EC0161E00E94FE12882311F01D8281E00D
:10274000DF91CF910895FC01818D928D009719F052
:1027500061E00C94FE1208953F924F925F926F9247
:102760007F928F929F92AF92BF92CF92DF92EF9221
:10277000FF920F931F93CF93DF9300D000D000D030
:102780001F921F92CDB7DEB77C01DC0115968C91AC
:10279000811115C0FE013196CE010C966F0130E219
:1027A0003193E817F907E1F7DA0130E087E09D910E
:1027B000B92E992329F19E3239F48A3011F480E040
:1027C000DAC038E08AE0F3CFE7E0F5E04491442353
:1027D00021F031969413FACFF2CF831780F34FEDA7
:1027E000490F4E3560F74FE9490F4A3118F440EE72
:1027F000B42EB90EF601E30FF11DB0823F5FD7CFC3
:1028000089818032E1F2322E8B01FB01838D948D20
:10281000D7015C969C938E935B97168217821086E5
:1028200011861286138614861586F8018285938593
:10283000A485B58543895489658976898417950768
:10284000A607B70708F04DC025E0B695A795979560
:1028500087952A95D1F7F82FFF70AF2ED8011596DE
:102860008C91823008F4ABCFC8010E94B11197FD62
:10287000A6CFF80182859385A485B5854F96A11DC5
:10288000B11D82879387A487B587F0E2AF9EB00120
:102890001124665D754F6115710509F490CFDB0158
:1028A0008C91882341F0853E09F058C0BB2029F067
:1028B000BB24B394BACFB1100EC0F701A28A8091A5
:1028C000020290910302A0910402B0910502868752
:1028D0009787A08BB18BDB018C918111E9CFBB2451
:1028E000B394832D8271823109F069CFBB2009F442
:1028F0005AC0C7010E949C3F009709F460CF20E2B4
:10290000FC0111922A95E9F72BE0F601DC01019018
:102910000D922A95E1F721E238E2DC0151963C93D1
:102920002E93509740E058E01F965C934E931E976D
:1029300053963C932E93529759963C932E935897C7
:1029400057965C934E93569781E00E94AE0D882374
:1029500009F435CF432DF70162890AC04BE050E0FE
:10296000C6010E941460892B09F05FCF432D6A2DA8
:10297000C7010E94B10F2B960FB6F894DEBF0FBEB1
:10298000CDBFDF91CF911F910F91FF90EF90DF901E
:10299000CF90BF90AF909F908F907F906F905F90FF
:1029A0004F903F900895F8018581823009F407CF58
:1029B000C8010E94B110882309F401CFD8015B96A9
:1029C000ED91FC915C9716968D909D90AD90BC908A
:1029D0001997B2E08B1A9108A108B108858504C047
:1029E000880C991CAA1CBB1C8A95D2F786859785F2
:1029F000A089B189880E991EAA1EBB1E848124015C
:102A00003501480E511C611C711C84149504A604E8
:102A1000B70409F1E1E04E1A51086108710881E03C
:102A20000E94AE0D882309F4CACEEAE2FAE01192C0
:102A30008AE29CE08E179F07D1F7409202025092E3
:102A4000030260920402709205028091100A816074
:102A50008093100ADACFD8015B96ED91FC91258521
:102A600080E092E0A0E0B0E004C0880F991FAA1FA8
:102A7000BB1F2A95D2F7F801438954896589768965
:102A8000840F951FA61FB71F838B948BA58BB68BC6
:102A9000D70152961C928AE29AE031CF1F93CF93CE
:102AA000DF93CDB7DEB76D970FB6F894DEBF0FBEDC
:102AB000CDBFAB011C821B8223E933E03A8329831B
:102AC0001E8221E0BC01CE0101960E94AC1311E0F0
:102AD00081110CC010E0812F6D960FB6F894DEBF07
:102AE0000FBECDBFDF91CF911F910895CE0101960A
:102AF0000E949613F0CFCF93DF93CDB7DEB76D97DB
:102B00000FB6F894DEBF0FBECDBF442399F1AB01E1
:102B1000BC011C821B8283E993E09A8389831E8215
:102B200022E0CE0101960E94AC1381110EC090E00C
:102B300081E0911101C080E06D960FB6F894DEBF80
:102B40000FBECDBFDF91CF910895CE0101960E94B7
:102B5000B53F882361F3CE0101960E949C3F009708
:102B600031F325EEFC0120831E8281E00E94AE0D30
:102B7000982FDECF81E0E0CF2F923F924F925F926D
:102B80006F927F928F929F92AF92BF92CF92DF927D
:102B9000EF92FF920F931F93CF93DF9300D01F927A
:102BA0001F92CDB7DEB77C015B01342E5D83DC0163
:102BB00015968C911597813009F0CEC014962C9003
:102BC00021FECAC022FCB4C0C32CDD8022947FE069
:102BD00027222094B22DB1702B2ED7011A964D9139
:102BE0005D916D917C911D97C114D10409F428C1A8
:102BF0005B968D919C915C97FC0174807A948A011C
:102C00009B0169E036952795179507956A95D1F749
:102C100070228A011170711020C001151105E9F4AC
:102C200016964D915D916D917C91199741155105C5
:102C30006105710509F099C057968D919D910D9090
:102C4000BC91A02D0097A105B10509F0B0C0C70146
:102C50000E94B110882309F47FC080E092E0801BBD
:102C6000910B46018C159D0508F44C01D7015B962C
:102C70004D915C915C9716968D919D910D90BC91B4
:102C8000A02D0297A109B109FA01258504C0880F7A
:102C9000991FAA1FBB1F2A95D2F7468557856089C1
:102CA0007189840F951FA61FB71F9C01AD01270DC9
:102CB000311D411D511D29013A01811432E0930655
:102CC00009F07BC08091020290910302A09104025E
:102CD000B091050284159505A605B70559F48FEF47
:102CE0009FEFDC018093020290930302A093040201
:102CF000B0930502022D9501B301A2018091260A2D
:102D00009091270A0E941C0D882331F19EEFB91A79
:102D1000C818D908F70182859385A485B585880DE3
:102D2000991DA11DB11D82879387A487B58755CFB3
:102D3000F701438954896589768982859385A485BD
:102D4000B585481759076A077B0709F43DCFC701C6
:102D50000E941D10811138CF81E090E0D7011396B9
:102D60009C938E93129780E007C09E012F5F3F4F88
:102D70000E94C50E811102C090E079C089819A81BC
:102D8000AB81BC81F701238D348DF901278948EF90
:102D90005FEF60E070E0203121F048EF5FEF6FEF10
:102DA0007FE084179507A607B70708F050CFF70113
:102DB00086839783A087B18750CF0115110599F5B8
:102DC000D7011A964D915D916D917C911D97539607
:102DD0008D919D910D90BC91A02D481759076A07C0
:102DE0007B0708F181E00E94AE0D882309F4B4CF7F
:102DF0004092020250920302609204027092050215
:102E00008091100A81608093100AC801865D954FF9
:102E1000D5019C01280D391DFC012E173F0759F0E3
:102E20004D914193FACF41E0C301B2010E94D90D07
:102E30008111EBCF91CF281B390BA20EB31E68CFA7
:102E4000F70183899489A589B68984179507A60710
:102E5000B70738F48481438B548B658B768B8068FD
:102E60008483F701848183FD1AC0832D9D810F9097
:102E70000F900F900F900F90DF91CF911F910F91B6
:102E8000FF90EF90DF90CF90BF90AF909F908F908A
:102E90007F906F905F904F903F902F90089561E0EA
:102EA000C7010E94FE12882309F456CFDECFCF93CC
:102EB000DF931F92CDB7DEB7698341E050E0BE01DA
:102EC0006F5F7F4F0E94BC150F90DF91CF910895E7
:102ED000CF93DF93EC01E98DFA8D309749F481E0CF
:102EE00090E09B838A8390E080E0DF91CF9108950A
:102EF00013821282898D9A8D0E94BC15E98DFA8DFC
:102F000022813381232B59F7F0CFFC01DB0112968C
:102F10008D919C9113979383828383E993E09183AE
:102F2000808314968C911497848315968C911597B1
:102F3000858316964D915D916D917C91199746838D
:102F40005783608771871A964D915D916D917C9141
:102F50001D9742875387648775871E964D915D91B3
:102F60006D917C91519746875787608B718B5296F4
:102F70008C915297828B53964D915D916D917C917E
:102F80005697438B548B658B768B57964D915D91FD
:102F90006D917C915A97478B508F618F728F5B96A2
:102FA0008D919C91948F838F0895EF92FF920F9350
:102FB0001F93CF93DF93EC017B018A011B821A825E
:102FC00088EE93E0A0E0B0E08C839D83AE83BF8366
:102FD0008FE993E0998388838DE190E00E94065EFB
:102FE0009A8F898F009779F02DE1F701DC0101902C
:102FF0000D922A95E1F74CE050E0B801CE010C9615
:103000000E944560188EDF91CF911F910F91FF9024
:10301000EF900895CF93DF93EC016DEA73E087ECB6
:103020009CE00E943007BE010D2E000C880B990B0E
:103030004AE00E9486426DE174E087EC9CE00E94C9
:103040003007688170E090E080E04AE00E948642AC
:103050006FEA73E087EC9CE00E943007698170E0C2
:1030600090E080E04AE00E9486426FEA73E087ECDD
:103070009CE00E9430076A817B816115710551F0E7
:1030800087EC9CE00E94300782EF99E0DF91CF91BE
:103090000C94E73E61EB73E0F3CFCF93DF93EC0149
:1030A0008AE29CE00E94AF03892B29F08AE29CE02F
:1030B0000E948D03F5CFBE018AE29CE00E9430079A
:1030C0006FEF8AE29CE00E94F1036FEF8AE29CE0DE
:1030D0000E94F1036FEF8AE29CE0DF91CF910C94A4
:1030E000F10383B78E7F83BFEC98E6E0F2E080E4E3
:1030F00095E091838083ED989383828388EB93E0BE
:103100000E944D188AE29CE00C943E0483B78E7FA7
:1031100083BFEC98E6E0F2E080E495E09183808361
:10312000ED989383828380EC93E00E944D1888EBA6
:1031300093E00E944D188AE29CE00C943E048F922A
:103140009F92AF92BF92CF92DF92EF92FF924B018C
:103150005C010E94A2086B017C010E94A2086C190C
:103160007D098E099F09681579058A059B0518F464
:103170000E940443F2CFFF90EF90DF90CF90BF907A
:10318000AF909F908F90089587EC93E00E944D1828
:103190008091030A811128C064E670E080E090E02D
:1031A0000E949F188AE29CE00E943E0483B78160DF
:1031B00083BF21E738E13093070220930602809114
:1031C0006A008C7F80936A00EC9A30930902209306
:1031D000080280916A00837F80936A00ED9A83B72A
:1031E000817F846083BF8895089564E670E080E005
:1031F00090E00E949F188FEC93E00E944D1886ED9E
:1032000093E00E944D1887EC93E00E944D188AE2EB
:103210009CE00E943E0483B7816083BFA6E0B2E0D9
:1032200026E838E111963C932E93EAE6F0E080819F
:103230008C7F8083EC9A13963C932E931297808117
:10324000837F8083ED9A83B7817F846083BF889575
:10325000089586EC92E10C94F518EF92FF920F938B
:103260001F93CF93DF93CDB7DEB7A1970FB6F89436
:10327000DEBF0FBECDBF8FEF93E00E94925C84351E
:1032800059F00E9458068FEF93E09A83898364E592
:10329000CE0101960E9419068E010F5F1F4FEE248A
:1032A000E394F12CC7010E94925CF80181938F0195
:1032B000FFEFEF1AFF0A82E2E816F10499F789811D
:1032C0009A819093600380935F038B819C8190939C
:1032D0006203809361038D819E81AF81B885809365
:1032E000210290932202A0932302B09324028985A5
:1032F0009A85AB85BC8580931D0290931E02A09396
:103300001F02B09320028D858093020A6E857F850F
:10331000888999890E94A15D7093010260930002DF
:103320008A899B89AC89BD898093FE099093FF09A6
:10333000A093000AB093010A8E899F89A88DB98D48
:103340008093640390936503A0936603B09367032F
:103350008A8D9B8D9093050A8093040A8C8D9D8D98
:1033600090935E0380935D038E8D9F8D9093FD09F6
:103370008093FC0988A18093630389A18093030A49
:1033800086E1E82E82E0F82E08EC10E0C8010E94E9
:10339000925CF70181937F010F5F1F4F0F3C110576
:1033A000A9F7A1960FB6F894DEBF0FBECDBFDF918F
:1033B000CF911F910F91FF90EF900895EF92FF92A0
:1033C0000F931F93CF93DF9300D000D0CDB7DEB71C
:1033D0007C018B0161E274E0CE0101960E9410072E
:1033E000F70162817381CE0101960E94EC446DED7C
:1033F00073E0CE0101960E94EC44B801CE01019623
:103400000E94EC4462EE73E0CE0101960E94EC440F
:1034100089819A810E944D180E94473F182FCE0142
:1034200001960E94E145812F26960FB6F894DEBFE3
:103430000FBECDBFDF91CF911F910F91FF90EF9005
:103440000895CF93DF93CDB7DEB7C456D1090FB639
:10345000F894DEBF0FBECDBF44E650E0BE016F5F03
:103460007F4F0E949443BE016F5F7F4F86EC92E1D5
:103470000E94DE19BE016F5F7F4F82EA92E10E94D7
:10348000DE19CC59DF4F0FB6F894DEBF0FBECDBFAB
:10349000DF91CF910895CF93DF93CDB7DEB76E97CD
:1034A0000FB6F894DEBF0FBECDBF4EE150E0BE01B7
:1034B0006F5F7F4F0E949443BE016F5F7F4F86E92D
:1034C00092E10E94DE19BE016F5F7F4F8AE892E1B0
:1034D0000E94DE196E960FB6F894DEBF0FBECDBF08
:1034E000DF91CF910895CF93DF93CDB7DEB76E977D
:1034F0000FB6F894DEBF0FBECDBF4EE150E0BE0167
:103500006F5F7F4F0E949443BE016F5F7F4F8EE5D8
:1035100091E10E94DE196E960FB6F894DEBF0FBEE1
:10352000CDBFDF91CF9108950E94880A80916303F7
:10353000811113C081E0809363038091630364EE83
:1035400073E0882311F066EE73E086EB93E10E944E
:10355000DE190E9458060C94C50510926303EDCF46
:103560008F929F92AF92BF92EF92FF920F931F9311
:10357000CF93DF93CDB7DEB760970FB6F894DEBF79
:103580000FBECDBF7C014A018E010F5F1F4F8AE045
:10359000F80111928A95E9F761E274E0CE010B9689
:1035A0000E9410074AE0B801C4010E94C259F70105
:1035B00062817381CE010B960E94EC446BEE73E046
:1035C000CE010B960E94EC44B801CE010B960E94EE
:1035D000EC448B859C850E944D180E94473F182F14
:1035E000CE010B960E94E145812F60960FB6F894AC
:1035F000DEBF0FBECDBFDF91CF911F910F91FF9026
:10360000EF90BF90AF909F908F90089520E030E0B2
:1036100040E85FE3609121027091220280912302D1
:10362000909124020E94C25C0E94A85DAB01BC0183
:103630008EE394E10E94B01A6091210270912202FF
:1036400080912302909124020E94A85DAB01BC01ED
:103650008EE394E10C94B01A40915F0350916003A3
:10366000052E000C660B770B8EE192E10E94B01ADA
:103670004091610350916203052E000C660B770B9D
:1036800086E692E10E94B01A409161035091620374
:10369000052E000C660B770B82E192E10E94B01AB6
:1036A0006091640370916503809166039091670354
:1036B0000E94A85DAB01BC018AE592E10E94B01AAC
:1036C0006091640370916503809166039091670334
:1036D0000E94A85DAB01BC0186E092E10E94B01A95
:1036E00040915D0350915E03052E000C660B770B35
:1036F0008EE492E10E94B01A40915D0350915E0306
:10370000052E000C660B770B8EEE91E10E94B01A2D
:103710004091040A5091050A052E000C660B770BA8
:103720008EE792E10E94B01A8091040A9091050AF6
:103730008130910549F08230910569F061EF73E0C5
:10374000892B21F00C94C50568EF73E08AE292E1C1
:103750000E94DE19F7CF61E074E0F8CF4091030AD0
:1037600050E070E060E086EE94E10E94B01A0C94A4
:10377000C5058091030A81110FC081E08093030A7F
:1037800041E050E060E070E086EE94E10E94B01A03
:103790000E9458060C94C5051092030A40E050E0C0
:1037A000BA01F2CF86EE94E10C94B91BEF92FF922E
:1037B0000F931F93CF93DF93CDB7DEB72E970FB63E
:1037C000F894DEBF0FBECDBF7C018B0165E074E0D5
:1037D000CE0109960E941007F70162817381CE0124
:1037E00009960E94EC446AE074E0CE0109960E94BA
:1037F000EC4489859A850E944D18CE01019628E0F7
:10380000FC0111922A95E9F744E650E060E070E08F
:1038100040932E0C50932F0C6093300C7093310C0E
:1038200068E070E00E94FA3E089709F053C0898171
:10383000813709F04FC08E818F3F09F04BC08F81D7
:103840008F3F09F047C088858F3F09F043C02D8125
:103850008C8190E0B0E0A0E0DC0199278827B22BB2
:103860002A81822B4B8150E0542F4427052E000CD7
:10387000660B770B842B952BA62BB72BF801808337
:103880009183A283B3836FE074E087EC9CE00E9495
:103890003007F80160817181828193814AE00E9442
:1038A00086426FE174E087EC9CE00E94210711E002
:1038B000CE0109960E94E145812F2E960FB6F8940D
:1038C000DEBF0FBECDBFDF91CF911F910F91FF9053
:1038D000EF90089582E294E00E94E73E10E0E8CF86
:1038E000CF93DF9300D01F92CDB7DEB719821A8233
:1038F0001B821C82BE016F5F7F4F8EE492E10E94AB
:10390000D61B49815A816B817C818EEE91E10E94A8
:10391000B01A89819A8190935E0380935D030E941F
:1039200058060E94C5050F900F900F900F90DF91E1
:10393000CF910895CF92DF92EF92FF92CF93DF93D2
:1039400000D01F92CDB7DEB719821A821B821C826B
:10395000BE016F5F7F4F8AE592E10E94D61B4981CD
:103960005A816B817C8186E092E10E94B01A698164
:103970007A818B819C810E94705B60936403709359
:10398000650380936603909367030E94580620E0C6
:1039900030E048EC52E460916403709165038091DB
:1039A0006603909167030E942F5D6B017C0120915B
:1039B000210230912202409123025091240260E0C2
:1039C00070E086E994E40E942F5D9B01AC01C70181
:1039D000B6010E94D15B6093220A7093230A809300
:1039E000240A9093250A0E94C5050F900F900F900E
:1039F0000F90DF91CF91FF90EF90DF90CF900895DF
:103A00000F931F93CF93DF9300D01F92CDB7DEB7F4
:103A100019821A821B821C82BE016F5F7F4F86E66D
:103A200092E10E94D61B49815A816B817C8182E19F
:103A300092E10E94B01A9981492F8A819093610383
:103A40008093620360915F0370916003072E000C06
:103A5000880B990B00E010E098010E94FC4164EF94
:103A600071E080E090E00E9457080E94500A0E9496
:103A700058060F900F900F900F90DF91CF911F91EC
:103A80000F9108950F931F93CF93DF9300D01F9250
:103A9000CDB7DEB719821A821B821C82BE016F5F0E
:103AA0007F4F82E792E10E94D61B69817A817093F1
:103AB000600360935F03072E000C880B990B00E0F6
:103AC00010E09801409161030E94FC4164EF71E0B5
:103AD00080E090E00E9457080E94500A0E94580619
:103AE0000F900F900F900F90DF91CF911F910F913A
:103AF00008958F929F92AF92BF92EF92FF920F9391
:103B00001F93CF93DF93CDB7DEB760970FB6F894CE
:103B1000DEBF0FBECDBF7C014A018E010F5F1F4F7C
:103B20008AE0F80111928A95E9F761E274E0CE012A
:103B30000B960E9410074AE0B801C4010E94C259C6
:103B4000F70162817381CE010B960E94EC4464E31D
:103B500074E0CE010B960E94EC44B801CE010B96A6
:103B60000E94EC448B859C850E944D1861E274E0B4
:103B7000CE010B960E9494456AE374E0CE010B9649
:103B80000E94EC44F70162817381CE010B960E9482
:103B9000EC448B859C850E944D180E94473F182F4E
:103BA000CE010B960E94E145812F60960FB6F894E6
:103BB000DEBF0FBECDBFDF91CF911F910F91FF9060
:103BC000EF90BF90AF909F908F9008958F929F92AB
:103BD000AF92BF92EF92FF920F931F93CF93DF9319
:103BE000CDB7DEB760970FB6F894DEBF0FBECDBF7E
:103BF0007C014A018E010F5F1F4F8AE0F80111928C
:103C00008A95E9F761E274E0CE010B960E941007F5
:103C10004AE0B801C4010E94C259F7016281738170
:103C2000CE010B960E94EC446FE374E0CE010B963C
:103C30000E94EC44B801CE010B960E94EC448B85A7
:103C40009C850E944D1861E274E0CE010B960E94A3
:103C500094456AE374E0CE010B960E94EC44F701B0
:103C600062817381CE010B960E94EC448B859C850A
:103C70000E944D180E94473F182FCE010B960E94BC
:103C8000E145812F60960FB6F894DEBF0FBECDBF21
:103C9000DF91CF911F910F91FF90EF90BF90AF9068
:103CA0009F908F9008954FEF5FEF60E070E08EE09F
:103CB00093E10E94E61D4FEF5FEF60E070E08EE061
:103CC00093E10E94791D4FEF5FEF60E070E082EDBD
:103CD00092E10E94E61D4FEF5FEF60E070E082ED41
:103CE00092E10E94791D10920C0A089540E058EF6D
:103CF00060E070E08EE093E10E94E61D40E058EF46
:103D000060E070E08EE093E10E94791D40E058EFA2
:103D100060E070E082ED92E10E94E61D40E058EF25
:103D200060E070E082ED92E10E94791D81E0809375
:103D30000C0A08954FEF5FEF60E070E08AE193E1D5
:103D40000E94E61D4FEF5FEF60E070E08AE193E1D3
:103D50000E94791D4FEF5FEF60E070E08EED92E121
:103D60000E94E61D4FEF5FEF60E070E08EED92E1A4
:103D70000E94791D10920B0A08954FEF5FEF60E0EB
:103D800070E08EE393E10E94E61D4FEF5FEF60E08D
:103D900070E08EE393E10E94791D4FEF5FEF60E0EA
:103DA00070E082E093E10E94E61D4FEF5FEF60E07C
:103DB00070E082E093E10E94791D10920A0A089552
:103DC0004FEF5FEF60E070E08EE393E10E94E61D4D
:103DD00040E058EF60E070E08EE393E10E94791DCF
:103DE0004FEF5FEF60E070E082E093E10E94E61D3C
:103DF00040E058EF60E070E082E093E10E94791DBE
:103E000081E080930A0A089581E080930D0A0E9460
:103E1000CC420E94E01E1092070A1092060A61E24C
:103E200074E085EC9DE00C94944540E058EF60E030
:103E300070E08EE393E10E94E61D40E058EF60E001
:103E400070E08EE393E10E94791D40E058EF60E05E
:103E500070E082E093E10E94E61D40E058EF60E0F0
:103E600070E082E093E10E94791D81E080930A0A6C
:103E7000089580910B0A81113BC080910A0A81113B
:103E80000E9488058091FB09811104C080910C0A71
:103E9000882391F161E274E08FEB9DE00E94D744AA
:103EA00081112AC00E948A0840E058EF60E070E06B
:103EB0008AE193E10E94E61D40E058EF60E070E087
:103EC0008AE193E10E94791D40E058EF60E070E0E4
:103ED0008EED92E10E94E61D40E058EF60E070E058
:103EE0008EED92E10E94791D81E080930B0A089586
:103EF0000E949A1E0C94C50508958EE295E10C94DB
:103F0000391F4FEF57E860E070E08EEC94E10E94BB
:103F1000E61D4FEF57E860E070E086EB94E10E9409
:103F2000E61D4FEF57E860E070E08AEA94E10E94F6
:103F3000E61D4FEF57E860E070E08EE994E10E94E3
:103F4000E61D40EF5FEF60E070E082E994E10E94DF
:103F5000E61D0C94C5054FEF57E860E070E08EEC6D
:103F600094E10E94E61D4FEF57E860E070E086EBB9
:103F700094E10E94E61D4FEF57E860E070E08AEAA6
:103F800094E10E94E61D40EF5FEF60E070E08EE993
:103F900094E10E94E61D4FEF57E860E070E082E98F
:103FA00094E10E94E61D0C94C5054FEF57E860E0D0
:103FB00070E08EEC94E10E94E61D4FEF57E860E060
:103FC00070E086EB94E10E94E61D40EF5FEF60E059
:103FD00070E08AEA94E10E94E61D4FEF57E860E046
:103FE00070E08EE994E10E94E61D4FEF57E860E033
:103FF00070E082E994E10E94E61D0C94C5054FEF44
:1040000057E860E070E08EEC94E10E94E61D40EF1E
:104010005FEF60E070E086EB94E10E94E61D4FEFF9
:1040200057E860E070E08AEA94E10E94E61D4FEFF5
:1040300057E860E070E08EE994E10E94E61D4FEFE2
:1040400057E860E070E082E994E10E94E61D0C947C
:10405000C50540EF5FEF60E070E08EEC94E10E94F8
:10406000E61D4FEF57E860E070E086EB94E10E94B8
:10407000E61D4FEF57E860E070E08AEA94E10E94A5
:10408000E61D4FEF57E860E070E08EE994E10E9492
:10409000E61D4FEF57E860E070E082E994E10E948E
:1040A000E61D0E94C5058AE695E10C94C41840EF10
:1040B0005FEF60E070E08EEC94E10E94E61D4FEF50
:1040C00057E860E070E086EB94E10E94E61D4FEF58
:1040D00057E860E070E08AEA94E10E94E61D4FEF45
:1040E00057E860E070E08EE994E10E94E61D4FEF32
:1040F00057E860E070E082E994E10E94E61D0C94CC
:10410000C505CF93DF9300D000D0CDB7DEB7809147
:10411000290A811102C00E94C5050E94880A61E235
:1041200074E085EC9DE00E9494451092070A10927D
:10413000060A1092FE091092FF091092000A1092CE
:10414000010A8091FB09882311F14FEF5FEF60E0D6
:1041500070E082E393E10E94E61D4FEF5FEF60E0C5
:1041600070E082E393E10E94791D4FEF5FEF60E022
:1041700070E086EF92E10E94E61D4FEF5FEF60E096
:1041800070E086EF92E10E94791D1092FB09809108
:10419000080A882311F14FEF5FEF60E070E086E2DC
:1041A00093E10E94E61D4FEF5FEF60E070E086E272
:1041B00093E10E94791D4FEF5FEF60E070E08AEEBF
:1041C00092E10E94E61D4FEF5FEF60E070E08AEE43
:1041D00092E10E94791D1092080A80910B0A8111C8
:1041E0000E949A1E80910C0A81110E94531E0E9407
:1041F000151F65E474E0CE0101960E941007CE0100
:1042000001960E94211ACE0101960E94E14566EDB9
:1042100074E0CE0101960E941007CE0101960E9423
:10422000731ACE0101960E94E14566ED74E0CE015D
:1042300001960E941007CE0101960E944B1ACE01F2
:1042400001960E94E14561E274E08FEB9DE00E94DF
:1042500094456091FE097091FF098091000A909148
:10426000010A0E94A85DAB01BC018AE493E10E94AF
:10427000B01A6091FE097091FF098091000A909137
:10428000010A0E94A85DAB01BC0186EE9DE00E9480
:10429000B01A0E9458060E942D191092280A1092F6
:1042A000090A26960FB6F894DEBF0FBECDBFDF9188
:1042B000CF91089582EF94E10C94812066E172E041
:1042C0008EEA92E10E94DE1982EF94E10C94812043
:1042D0001092070A1092060A66E172E08AEB92E1F8
:1042E0000E94DE19609121027091220280912302C6
:1042F000909124020E94A85DAB01BC018EE394E181
:104300000E94B01A609121027091220280912302D2
:10431000909124020E94A85DAB01BC018EE693E15E
:104320000E94B01A8091020A882339F040E050E0E0
:10433000BA0182E693E10E94791D409100025091FA
:104340000102052E000C660B770B82E693E10E94BA
:10435000B01A60911D0270911E0280911F0290910F
:1043600020020E94A85DAB01BC0186E593E10E949A
:10437000B01A6091FE097091FF098091000A909136
:10438000010A0E94A85DAB01BC018AE493E10E948E
:10439000B01A4091030A50E070E060E086EE94E1CC
:1043A0000E94B01A8091630364EE73E0882311F0D9
:1043B00066EE73E086EB93E10E94DE1982EF94E1F2
:1043C0000C9481208EE993E10C9468218EE993E1AD
:1043D0000C9468218EE993E10C9468218EE993E1B5
:1043E0000C946821CF93DF9300D01F92CDB7DEB736
:1043F00019821A821B821C82BE016F5F7F4F8EE77B
:1044000092E10E94D61B89819A81AB81BC81813067
:104410009105A105B105E9F088F00297A105B10564
:1044200009F10E94C50582EF94E10E9481200F905E
:104430000F900F900F90DF91CF9108951092050A81
:104440001092040A61EF73E08AE292E10E94DE19A1
:10445000E8CF81E090E09093050A8093040A68EF2A
:1044600073E0F2CF82E090E09093050A8093040A13
:1044700061E074E0E9CF8F929F92AF92BF92CF92AA
:10448000DF92EF92FF928091060A9091070A0197BE
:10449000029708F045C08091C50D9091C60DC12CC2
:1044A000D12C7601009721F00E9477596B017C0195
:1044B000C0922102D0922202E0922302F0922402C2
:1044C000C0921D02D0921E02E0921F02F0922002C2
:1044D00020E030E048EC52E46091640370916503A1
:1044E00080916603909167030E942F5D4B015C01F0
:1044F000A701960160E070E086E994E40E942F5DD8
:104500009B01AC01C501B4010E94D15B6093220AFA
:104510007093230A8093240A9093250A0E945806D8
:104520008091060A9091070A892B31F480910D0A37
:10453000811102C00E9488056091210270912202BF
:1045400080912302909124020E94A85DAB01BC01DE
:104550008EE394E10E94B01A6091210270912202D0
:1045600080912302909124020E94A85DAB01BC01BE
:104570008EE693E10E94B01A60911D0270911E02B6
:1045800080911F02909120020E94A85DAB01BC01A6
:1045900086E593E10E94B01A82EF94E1FF90EF90DC
:1045A000DF90CF90BF90AF909F908F900C94812020
:1045B00080910D0A81115CC08091060A9091070AD2
:1045C000019709F03BC081E08093020A0E94B74343
:1045D0007093010260930002AB01770F660B770BBB
:1045E00082E693E10E94B01A40E050E0BA0182E610
:1045F00093E10E94791DE0910002F0910102EA30FE
:10460000F105E0F48827E85FFC4D8F4F0C94FE5DC8
:1046100012233C23412346234B23502355235A2363
:104620005F2364238DEC9CECACECBEEB8093F7092C
:104630009093F809A093F909B093FA098091060ABA
:104640009091070A892B51F41092020A40EE5FEF15
:1046500060E070E082E693E10E94791D8091060A95
:104660009091070A029714F00E9488050E9458064C
:1046700082EF94E10C9481208AE999E9A9E9BEEBE3
:10468000D5CF8DEC9CECACE4BEEBD0CF8DEC9CECAC
:10469000ACECBDEBCBCF8DEC9CECACE4BDEBC6CF72
:1046A0008DEC9CECACE4BDE3C1CF8DEC9CECACECB0
:1046B000BDE3BCCF8DEC9CECACE4BEE3B7CF8AE9A4
:1046C00099E9A9E9BEE3B2CF8DEC9CECACECBEE37A
:1046D000ADCF4F925F926F927F928F929F92AF92E7
:1046E000BF92CF92DF92EF92FF92CF93DF9300D0F1
:1046F0001F92CDB7DEB7C0902102D0902202E09089
:104700002302F090240280910D0A81111AC00E94A8
:10471000B7430E94725B60931D0270931E028093E8
:104720001F02909320028091060A9091070A892B1C
:1047300041F4C0921D02D0921E02E0921F02F0923C
:10474000200240901D0250901E0260901F02709047
:10475000200220E030E048EC52E460916403709164
:10476000650380916603909167030E942F5D4B0162
:104770005C0120E030E046E953E4C701B6010E9445
:10478000D15B69837A838B839C8320E030E04AE3AA
:1047900053E4C301B2010E94D15B9B01AC0169816A
:1047A0007A818B819C810E94C25C9B01AC01C50116
:1047B000B4010E94D15B4B015C0120E030E04EEB84
:1047C00052E4C701B6010E94D15BA30192010E948D
:1047D000D15B9B01AC01C501B4010E942F5D20E0BB
:1047E00030E04AE754E40E94D15B60931E0A709364
:1047F0001F0A8093200A9093210A20E030E0A9014B
:104800000E94D75D87FD28C00E94580660911D0256
:1048100070911E0280911F02909120020E94A85D5B
:10482000AB01BC0186E593E10E94B01A82EF94E1EE
:104830000F900F900F900F90DF91CF91FF90EF901E
:10484000DF90CF90BF90AF909F908F907F906F90B0
:104850005F904F900C9481200E948805E7CF809153
:104860000D0A882321F082EF94E10C94812080913D
:104870000A0A882349F10E94BD1E40E058EF60E01B
:1048800070E082E393E10E94E61D40E058EF60E0B3
:1048900070E082E393E10E94791D40E058EF60E010
:1048A00070E086EF92E10E94E61D40E058EF60E084
:1048B00070E086EF92E10E94791D81E08093FB0910
:1048C0008093280A0C9458061092280A82EF94E1EB
:1048D0000E948120F7CF82E595E10C942F24CF939D
:1048E000DF9300D000D0CDB7DEB780910B0A8823CC
:1048F00059F161E274E08FEB9DE00E94944561E222
:1049000074E0CE0101960E941007CE0101960E942C
:10491000731ACE0101960E94E14561E274E0CE0176
:1049200001960E941007CE0101960E944B1ACE01FB
:1049300001960E94E14526960FB6F894DEBF0FBEA1
:10494000CDBFDF91CF91089580910D0A811160C094
:104950000E94C5058091060A9091070A8130910551
:1049600009F446C08230910509F442C0892B09F050
:104970004CC01092FE091092FF091092000A10928A
:10498000010A61E274E085EC9DE00E94944510927A
:10499000070A1092060A6091FE097091FF09809142
:1049A000000A9091010A0E94A85DAB01BC018AE453
:1049B00093E10E94B01A6091FE097091FF09809105
:1049C000000A9091010A0E94A85DAB01BC0186EE2D
:1049D0009DE00E94B01A0E94580665E474E0CE0182
:1049E00001960E941007CE0101960E94211A9FCFC6
:1049F0000E94B7430E94725B6093FE097093FF09A7
:104A00008093000A9093010ABCCF0E948805E5CFED
:104A100082EF94E10E9481208ECF86E495E10C9490
:104A20006F24CF93DF9300D000D0CDB7DEB76FEB0C
:104A30007DE0CE0101960E94070769E474E0CE0193
:104A400001960E944A45BC018FEB9DE00E94CA4539
:104A5000CE0101960E94E14526960FB6F894DEBF7E
:104A60000FBECDBFDF91CF9108950C941125CF9348
:104A7000DF9300D000D0CDB7DEB76FEB7DE0CE0185
:104A800001960E9407076CE474E0CE0101960E9433
:104A90004A45BC018FEB9DE00E94CA45CE010196BC
:104AA0000E94E14526960FB6F894DEBF0FBECDBF3B
:104AB000DF91CF910895CF93DF9300D000D0CDB791
:104AC000DEB76FEB7DE0CE0101960E94070760E53F
:104AD00074E0CE0101960E944A45BC018FEB9DE037
:104AE0000E94CA45CE0101960E94E14526960FB666
:104AF000F894DEBF0FBECDBFDF91CF910895CF9365
:104B0000DF9300D000D0CDB7DEB78091080A6FEBFD
:104B10007DE08823E1F0CE0101960E94070764E55D
:104B200074E0CE0101960E944A45BC018FEB9DE0E6
:104B30000E94CA45CE0101960E94E14526960FB615
:104B4000F894DEBF0FBECDBFDF91CF910895CE01A7
:104B500001960E94070766E172E0E3CFCF93DF93EF
:104B600000D000D0CDB7DEB76FEB7DE0CE0101966F
:104B70000E94070766E574E0CE0101960E944A454F
:104B8000BC018FEB9DE00E94CA45CE0101960E94B8
:104B9000E14526960FB6F894DEBF0FBECDBFDF917C
:104BA000CF910895CF93DF9300D000D0CDB7DEB77B
:104BB0006FEB7DE0CE0101960E94070769E574E086
:104BC000CE0101960E944A45BC018FEB9DE00E94F8
:104BD000CA45CE0101960E94E14526960FB6F8948B
:104BE000DEBF0FBECDBFDF91CF910895CF93DF938E
:104BF00000D000D0CDB7DEB76FEB7DE0CE010196DF
:104C00000E9407076CE574E0CE0101960E944A45B8
:104C1000BC018FEB9DE00E94CA45CE0101960E9427
:104C2000E14526960FB6F894DEBF0FBECDBFDF91EB
:104C3000CF910895CF93DF9300D000D0CDB7DEB7EA
:104C40006FEB7DE0CE0101960E9407076EE574E0F0
:104C5000CE0101960E944A45BC018FEB9DE00E9467
:104C6000CA45CE0101960E94E14526960FB6F894FA
:104C7000DEBF0FBECDBFDF91CF910895CF93DF93FD
:104C800000D000D0CDB7DEB76FEB7DE0CE0101964E
:104C90000E94070760E674E0CE0101960E944A4533
:104CA000BC018FEB9DE00E94CA45CE0101960E9497
:104CB000E14526960FB6F894DEBF0FBECDBFDF915B
:104CC000CF910895CF93DF9300D000D0CDB7DEB75A
:104CD0006FEB7DE0CE0101960E94070761E974E069
:104CE000CE0101960E944A45BC018FEB9DE00E94D7
:104CF000CA45CE0101960E94E14526960FB6F8946A
:104D0000DEBF0FBECDBFDF91CF910895CF93DF936C
:104D100000D000D0CDB7DEB76FEB7DE0CE010196BD
:104D20000E94070762E674E0CE0101960E944A45A0
:104D3000BC018FEB9DE00E94CA45CE0101960E9406
:104D4000E14526960FB6F894DEBF0FBECDBFDF91CA
:104D5000CF910895CF93DF9300D000D0CDB7DEB7C9
:104D60006FEB7DE0CE0101960E94070765E674E0D7
:104D7000CE0101960E944A45BC018FEB9DE00E9446
:104D8000CA45CE0101960E94E14526960FB6F894D9
:104D9000DEBF0FBECDBFDF91CF910895CF93DF93DC
:104DA00000D000D0CDB7DEB76FEB7DE0CE0101962D
:104DB0000E9407076AE674E0CE0101960E944A4508
:104DC000BC018FEB9DE00E94CA45CE0101960E9476
:104DD000E14526960FB6F894DEBF0FBECDBFDF913A
:104DE000CF910895CF93DF9300D000D0CDB7DEB739
:104DF0006FEB7DE0CE0101960E9407076FE674E03D
:104E0000CE0101960E944A45BC018FEB9DE00E94B5
:104E1000CA45CE0101960E94E14526960FB6F89448
:104E2000DEBF0FBECDBFDF91CF910895CF93DF934B
:104E300000D000D0CDB7DEB76FEB7DE0CE0101969C
:104E40000E94070764E774E0CE0101960E944A457C
:104E5000BC018FEB9DE00E94CA45CE0101960E94E5
:104E6000E14526960FB6F894DEBF0FBECDBFDF91A9
:104E7000CF910895CF93DF9300D000D0CDB7DEB7A8
:104E80006FEB7DE0CE0101960E94070767E774E0B3
:104E9000CE0101960E944A45BC018FEB9DE00E9425
:104EA000CA45CE0101960E94E14526960FB6F894B8
:104EB000DEBF0FBECDBFDF91CF910895CF93DF93BB
:104EC00000D000D0CDB7DEB76FEB7DE0CE0101960C
:104ED0000E9407076BE774E0CE0101960E944A45E5
:104EE000BC018FEB9DE00E94CA45CE0101960E9455
:104EF000E14526960FB6F894DEBF0FBECDBFDF9119
:104F0000CF910895CF93DF9300D000D0CDB7DEB717
:104F10006FEB7DE0CE0101960E9407076FE774E01A
:104F2000CE0101960E944A45BC018FEB9DE00E9494
:104F3000CA45CE0101960E94E14526960FB6F89427
:104F4000DEBF0FBECDBFDF91CF910895CF93DF932A
:104F500000D000D0CDB7DEB76FEB7DE0CE0101967B
:104F60000E94070764E874E0CE0101960E944A455A
:104F7000BC018FEB9DE00E94CA45CE0101960E94C4
:104F8000E14526960FB6F894DEBF0FBECDBFDF9188
:104F9000CF910895CF93DF9300D000D0CDB7DEB787
:104FA0006FEB7DE0CE0101960E9407076FEE73E084
:104FB000CE0101960E944A45BC018FEB9DE00E9404
:104FC000CA45CE0101960E94E14526960FB6F89497
:104FD000DEBF0FBECDBFDF91CF910895CF93DF939A
:104FE00000D000D0CDB7DEB76FEB7DE0CE010196EB
:104FF0000E94070766ED74E0CE0101960E944A45C3
:10500000BC018FEB9DE00E94CA45CE0101960E9433
:10501000E14526960FB6F894DEBF0FBECDBFDF91F7
:10502000CF910895CF93DF9300D000D0CDB7DEB7F6
:105030006FEB7DE0CE0101960E9407076FE874E0F8
:10504000CE0101960E944A45BC018FEB9DE00E9473
:10505000CA45CE0101960E94E14526960FB6F89406
:10506000DEBF0FBECDBFDF91CF910895CF93DF9309
:1050700000D000D0CDB7DEB76FEB7DE0CE0101965A
:105080000E9407076DE679E0CE0101960E944A452D
:10509000BC018FEB9DE00E94CA45CE0101960E94A3
:1050A000E14526960FB6F894DEBF0FBECDBFDF9167
:1050B000CF910895CF93DF9300D000D0CDB7DEB766
:1050C0006FEB7DE0CE0101960E94070763EE78E06A
:1050D000CE0101960E944A45BC018FEB9DE00E94E3
:1050E000CA45CE0101960E94E14526960FB6F89476
:1050F000DEBF0FBECDBFDF91CF910895CF93DF9379
:1051000000D000D0CDB7DEB76FEB7DE0CE010196C9
:105110000E9407076FED78E0CE0101960E944A4594
:10512000BC018FEB9DE00E94CA45CE0101960E9412
:10513000E14526960FB6F894DEBF0FBECDBFDF91D6
:10514000CF910895CF93DF9300D000D0CDB7DEB7D5
:105150006FEB7DE0CE0101960E9407076BED78E0D2
:10516000CE0101960E944A45BC018FEB9DE00E9452
:10517000CA45CE0101960E94E14526960FB6F894E5
:10518000DEBF0FBECDBFDF91CF910895CF93DF93E8
:1051900000D000D0CDB7DEB76FEB7DE0CE01019639
:1051A0000E94070767ED78E0CE0101960E944A450C
:1051B000BC018FEB9DE00E94CA45CE0101960E9482
:1051C000E14526960FB6F894DEBF0FBECDBFDF9146
:1051D000CF910895CF93DF9300D000D0CDB7DEB745
:1051E0006FEB7DE0CE0101960E94070763ED78E04A
:1051F000CE0101960E944A45BC018FEB9DE00E94C2
:10520000CA45CE0101960E94E14526960FB6F89454
:10521000DEBF0FBECDBFDF91CF910895CF93DF9357
:1052200000D000D0CDB7DEB76FEB7DE0CE010196A8
:105230000E9407076FEC78E0CE0101960E944A4574
:10524000BC018FEB9DE00E94CA45CE0101960E94F1
:10525000E14526960FB6F894DEBF0FBECDBFDF91B5
:10526000CF910895CF93DF9300D000D0CDB7DEB7B4
:105270006FEB7DE0CE0101960E9407076BEC78E0B2
:10528000CE0101960E944A45BC018FEB9DE00E9431
:10529000CA45CE0101960E94E14526960FB6F894C4
:1052A000DEBF0FBECDBFDF91CF910895CF93DF93C7
:1052B00000D000D0CDB7DEB76FEB7DE0CE01019618
:1052C0000E9407076FEA75E0CE0101960E944A45E9
:1052D000BC018FEB9DE00E94CA45CE0101960E9461
:1052E000E14526960FB6F894DEBF0FBECDBFDF9125
:1052F000CF910895CF93DF9300D000D0CDB7DEB724
:105300006FEB7DE0CE0101960E94070769E075E032
:10531000CE0101960E944A45BC018FEB9DE00E94A0
:10532000CA45CE0101960E94E14526960FB6F89433
:10533000DEBF0FBECDBFDF91CF910895CF93DF9336
:1053400000D000D0CDB7DEB76FEB7DE0CE01019687
:105350000E9407076EE579E0CE0101960E944A455A
:10536000BC018FEB9DE00E94CA45CE0101960E94D0
:10537000E14526960FB6F894DEBF0FBECDBFDF9194
:10538000CF910895CF93DF9300D000D0CDB7DEB793
:105390006FEB7DE0CE0101960E94070763E974E0A0
:1053A000CE0101960E944A45BC018FEB9DE00E9410
:1053B000CA45CE0101960E94E14526960FB6F894A3
:1053C000DEBF0FBECDBFDF91CF910895CF93DF93A6
:1053D00000D000D0CDB7DEB76FEB7DE0CE010196F7
:1053E0000E94070765E974E0CE0101960E944A45D4
:1053F000BC018FEB9DE00E94CA45CE0101960E9440
:10540000E14526960FB6F894DEBF0FBECDBFDF9103
:10541000CF910895CF93DF9300D000D0CDB7DEB702
:105420006FEB7DE0CE0101960E94070767E974E00B
:10543000CE0101960E944A45BC018FEB9DE00E947F
:10544000CA45CE0101960E94E14526960FB6F89412
:10545000DEBF0FBECDBFDF91CF910895CF93DF9315
:1054600000D000D0CDB7DEB76FEB7DE0CE01019666
:105470000E9407076DEF74E0CE0101960E944A4535
:10548000BC018FEB9DE00E94CA45CE0101960E94AF
:10549000E14526960FB6F894DEBF0FBECDBFDF9173
:1054A000CF910895CF93DF9300D000D0CDB7DEB772
:1054B0006FEB7DE0CE0101960E94070760EA77E07E
:1054C000CE0101960E944A45BC018FEB9DE00E94EF
:1054D000CA45CE0101960E94E14526960FB6F89482
:1054E000DEBF0FBECDBFDF91CF910895CF93DF9385
:1054F00000D000D0CDB7DEB76FEB7DE0CE010196D6
:105500000E94070762E776E0CE0101960E944A45B5
:10551000BC018FEB9DE00E94CA45CE0101960E941E
:10552000E14526960FB6F894DEBF0FBECDBFDF91E2
:10553000CF910895CF93DF9300D000D0CDB7DEB7E1
:105540006FEB7DE0CE0101960E94070765E078E0F1
:10555000CE0101960E944A45BC018FEB9DE00E945E
:10556000CA45CE0101960E94E14526960FB6F894F1
:10557000DEBF0FBECDBFDF91CF910895CF93DF93F4
:1055800000D000D0CDB7DEB76FEB7DE0CE01019645
:105590000E94070769E974E0CE0101960E944A451E
:1055A000BC018FEB9DE00E94CA45CE0101960E948E
:1055B000E14526960FB6F894DEBF0FBECDBFDF9152
:1055C000CF910895CF93DF9300D000D0CDB7DEB751
:1055D0006FEB7DE0CE0101960E9407076FE079E056
:1055E000CE0101960E944A45BC018FEB9DE00E94CE
:1055F000CA45CE0101960E94E14526960FB6F89461
:10560000DEBF0FBECDBFDF91CF910895CF93DF9363
:1056100000D000D0CDB7DEB76FEB7DE0CE010196B4
:105620000E94070762E874E0CE0101960E944A4595
:10563000BC018FEB9DE00E94CA45CE0101960E94FD
:10564000E14526960FB6F894DEBF0FBECDBFDF91C1
:10565000CF910895CF93DF9300D000D0CDB7DEB7C0
:105660006FEB7DE0CE0101960E9407076DE074E0CC
:10567000CE0101960E944A45BC018FEB9DE00E943D
:10568000CA45CE0101960E94E14526960FB6F894D0
:10569000DEBF0FBECDBFDF91CF910895CF93DF93D3
:1056A00000D000D0CDB7DEB76FEB7DE0CE01019624
:1056B0000E9407076FED74E0CE0101960E944A45F3
:1056C000BC018FEB9DE00E94CA45CE0101960E946D
:1056D000E14526960FB6F894DEBF0FBECDBFDF9131
:1056E000CF910895CF93DF9300D000D0CDB7DEB730
:1056F0006FEB7DE0CE0101960E9407076BE974E035
:10570000CE0101960E944A45BC018FEB9DE00E94AC
:10571000CA45CE0101960E94E14526960FB6F8943F
:10572000DEBF0FBECDBFDF91CF910895CF93DF9342
:1057300000D000D0CDB7DEB76FEB7DE0CE01019693
:105740000E94070760E977E0CE0101960E944A4572
:10575000BC018FEB9DE00E94CA45CE0101960E94DC
:10576000E14526960FB6F894DEBF0FBECDBFDF91A0
:10577000CF910895CF93DF9300D000D0CDB7DEB79F
:105780006FEB7DE0CE0101960E9407076EE474E0A6
:10579000CE0101960E944A45BC018FEB9DE00E941C
:1057A000CA45CE0101960E94E14526960FB6F894AF
:1057B000DEBF0FBECDBFDF91CF910895CF93DF93B2
:1057C00000D000D0CDB7DEB76FEB7DE0CE01019603
:1057D0000E94070767EE77E0CE0101960E944A45D6
:1057E000BC018FEB9DE00E94CA45CE0101960E944C
:1057F000E14526960FB6F894DEBF0FBECDBFDF9110
:10580000CF910895CF93DF9300D000D0CDB7DEB70E
:105810006FEB7DE0CE0101960E9407076FEF73E00A
:10582000CE0101960E944A45BC018FEB9DE00E948B
:10583000CA45CE0101960E94E14526960FB6F8941E
:10584000DEBF0FBECDBFDF91CF910895CF93DF9321
:1058500000D000D0CDB7DEB76FEB7DE0CE01019672
:105860000E9407076EEA77E0CE0101960E944A4542
:10587000BC018FEB9DE00E94CA45CE0101960E94BB
:10588000E14526960FB6F894DEBF0FBECDBFDF917F
:10589000CF910895CF93DF9300D000D0CDB7DEB77E
:1058A0006FEB7DE0CE0101960E9407076DE974E081
:1058B000CE0101960E944A45BC018FEB9DE00E94FB
:1058C000CA45CE0101960E94E14526960FB6F8948E
:1058D000DEBF0FBECDBFDF91CF910895CF93DF9391
:1058E00000D000D0CDB7DEB76FEB7DE0CE010196E2
:1058F0000E9407076FE974E0CE0101960E944A45B5
:10590000BC018FEB9DE00E94CA45CE0101960E942A
:10591000E14526960FB6F894DEBF0FBECDBFDF91EE
:10592000CF910895CF93DF9300D000D0CDB7DEB7ED
:105930006FEB7DE0CE0101960E9407076EEC75E0EB
:10594000CE0101960E944A45BC018FEB9DE00E946A
:10595000CA45CE0101960E94E14526960FB6F894FD
:10596000DEBF0FBECDBFDF91CF910895CF93DF9300
:1059700000D000D0CDB7DEB76FEB7DE0CE01019651
:105980000E9407076FEA73E0CE0101960E944A4524
:10599000BC018FEB9DE00E94CA45CE0101960E949A
:1059A000E14526960FB6F894DEBF0FBECDBFDF915E
:1059B000CF910895CF93DF9300D000D0CDB7DEB75D
:1059C0006FEB7DE0CE0101960E94070761EA74E06B
:1059D000CE0101960E944A45BC018FEB9DE00E94DA
:1059E000CA45CE0101960E94E14526960FB6F8946D
:1059F000DEBF0FBECDBFDF91CF910895CF93DF9370
:105A000000D000D0CDB7DEB76FEB7DE0CE010196C0
:105A10000E94070764EB74E0CE0101960E944A459C
:105A2000BC018FEB9DE00E94CA45CE0101960E9409
:105A3000E14526960FB6F894DEBF0FBECDBFDF91CD
:105A4000CF910895CF93DF9300D000D0CDB7DEB7CC
:105A50006FEB7DE0CE0101960E94070762E676E0DB
:105A6000CE0101960E944A45BC018FEB9DE00E9449
:105A7000CA45CE0101960E94E14526960FB6F894DC
:105A8000DEBF0FBECDBFDF91CF910895CF93DF93DF
:105A900000D000D0CDB7DEB76FEB7DE0CE01019630
:105AA0000E94070763EA74E0CE0101960E944A450E
:105AB000BC018FEB9DE00E94CA45CE0101960E9479
:105AC000E14526960FB6F894DEBF0FBECDBFDF913D
:105AD000CF910895CF93DF9300D000D0CDB7DEB73C
