:100000000C9422030C942F0A0C94040A0C94D90922
:100010000C94AE090C9483090C9458090C942D0986
:100020000C9402090C9453030C9453030C94530343
:100030000C9453030C9453030C9453030C945303E8
:100040000C9453030C94680A0C9453030C945303BC
:100050000C9453030C9453030C9453030C94B8085E
:100060000C9453030C94CC070C94A2070C945303E8
:100070000C9453030C9453030C9453030C945303A8
:100080000C9453030C9453030C9453030C94530398
:100090000C946C070C9442070C9453030C94530378
:1000A0000C9453030C9453030C9453030C94530378
:1000B0000C9453030C9453030C9453030C94530368
:1000C0000C9453030C9453030C9453030C94530358
:1000D0000C9453030C9453030C9453030C94530348
:1000E0000C9453030C94DE050C94B1210C94AA28B3
:1000F0000C94362A0C94F2390C940A3A0C94133A64
:100100000C94163A0C94F6270C9482180C94CC0498
:100110000C94AB230C942D320C9442040C94B42414
:100120000C94343A0C945B270C94763A0C943B254F
:100130000C944C3A0C9431300C94AA310C94B119B3
:100140000C94403A0C9417240C94D2270C94AF23AF
:100150000C945B3A0C941A280C946A3A0C9444055B
:100160000C94C8040C94FE390C94A43A0C945E29A7
:100170000C94201A0C9431250C94EE290C947F3A9F
:100180000C94643E0C94E9260C945C1E0C94910330
:100190000C94D2040C94562B0C943A290C94B6204F
:1001A0000C94E3390C943E280C943D3A0C94FB13C8
:1001B0000C94CA290C9429320C94D6040C94F61D84
:1001C0000C9445050C94651C0C94103A0C94550342
:1001D0000C9493180C94B62E0C9487210C94A6338F
:1001E0000C9425480C941F3A0C942C250C94E4058F
:1001F0000C94FE2E0C94522C0C94E22C0C94433A4A
:100200000C94922E0C947A2B0C94F8390C94E804EC
:100210000C94193A0C94313A0C949C190C94EA05FC
:100220000C948A270C9433210C946F370C94253A44
:100230000C940A2C0C9482290C94A8340C94A616C5
:100240000C94EE240C94E6050C94ED260C94322BC1
:100250000C9418250C940D3A0C94F2280C94703AD6
:100260000C94ED040C948B3A0C94BB040C947C3AE3
:100270000C945D210C9440250C94E2050C941D25F2
:100280000C94F2040C94BE2C0C94A6290C944F3AB6
:100290000C9413270C94AC300C94D51E0C94EA2AC1
:1002A0000C94B3030C94013A0C942A2D0C94C22B99
:1002B0000C94122A0C94C13D0C9422250C94151D0B
:1002C0000C94C62A0C94E0040C9411270C94062D6F
:1002D0000C94F5030C94A3230C9447260C94092248
:1002E0000C9486280C94B23A0C94B7040C943606FD
:1002F0000C949A2C0C9427330C94733A0C94760536
:100300000C9427250C9433220C94AE310C94EE04FB
:100310000C94DB380C94F5390C94283A0C94AA33DD
:100320000C9416290C944E2D0C94613A0C94CE2802
:100330000C94E62B0C94793A0C941C3A0C94463AA3
:100340000C945A2A0C9425340C94E8050C94293406
:100350000C942D300C94DA2E0C94E4040C94EF19C8
:100360000C94AA3A0C9415480C947E2A0C944E3B9B
:100370000C94A7230C94EB050C9482030C94AC32E0
:100380000C94722D0C942B3A0C94CD1B0C94B22F20
:100390000C94BF040C94AD040C942E2C0C94541AA1
:1003A0000C94C2040C941B230C94262E0C9436251A
:1003B0000C94823A0C94FB390C94DA050C94660583
:1003C0000C94BA2D0C949E1E0C94DA040C94373ABB
:1003D0000C94A8320C94022E0C9463140C942F21CC
:1003E0000C94222F0C940A1D0C94523A0C945E3AF1
:1003F0000C949F230C943F1C0C94CE140C94A503D6
:100400000C94583A0C94EB200C948E2F0C94AD3A2B
:100410000C942F310C946E2E0C94883A0C94073A5D
:100420000C94553A0C94223A0C94E0050C942E1D31
:100430000C94043A0C943A3A0C94B0300C9446055F
:100440000C94673A0C94CC1D0C94B3040C94021FCA
:100450000C9462040C94762C0C9425230C94AE27F7
:100460000C9409070C94B10A0C946A2F0C94A73AC7
:100470000C94643A0C946D3A0C9445250C942B31F1
:100480000C942B330C9405140C9479160C941723AC
:100490000C94962D0C94493A0C94853A0C94A434FF
:1004A0000C949E2B0C940B260C944B260C94A22A95
:1004B0000C940E2B0C94DB210C9437270C94DE2D1E
:1004C0000C9462280C94462F0C942E3A0C94A13A6A
:1004D0000C944A2E4E414E494E495459494E46CDF0
:1004E000CCCC3D0AD7233C17B7D13877CC2B3295EB
:1004F00095E6241FB14F0A000020410000C84200C9
:10050000401C4620BCBE4CCA1B0E5AAEC59D747C16
:100510003C3E5E2B3D3F2F5B5D3B2C2A225C000066
:10052000002200250028002B002E0031003400029C
:10053000010000050108010B010000200023002636
:100540000029002C002F00320000010000030106EA
:1005500001090100000A0B02090C0D0E0807030433
:10056000010000000000000000000000000000008A
:100570000000000000000000000000000000001269
:10058000111000000000000000000000000000004A
:1005900000000000000000000000002100240027EF
:1005A000002A002D00300033000101000004010783
:1005B000010A0101021020200808102040102040EC
:1005C0008002010201080402010102040810204017
:1005D0008080402010080402018004020180402035
:1005E000100804020108040201010204081020405E
:1005F0008001020408102040800505050507050854
:10060000080808020202020A0A0808040404040195
:1006100001010101010101030303030303030304B7
:100620000707070C0C0C0C0C0C0C0C020202020647
:10063000060606060606060B0B0B0B0B0B0B0B0038
:100640002548154811241FBECFEFD1E2DEBFCDBF34
:1006500000E00CBF26E1ACE4BAE001C01D92A0307E
:10066000B207E1F71AE0A0E0B2E0E6ECF5EC00E05A
:100670000BBF02C007900D92AC34B107D9F713E05D
:10068000C1E2D3E000E006C021970109802FFE01FE
:100690000E947B60C032D10780E00807A9F70E9462
:1006A0009F530C94D1620C940000AF92BF92CF92F2
:1006B000DF92EF92FF920F931F93CF93DF936C0122
:1006C0007B018B01040F151FEB015E01AE18BF0803
:1006D000C017D10759F06991D601ED91FC910190B5
:1006E000F081E02DC6011995892B79F7C501DF91BD
:1006F000CF911F910F91FF90EF90DF90CF90BF901F
:10070000AF900895FC01538D448D252F30E0842F48
:1007100090E0821B930B541710F0CF960895019729
:100720000895FC01918D828D981761F0A28DAE0F16
:10073000BF2FB11D5D968C91928D9F5F9F73928F9D
:1007400090E008958FEF9FEF0895FC01918D828DC9
:10075000981731F0828DE80FF11D858D90E0089596
:100760008FEF9FEF0895FC01918D228D892F90E0EE
:10077000805C9F4F821B91098F73992708958BE8A6
:100780009CE00E94B30321E0892B09F420E0822F32
:10079000089588E29DE00E94B30321E0892B09F4CB
:1007A00020E0822F0895FC01A48DA80FB92FB11D60
:1007B000A35ABF4F2C91848D90E001968F73992797
:1007C000848FA689B7892C93A089B1898C91837075
:1007D00080648C93938D848D981306C00288F3896E
:1007E000E02D80818F7D80830895EF92FF920F939B
:1007F0001F93CF93DF93EC0181E0888F9B8D8C8DCD
:1008000098131AC0E889F989808185FF15C09FB7C0
:10081000F894EE89FF896083E889F9898081837083
:10082000806480839FBF81E090E0DF91CF911F9132
:100830000F91FF90EF900895F62E0B8D10E00F5F53
:100840001F4F0F731127E02E8C8D8E110CC00FB629
:1008500007FCFACFE889F989808185FFF5CFCE01C1
:100860000E94D303F1CFEB8DEC0FFD2FF11DE35A66
:10087000FF4FF0829FB7F8940B8FEA89FB89808144
:100880008062CFCFCF93DF93EC01888D8823B9F0BE
:10089000AA89BB89E889F9898C9185FD03C080818B
:1008A00086FD0DC00FB607FCF7CF8C9185FFF2CF08
:1008B000808185FFEDCFCE010E94D303E9CFDF9188
:1008C000CF91089580E090E0892B29F00E94C90320
:1008D00081110E94000080E090E0892B29F00E94A5
:1008E000BF0381110E94000080E090E0892B49F055
:1008F00080E090E0892B29F00E94000081110E9485
:10090000000080E090E0892B49F080E090E0892BA6
:1009100029F00E94000081110C940000089581507C
:10092000823108F05AC0E82FF0E08827E556FB4FE7
:100930008F4F0C947B60BB04BF04AD04B304B704B9
:10094000ED04C204C804CC04D204D604DA04E004E2
:10095000E404ED04E804EE04F204809180008F7753
:10096000809380000895809180008F7DF9CF8091E1
:100970008000877FF5CF84B58F7784BD089584B5D7
:100980008F7DFBCF8091B0008F778093B00008956A
:100990008091B0008F7DF9CF809190008F77809308
:1009A00090000895809190008F7DF9CF8091900004
:1009B000877FF5CF8091A0008F778093A000089566
:1009C0008091A0008F7DF9CF8091A000877FF5CF27
:1009D000809120018F7780932001089580912001DC
:1009E0008F7DF9CF80912001877FF5CFCF93DF9363
:1009F000282F30E0F901ED5AFA4F8491F901ED54B6
:100A0000FA4FD491F901E750FA4FC491CC23A1F0E9
:100A100081110E948F04EC2FF0E0EE0FFF1FE75CC6
:100A2000FA4FA591B491EC91ED2381E090E009F4A7
:100A300080E0DF91CF91089580E090E0FACF3FB75A
:100A4000F89480917B0A90917C0AA0917D0AB091E4
:100A50007E0A26B5A89B05C02F3F19F00196A11D5F
:100A6000B11D3FBFBA2FA92F982F8827BC01CD01F8
:100A7000620F711D811D911D42E0660F771F881F57
:100A8000991F4A95D1F7089508950895DC01599664
:100A9000ED91FC913097B9F083899489A589B68945
:100AA0004285538564857585841B950BA60BB70B12
:100AB000811520E89207A105B10538F08FEF9FE777
:100AC000A0E0B0E0089590E080E00895DC01599640
:100AD0008D919C91009739F0DC01ED91FC9104809F
:100AE000F581E02D199490E080E00895CF93DF9395
:100AF0001F92CDB7DEB76983DC01ED91FC910280D6
:100B0000F381E02D41E050E0BE016F5F7F4F19950A
:100B10000F90DF91CF9108950F931F93CF93DF93A1
:100B2000C7E0D0E00FE010E020E030E04091660345
:100B300068E572E080E090E00E944B440FE010E036
:100B400020E030E0409166036CED75E080E090E0DD
:100B50000E944B440FE010E020E030E0409166033B
:100B600060E273E080E090E00E944B440FE010E010
:100B700020E030E04091660360EB74E080E090E0BC
:100B80000E944B44219771F6DF91CF911F910F91F5
:100B900008950F931F9308EC10E020E030E040919F
:100BA000660360E273E080E090E00E944B441F9196
:100BB0000F91089581E080936A0A08950C94C90505
:100BC0000C94C9050C94C9050C94C9050C94C9056D
:100BD0000C94C90508950895CF93DF93FB012281FA
:100BE0003381DC0113963C932E93129744815581F7
:100BF0006681778114964D935D936D937C931797DF
:100C0000408551856285738518964D935D936D93EC
:100C10007C931B971C96EF012C969C01275E3F4FFF
:100C200049914D93A217B307D9F7218D328DFC015D
:100C3000328F218FDF91CF910895FF920F931F93F1
:100C4000CF93DF93EC01F62E08811981C8010E9431
:100C50000F5FF81621F06F2DC8010E94175FCE01BB
:100C6000DF91CF911F910F91FF9008950F931F93E4
:100C7000CF93DF931F921F92CDB7DEB710E000E055
:100C800060E0C8010E94175F0F5F1F4F011580E1F0
:100C90001807B1F78FEF93E09A83898362E5CE015D
:100CA00001960E941D060E94C9050F900F90DF91CA
:100CB000CF911F910F910895EF92FF920F931F9381
:100CC000CF93DF93CDB7DEB7A5970FB6F894DEBF0D
:100CD0000FBECDBF80916403909165039A83898391
:100CE00080916603909167039C838B83809122029D
:100CF00090912302A0912402B09125028D839E83BE
:100D0000AF83B88780911E0290911F02A0912002AC
:100D1000B091210289879A87AB87BC878091610A4D
:100D20008D876091010270910202072E000C880BE2
:100D3000990B0E94EF5D6E877F87888B998B8091DE
:100D40005D0A90915E0AA0915F0AB091600A8A8B59
:100D50009B8BAC8BBD8B8091690390916A03A091B2
:100D60006B03B0916C038E8B9F8BA88FB98F809192
:100D7000650A9091660A9B8F8A8F80916203909199
:100D800063039D8F8C8F80915B0A90915C0A9F8F8B
:100D90008E8F8091680388A38091620A89A38091D5
:100DA000630A9091640A9BA38AA3CE0101967C01F9
:100DB00001E010E01DA30CA3F70161917F01CE01BA
:100DC00084960E941D060F5F1F4F0432110591F794
:100DD00087E1E82E82E0F82E08EC10E01DA30CA3BA
:100DE000F70161917F01CE0184960E941D060F5F7D
:100DF0001F4F0F3C110591F7A5960FB6F894DEBF73
:100E00000FBECDBFDF91CF911F910F91FF90EF905B
:100E1000089510925C0A10925B0A0E945C060C9482
:100E2000C905FC011182108213821282158214827C
:100E30000C94F647FC0111821082138212821582F3
:100E40001482FB0101900020E9F73197AF01461BA6
:100E5000570B0C949F47FB0101900020E9F7319755
:100E6000AF01461B570BDC01ED91FC910280F38131
:100E7000E02D19946115710511F00C942B0790E089
:100E800080E008951F920F920FB60F9211240BB6B7
:100E90000F922F933F934F935F936F937F938F9313
:100EA0009F93AF93BF93EF93FF938BE89CE00E94D7
:100EB000D303FF91EF91BF91AF919F918F917F915C
:100EC0006F915F914F913F912F910F900BBE0F90BB
:100ED0000FBE0F901F9018951F920F920FB60F9292
:100EE00011240BB60F922F938F939F93EF93FF9341
:100EF000E0919B0CF0919C0C8081E091A10CF09111
:100F0000A20C82FD1DC090818091A40C8F5F8F7315
:100F10002091A50C821741F0E091A40CF0E0E55778
:100F2000F34F958F8093A40CFF91EF919F918F9138
:100F30002F910F900BBE0F900FBE0F901F90189522
:100F40008081F2CF1F920F920FB60F9211240BB631
:100F50000F922F933F934F935F936F937F938F9352
:100F60009F93AF93BF93EF93FF9388E29DE00E941E
:100F7000D303FF91EF91BF91AF919F918F917F919B
:100F80006F915F914F913F912F910F900BBE0F90FA
:100F90000FBE0F901F9018951F920F920FB60F92D1
:100FA00011240BB60F922F938F939F93EF93FF9380
:100FB000E091380DF091390D8081E0913E0DF09176
:100FC0003F0D82FD1DC090818091410D8F5F8F7319
:100FD0002091420D821741F0E091410DF0E0E85D73
:100FE000F24F958F8093410DFF91EF919F918F91DB
:100FF0002F910F900BBE0F900FBE0F901F90189562
:101000008081F2CF1F93CF93DF93282F30E0F90137
:10101000ED5AFA4F8491F901ED54FA4FD491F90148
:10102000E750FA4FC491CC23A9F0162F81110E94EA
:101030008F04EC2FF0E0EE0FFF1FE15EFA4FA59159
:10104000B4918FB7F894EC91111108C0D095DE23BC
:10105000DC938FBFDF91CF911F910895DE2BF8CFE6
:10106000CF93DF9390E0FC01ED54FA4F2491875029
:101070009A4FFC0184918823D1F090E0880F991F4A
:10108000FC01E756FA4FA591B491FC01E15EFA4FDD
:10109000C591D491623071F49FB7F8943C91822F3E
:1010A000809583238C93E8812E2B28839FBFDF912B
:1010B000CF9108958FB7F894EC912E2B2C938FBF7E
:1010C000F6CF8F929F92AF92BF92CF92DF92EF9224
:1010D000FF926B017C010E941F054B015C01C11452
:1010E000D104E104F104B9F00E941F0568197909DF
:1010F0008A099B09683E73408105910580F321E0D0
:10110000C21AD108E108F10888EE880E83E0981E23
:10111000A11CB11CE4CFFF90EF90DF90CF90BF9067
:10112000AF909F908F9008950F931F9308EC10E05D
:1011300020E030E04091660360E971E080E090E0FB
:101140000E944B4462E370E080E090E00E946108FE
:101150001F910F910C94C9052FB7F8946091770AED
:101160007091780A8091790A90917A0A2FBF089538
:101170001F920F920FB60F9211242F933F938F93CC
:101180009F93AF93BF938091770A9091780AA09133
:10119000790AB0917A0A3091760A23E0230F2D372D
:1011A00058F50196A11DB11D2093760A8093770A08
:1011B0009093780AA093790AB0937A0A80917B0A77
:1011C00090917C0AA0917D0AB0917E0A0196A11DA2
:1011D000B11D80937B0A90937C0AA0937D0AB09303
:1011E0007E0ABF91AF919F918F913F912F910F9068
:1011F0000FBE0F901F90189526E8230F0296A11D91
:10120000B11DD2CF1F920F920FB60F9211240BB6C1
:101210000F922F933F934F935F936F937F938F938F
:101220009F93AF93BF93EF93FF93E0911502F091DB
:1012300016021995FF91EF91BF91AF919F918F91F8
:101240007F916F915F914F913F912F910F900BBEC6
:101250000F900FBE0F901F9018951F920F920FB610
:101260000F9211240BB60F922F933F934F935F93DE
:101270006F937F938F939F93AF93BF93EF93FF935E
:10128000E0911302F09114021995FF91EF91BF9133
:10129000AF919F918F917F916F915F914F913F910E
:1012A0002F910F900BBE0F900FBE0F901F901895AF
:1012B0001F920F920FB60F9211240BB60F922F931D
:1012C0003F934F935F936F937F938F939F93AF93CE
:1012D000BF93EF93FF93E0910902F0910A021995F1
:1012E000FF91EF91BF91AF919F918F917F916F91FE
:1012F0005F914F913F912F910F900BBE0F900FBEBA
:101300000F901F9018951F920F920FB60F921124F5
:101310000BB60F922F933F934F935F936F937F93EF
:101320008F939F93AF93BF93EF93FF93E091070247
:10133000F09108021995FF91EF91BF91AF919F91A4
:101340008F917F916F915F914F913F912F910F906E
:101350000BBE0F900FBE0F901F9018951F920F920B
:101360000FB60F9211240BB60F922F933F934F930A
:101370005F936F937F938F939F93AF93BF93EF93FD
:10138000FF93E0911102F09112021995FF91EF91F4
:10139000BF91AF919F918F917F916F915F914F918D
:1013A0003F912F910F900BBE0F900FBE0F901F908B
:1013B00018951F920F920FB60F9211240BB60F9231
:1013C0002F933F934F935F936F937F938F939F934D
:1013D000AF93BF93EF93FF93E0910F02F091100250
:1013E0001995FF91EF91BF91AF919F918F917F914F
:1013F0006F915F914F913F912F910F900BBE0F9086
:101400000FBE0F901F9018951F920F920FB60F925C
:1014100011240BB60F922F933F934F935F936F93CB
:101420007F938F939F93AF93BF93EF93FF93E0913D
:101430000D02F0910E021995FF91EF91BF91AF91BE
:101440009F918F917F916F915F914F913F912F91DC
:101450000F900BBE0F900FBE0F901F9018951F920C
:101460000F920FB60F9211240BB60F922F933F934A
:101470004F935F936F937F938F939F93AF93BF939C
:10148000EF93FF93E0910B02F0910C021995FF91FD
:10149000EF91BF91AF919F918F917F916F915F91EC
:1014A0004F913F912F910F900BBE0F900FBE0F9059
:1014B0001F901895EFE6F0E080818D7F808382E0B9
:1014C0008093810081E0809380002D982E9808956C
:1014D0001F920F920FB60F9211240BB60F922F93FB
:1014E0003F934F935F936F937F938F939F93AF93AC
:1014F000BF93EF93FF930E94AC080E945A0AFF919A
:10150000EF91BF91AF919F918F917F916F915F917B
:101510004F913F912F910F900BBE0F900FBE0F90E8
:101520001F9018950E945A0A8091890A811116C04D
:1015300060E085E00E94020860916203709163039D
:10154000072E000C880B990B0E94610860E086E072
:101550000E94020860E08DE00E94020810926E0A6C
:1015600008950E94920A1092680A1092670A0C94D9
:10157000C90582E00E94F604892B19F40E941B45DC
:10158000F8CF84E00E94F604892B29F483E00E94BE
:10159000F604892B99F70C94920A8F929F92AF923E
:1015A000BF92CF92DF92EF92FF920E941B45F09084
:1015B000610A20E030E040E450E4FF2009F450C02C
:1015C0006091540A7091550A8091560A9091570A79
:1015D0000E94405F2091830A3091840A4091850ADD
:1015E0005091860A0E944E5E0E9425600E9461080A
:1015F0000E94920AFF20E9F1C090830AD090840AE9
:10160000E090850AF090860AA7019601C701B6010D
:101610000E94405F4B015C0120E030E040E85FE366
:101620006091540A7091550A8091560A9091570A18
:101630000E94405FA70196010E944E5E9B01AC0193
:10164000C501B4010E943F5F0E942560FF90EF90AA
:10165000DF90CF90BF90AF909F908F900C946108D7
:101660006091830A7091840A8091850A9091860A1C
:10167000B9CF6091830A7091840A8091850A909114
:10168000860AE2CF4F925F926F927F928F929F92E3
:10169000AF92BF92CF92DF92EF92FF92CF93DF9300
:1016A000D1E00E941B45F090610A20E030E040E468
:1016B00050E4FF2009F4D9C06091540A7091550A92
:1016C0008091560A9091570A0E94405F2091830AA8
:1016D0003091840A4091850A5091860A0E944E5E9C
:1016E0000E9425600E9461088091650A9091660AB7
:1016F000009709F0C3C083E00E94F604C1E0892B83
:1017000009F0C0E00E94920AFF2009F4BCC0C0901A
:10171000830AD090840AE090850AF090860AA70197
:101720009601C701B6010E94405F2B013C0120E0F9
:1017300030E040E85FE36091540A7091550A80916F
:10174000560A9091570A0E94405FA70196010E9495
:101750004E5E9B01AC01C301B2010E943F5F0E943B
:1017600025600E946108CC2321F0D093510A0E9489
:10177000710C8091630A9091640A892B09F4A2C0CC
:101780008091510A882309F49DC01092510A0E9449
:101790001B45C091610ACC2309F47EC020E030E0F3
:1017A00040E85FE36091540A7091550A8091560AAF
:1017B0009091570A0E94405F4B015C012091830A7F
:1017C0003091840A4091850A5091860A0E944E5EAB
:1017D0000E9425600E9461080E94920ACC2309F4AD
:1017E00064C0C090830AD090840AE090850AF0908B
:1017F000860AA7019601C701B6010E94405F2B012E
:101800003C01A5019401C701B6010E944E5E9B01F7
:10181000AC01C301B2010E943F5F0E9425600E949B
:1018200061088091650A9091660A009709F046C0A8
:1018300084E00E94F604892B09F044C08091630A79
:101840009091640A892B09F42CCFDF91CF91FF90FE
:10185000EF90DF90CF90BF90AF909F908F907F9050
:101860006F905F904F900C94CD0A6091830A7091B5
:10187000840A8091850A9091860A30CF019709F0F9
:1018800040CF84E039CF6091830A7091840A8091BF
:10189000850A9091860A63CF6091830A7091840AC9
:1018A0008091850A9091860A93CF6091830A709106
:1018B000840A8091850A9091860AAFCF019711F42E
:1018C00083E0B7CFDF91CF91FF90EF90DF90CF9083
:1018D000BF90AF909F908F907F906F905F904F9050
:1018E00008954F925F926F927F928F929F92AF92E4
:1018F000BF92CF92DF92EF92FF920E941B45F09031
:10190000610AFF2009F46DC020E030E040E85FE3A9
:101910006091540A7091550A8091560A9091570A25
:101920000E94405F4B015C012091830A3091840A40
:101930004091850A5091860A0E944E5E0E94256061
:101940000E9461080E94920AFF2009F453C0C090CF
:10195000830AD090840AE090850AF090860AA70155
:101960009601C701B6010E94405F2B013C01A50111
:101970009401C701B6010E944E5E9B01AC01C301F8
:10198000B2010E943F5F0E9425600E946108809121
:10199000650A9091660A0097B1F584E00E94F6040A
:1019A000892B29F481E08093510A0E94420B809197
:1019B000630A9091640A892B51F18091510A88231E
:1019C00031F11092510AFF90EF90DF90CF90BF90CD
:1019D000AF909F908F907F906F905F904F900C94FE
:1019E000CD0A6091830A7091840A8091850A909152
:1019F000860AA4CF6091830A7091840A8091850A37
:101A00009091860AC0CF019791F683E0C7CFFF90EF
:101A1000EF90DF90CF90BF90AF909F908F907F908E
:101A20006F905F904F9008958FB7F8948091700AEF
:101A30008FBF089561E0FC0184810E9402088091BB
:101A40006F0A811110926F0A08958EBD00000DB4C7
:101A500007FEFDCF8EB508958FEF0C94250D8CBD3C
:101A60009DBD0895CF93DF93EC0180916F0A8111A2
:101A700009C081E080936F0A8091C50D9091C60DD9
:101A80000E942F0D60E08C81DF91CF910C940208B1
:101A90008F929F92AF92BF92FF920F931F93CF931B
:101AA000DF93EC01F62E49015A018E81882389F0DB
:101AB0008F8198859C012F5F3F4F38872F8382301D
:101AC000924018F40E942C0DF3CFCE010E941A0D03
:101AD0001E82CE010E94320D8CE291E00E94D04124
:101AE0008F2D80640E94250D08E110E0D501C4010E
:101AF000002E04C0B695A795979587950A94D2F7BE
:101B00000E94250D08501109083F8FEF180771F743
:101B100085E9FF2021F028E087E8F2128FEF0E948C
:101B2000250D10E00E942C0D8A8787FF04C01F3FFF
:101B300011F01F5FF7CFDF91CF911F910F91FF90B1
:101B4000BF90AF909F908F900895AF92BF92CF9229
:101B5000DF92EF92FF920F931F93CF93DF93EC01ED
:101B60006901C801820F931F8130924050F58E8128
:101B7000882379F088819981AA81BB818417950790
:101B8000A607B70731F48F819885C816D90608F0E3
:101B900042C0488359836A837B838B85833039F0C5
:101BA00089E0440F551F661F771F8A95D1F79A0168
:101BB000AB0161E1CE010E94480D882389F083E0EA
:101BC0008D83CE010E941A0D80E0DF91CF911F918D
:101BD0000F91FF90EF90DF90CF90BF90AF9008955E
:101BE0000E94AC085B010E942C0D8A878F3F69F42C
:101BF0000E94AC086A197B096D327140A0F38FE036
:101C00008D83CE010E941A0DDCCF8E3F89F4188699
:101C10001F8281E08E838F8198858C159D0550F4FD
:101C20000E942C0D8F819885019698878F83F3CF22
:101C30008DE0E6CF6701E00EF11E0E942C0DF6014B
:101C400081936F01EE15FF05C1F78F819885080F0D
:101C5000191F18870F838985882319F001151240F1
:101C6000A0F08E81882389F08F8198859C012F5F59
:101C70003F4F38872F838230924018F40E942C0DFA
:101C8000F3CFCE010E941A0D1E8281E09ECFCF922B
:101C9000DF92EF92FF920F93CF93DF93EC016901F4
:101CA00082E1411551056105710599F08B858330FD
:101CB00039F089E0440F551F661F771F8A95D1F7C9
:101CC0009A01AB0168E1CE010E94480D882319F00A
:101CD00084E08D832DC08EEF0E94250D76018EEF5E
:101CE000D81AF70181917F010E94250DEC14FD04A3
:101CF000C1F78FEF0E94250D8FEF0E94250D0E94E6
:101D00002C0D8A878F71853071F4011116C0CE01B8
:101D10000E941A0D81E0DF91CF910F91FF90EF901B
:101D2000DF90CF90089581E18D83CE010E941A0D3E
:101D3000CE010E941A0D80E0EECF88E592E00E946D
:101D4000D041811102C085E1C4CF20E030E0A9017B
:101D50006DE0CE010E94480D882311F084E1B9CFD7
:101D60000E942C0D8111FACFD2CF0F934091720AAD
:101D70005091730A6091740A7091750A411551056A
:101D80006105710599F0082F2BE83AE08091870AE8
:101D90009091880A0E94470E882349F01092720A97
:101DA0001092730A1092740A1092750A81E00F91D2
:101DB00008950F93CF93C82F8091710A811105C0A8
:101DC000C1E08C2FCF910F91089540910302509163
:101DD000040260910502709106020C2F2BE83AE094
:101DE0008091870A9091880A0E94470E811102C053
:101DF000C0E0E7CFCC2321F381E00E94B50E882319
:101E0000B9F31092710ADDCF8F929F92AF92BF9279
:101E1000EF92FF920F931F93CF934B015C01C42F5E
:101E20008091030290910402A0910502B0910602F4
:101E300088159905AA05BB0551F181E00E94D90ECC
:101E400081110BC080E0CF911F910F91FF90EF9017
:101E5000BF90AF909F908F9008958BE8E82E8AE016
:101E6000F82E00E012E030E020E0B501A4018091FE
:101E7000870A9091880A0E94A50D882319F3809201
:101E8000030290920402A0920502B09206024091D1
:101E9000710A4C2B4093710A81E0D5CF4F925F922B
:101EA0006F927F928F929F92AF92BF92CF92DF926A
:101EB000EF92FF920F931F93CF93DF93EC01423089
:101EC00051056105710590F480E0DF91CF911F917C
:101ED0000F91FF90EF90DF90CF90BF90AF909F90C9
:101EE0008F907F906F905F904F90089589859A852D
:101EF000AB85BC850196A11DB11D84179507A6076A
:101F0000B70710F3CB88DC88ED88FE888F89803195
:101F100009F042C0BB27A72F962F852F48015901F2
:101F20002A013B01C80ED91EEA1EFB1E8091030246
:101F300090910402A0910502B0910602C816D9063C
:101F4000EA06FB0699F58F898031C1F5B301A2013C
:101F5000552766277727440F551F4557554FFA01D8
:101F6000918280828091710A81608093710A8A894E
:101F7000823080F08D819E81AF81B8858C0D9D1D52
:101F8000AE1DBF1D8093720A9093730AA093740ACA
:101F9000B093750A81E099CFDB01CA01E7E0B695FD
:101FA000A79597958795EA95D1F7B8CF40E0C701F7
:101FB000B6010E94040F8111C6CF86CFB301A201E2
:101FC0004F77552766277727440F551F440F551F16
:101FD0004557554FFA0180829182A282B382C2CFC7
:101FE0008F929F92AF92BF92CF92DF92EF92FF9229
:101FF0000F931F93CF93DF93FC0181859285A38577
:10200000B4850196A11DB11D84179507A607B707D2
:1020100070F480E0DF91CF911F910F91FF90EF90CE
:10202000DF90CF90BF90AF909F908F90089583885E
:102030009488A588B6888789803189F5BB27A72F22
:10204000962F852FE9016A017B018F01BC01CD012B
:10205000680D791D8A1D9B1D8090030290900402DB
:10206000A0900502B090060286169706A806B9064B
:1020700001F5F8018789803111F5DD24EE24FF2474
:10208000F601EE0FFF1FE557F54F80819181B0E01B
:10209000A0E088839983AA83BB8381E0BBCFDB0167
:1020A000CA01C7E0B695A79597958795CA95D1F7C8
:1020B000C9CF40E00E94040F8111DBCFAACFE89482
:1020C000C7F8DD24EE24FF24F601EE0FFF1FEE0F0C
:1020D000FF1FE557F54F80819181A281B381BF70C9
:1020E000D8CF4F925F926F927F92AF92BF92CF9272
:1020F000DF92EF92FF920F931F93CF93DF9300D065
:102100001F92CDB7DEB78C0149835A836B837C83E2
:102110005901C12CD12C7601412C82E0582E612C22
:10212000712C49815A816B817C819E012F5F3F4FC9
:10213000C8010E94F00F882339F1F8018585A301B9
:10214000920104C0220F331F441F551F8A95D2F7F6
:10215000DA01C901C80ED91EEA1EFB1E49815A8147
:102160006B817C818789803111F188EF9FEFAFEF20
:10217000BFE0481759076A077B0798F2F501C0824C
:10218000D182E282F38281E00F900F900F900F9046
:10219000DF91CF911F910F91FF90EF90DF90CF9043
:1021A000BF90AF907F906F905F904F90089588EFB1
:1021B0009FEFA0E0B0E0DDCFCF92DF92EF92FF92F1
:1021C0001F93CF93DF93EC0180E2689FF00111240D
:1021D000E557F54F9385917161F0842F827449F032
:1021E00080E0DF91CF911F91FF90EF90DF90CF9033
:1021F0000895142F6A8B8091030290910402A0919C
:102200000502B09106028E879F87A88BB98BC48880
:10221000D588F12CE12C7601DD24CC24CF8AD88E10
:10222000E98EFA8E828D938DB0E0A0E0AC01BD0105
:102230004C295D296E297F294F8B588F698F7A8FA2
:1022400083858871B1F4848D958DA68DB78D8B8B28
:102250009C8BAD8BBE8B81E08D831F701C831E8297
:102260001F82188619861A861B861C861D8681E0A9
:10227000B8CF803109F0B4CF9E012D5E3F4F8B8DDA
:102280009C8D0E947110882309F4AACF84E0E4CFCA
:102290008F929F92AF92BF92CF92DF92EF92FF9276
:1022A0000F931F93CF93DF93EC018D8181110EC0AB
:1022B00080E0DF91CF911F910F91FF90EF90DF9021
:1022C000CF90BF90AF909F908F9008950B891C89FD
:1022D0002D893E89041715072607370748F34A0159
:1022E0005B01823031F48A869B86AC86BD8681E0B4
:1022F000E0CF81149104A104B10449F41E821F822D
:10230000188619861A861B861C861D86F0CF0A85BC
:102310001B852C853D85EB8DFC8D858590E0099690
:10232000B901A8014150510961097109082E04C081
:1023300076956795579547950A94D2F7750164018C
:10234000E1E0CE1AD108E108F10804C0F694E79460
:10235000D794C7948A95D2F7C416D506E606F70631
:1023600020F0012B022B032B11F58F89988DA98D5D
:10237000BA8D8E839F83A887B9878E010A5F1F4F0E
:10238000C114D104E104F10409F4ADCF4E815F81A1
:102390006885798598018B8D9C8D0E94F00F91E066
:1023A000C91AD108E108F1088111EACF81CFC41A16
:1023B000D50AE60AF70AE1CF3F924F925F926F92F9
:1023C0007F928F929F92AF92BF92CF92DF92EF92C5
:1023D000FF920F931F93CF93DF93CDB7DEB72C9768
:1023E0000FB6F894DEBF0FBECDBF5C01DC015B967B
:1023F0008D909C905C9716964D905D906D907C9022
:102400001997411451046104710409F468C0BFEFC5
:102410004B1A5B0A6B0A7B0A312CF4018185928589
:10242000A385B4859C01AD012F5F3F4F4F4F5F4F98
:1024300029873A874B875C87730162011D821E8260
:102440001F821886F40181859285A385B4852D812C
:102450003E814F815885281739074A075B0708F0E6
:1024600056C089859A85AB85BC858C159D05AE05C2
:10247000BF0550F482E0C82ED12CE12CF12C92E063
:10248000492E512C612C712C9E012F5F3F4FB701BB
:10249000A601C4010E94F00F8823C9F189819A81A5
:1024A000AB81BC81892B8A2B8B2B09F1260137014B
:1024B0009FEF491A590A690A790A2D813E814F8195
:1024C00058852F5F3F4F4F4F5F4F2D833E834F8384
:1024D00058873FEFC31AD30AE30AF30AB3CFF401D4
:1024E00040805180628073803324339496CFC4142B
:1024F000D504E604F70409F70FEF1FEF2FEF3FE0D5
:10250000B701A601C4010E944E0F811119C080E0DD
:102510002C960FB6F894DEBF0FBECDBFDF91CF91E2
:102520001F910F91FF90EF90DF90CF90BF90AF90F1
:102530009F908F907F906F905F904F903F90089505
:10254000D50116964D915D916D917C91199741152C
:1025500051056105710539F097018601C4010E949A
:102560004E0F8823A1F2D5011696CD92DD92ED9201
:10257000FC921997332051F0D701C6010196A11D95
:10258000B11DF40180839183A283B383F501878910
:10259000908DA18DB28D892B8A2B8B2B39F4848160
:1025A000C78AD08EE18EF28E80688483F5018481A3
:1025B0008062848381E0ACCF2F923F924F925F92F2
:1025C0006F927F928F929F92AF92BF92CF92DF9243
:1025D000EF92FF920F931F93CF93DF9300D0CDB76D
:1025E000DEB7FC018581811118C08FEF9FEF0F903E
:1025F0000F900F90DF91CF911F910F91FF90EF906F
:10260000DF90CF90BF90AF909F908F907F906F9012
:102610005F904F903F902F900895848180FFE5CF89
:10262000438954896589768982859385A485B58592
:10263000312C212C481759076A077B0719F02224EF
:102640002394312C6F012101CE0101963C01DF0161
:102650001696BB83AA834114510409F4C5C0F60140
:1026600042855385648575854A01F1E09F22D60134
:102670005B968D919C915C978A019B01E9E0369570
:10268000279517950795EA95D1F71596EC91E230C5
:10269000E9F5FC01628D738D848D958D600F711F3E
:1026A000821F931FA12C22E0B22EA818B9084A1449
:1026B0005B0408F45201F601248126FD04C0A11434
:1026C000F2E0BF0671F40091030210910402209120
:1026D000050230910602061717072807390709F087
:1026E0005EC040E00E94040F882309F47ECFC4013D
:1026F0008557954FD3019C012A0D3B1DFC012E17D8
:102700003F0709F46CC041914D93F9CFDC01149659
:10271000BC90BA94B0228114910479F4B1100DC028
:10272000452B462B472B69F5F6018789908DA18DA6
:10273000B28D86839783A087B187D6015B96ED9192
:10274000FC915C9716966D917D918D919C91199756
:102750006250710981099109258504C0660F771FB0
:10276000881F991F2A95D2F70685178520893189F8
:10277000600F711F821F931F6B0D711D811D911DB5
:1027800091CFD60116964D915D916D917C911997DF
:102790002A813B810E94F00F8111CFCF26CF730198
:1027A00085019401AB01BC018091870A9091880A50
:1027B0000E94A50D882309F418CF6A0C7B1CF60132
:1027C00082859385A485B5858A0D9B1DA11DB11DAC
:1027D00082879387A487B5874A185B083CCF281B5C
:1027E000390B620E731EEBCF2A94232809F0FDCE1D
:1027F000898190E0FCCEFC01818D928D009711F0D3
:102800000C94DC128FEF9FEF08950F931F93CF93DB
:10281000DF93EC01898D9A8D10E000E0009799F02C
:102820000E94DC128C010F3F100769F0898D9A8D90
:10283000FC014285538564857585415051096109C4
:1028400071090E944811C801DF91CF911F910F912A
:1028500008951F93CF93DF93FC012581222371F10B
:10286000162FEC01848187FF1EC0CF010E94EB412F
:10287000FC01892B19F18D81823040F48B899C8970
:10288000AD89BE89848F958FA68FB78F8F89988DDC
:10289000938F828F8F89988DA98DBA8DB58BA48BDC
:1028A0008C818F778C83111103C08C818F7E8C83F8
:1028B000812FDF91CF911F910C94D90E80E0DF9191
:1028C000CF911F910895FF920F931F93CF93DF93A2
:1028D000EC018D81813041F090E080E0DF91CF917B
:1028E0001F910F91FF9008958C8181FFF5CF82FD9C
:1028F0001BC00091870A1091880AC8010E94320DFE
:102900000E942C0DF82EC8010E941A0D8FEFF812AC
:10291000E3CF8C8185FF1BC060E0CE010E942914AB
:102920008C818F7D8C83D8CF4B895C896D897E8922
:102930008A859B85AC85BD8584179507A607B70753
:10294000C1F2CE010E9448118111D3CFC5CF409171
:10295000720A5091730A6091740A7091750A452B3E
:10296000462B472B21F080E00E94B50EB5CF806149
:102970008C832A853B85317080E092E0821B930B2B
:10298000ADCFCF93DF93EC0161E00E94291488233F
:1029900011F01D8281E0DF91CF910895FC01818DBE
:1029A000928D009719F061E00C94291408953F92DC
:1029B0004F925F926F927F928F929F92AF92BF924F
:1029C000CF92DF92EF92FF920F931F93CF93DF93FB
:1029D00000D000D000D01F921F92CDB7DEB77C018F
:1029E000DC0115968C91811115C0FE013196CE0146
:1029F0000C966F0130E23193E817F907E1F7DA013D
:102A000030E087E09D91B92E992329F19E3239F467
:102A10008A3011F480E0DAC038E08AE0F3CFEFE0EA
:102A2000F5E04491442321F031969413FACFF2CF8C
:102A3000831780F34FED490F4E3560F74FE9490F8B
:102A40004A3118F440EEB42EB90EF601E30FF11D31
:102A5000B0823F5FD7CF89818032E1F2322E8B0185
:102A6000FB01838D948DD7015C969C938E935B972D
:102A70001682178210861186128613861486158692
:102A8000F80182859385A485B58543895489658934
:102A9000768984179507A607B70708F04DC025E08B
:102AA000B695A795979587952A95D1F7F82FFF703A
:102AB000AF2ED80115968C91823008F4ABCFC801A7
:102AC0000E94DC1297FDA6CFF80182859385A4852C
:102AD000B5854F96A11DB11D82879387A487B587C1
:102AE000F0E2AF9EB00111246557754F6115710575
:102AF00009F490CFDB018C91882341F0853E09F0E9
:102B000058C0BB2029F0BB24B394BACFB1100EC07B
:102B1000F701A28A8091030290910402A09105021C
:102B2000B091060286879787A08BB18BDB018C91D1
:102B30008111E9CFBB24B394832D8271823109F0D6
:102B400069CFBB2009F45AC0C7010E94EB4100972E
:102B500009F460CF20E2FC0111922A95E9F72BE0FD
:102B6000F601DC0101900D922A95E1F721E238E2AD
:102B7000DC0151963C932E93509740E058E01F960D
:102B80005C934E931E9753963C932E93529759966F
:102B90003C932E93589757965C934E93569781E0AB
:102BA0000E94D90E882309F435CF432DF70162899D
:102BB0000AC04BE050E0C6010E949162892B09F0E7
:102BC0005FCF432D6A2DC7010E94DC102B960FB6F4
:102BD000F894DEBF0FBECDBFDF91CF911F910F9153
:102BE000FF90EF90DF90CF90BF90AF909F908F902D
:102BF0007F906F905F904F903F900895F80185818E
:102C0000823009F407CFC8010E94DC11882309F43F
:102C100001CFD8015B96ED91FC915C9716968D9053
:102C20009D90AD90BC901997B2E08B1A9108A108C5
:102C3000B108858504C0880C991CAA1CBB1C8A9508
:102C4000D2F786859785A089B189880E991EAA1E1C
:102C5000BB1E848124013501480E511C611C711C6E
:102C600084149504A604B70409F1E1E04E1A510852
:102C70006108710881E00E94D90E882309F4CACE48
:102C8000EBE8FAE011928BE89CE08E179F07D1F7F2
:102C90004092030250920402609205027092060272
:102CA0008091710A81608093710ADACFD8015B96B6
:102CB000ED91FC91258580E092E0A0E0B0E004C0B9
:102CC000880F991FAA1FBB1F2A95D2F7F8014389C5
:102CD000548965897689840F951FA61FB71F838B3A
:102CE000948BA58BB68BD70152961C928BE89AE0F9
:102CF00031CF1F93CF93DF93CDB7DEB76D970FB66C
:102D0000F894DEBF0FBECDBFAB011C821B8228E949
:102D100033E03A8329831E8221E0BC01CE01019673
:102D20000E94D71411E081110CC010E0812F6D9624
:102D30000FB6F894DEBF0FBECDBFDF91CF911F91CC
:102D40000895CE0101960E94C114F0CFCF93DF9376
:102D5000CDB7DEB76D970FB6F894DEBF0FBECDBF0F
:102D6000442399F1AB01BC011C821B8288E993E0EA
:102D70009A8389831E8222E0CE0101960E94D71495
:102D800081110EC090E081E0911101C080E06D964C
:102D90000FB6F894DEBF0FBECDBFDF91CF9108957F
:102DA000CE0101960E940442882361F3CE01019670
:102DB0000E94EB41009731F325EEFC0120831E8237
:102DC00081E00E94D90E982FDECF81E0E0CF2F92D4
:102DD0003F924F925F926F927F928F929F92AF92AB
:102DE000BF92CF92DF92EF92FF920F931F93CF93F8
:102DF000DF9300D01F921F92CDB7DEB77C015B013D
:102E0000342E5D83DC0115968C911597813009F085
:102E1000CEC014962C9021FECAC022FCB4C0C32C94
:102E2000DD8022947FE027222094B22DB1702B2EDA
:102E3000D7011A964D915D916D917C911D97C114AA
:102E4000D10409F428C15B968D919C915C97FC019B
:102E500074807A948A019B0169E0369527951795CD
:102E600007956A95D1F770228A011170711020C000
:102E700001151105E9F416964D915D916D917C91C6
:102E80001997411551056105710509F099C05796CB
:102E90008D919D910D90BC91A02D0097A105B1053C
:102EA00009F0B0C0C7010E94DC11882309F47FC07B
:102EB00080E092E0801B910B46018C159D0508F483
:102EC0004C01D7015B964D915C915C9716968D9164
:102ED0009D910D90BC91A02D0297A109B109FA0115
:102EE000258504C0880F991FAA1FBB1F2A95D2F7FA
:102EF0004685578560897189840F951FA61FB71F66
:102F00009C01AD01270D311D411D511D29013A01C3
:102F1000811432E0930609F07BC080910302909106
:102F20000402A0910502B091060284159505A6053C
:102F3000B70559F48FEF9FEFDC0180930302909364
:102F40000402A0930502B0930602022D9501B3017D
:102F5000A2018091870A9091880A0E94470E8823D7
:102F600031F19EEFB91AC818D908F7018285938507
:102F7000A485B585880D991DA11DB11D82879387F4
:102F8000A487B58755CFF701438954896589768928
:102F900082859385A485B585481759076A077B07FD
:102FA00009F43DCFC7010E944811811138CF81E05B
:102FB00090E0D70113969C938E93129780E007C000
:102FC0009E012F5F3F4F0E94F00F811102C090E0E1
:102FD00079C089819A81AB81BC81F701238D348DC1
:102FE000F901278948EF5FEF60E070E0203121F0C0
:102FF00048EF5FEF6FEF7FE084179507A607B707ED
:1030000008F050CFF70186839783A087B18750CF10
:103010000115110599F5D7011A964D915D916D91A4
:103020007C911D9753968D919D910D90BC91A02DF3
:10303000481759076A077B0708F181E00E94D90EFB
:10304000882309F4B4CF40920302509204026092A4
:103050000502709206028091710A81608093710A64
:10306000C8018557954FD5019C01280D391DFC01DC
:103070002E173F0759F04D914193FACF41E0C3011C
:10308000B2010E94040F8111EBCF91CF281B390BA5
:10309000A20EB31E68CFF70183899489A589B689EA
:1030A00084179507A607B70738F48481438B548BA0
:1030B000658B768B80688483F701848183FD1AC0D9
:1030C000832D9D810F900F900F900F900F90DF91A7
:1030D000CF911F910F91FF90EF90DF90CF90BF9015
:1030E000AF909F908F907F906F905F904F903F90A8
:1030F0002F90089561E0C7010E942914882309F4E4
:1031000056CFDECFCF93DF931F92CDB7DEB7698363
:1031100041E050E0BE016F5F7F4F0E94E7160F90C5
:10312000DF91CF910895CF93DF93EC01E98DFA8D74
:10313000309749F481E090E09B838A8390E080E0BF
:10314000DF91CF91089513821282898D9A8D0E940A
:10315000E716E98DFA8D22813381232B59F7F0CFC1
:10316000FC01DB0112968D919C91139793838283CE
:1031700088E993E09183808314968C9114978483DB
:1031800015968C911597858316964D915D916D914D
:103190007C91199746835783608771871A964D9162
:1031A0005D916D917C911D974287538764877587E8
:1031B0001E964D915D916D917C91519746875787F1
:1031C000608B718B52968C915297828B53964D9156
:1031D0005D916D917C915697438B548B658B768B6B
:1031E00057964D915D916D917C915A97478B508F79
:1031F000618F728F5B968D919C91948F838F0895D0
:10320000EF92FF920F931F93CF93DF93EC017B011B
:103210008A011B821A8288EE93E0A0E0B0E08C83E2
:103220009D83AE83BF8384EA93E0998388838DE195
:1032300090E00E9483609A8F898F009779F02DE14A
:10324000F701DC0101900D922A95E1F74CE050E086
:10325000B801CE010C960E94C262188EDF91CF9108
:103260001F910F91FF90EF900895CF93DF93EC01A2
:1032700062EB73E088E29DE00E943A07BE010D2EEA
:10328000000C880B990B4AE00E94D54460E474E07E
:1032900088E29DE00E943A07688170E090E080E05B
:1032A0004AE00E94D54464EB73E088E29DE00E940E
:1032B0003A07698170E090E080E04AE00E94D544DE
:1032C00064EB73E088E29DE00E943A076A817B81AB
:1032D0006115710551F088E29DE00E943A078AE489
:1032E0009AE0DF91CF910C94134166EB73E0F3CF3A
:1032F000CF93DF93EC018BE89CE00E94B303892B12
:1033000029F08BE89CE00E949103F5CFBE018BE889
:103310009CE00E943A076FEF8BE89CE00E94F50367
:103320006FEF8BE89CE00E94F5036FEF8BE89CE069
:10333000DF91CF910C94F50383B78E7F83BFEC9818
:10334000E7E0F2E084E495E091838083ED98938355
:1033500082838DEB93E00E9478198BE89CE00C94BB
:10336000420483B78E7F83BFEC98E7E0F2E084E409
:1033700095E091838083ED989383828385EC93E03D
:103380000E9478198DEB93E00E9478198BE89CE0FD
:103390000C9442048F929F92AF92BF92CF92DF9291
:1033A000EF92FF924B015C010E94AC086B017C0123
:1033B0000E94AC086C197D098E099F096815790572
:1033C0008A059B0518F40E945345F2CFFF90EF90B9
:1033D000DF90CF90BF90AF909F908F9008958CEC2E
:1033E00093E00E9478198091620A811128C064E6F6
:1033F00070E080E090E00E94CA198BE89CE00E9497
:10340000420483B7816083BF2CE939E1309308021D
:103410002093070280916A008C7F80936A00EC9A67
:1034200030930A022093090280916A00837F80937F
:103430006A00ED9A83B7817F846083BF8895089581
:1034400064E670E080E090E00E94CA1984ED93E0A9
:103450000E9478198BED93E00E9478198CEC93E030
:103460000E9478198BE89CE00E94420483B7816037
:1034700083BFA7E0B2E021EB39E111963C932E9394
:10348000EAE6F0E080818C7F8083EC9A13963C938F
:103490002E9312978081837F8083ED9A83B7817FFB
:1034A000846083BF889508958FE393E10C94201A7C
:1034B000EF92FF920F931F93CF93DF93CDB7DEB7B9
:1034C000A3970FB6F894DEBF0FBECDBF8FEF93E08A
:1034D0000E940F5F843559F00E945C068FEF93E0E5
:1034E0009A83898364E5CE0101960E941D068E01B0
:1034F0000F5F1F4FEE24E394F12CC7010E940F5F72
:10350000F80181938F01FFEFEF1AFF0A84E2E816BA
:10351000F10499F789819A819093650380936403FC
:103520008B819C8190936703809366038D819E813C
:10353000AF81B8858093220290932302A093240246
:10354000B093250289859A85AB85BC8580931E0240
:1035500090931F02A0932002B09321028D85809347
:10356000610A6E857F85888999890E941E607093A3
:103570000202609301028A899B89AC89BD8980938C
:103580005D0A90935E0AA0935F0AB093600A8E89E9
:103590009F89A88DB98D8093690390936A03A09346
:1035A0006B03B0936C038A8D9B8D9093660A809316
:1035B000650A8C8D9D8D90936303809362038E8D3D
:1035C0009F8D90935C0A80935B0A88A18093680327
:1035D00089A18093620A8AA19BA19093640A809337
:1035E000630A87E1E82E82E0F82E08EC10E0C801BB
:1035F0000E940F5FF70181937F010F5F1F4F0F3C08
:103600001105A9F7A3960FB6F894DEBF0FBECDBF84
:10361000DF91CF911F910F91FF90EF900895EF925E
:10362000FF920F931F93CF93DF9300D000D0CDB7BD
:10363000DEB77C018B0164E474E0CE0101960E9448
:103640001A07F70162817381CE0101960E94184723
:1036500062EE73E0CE0101960E941847B801CE01D8
:1036600001960E94184767EE73E0CE0101960E9412
:10367000184789819A810E9478190E947341182FF6
:10368000CE0101960E940D48812F26960FB6F89420
:10369000DEBF0FBECDBFDF91CF911F910F91FF9085
:1036A000EF900895CF93DF93CDB7DEB7C456D1091D
:1036B0000FB6F894DEBF0FBECDBF44E650E0BE01AA
:1036C0006F5F7F4F0E94AD41BE016F5F7F4F8FE301
:1036D00093E10E940F1BBE016F5F7F4F8BE193E16F
:1036E0000E940F1BCC59DF4F0FB6F894DEBF0FBE00
:1036F000CDBFDF91CF910895CF93DF93CDB7DEB7E4
:103700006E970FB6F894DEBF0FBECDBF20910002BA
:10371000211104C020915A0A2223A9F04EE150E061
:10372000BE016F5F7F4F0E94AD41BE016F5F7F4F53
:103730008FE093E10E940F1BBE016F5F7F4F83E01C
:1037400093E10E940F1B6E960FB6F894DEBF0FBE7A
:10375000CDBFDF91CF910895CF93DF93CDB7DEB783
:103760006E970FB6F894DEBF0FBECDBF4EE150E0AE
:10377000BE016F5F7F4F0E94AD41BE016F5F7F4F03
:103780008FEB91E10E940F1B6E960FB6F894DEBF8F
:103790000FBECDBFDF91CF9108950E94920A809114
:1037A0006803811113C081E08093680380916803EE
:1037B00069EE73E0882311F06BEE73E08FE294E121
:1037C0000E940F1B0E945C060C94C90510926803AE
:1037D000EDCF8F929F92AF92BF92EF92FF920F9395
:1037E0001F93CF93DF93CDB7DEB760970FB6F894F2
:1037F000DEBF0FBECDBF7C014A018E010F5F1F4FA0
:103800008AE0F80111928A95E9F764E474E0CE0148
:103810000B960E941A074AE0B801C4010E943F5C5F
:10382000F70162817381CE010B960E94184760EF09
:1038300073E0CE010B960E941847B801CE010B969B
:103840000E9418478B859C850E9478190E947341BD
:10385000182FCE010B960E940D48812F60960FB64F
:10386000F894DEBF0FBECDBFDF91CF911F910F91B6
:10387000FF90EF90BF90AF909F908F90089520E0C1
:1038800030E040E85FE36091220270912302809172
:103890002402909125020E943F5F0E942560AB01A7
:1038A000BC0187EB94E10E94E91B609122027091B8
:1038B000230280912402909125020E942560AB0191
:1038C000BC0187EB94E10C94E91B40916403509197
:1038D0006503052E000C660B770B8FE792E10E94C3
:1038E000E91B4091660350916703052E000C660B9F
:1038F000770B8FED92E10E94E91B40916603509196
:103900006703052E000C660B770B83E792E10E949C
:10391000E91B6091690370916A0380916B03909138
:103920006C030E942560AB01BC0183ED92E10E9413
:10393000E91B6091690370916A0380916B03909118
:103940006C030E942560AB01BC0187E692E10E94F6
:10395000E91B4091620350916303052E000C660B36
:10396000770B87EC92E10E94E91B40916203509132
:103970006303052E000C660B770B8FE492E10E9427
:10398000E91B4091650A5091660A052E000C660BF2
:10399000770B87EF92E10E94E91B4091630A5091F7
:1039A000640A052E000C660B770B83EA92E10E94F5
:1039B000E91B8091630A9091640A019731F466EFE4
:1039C00073E083EA92E10E940F1B8091650A909157
:1039D000660A82309105C1F044F4009791F06BE0E3
:1039E00074E0019749F00C94C9058330910579F092
:1039F0006FE174E00497B9F78BE892E10E940F1B26
:103A0000F2CF64E074E0F8CF64E174E0F5CF68E1F0
:103A100074E0F2CF4091620A50E070E060E08FE520
:103A200095E10E94E91B0C94C9058091620A8111FD
:103A30000FC081E08093620A41E050E060E070E0F6
:103A40008FE595E10E94E91B0E945C060C94C90574
:103A50001092620A40E050E0BA01F2CF8FE595E1A2
:103A60000C94151DEF92FF920F931F93CF93DF934A
:103A7000CDB7DEB72E970FB6F894DEBF0FBECDBF21
:103A80007C018B0168E274E0CE0109960E941A075E
:103A9000F70162817381CE0109960E9418476DE299
:103AA00074E0CE0109960E94184789859A850E9484
:103AB0007819CE01019628E0FC0111922A95E9F7C8
:103AC00044E650E060E070E040938F0C5093900C1F
:103AD0006093910C7093920C68E070E00E94264114
:103AE000089709F053C08981813709F04FC08E8152
:103AF0008F3F09F04BC08F818F3F09F047C0888509
:103B00008F3F09F043C02D818C8190E0B0E0A0E0B0
:103B1000DC0199278827B22B2A81822B4B8150E028
:103B2000542F4427052E000C660B770B842B952B06
:103B3000A62BB72BF80180839183A283B38362E322
:103B400074E088E29DE00E943A07F801608171818B
:103B5000828193814AE00E94D54462E474E088E265
:103B60009DE00E942B0711E0CE0109960E940D48AE
:103B7000812F2E960FB6F894DEBF0FBECDBFDF911A
:103B8000CF911F910F91FF90EF90089585E494E0FD
:103B90000E94134110E0E8CFCF93DF9300D01F9233
:103BA000CDB7DEB719821A821B821C82BE016F5FFD
:103BB0007F4F87EC92E10E94321D49815A816B81CF
:103BC0007C818FE492E10E94E91B89819A81909324
:103BD0006303809362030E945C060E94C9050F90F4
:103BE0000F900F900F90DF91CF910895CF92DF92B9
:103BF000EF92FF92CF93DF9300D01F92CDB7DEB745
:103C000019821A821B821C82BE016F5F7F4F83ED77
:103C100092E10E94321D49815A816B817C8187E645
:103C200092E10E94E91B69817A818B819C810E94CB
:103C3000ED5D6093690370936A0380936B039093C7
:103C40006C030E945C0620E030E048EC52E4609196
:103C5000690370916A0380916B0390916C030E94D9
:103C6000AC5F6B017C0120912202309123024091D4
:103C700024025091250260E070E086E994E40E94FD
:103C8000AC5F9B01AC01C701B6010E944E5E609320
:103C9000830A7093840A8093850A9093860A0E940F
:103CA000C9050F900F900F900F90DF91CF91FF906B
:103CB000EF90DF90CF9008950F931F93CF93DF93F2
:103CC00000D01F92CDB7DEB719821A821B821C82E8
:103CD000BE016F5F7F4F8FED92E10E94321D4981DF
:103CE0005A816B817C8183E792E10E94E91B998173
:103CF000492F8A81909366038093670360916403E0
:103D000070916503072E000C880B990B00E010E002
:103D100098010E944B4464EF71E080E090E00E94C3
:103D200061080E945A0A0E945C060F900F900F9043
:103D30000F90DF91CF911F910F9108950F931F93D3
:103D4000CF93DF9300D01F92CDB7DEB719821A82CE
:103D50001B821C82BE016F5F7F4F8BEE92E10E943F
:103D6000321D69817A817093650360936403072E25
:103D7000000C880B990B00E010E09801409166035D
:103D80000E944B4464EF71E080E090E00E94610883
:103D90000E945A0A0E945C060F900F900F900F909D
:103DA000DF91CF911F910F910895CF93DF9300D0B2
:103DB0001F92CDB7DEB7BE016F5F7F4F83EA92E1FE
:103DC0000E94321D89819A81AB81BC810097A10537
:103DD000B10569F41092640A1092630A0E94C90541
:103DE0000F900F900F900F90DF91CF910895019752
:103DF000A105B10599F781E090E09093640A809362
:103E0000630AECCFCF93DF9300D01F92CDB7DEB71C
:103E1000BE016F5F7F4F8FEA92E10E94321D898160
:103E20009A81AB81BC8181309105A105B10559F41E
:103E3000109200020E94C9050F900F900F900F90F2
:103E4000DF91CF910895892B8A2B8B2B99F781E0F5
:103E500080930002EFCF8F929F92AF92BF92EF922A
:103E6000FF920F931F93CF93DF93CDB7DEB7609789
:103E70000FB6F894DEBF0FBECDBF7C014A018E01A4
:103E80000F5F1F4F8AE0F80111928A95E9F764E409
:103E900074E0CE010B960E941A074AE0B801C401F3
:103EA0000E943F5CF70162817381CE010B960E94F4
:103EB000184767E574E0CE010B960E941847B801D9
:103EC000CE010B960E9418478B859C850E9478191D
:103ED00064E474E0CE010B960E94C0476DE574E087
:103EE000CE010B960E941847F70162817381CE01C3
:103EF0000B960E9418478B859C850E9478190E941A
:103F00007341182FCE010B960E940D48812F6096A9
:103F10000FB6F894DEBF0FBECDBFDF91CF911F91DA
:103F20000F91FF90EF90BF90AF909F908F9008956A
:103F30008F929F92AF92BF92EF92FF920F931F9337
:103F4000CF93DF93CDB7DEB760970FB6F894DEBF9F
:103F50000FBECDBF7C014A018E010F5F1F4F8AE06B
:103F6000F80111928A95E9F764E474E0CE010B96AA
:103F70000E941A074AE0B801C4010E943F5CF701A1
:103F800062817381CE010B960E94184762E674E04D
:103F9000CE010B960E941847B801CE010B960E94E5
:103FA00018478B859C850E94781964E474E0CE01E3
:103FB0000B960E94C0476DE574E0CE010B960E94FF
:103FC0001847F70162817381CE010B960E94184752
:103FD0008B859C850E9478190E947341182FCE0111
:103FE0000B960E940D48812F60960FB6F894DEBFA5
:103FF0000FBECDBFDF91CF911F910F91FF90EF903A
:10400000BF90AF909F908F9008954FEF5FEF60E06B
:1040100070E087E893E10E94981F4FEF5FEF60E048
:1040200070E087E893E10E942B1F4FEF5FEF60E0A5
:1040300070E08BE493E10E94981F4FEF5FEF60E028
:1040400070E08BE493E10E942B1F10926D0A08959B
:1040500040E058EF60E070E087E893E10E94981F2D
:1040600040E058EF60E070E087E893E10E942B1F8A
:1040700040E058EF60E070E08BE493E10E94981F0D
:1040800040E058EF60E070E08BE493E10E942B1F6A
:1040900081E080936D0A08954FEF5FEF60E070E07C
:1040A00083E993E10E94981F4FEF5FEF60E070E0BB
:1040B00083E993E10E942B1F4FEF5FEF60E070E018
:1040C00087E593E10E94981F4FEF5FEF60E070E09B
:1040D00087E593E10E942B1F10926C0A08954FEF21
:1040E0005FEF60E070E087EB93E10E94981F4FEF75
:1040F0005FEF60E070E087EB93E10E942B1F4FEFD2
:104100005FEF60E070E08BE793E10E94981F4FEF54
:104110005FEF60E070E08BE793E10E942B1F10924D
:104120006B0A08954FEF5FEF60E070E087EB93E17B
:104130000E94981F40E058EF60E070E087EB93E149
:104140000E942B1F4FEF5FEF60E070E08BE793E181
:104150000E94981F40E058EF60E070E08BE793E129
:104160000E942B1F81E080936B0A089581E0809369
:104170006E0A0E941B450E9492201092680A1092BB
:10418000670A64E474E086E29EE00C94C04740E075
:1041900058EF60E070E087EB93E10E94981F40E0E9
:1041A00058EF60E070E087EB93E10E942B1F40E046
:1041B00058EF60E070E08BE793E10E94981F40E0C9
:1041C00058EF60E070E08BE793E10E942B1F81E0E5
:1041D00080936B0A089580916C0A81113BC0809195
:1041E0006B0A81110E948C058091590A811104C0CB
:1041F00080916D0A882391F164E474E080E29EE08E
:104200000E94034781112AC00E94940840E058EFA1
:1042100060E070E083E993E10E94981F40E058EF6E
:1042200060E070E083E993E10E942B1F40E058EFCB
:1042300060E070E087E593E10E94981F40E058EF4E
:1042400060E070E087E593E10E942B1F81E080939E
:104250006C0A08950E944C200C94C905089587EAC1
:1042600095E10C94EB204FEF57E860E070E087E4B5
:1042700095E10E94981F4FEF57E860E070E08FE2F1
:1042800095E10E94981F4FEF57E860E070E083E2ED
:1042900095E10E94981F4FEF57E860E070E087E1DA
:1042A00095E10E94981F40EF5FEF60E070E08BE0C7
:1042B00095E10E94981F0C94C9054FEF57E860E004
:1042C00070E087E495E10E94981F4FEF57E860E0A7
:1042D00070E08FE295E10E94981F4FEF57E860E091
:1042E00070E083E295E10E94981F40EF5FEF60E08D
:1042F00070E087E195E10E94981F4FEF57E860E07A
:1043000070E08BE095E10E94981F0C94C9054FEF77
:1043100057E860E070E087E495E10E94981F4FEF56
:1043200057E860E070E08FE295E10E94981F40EF4F
:104330005FEF60E070E083E295E10E94981F4FEF2D
:1043400057E860E070E087E195E10E94981F4FEF29
:1043500057E860E070E08BE095E10E94981F0C94B4
:10436000C9054FEF57E860E070E087E495E10E94EF
:10437000981F40EF5FEF60E070E08FE295E10E94F0
:10438000981F4FEF57E860E070E083E295E10E94EC
:10439000981F4FEF57E860E070E087E195E10E94D9
:1043A000981F4FEF57E860E070E08BE095E10E94C6
:1043B000981F0C94C90540EF5FEF60E070E087E460
:1043C00095E10E94981F4FEF57E860E070E08FE2A0
:1043D00095E10E94981F4FEF57E860E070E083E29C
:1043E00095E10E94981F4FEF57E860E070E087E189
:1043F00095E10E94981F4FEF57E860E070E08BE076
:1044000095E10E94981F0E94C90583EE95E10C94E6
:10441000EF1940EF5FEF60E070E087E495E10E9404
:10442000981F4FEF57E860E070E08FE295E10E943F
:10443000981F4FEF57E860E070E083E295E10E943B
:10444000981F4FEF57E860E070E087E195E10E9428
:10445000981F4FEF57E860E070E08BE095E10E9415
:10446000981F0C94C905CF93DF9300D000D0CDB72F
:10447000DEB780918A0A811102C00E94C9050E949C
:10448000920A64E474E086E29EE00E94C0471092C3
:10449000680A1092670A10925D0A10925E0A1092E2
:1044A0005F0A1092600A8091590A882311F14FEF38
:1044B0005FEF60E070E08BEA93E10E94981F4FEF9E
:1044C0005FEF60E070E08BEA93E10E942B1F4FEFFB
:1044D0005FEF60E070E08FE693E10E94981F4FEF7E
:1044E0005FEF60E070E08FE693E10E942B1F109277
:1044F000590A8091690A882311F14FEF5FEF60E05C
:1045000070E08FE993E10E94981F4FEF5FEF60E04A
:1045100070E08FE993E10E942B1F4FEF5FEF60E0A7
:1045200070E083E693E10E94981F4FEF5FEF60E039
:1045300070E083E693E10E942B1F1092690A80913C
:104540006C0A81110E944C2080916D0A81110E9499
:1045500005200E94C72068E674E0CE0101960E9403
:104560001A07CE0101960E94521BCE0101960E94AD
:104570000D486FED79E0CE0101960E941A07CE0139
:1045800001960E94AC1BCE0101960E940D488091BD
:1045900000028093580A81E0809300026FED79E079
:1045A000CE0101960E941A07CE0101960E947C1B43
:1045B000CE0101960E940D488091580A8093000216
:1045C00064E474E080E29EE00E94C04760915D0A6E
:1045D00070915E0A80915F0A9091600A0E94256046
:1045E000AB01BC0183EC93E10E94E91B60915D0A81
:1045F00070915E0A80915F0A9091600A0E94256026
:10460000AB01BC0187E49EE00E94E91B0E945C06AE
:104610000E94581A1092890A10926A0A26960FB6BA
:10462000F894DEBF0FBECDBFDF91CF9108958BE62A
:1046300095E10C94332267E172E087E293E10E94F6
:104640000F1B8BE695E10C9433221092680A1092AE
:10465000670A67E172E083E393E10E940F1B6091B8
:1046600022027091230280912402909125020E94DF
:104670002560AB01BC0187EB94E10E94E91B6091CE
:1046800022027091230280912402909125020E94BF
:104690002560AB01BC0187EE93E10E94E91B80918C
:1046A000610A882339F040E050E0BA018BED93E1D4
:1046B0000E942B1F4091010250910202052E000C16
:1046C000660B770B8BED93E10E94E91B60911E0254
:1046D00070911F0280912002909121020E9425601A
:1046E000AB01BC018FEC93E10E94E91B60915D0A74
:1046F00070915E0A80915F0A9091600A0E94256025
:10470000AB01BC0183EC93E10E94E91B4091620A7A
:1047100050E070E060E08FE595E10E94E91B809138
:10472000680369EE73E0882311F06BEE73E08FE2AB
:1047300094E10E940F1B8BE695E10C94332287E1F4
:1047400094E10C94252387E194E10C94252387E1DF
:1047500094E10C94252387E194E10C942523CF93D5
:10476000DF9300D01F92CDB7DEB719821A821B8269
:104770001C82BE016F5F7F4F87EF92E10E94321D66
:1047800089819A81AB81BC8182309105A105B105F7
:10479000E1F1A8F40097A105B10519F10197A10570
:1047A000B10551F10E94C9058BE695E10E943322C3
:1047B0000F900F900F900F90DF91CF91089583305D
:1047C0009105A105B10551F10497A105B10551F776
:1047D00084E090E09093660A8093650A6CE674E04A
:1047E00006C01092660A1092650A64E074E08BE8D5
:1047F00092E10E940F1BD6CF81E090E09093660A71
:104800008093650A6BE074E0F2CF82E090E09093D1
:10481000660A8093650A64E174E0E9CF83E090E082
:104820009093660A8093650A68E174E0E0CF8F9206
:104830009F92AF92BF92CF92DF92EF92FF928091C0
:10484000670A9091680A0197029708F045C0809125
:10485000260E9091270EC12CD12C7601009721F0C5
:104860000E94F45B6B017C01C0922202D092230271
:10487000E0922402F0922502C0921E02D0921F0202
:10488000E0922002F092210220E030E048EC52E475
:104890006091690370916A0380916B0390916C033E
:1048A0000E94AC5F4B015C01A701960160E070E0E3
:1048B00086E994E40E94AC5F9B01AC01C501B401A0
:1048C0000E944E5E6093830A7093840A8093850AE7
:1048D0009093860A0E945C068091670A9091680A0C
:1048E000892B31F480916E0A811102C00E948C05DF
:1048F00060912202709123028091240290912502FE
:104900000E942560AB01BC0187EB94E10E94E91B8A
:1049100060912202709123028091240290912502DD
:104920000E942560AB01BC0187EE93E10E94E91B68
:1049300060911E0270911F028091200290912102CD
:104940000E942560AB01BC018FEC93E10E94E91B42
:104950008BE695E1FF90EF90DF90CF90BF90AF9006
:104960009F908F900C94332280916E0A81115CC0CD
:104970008091670A9091680A019709F03BC081E035
:104980008093610A0E94E3457093020260930102E2
:10499000AB01770F660B770B8BED93E10E94E91B60
:1049A00040E050E0BA018BED93E10E942B1FE091B3
:1049B0000102F0910202EA30F105E0F48827EC519F
:1049C000FB4D8F4F0C947B60EE2418251D2522256E
:1049D00027252C25312536253B2540258DEC9CECC3
:1049E000ACECBEEB8093540A9093550AA093560A00
:1049F000B093570A8091670A9091680A892B51F405
:104A00001092610A40EE5FEF60E070E08BED93E1A1
:104A10000E942B1F8091670A9091680A029714F0F8
:104A20000E948C050E945C068BE695E10C94332273
:104A30008AE999E9A9E9BEEBD5CF8DEC9CECACE411
:104A4000BEEBD0CF8DEC9CECACECBDEBCBCF8DECCA
:104A50009CECACE4BDEBC6CF8DEC9CECACE4BDE3D0
:104A6000C1CF8DEC9CECACECBDE3BCCF8DEC9CECF1
:104A7000ACE4BEE3B7CF8AE999E9A9E9BEE3B2CFD6
:104A80008DEC9CECACECBEE3ADCF4F925F926F929D
:104A90007F928F929F92AF92BF92CF92DF92EF92CE
:104AA000FF92CF93DF9300D01F92CDB7DEB7C090B7
:104AB0002202D0902302E0902402F09025028091FF
:104AC0006E0A81111AC00E94E3450E94EF5D609357
:104AD0001E0270931F028093200290932102809106
:104AE000670A9091680A892B41F4C0921E02D09205
:104AF0001F02E0922002F092210240901E0250908C
:104B00001F02609020027090210220E030E048EC0B
:104B100052E46091690370916A0380916B039091F4
:104B20006C030E94AC5F4B015C0120E030E046E981
:104B300053E4C701B6010E944E5E69837A838B837A
:104B40009C8320E030E04AE353E4C301B2010E94B9
:104B50004E5E9B01AC0169817A818B819C810E94B0
:104B60003F5F9B01AC01C501B4010E944E5E4B0149
:104B70005C0120E030E04EEB52E4C701B6010E9438
:104B80004E5EA30192010E944E5E9B01AC01C501E5
:104B9000B4010E94AC5F20E030E04AE754E40E9498
:104BA0004E5E60937F0A7093800A8093810A90938F
:104BB000820A20E030E0A9010E94546087FD28C0ED
:104BC0000E945C0660911E0270911F02809120027B
:104BD000909121020E942560AB01BC018FEC93E112
:104BE0000E94E91B8BE695E10F900F900F900F90BC
:104BF000DF91CF91FF90EF90DF90CF90BF90AF907B
:104C00009F908F907F906F905F904F900C94332285
:104C10000E948C05E7CF80916E0A882321F08BE6F5
:104C200095E10C94332280916B0A882349F10E940C
:104C30006F2040E058EF60E070E08BEA93E10E9463
:104C4000981F40E058EF60E070E08BEA93E10E942B
:104C50002B1F40E058EF60E070E08FE693E10E9488
:104C6000981F40E058EF60E070E08FE693E10E940B
:104C70002B1F81E08093590A8093890A0C945C066B
:104C80001092890A8BE695E10E943322F7CF8BECD4
:104C900095E10C940B26CF93DF9300D000D0CDB7D5
:104CA000DEB780916C0A882359F164E474E080E2F5
:104CB0009EE00E94C04764E474E0CE0101960E9429
:104CC0001A07CE0101960E94AC1BCE0101960E94EC
:104CD0000D4864E474E0CE0101960E941A07CE01EB
:104CE00001960E947C1BCE0101960E940D482696DB
:104CF0000FB6F894DEBF0FBECDBFDF91CF91089500
:104D000080916E0A811160C00E94C9058091670A76
:104D10009091680A8130910509F446C0823091056E
:104D200009F442C0892B09F04CC010925D0A109220
:104D30005E0A10925F0A1092600A64E474E086E2F0
:104D40009EE00E94C0471092680A1092670A609124
:104D50005D0A70915E0A80915F0A9091600A0E94DC
:104D60002560AB01BC0183EC93E10E94E91B6091DB
:104D70005D0A70915E0A80915F0A9091600A0E94BC
:104D80002560AB01BC0187E49EE00E94E91B0E9404
:104D90005C0668E674E0CE0101960E941A07CE0117
:104DA00001960E94521B9FCF0E94E3450E94EF5D37
:104DB00060935D0A70935E0A80935F0A9093600A25
:104DC000BCCF0E948C05E5CF8BE695E10E94332293
:104DD0008ECF8FEB95E10C944B26CF93DF9300D0D1
:104DE00000D0CDB7DEB760E27EE0CE0101960E9432
:104DF000110765E774E0CE0101960E947647BC0179
:104E000080E29EE00E94F647CE0101960E940D4886
:104E100026960FB6F894DEBF0FBECDBFDF91CF91BF
:104E200008950C94ED26CF93DF9300D000D0CDB73A
:104E3000DEB760E27EE0CE0101960E94110768E7CE
:104E400074E0CE0101960E947647BC0180E29EE0AC
:104E50000E94F647CE0101960E940D4826960FB695
:104E6000F894DEBF0FBECDBFDF91CF910895CF93F1
:104E7000DF9300D000D0CDB7DEB760E27EE0CE0198
:104E800001960E9411076CE774E0CE0101960E9422
:104E90007647BC0180E29EE00E94F647CE01019673
:104EA0000E940D4826960FB6F894DEBF0FBECDBF08
:104EB000DF91CF910895CF93DF9300D000D0CDB78D
:104EC000DEB78091690A60E27EE08823E1F0CE01DE
:104ED00001960E94110760E874E0CE0101960E94DD
:104EE0007647BC0180E29EE00E94F647CE01019623
:104EF0000E940D4826960FB6F894DEBF0FBECDBFB8
:104F0000DF91CF910895CE0101960E94110767E1CC
:104F100072E0E3CFCF93DF9300D000D0CDB7DEB700
:104F200060E27EE0CE0101960E94110762E874E023
:104F3000CE0101960E947647BC0180E29EE00E946D
:104F4000F647CE0101960E940D4826960FB6F894BA
:104F5000DEBF0FBECDBFDF91CF910895CF93DF931A
:104F600000D000D0CDB7DEB760E27EE0CE01019682
:104F70000E94110765E874E0CE0101960E94764711
:104F8000BC0180E29EE00E94F647CE0101960E949D
:104F90000D4826960FB6F894DEBF0FBECDBFDF9149
:104FA000CF910895CF93DF9300D000D0CDB7DEB777
:104FB00060E27EE0CE0101960E94110768E874E08D
:104FC000CE0101960E947647BC0180E29EE00E94DD
:104FD000F647CE0101960E940D4826960FB6F8942A
:104FE000DEBF0FBECDBFDF91CF910895CF93DF938A
:104FF00000D000D0CDB7DEB760E27EE0CE010196F2
:105000000E9411076AE874E0CE0101960E9476477B
:10501000BC0180E29EE00E94F647CE0101960E940C
:105020000D4826960FB6F894DEBF0FBECDBFDF91B8
:10503000CF910895CF93DF9300D000D0CDB7DEB7E6
:1050400060E27EE0CE0101960E9411076CE874E0F8
:10505000CE0101960E947647BC0180E29EE00E944C
:10506000F647CE0101960E940D4826960FB6F89499
:10507000DEBF0FBECDBFDF91CF910895CF93DF93F9
:1050800000D000D0CDB7DEB760E27EE0CE01019661
:105090000E9411076DEB74E0CE0101960E947647E5
:1050A000BC0180E29EE00E94F647CE0101960E947C
:1050B0000D4826960FB6F894DEBF0FBECDBFDF9128
:1050C000CF910895CF93DF9300D000D0CDB7DEB756
:1050D00060E27EE0CE0101960E9411076EE874E066
:1050E000CE0101960E947647BC0180E29EE00E94BC
:1050F000F647CE0101960E940D4826960FB6F89409
:10510000DEBF0FBECDBFDF91CF910895CF93DF9368
:1051100000D000D0CDB7DEB760E27EE0CE010196D0
:105120000E94110761E974E0CE0101960E94764762
:10513000BC0180E29EE00E94F647CE0101960E94EB
:105140000D4826960FB6F894DEBF0FBECDBFDF9197
:10515000CF910895CF93DF9300D000D0CDB7DEB7C5
:1051600060E27EE0CE0101960E94110766E974E0DC
:10517000CE0101960E947647BC0180E29EE00E942B
:10518000F647CE0101960E940D4826960FB6F89478
:10519000DEBF0FBECDBFDF91CF910895CF93DF93D8
:1051A00000D000D0CDB7DEB760E27EE0CE01019640
:1051B0000E9411076BE974E0CE0101960E947647C8
:1051C000BC0180E29EE00E94F647CE0101960E945B
:1051D0000D4826960FB6F894DEBF0FBECDBFDF9107
:1051E000CF910895CF93DF9300D000D0CDB7DEB735
:1051F00060E27EE0CE0101960E94110760EA74E051
:10520000CE0101960E947647BC0180E29EE00E949A
:10521000F647CE0101960E940D4826960FB6F894E7
:10522000DEBF0FBECDBFDF91CF910895CF93DF9347
:1052300000D000D0CDB7DEB760E27EE0CE010196AF
:105240000E94110763EA74E0CE0101960E9476473E
:10525000BC0180E29EE00E94F647CE0101960E94CA
:105260000D4826960FB6F894DEBF0FBECDBFDF9176
:10527000CF910895CF93DF9300D000D0CDB7DEB7A4
:1052800060E27EE0CE0101960E94110767EA74E0B9
:10529000CE0101960E947647BC0180E29EE00E940A
:1052A000F647CE0101960E940D4826960FB6F89457
:1052B000DEBF0FBECDBFDF91CF910895CF93DF93B7
:1052C00000D000D0CDB7DEB760E27EE0CE0101961F
:1052D0000E9411076BEA74E0CE0101960E947647A6
:1052E000BC0180E29EE00E94F647CE0101960E943A
:1052F0000D4826960FB6F894DEBF0FBECDBFDF91E6
:10530000CF910895CF93DF9300D000D0CDB7DEB713
:1053100060E27EE0CE0101960E94110760EB74E02E
:10532000CE0101960E947647BC0180E29EE00E9479
:10533000F647CE0101960E940D4826960FB6F894C6
:10534000DEBF0FBECDBFDF91CF910895CF93DF9326
:1053500000D000D0CDB7DEB760E27EE0CE0101968E
:105360000E94110764EF73E0CE0101960E94764718
:10537000BC0180E29EE00E94F647CE0101960E94A9
:105380000D4826960FB6F894DEBF0FBECDBFDF9155
:10539000CF910895CF93DF9300D000D0CDB7DEB783
:1053A00060E27EE0CE0101960E9411076FED79E088
:1053B000CE0101960E947647BC0180E29EE00E94E9
:1053C000F647CE0101960E940D4826960FB6F89436
:1053D000DEBF0FBECDBFDF91CF910895CF93DF9396
:1053E00000D000D0CDB7DEB760E27EE0CE010196FE
:1053F0000E9411076BEB74E0CE0101960E94764784
:10540000BC0180E29EE00E94F647CE0101960E9418
:105410000D4826960FB6F894DEBF0FBECDBFDF91C4
:10542000CF910895CF93DF9300D000D0CDB7DEB7F2
:1054300060E27EE0CE0101960E94110764EA79E005
:10544000CE0101960E947647BC0180E29EE00E9458
:10545000F647CE0101960E940D4826960FB6F894A5
:10546000DEBF0FBECDBFDF91CF910895CF93DF9305
:1054700000D000D0CDB7DEB760E27EE0CE0101966D
:105480000E9411076AE179E0CE0101960E947647F9
:10549000BC0180E29EE00E94F647CE0101960E9488
:1054A0000D4826960FB6F894DEBF0FBECDBFDF9134
:1054B000CF910895CF93DF9300D000D0CDB7DEB762
:1054C00060E27EE0CE0101960E94110766E179E07C
:1054D000CE0101960E947647BC0180E29EE00E94C8
:1054E000F647CE0101960E940D4826960FB6F89415
:1054F000DEBF0FBECDBFDF91CF910895CF93DF9375
:1055000000D000D0CDB7DEB760E27EE0CE010196DC
:105510000E94110762E179E0CE0101960E94764770
:10552000BC0180E29EE00E94F647CE0101960E94F7
:105530000D4826960FB6F894DEBF0FBECDBFDF91A3
:10554000CF910895CF93DF9300D000D0CDB7DEB7D1
:1055500060E27EE0CE0101960E9411076EE079E0E4
:10556000CE0101960E947647BC0180E29EE00E9437
:10557000F647CE0101960E940D4826960FB6F89484
:10558000DEBF0FBECDBFDF91CF910895CF93DF93E4
:1055900000D000D0CDB7DEB760E27EE0CE0101964C
:1055A0000E9411076AE079E0CE0101960E947647D9
:1055B000BC0180E29EE00E94F647CE0101960E9467
:1055C0000D4826960FB6F894DEBF0FBECDBFDF9113
:1055D000CF910895CF93DF9300D000D0CDB7DEB741
:1055E00060E27EE0CE0101960E94110766E079E05C
:1055F000CE0101960E947647BC0180E29EE00E94A7
:10560000F647CE0101960E940D4826960FB6F894F3
:10561000DEBF0FBECDBFDF91CF910895CF93DF9353
:1056200000D000D0CDB7DEB760E27EE0CE010196BB
:105630000E94110762E079E0CE0101960E94764750
:10564000BC0180E29EE00E94F647CE0101960E94D6
:105650000D4826960FB6F894DEBF0FBECDBFDF9182
:10566000CF910895CF93DF9300D000D0CDB7DEB7B0
:1056700060E27EE0CE0101960E9411076DEC75E0BC
:10568000CE0101960E947647BC0180E29EE00E9416
:10569000F647CE0101960E940D4826960FB6F89463
:1056A000DEBF0FBECDBFDF91CF910895CF93DF93C3
:1056B00000D000D0CDB7DEB760E27EE0CE0101962B
:1056C0000E94110765E176E0CE0101960E947647BF
:1056D000BC0180E29EE00E94F647CE0101960E9446
:1056E0000D4826960FB6F894DEBF0FBECDBFDF91F2
:1056F000CF910895CF93DF9300D000D0CDB7DEB720
:1057000060E27EE0CE0101960E94110765E979E032
:10571000CE0101960E947647BC0180E29EE00E9485
:10572000F647CE0101960E940D4826960FB6F894D2
:10573000DEBF0FBECDBFDF91CF910895CF93DF9332
:1057400000D000D0CDB7DEB760E27EE0CE0101969A
:105750000E9411076FEB74E0CE0101960E9476471C
:10576000BC0180E29EE00E94F647CE0101960E94B5
:105770000D4826960FB6F894DEBF0FBECDBFDF9161
:10578000CF910895CF93DF9300D000D0CDB7DEB78F
:1057900060E27EE0CE0101960E94110761EC74E0A8
:1057A000CE0101960E947647BC0180E29EE00E94F5
:1057B000F647CE0101960E940D4826960FB6F89442
:1057C000DEBF0FBECDBFDF91CF910895CF93DF93A2
:1057D00000D000D0CDB7DEB760E27EE0CE0101960A
:1057E0000E94110763EC74E0CE0101960E94764797
:1057F000BC0180E29EE00E94F647CE0101960E9425
:105800000D4826960FB6F894DEBF0FBECDBFDF91D0
:10581000CF910895CF93DF9300D000D0CDB7DEB7FE
:1058200060E27EE0CE0101960E94110767E275E01A
:10583000CE0101960E947647BC0180E29EE00E9464
:10584000F647CE0101960E940D4826960FB6F894B1
:10585000DEBF0FBECDBFDF91CF910895CF93DF9311
:1058600000D000D0CDB7DEB760E27EE0CE01019679
:105870000E94110767ED77E0CE0101960E947647FE
:10588000BC0180E29EE00E94F647CE0101960E9494
:105890000D4826960FB6F894DEBF0FBECDBFDF9140
:1058A000CF910895CF93DF9300D000D0CDB7DEB76E
:1058B00060E27EE0CE0101960E9411076CE976E07D
:1058C000CE0101960E947647BC0180E29EE00E94D4
:1058D000F647CE0101960E940D4826960FB6F89421
:1058E000DEBF0FBECDBFDF91CF910895CF93DF9381
:1058F00000D000D0CDB7DEB760E27EE0CE010196E9
:105900000E94110760EB77E0CE0101960E94764776
:10591000BC0180E29EE00E94F647CE0101960E9403
:105920000D4826960FB6F894DEBF0FBECDBFDF91AF
:10593000CF910895CF93DF9300D000D0CDB7DEB7DD
:1059400060E27EE0CE0101960E94110765EC74E0F2
:10595000CE0101960E947647BC0180E29EE00E9443
:10596000F647CE0101960E940D4826960FB6F89490
:10597000DEBF0FBECDBFDF91CF910895CF93DF93F0
:1059800000D000D0CDB7DEB760E27EE0CE01019658
:105990000E94110766E479E0CE0101960E947647E5
:1059A000BC0180E29EE00E94F647CE0101960E9473
:1059B0000D4826960FB6F894DEBF0FBECDBFDF911F
:1059C000CF910895CF93DF9300D000D0CDB7DEB74D
:1059D00060E27EE0CE0101960E9411076EEA74E05B
:1059E000CE0101960E947647BC0180E29EE00E94B3
:1059F000F647CE0101960E940D4826960FB6F89400
:105A0000DEBF0FBECDBFDF91CF910895CF93DF935F
:105A100000D000D0CDB7DEB760E27EE0CE010196C7
:105A20000E94110760E374E0CE0101960E94764760
:105A3000BC0180E29EE00E94F647CE0101960E94E2
:105A40000D4826960FB6F894DEBF0FBECDBFDF918E
:105A5000CF910895CF93DF9300D000D0CDB7DEB7BC
:105A600060E27EE0CE0101960E94110769E075E0D8
:105A7000CE0101960E947647BC0180E29EE00E9422
:105A8000F647CE0101960E940D4826960FB6F8946F
:105A9000DEBF0FBECDBFDF91CF910895CF93DF93CF
:105AA00000D000D0CDB7DEB760E27EE0CE01019637
:105AB0000E94110767EC74E0CE0101960E947647C0
:105AC000BC0180E29EE00E94F647CE0101960E9452
:105AD0000D4826960FB6F894DEBF0FBECDBFDF91FE
